{
	"data": {
		"bytecode": {
			"linkReferences": {},
			"object": "60806040523480156200001157600080fd5b50620000276000801b336200006260201b60201c565b6200005c7f67bee59ee70ce8db2640fefb72d33f9b54ee798d412840c7c6d3e247987eb2486000801b6200007860201b60201c565b6200025d565b620000748282620000db60201b60201c565b5050565b60006200008b83620001cc60201b60201c565b905081600080858152602001908152602001600020600101819055508181847fbd79b86ffe0ab8e8776151514217cd7cacd52c909f66475c3af44e129f0b00ff60405160405180910390a4505050565b620000ed8282620001eb60201b60201c565b620001c857600160008084815260200190815260200160002060000160008373ffffffffffffffffffffffffffffffffffffffff1673ffffffffffffffffffffffffffffffffffffffff16815260200190815260200160002060006101000a81548160ff0219169083151502179055506200016d6200025560201b60201c565b73ffffffffffffffffffffffffffffffffffffffff168173ffffffffffffffffffffffffffffffffffffffff16837f2f8788117e7eff1d82e926ec794901d17c78024a50270940304540a733656f0d60405160405180910390a45b5050565b6000806000838152602001908152602001600020600101549050919050565b600080600084815260200190815260200160002060000160008373ffffffffffffffffffffffffffffffffffffffff1673ffffffffffffffffffffffffffffffffffffffff16815260200190815260200160002060009054906101000a900460ff16905092915050565b600033905090565b614f53806200026d6000396000f3fe608060405234801561001057600080fd5b506004361061018e5760003560e01c80639cf0f0b7116100de578063ca8836d211610097578063d547741f11610071578063d547741f146104ac578063ec39b826146104c8578063f3fa1482146104e6578063fc3f90e8146105165761018e565b8063ca8836d21461042a578063ce630fd61461045b578063cf6f4007146104775761018e565b80639cf0f0b7146103525780639fb63f0f1461036e5780639fc89aed146103a0578063a1c6a78e146103d4578063a217fddf146103f0578063b5e967fb1461040e5761018e565b806343a96b731161014b57806366ab1d521161012557806366ab1d52146102ce5780636c7b8380146102ea5780638f902fab1461030657806391d14854146103225761018e565b806343a96b73146102655780635aac39e71461028157806366288ce8146102b25761018e565b806301ffc9a71461019357806318fd3e10146101c3578063248a9ca3146101e15780632f2ff15d1461021157806336568abe1461022d5780633ff3a80c14610249575b600080fd5b6101ad60048036038101906101a89190613ba3565b610532565b6040516101ba919061436b565b60405180910390f35b6101cb6105ac565b6040516101d89190614386565b60405180910390f35b6101fb60048036038101906101f69190613b36565b6105d0565b6040516102089190614386565b60405180910390f35b61022b60048036038101906102269190613b63565b6105ef565b005b61024760048036038101906102429190613b63565b610610565b005b610263600480360381019061025e9190613bd0565b610693565b005b61027f600480360381019061027a9190613cac565b610bd8565b005b61029b60048036038101906102969190613cac565b610e19565b6040516102a992919061430b565b60405180910390f35b6102cc60048036038101906102c79190613d59565b610f0a565b005b6102e860048036038101906102e39190613d19565b6112c6565b005b61030460048036038101906102ff9190613cac565b611691565b005b610320600480360381019061031b9190613b09565b611d43565b005b61033c60048036038101906103379190613b63565b611d53565b604051610349919061436b565b60405180910390f35b61036c60048036038101906103679190613b09565b611dbd565b005b61038860048036038101906103839190613dee565b611dcd565b60405161039793929190614334565b60405180910390f35b6103ba60048036038101906103b59190613cd9565b611f4e565b6040516103cb9594939291906142aa565b60405180910390f35b6103ee60048036038101906103e99190613b09565b6122f2565b005b6103f861231f565b6040516104059190614386565b60405180910390f35b61042860048036038101906104239190613b09565b612326565b005b610444600480360381019061043f9190613cac565b612353565b60405161045292919061451e565b60405180910390f35b61047560048036038101906104709190613b09565b612390565b005b610491600480360381019061048c9190613cac565b6123bd565b6040516104a396959493929190614547565b60405180910390f35b6104c660048036038101906104c19190613b63565b6125ed565b005b6104d061260e565b6040516104dd9190614503565b60405180910390f35b61050060048036038101906104fb9190613cac565b612618565b60405161050d9190614503565b60405180910390f35b610530600480360381019061052b9190613b09565b61265c565b005b60007f7965db0b000000000000000000000000000000000000000000000000000000007bffffffffffffffffffffffffffffffffffffffffffffffffffffffff1916827bffffffffffffffffffffffffffffffffffffffffffffffffffffffff191614806105a557506105a48261266c565b5b9050919050565b7f67bee59ee70ce8db2640fefb72d33f9b54ee798d412840c7c6d3e247987eb24881565b6000806000838152602001908152602001600020600101549050919050565b6105f8826105d0565b610601816126d6565b61060b83836126ea565b505050565b6106186127ca565b73ffffffffffffffffffffffffffffffffffffffff168173ffffffffffffffffffffffffffffffffffffffff1614610685576040517f08c379a000000000000000000000000000000000000000000000000000000000815260040161067c906144e3565b60405180910390fd5b61068f82826127d2565b5050565b600115156106a46000801b33611d53565b1515146106e6576040517f08c379a00000000000000000000000000000000000000000000000000000000081526004016106dd906143e3565b60405180910390fd5b600082826040516020016106fb92919061422f565b6040516020818303038152906040529050600061074d826040518060400160405280600181526020017f20000000000000000000000000000000000000000000000000000000000000008152506128b3565b905060006108146107e26107b061077e8560058151811061077157610770614aea565b5b6020026020010151612998565b6107a28660028151811061079557610794614aea565b5b6020026020010151612998565b612a3090919063ffffffff16565b6107d4856001815181106107c7576107c6614aea565b5b6020026020010151612998565b612a3090919063ffffffff16565b610806846000815181106107f9576107f8614aea565b5b6020026020010151612998565b612a3090919063ffffffff16565b905060648114610859576040517f08c379a000000000000000000000000000000000000000000000000000000000815260040161085090614423565b60405180910390fd5b60006108b46108828460048151811061087557610874614aea565b5b6020026020010151612998565b6108a68560038151811061089957610898614aea565b5b6020026020010151612998565b612a3090919063ffffffff16565b9050606481146108f9576040517f08c379a00000000000000000000000000000000000000000000000000000000081526004016108f090614443565b60405180910390fd5b87871161090557600080fd5b6000600560006004548152602001908152602001600020905060045481600001819055508c8c82600a01919061093c929190613822565b508a8a82600b019190610950929190613822565b50428160010181905550600189610967919061486a565b426109729190614672565b8160030181905550600188610987919061486a565b426109929190614672565b8160020181905550338160080160006101000a81548173ffffffffffffffffffffffffffffffffffffffff021916908373ffffffffffffffffffffffffffffffffffffffff16021790555080600401610a05856000815181106109f8576109f7614aea565b5b6020026020010151612998565b908060018154018082558091505060019003906000526020600020016000909190919091505580600401610a5385600181518110610a4657610a45614aea565b5b6020026020010151612998565b908060018154018082558091505060019003906000526020600020016000909190919091505580600401610aa185600281518110610a9457610a93614aea565b5b6020026020010151612998565b908060018154018082558091505060019003906000526020600020016000909190919091505580600401610aef85600381518110610ae257610ae1614aea565b5b6020026020010151612998565b908060018154018082558091505060019003906000526020600020016000909190919091505580600401610b3d85600481518110610b3057610b2f614aea565b5b6020026020010151612998565b908060018154018082558091505060019003906000526020600020016000909190919091505580600401610b8b85600581518110610b7e57610b7d614aea565b5b6020026020010151612998565b908060018154018082558091505060019003906000526020600020016000909190919091505560046000815480929190610bc490614a14565b919050555050505050505050505050505050565b60011515610be96000801b33611d53565b151514610c2b576040517f08c379a0000000000000000000000000000000000000000000000000000000008152600401610c22906143e3565b60405180910390fd5b8042600560008381526020019081526020016000206002015410610c4e57600080fd5b6005600083815260200190815260200160002060080160009054906101000a900473ffffffffffffffffffffffffffffffffffffffff1673ffffffffffffffffffffffffffffffffffffffff163373ffffffffffffffffffffffffffffffffffffffff1614610cbc57600080fd5b600060076000848152602001908152602001600020600081548110610ce457610ce3614aea565b5b90600052602060002001549050600080600190505b6006600086815260200190815260200160002080549050811015610d6e576000600760008781526020019081526020016000208281548110610d3e57610d3d614aea565b5b9060005260206000200154905083811015610d5a578093508192505b508080610d6690614a14565b915050610cf9565b50600660008581526020019081526020016000208181548110610d9457610d93614aea565b5b9060005260206000200160009054906101000a900473ffffffffffffffffffffffffffffffffffffffff166005600086815260200190815260200160002060090160006101000a81548173ffffffffffffffffffffffffffffffffffffffff021916908373ffffffffffffffffffffffffffffffffffffffff16021790555050505050565b6000808242600560008381526020019081526020016000206002015410610e3f57600080fd5b6005600085815260200190815260200160002060090160009054906101000a900473ffffffffffffffffffffffffffffffffffffffff166005600086815260200190815260200160002060060160006005600088815260200190815260200160002060090160009054906101000a900473ffffffffffffffffffffffffffffffffffffffff1673ffffffffffffffffffffffffffffffffffffffff1673ffffffffffffffffffffffffffffffffffffffff168152602001908152602001600020549250925050915091565b60011515610f387f67bee59ee70ce8db2640fefb72d33f9b54ee798d412840c7c6d3e247987eb24833611d53565b151514610f7a576040517f08c379a0000000000000000000000000000000000000000000000000000000008152600401610f71906143e3565b60405180910390fd5b8460056000828152602001908152602001600020600301544210158015610fb65750600560008281526020019081526020016000206002015442105b610ff5576040517f08c379a0000000000000000000000000000000000000000000000000000000008152600401610fec906144c3565b60405180910390fd5b3373ffffffffffffffffffffffffffffffffffffffff166005600088815260200190815260200160002060050160003373ffffffffffffffffffffffffffffffffffffffff1673ffffffffffffffffffffffffffffffffffffffff16815260200190815260200160002060000160009054906101000a900473ffffffffffffffffffffffffffffffffffffffff1673ffffffffffffffffffffffffffffffffffffffff16146110a357600080fd5b6005600087815260200190815260200160002060050160003373ffffffffffffffffffffffffffffffffffffffff1673ffffffffffffffffffffffffffffffffffffffff16815260200190815260200160002060010154858560405160200161110d929190614257565b604051602081830303815290604052805190602001201461112d57600080fd5b600060056000888152602001908152602001600020905085858260050160003373ffffffffffffffffffffffffffffffffffffffff1673ffffffffffffffffffffffffffffffffffffffff1681526020019081526020016000206003019190611197929190613822565b5083838260050160003373ffffffffffffffffffffffffffffffffffffffff1673ffffffffffffffffffffffffffffffffffffffff16815260200190815260200160002060040191906111eb929190613822565b5060018160050160003373ffffffffffffffffffffffffffffffffffffffff1673ffffffffffffffffffffffffffffffffffffffff16815260200190815260200160002060020160006101000a81548160ff02191690831515021790555060066000888152602001908152602001600020339080600181540180825580915050600190039060005260206000200160009091909190916101000a81548173ffffffffffffffffffffffffffffffffffffffff021916908373ffffffffffffffffffffffffffffffffffffffff16021790555050505050505050565b600115156112f47f67bee59ee70ce8db2640fefb72d33f9b54ee798d412840c7c6d3e247987eb24833611d53565b151514611336576040517f08c379a000000000000000000000000000000000000000000000000000000000815260040161132d906143e3565b60405180910390fd5b8160056000828152602001908152602001600020600101544210158015611373575060056000828152602001908152602001600020600301544211155b6113b2576040517f08c379a00000000000000000000000000000000000000000000000000000000081526004016113a990614463565b60405180910390fd5b82600115156005600083815260200190815260200160002060070160003373ffffffffffffffffffffffffffffffffffffffff1673ffffffffffffffffffffffffffffffffffffffff16815260200190815260200160002060009054906101000a900460ff161515141561145b576040517f08c379a0000000000000000000000000000000000000000000000000000000008152600401611452906144a3565b60405180910390fd5b600060056000868152602001908152602001600020905060018160070160003373ffffffffffffffffffffffffffffffffffffffff1673ffffffffffffffffffffffffffffffffffffffff16815260200190815260200160002060006101000a81548160ff0219169083151502179055506040518060c001604052803373ffffffffffffffffffffffffffffffffffffffff168152602001858152602001600015158152602001604051806020016040528060008152508152602001604051806020016040528060008152508152602001600067ffffffffffffffff81111561154757611546614b19565b5b60405190808252806020026020018201604052801561157a57816020015b60608152602001906001900390816115655790505b508152508160050160003373ffffffffffffffffffffffffffffffffffffffff1673ffffffffffffffffffffffffffffffffffffffff16815260200190815260200160002060008201518160000160006101000a81548173ffffffffffffffffffffffffffffffffffffffff021916908373ffffffffffffffffffffffffffffffffffffffff1602179055506020820151816001015560408201518160020160006101000a81548160ff021916908315150217905550606082015181600301908051906020019061164c9291906138a8565b5060808201518160040190805190602001906116699291906138a8565b5060a082015181600501908051906020019061168692919061392e565b509050505050505050565b600115156116a26000801b33611d53565b1515146116e4576040517f08c379a00000000000000000000000000000000000000000000000000000000081526004016116db906143e3565b60405180910390fd5b804260056000838152602001908152602001600020600201541061170757600080fd5b6005600083815260200190815260200160002060080160009054906101000a900473ffffffffffffffffffffffffffffffffffffffff1673ffffffffffffffffffffffffffffffffffffffff163373ffffffffffffffffffffffffffffffffffffffff161461177557600080fd5b600061178083612a8e565b905061178b83612c15565b60005b6006600085815260200190815260200160002080549050811015611d3d5760006006600086815260200190815260200160002082815481106117d3576117d2614aea565b5b9060005260206000200160009054906101000a900473ffffffffffffffffffffffffffffffffffffffff16905060006005600087815260200190815260200160002060050160008373ffffffffffffffffffffffffffffffffffffffff1673ffffffffffffffffffffffffffffffffffffffff1681526020019081526020016000206040518060c00160405290816000820160009054906101000a900473ffffffffffffffffffffffffffffffffffffffff1673ffffffffffffffffffffffffffffffffffffffff1673ffffffffffffffffffffffffffffffffffffffff168152602001600182015481526020016002820160009054906101000a900460ff161515151581526020016003820180546118eb906149e2565b80601f0160208091040260200160405190810160405280929190818152602001828054611917906149e2565b80156119645780601f1061193957610100808354040283529160200191611964565b820191906000526020600020905b81548152906001019060200180831161194757829003601f168201915b5050505050815260200160048201805461197d906149e2565b80601f01602080910402602001604051908101604052809291908181526020018280546119a9906149e2565b80156119f65780601f106119cb576101008083540402835291602001916119f6565b820191906000526020600020905b8154815290600101906020018083116119d957829003601f168201915b5050505050815260200160058201805480602002602001604051908101604052809291908181526020016000905b82821015611ad0578382906000526020600020018054611a43906149e2565b80601f0160208091040260200160405190810160405280929190818152602001828054611a6f906149e2565b8015611abc5780601f10611a9157610100808354040283529160200191611abc565b820191906000526020600020905b815481529060010190602001808311611a9f57829003601f168201915b505050505081526020019060010190611a24565b5050505081525050905060011515816040015115151415611d28576000611b158260a00151600081518110611b0857611b07614aea565b5b6020026020010151612998565b90506000611b4a82611b458560a00151600181518110611b3857611b37614aea565b5b6020026020010151612998565b612fed565b90506000611bb983611bb4611b7d8760a00151600281518110611b7057611b6f614aea565b5b6020026020010151612998565b611ba58860a00151600381518110611b9857611b97614aea565b5b6020026020010151612998565b8b606001518c60800151613055565b612fed565b90506000611bee84611be98760a00151600481518110611bdc57611bdb614aea565b5b6020026020010151612998565b612fed565b90506000611c09858a600001516130c290919063ffffffff16565b9050611c34611c25858b602001516130c290919063ffffffff16565b82612a3090919063ffffffff16565b9050611c5f611c50848b604001516130c290919063ffffffff16565b82612a3090919063ffffffff16565b9050611c8a611c7b838b60a001516130c290919063ffffffff16565b82612a3090919063ffffffff16565b9050600760008c815260200190815260200160002081908060018154018082558091505060019003906000526020600020016000909190919091505580600560008d81526020019081526020016000206006016000886000015173ffffffffffffffffffffffffffffffffffffffff1673ffffffffffffffffffffffffffffffffffffffff1681526020019081526020016000208190555050505050505b50508080611d3590614a14565b91505061178e565b50505050565b611d506000801b826125ed565b50565b600080600084815260200190815260200160002060000160008373ffffffffffffffffffffffffffffffffffffffff1673ffffffffffffffffffffffffffffffffffffffff16815260200190815260200160002060009054906101000a900460ff16905092915050565b611dca6000801b826105ef565b50565b60008060008442600560008381526020019081526020016000206002015410611df557600080fd5b6000600660008881526020019081526020016000208681548110611e1c57611e1b614aea565b5b9060005260206000200160009054906101000a900473ffffffffffffffffffffffffffffffffffffffff1673ffffffffffffffffffffffffffffffffffffffff166005600089815260200190815260200160002060090160009054906101000a900473ffffffffffffffffffffffffffffffffffffffff1673ffffffffffffffffffffffffffffffffffffffff161415611eb95760019050611ebe565b600090505b600660008881526020019081526020016000208681548110611ee357611ee2614aea565b5b9060005260206000200160009054906101000a900473ffffffffffffffffffffffffffffffffffffffff16600760008981526020019081526020016000208781548110611f3357611f32614aea565b5b90600052602060002001548294509450945050509250925092565b60006060806000808642600560008381526020019081526020016000206002015410611f7957600080fd5b6000600560008a815260200190815260200160002060050160008973ffffffffffffffffffffffffffffffffffffffff1673ffffffffffffffffffffffffffffffffffffffff16815260200190815260200160002060000160009054906101000a900473ffffffffffffffffffffffffffffffffffffffff1690506000600560008b815260200190815260200160002060050160008a73ffffffffffffffffffffffffffffffffffffffff1673ffffffffffffffffffffffffffffffffffffffff168152602001908152602001600020600501805480602002602001604051908101604052809291908181526020016000905b8282101561211857838290600052602060002001805461208b906149e2565b80601f01602080910402602001604051908101604052809291908181526020018280546120b7906149e2565b80156121045780601f106120d957610100808354040283529160200191612104565b820191906000526020600020905b8154815290600101906020018083116120e757829003601f168201915b50505050508152602001906001019061206c565b5050505090506000600560008c815260200190815260200160002060050160008b73ffffffffffffffffffffffffffffffffffffffff1673ffffffffffffffffffffffffffffffffffffffff1681526020019081526020016000206004018054612181906149e2565b80601f01602080910402602001604051908101604052809291908181526020018280546121ad906149e2565b80156121fa5780601f106121cf576101008083540402835291602001916121fa565b820191906000526020600020905b8154815290600101906020018083116121dd57829003601f168201915b5050505050905060008a73ffffffffffffffffffffffffffffffffffffffff16600560008e815260200190815260200160002060090160009054906101000a900473ffffffffffffffffffffffffffffffffffffffff1673ffffffffffffffffffffffffffffffffffffffff161415612276576001905061227b565b600090505b6000600560008e815260200190815260200160002060060160008d73ffffffffffffffffffffffffffffffffffffffff1673ffffffffffffffffffffffffffffffffffffffff16815260200190815260200160002054905084848483859a509a509a509a509a505050505050509295509295909350565b61231c7f67bee59ee70ce8db2640fefb72d33f9b54ee798d412840c7c6d3e247987eb248826105ef565b50565b6000801b81565b6123507f67bee59ee70ce8db2640fefb72d33f9b54ee798d412840c7c6d3e247987eb24882610610565b50565b6000806000426005600086815260200190815260200160002060030154111561237f5760019050612384565b600090505b83819250925050915091565b6123ba7f67bee59ee70ce8db2640fefb72d33f9b54ee798d412840c7c6d3e247987eb248826125ed565b50565b60006060806060600080600560008881526020019081526020016000206000015460056000898152602001908152602001600020600a01600560008a8152602001908152602001600020600b01600560008b8152602001908152602001600020600401600660008c815260200190815260200160002080549050600560008d815260200190815260200160002060090160009054906101000a900473ffffffffffffffffffffffffffffffffffffffff1684805461247a906149e2565b80601f01602080910402602001604051908101604052809291908181526020018280546124a6906149e2565b80156124f35780601f106124c8576101008083540402835291602001916124f3565b820191906000526020600020905b8154815290600101906020018083116124d657829003601f168201915b50505050509450838054612506906149e2565b80601f0160208091040260200160405190810160405280929190818152602001828054612532906149e2565b801561257f5780601f106125545761010080835404028352916020019161257f565b820191906000526020600020905b81548152906001019060200180831161256257829003601f168201915b50505050509350828054806020026020016040519081016040528092919081815260200182805480156125d157602002820191906000526020600020905b8154815260200190600101908083116125bd575b5050505050925095509550955095509550955091939550919395565b6125f6826105d0565b6125ff816126d6565b61260983836127d2565b505050565b6000600454905090565b6000814260056000838152602001908152602001600020600201541061263d57600080fd5b6006600084815260200190815260200160002080549050915050919050565b6126696000801b82610610565b50565b60007f01ffc9a7000000000000000000000000000000000000000000000000000000007bffffffffffffffffffffffffffffffffffffffffffffffffffffffff1916827bffffffffffffffffffffffffffffffffffffffffffffffffffffffff1916149050919050565b6126e7816126e26127ca565b61313d565b50565b6126f48282611d53565b6127c657600160008084815260200190815260200160002060000160008373ffffffffffffffffffffffffffffffffffffffff1673ffffffffffffffffffffffffffffffffffffffff16815260200190815260200160002060006101000a81548160ff02191690831515021790555061276b6127ca565b73ffffffffffffffffffffffffffffffffffffffff168173ffffffffffffffffffffffffffffffffffffffff16837f2f8788117e7eff1d82e926ec794901d17c78024a50270940304540a733656f0d60405160405180910390a45b5050565b600033905090565b6127dc8282611d53565b156128af57600080600084815260200190815260200160002060000160008373ffffffffffffffffffffffffffffffffffffffff1673ffffffffffffffffffffffffffffffffffffffff16815260200190815260200160002060006101000a81548160ff0219169083151502179055506128546127ca565b73ffffffffffffffffffffffffffffffffffffffff168173ffffffffffffffffffffffffffffffffffffffff16837ff6391f5c32d9c69d2a47ea670b442974b53935d1edc7fd64eb21e047a839171b60405160405180910390a45b5050565b606060006128c0846131c2565b905060006128cd846131c2565b905060006128e482846131f090919063ffffffff16565b67ffffffffffffffff8111156128fd576128fc614b19565b5b60405190808252806020026020018201604052801561293057816020015b606081526020019060019003908161291b5790505b50905060005b815181101561298b5761295a612955848661329890919063ffffffff16565b6132b2565b82828151811061296d5761296c614aea565b5b6020026020010181905250808061298390614a14565b915050612936565b5080935050505092915050565b6000808290506000805b8251811015612a255760008382815181106129c0576129bf614aea565b5b602001015160f81c60f81b60f81c60ff169050603081101580156129e5575060398111155b15612a11576030816129f791906148c4565b600a84612a04919061486a565b612a0e9190614672565b92505b508080612a1d90614a14565b9150506129a2565b508092505050919050565b6000808284612a3f9190614672565b905083811015612a84576040517f08c379a0000000000000000000000000000000000000000000000000000000008152600401612a7b90614403565b60405180910390fd5b8091505092915050565b612a9661398e565b612a9e61398e565b60056000848152602001908152602001600020600401600081548110612ac757612ac6614aea565b5b906000526020600020015481600001818152505060056000848152602001908152602001600020600401600181548110612b0457612b03614aea565b5b906000526020600020015481602001818152505060056000848152602001908152602001600020600401600281548110612b4157612b40614aea565b5b906000526020600020015481604001818152505060056000848152602001908152602001600020600401600381548110612b7e57612b7d614aea565b5b906000526020600020015481606001818152505060056000848152602001908152602001600020600401600481548110612bbb57612bba614aea565b5b906000526020600020015481608001818152505060056000848152602001908152602001600020600401600581548110612bf857612bf7614aea565b5b90600052602060002001548160a001818152505080915050919050565b60011515612c266000801b33611d53565b151514612c68576040517f08c379a0000000000000000000000000000000000000000000000000000000008152600401612c5f906143e3565b60405180910390fd5b8042600560008381526020019081526020016000206002015410612c8b57600080fd5b60005b6006600084815260200190815260200160002080549050811015612fe8576000600560008581526020019081526020016000206005016000600660008781526020019081526020016000208481548110612ceb57612cea614aea565b5b9060005260206000200160009054906101000a900473ffffffffffffffffffffffffffffffffffffffff1673ffffffffffffffffffffffffffffffffffffffff1673ffffffffffffffffffffffffffffffffffffffff1681526020019081526020016000206004018054612d5e906149e2565b80601f0160208091040260200160405190810160405280929190818152602001828054612d8a906149e2565b8015612dd75780601f10612dac57610100808354040283529160200191612dd7565b820191906000526020600020905b815481529060010190602001808311612dba57829003601f168201915b505050505090506000600560008681526020019081526020016000206005016000600660008881526020019081526020016000208581548110612e1d57612e1c614aea565b5b9060005260206000200160009054906101000a900473ffffffffffffffffffffffffffffffffffffffff1673ffffffffffffffffffffffffffffffffffffffff1673ffffffffffffffffffffffffffffffffffffffff1681526020019081526020016000206003018054612e90906149e2565b80601f0160208091040260200160405190810160405280929190818152602001828054612ebc906149e2565b8015612f095780601f10612ede57610100808354040283529160200191612f09565b820191906000526020600020905b815481529060010190602001808311612eec57829003601f168201915b50505050509050612f1a81836128b3565b600560008781526020019081526020016000206005016000600660008981526020019081526020016000208681548110612f5757612f56614aea565b5b9060005260206000200160009054906101000a900473ffffffffffffffffffffffffffffffffffffffff1673ffffffffffffffffffffffffffffffffffffffff1673ffffffffffffffffffffffffffffffffffffffff1681526020019081526020016000206005019080519060200190612fd292919061392e565b5050508080612fe090614a14565b915050612c8e565b505050565b60008060008490505b6000600a8261300591906146c8565b1461302c57600a8161301791906146c8565b9050818061302490614a14565b925050612ff6565b61304b82600a61303c919061474c565b856130c290919063ffffffff16565b9250505092915050565b6000806130628587612fed565b9050600061307982866130c290919063ffffffff16565b90506130a061309187866130c290919063ffffffff16565b82612a3090919063ffffffff16565b90506000612710905081816130b591906148c4565b9350505050949350505050565b6000808314156130d55760009050613137565b600082846130e3919061486a565b90508284826130f291906146c8565b14613132576040517f08c379a000000000000000000000000000000000000000000000000000000000815260040161312990614483565b60405180910390fd5b809150505b92915050565b6131478282611d53565b6131be576131548161332e565b6131628360001c602061335b565b604051602001613173929190614270565b6040516020818303038152906040526040517f08c379a00000000000000000000000000000000000000000000000000000000081526004016131b591906143a1565b60405180910390fd5b5050565b6131ca6139c4565b600060208301905060405180604001604052808451815260200182815250915050919050565b60008082600001516132148560000151866020015186600001518760200151613597565b61321e9190614672565b90505b836000015184602001516132359190614672565b811161329157818061324690614a14565b925050826000015161328085602001518361326191906148c4565b866000015161327091906148c4565b8386600001518760200151613597565b61328a9190614672565b9050613221565b5092915050565b6132a06139c4565b6132ab8383836136d8565b5092915050565b60606000826000015167ffffffffffffffff8111156132d4576132d3614b19565b5b6040519080825280601f01601f1916602001820160405280156133065781602001600182028036833780820191505090505b509050600060208201905061332481856020015186600001516137a3565b8192505050919050565b60606133548273ffffffffffffffffffffffffffffffffffffffff16601460ff1661335b565b9050919050565b60606000600283600261336e919061486a565b6133789190614672565b67ffffffffffffffff81111561339157613390614b19565b5b6040519080825280601f01601f1916602001820160405280156133c35781602001600182028036833780820191505090505b5090507f3000000000000000000000000000000000000000000000000000000000000000816000815181106133fb576133fa614aea565b5b60200101907effffffffffffffffffffffffffffffffffffffffffffffffffffffffffffff1916908160001a9053507f78000000000000000000000000000000000000000000000000000000000000008160018151811061345f5761345e614aea565b5b60200101907effffffffffffffffffffffffffffffffffffffffffffffffffffffffffffff1916908160001a9053506000600184600261349f919061486a565b6134a99190614672565b90505b6001811115613549577f3031323334353637383961626364656600000000000000000000000000000000600f8616601081106134eb576134ea614aea565b5b1a60f81b82828151811061350257613501614aea565b5b60200101907effffffffffffffffffffffffffffffffffffffffffffffffffffffffffffff1916908160001a905350600485901c945080613542906149b8565b90506134ac565b506000841461358d576040517f08c379a0000000000000000000000000000000000000000000000000000000008152600401613584906143c3565b60405180910390fd5b8091505092915050565b60008084905060008685116136bf576020851161366157600060018660206135bf91906148c4565b60086135cb919061486a565b60026135d7919061474c565b6135e191906148c4565b1960001b905060008186511690506000878a8a6135fe9190614672565b61360891906148c4565b905060008386511690505b8281146136535781861061363a578a8a61362d9190614672565b96505050505050506136d0565b858061364590614a14565b965050838651169050613613565b8596505050505050506136d0565b60008585209050600091505b858861367991906148c4565b82116136bd57600086842090508082141561369a57839450505050506136d0565b6001846136a79190614672565b93505081806136b590614a14565b92505061366d565b505b86866136cb9190614672565b925050505b949350505050565b6136e06139c4565b60006136fe8560000151866020015186600001518760200151613597565b9050846020015183602001818152505084602001518161371e91906148c4565b8360000181815250508460000151856020015161373b9190614672565b811415613752576000856000018181525050613798565b836000015183600001516137669190614672565b8560000181815161377791906148c4565b9150818152505083600001518161378e9190614672565b8560200181815250505b829150509392505050565b5b602081106137e257815183526020836137bd9190614672565b92506020826137cc9190614672565b91506020816137db91906148c4565b90506137a4565b600060018260206137f391906148c4565b610100613800919061474c565b61380a91906148c4565b90508019835116818551168181178652505050505050565b82805461382e906149e2565b90600052602060002090601f0160209004810192826138505760008555613897565b82601f1061386957803560ff1916838001178555613897565b82800160010185558215613897579182015b8281111561389657823582559160200191906001019061387b565b5b5090506138a491906139de565b5090565b8280546138b4906149e2565b90600052602060002090601f0160209004810192826138d6576000855561391d565b82601f106138ef57805160ff191683800117855561391d565b8280016001018555821561391d579182015b8281111561391c578251825591602001919060010190613901565b5b50905061392a91906139de565b5090565b82805482825590600052602060002090810192821561397d579160200282015b8281111561397c57825182908051906020019061396c9291906138a8565b509160200191906001019061394e565b5b50905061398a91906139fb565b5090565b6040518060c001604052806000815260200160008152602001600081526020016000815260200160008152602001600081525090565b604051806040016040528060008152602001600081525090565b5b808211156139f75760008160009055506001016139df565b5090565b5b80821115613a1b5760008181613a129190613a1f565b506001016139fc565b5090565b508054613a2b906149e2565b6000825580601f10613a3d5750613a5c565b601f016020900490600052602060002090810190613a5b91906139de565b5b50565b600081359050613a6e81614ec1565b92915050565b600081359050613a8381614ed8565b92915050565b600081359050613a9881614eef565b92915050565b60008083601f840112613ab457613ab3614b4d565b5b8235905067ffffffffffffffff811115613ad157613ad0614b48565b5b602083019150836001820283011115613aed57613aec614b52565b5b9250929050565b600081359050613b0381614f06565b92915050565b600060208284031215613b1f57613b1e614b5c565b5b6000613b2d84828501613a5f565b91505092915050565b600060208284031215613b4c57613b4b614b5c565b5b6000613b5a84828501613a74565b91505092915050565b60008060408385031215613b7a57613b79614b5c565b5b6000613b8885828601613a74565b9250506020613b9985828601613a5f565b9150509250929050565b600060208284031215613bb957613bb8614b5c565b5b6000613bc784828501613a89565b91505092915050565b60008060008060008060008060a0898b031215613bf057613bef614b5c565b5b600089013567ffffffffffffffff811115613c0e57613c0d614b57565b5b613c1a8b828c01613a9e565b9850985050602089013567ffffffffffffffff811115613c3d57613c3c614b57565b5b613c498b828c01613a9e565b96509650506040613c5c8b828c01613af4565b9450506060613c6d8b828c01613af4565b935050608089013567ffffffffffffffff811115613c8e57613c8d614b57565b5b613c9a8b828c01613a9e565b92509250509295985092959890939650565b600060208284031215613cc257613cc1614b5c565b5b6000613cd084828501613af4565b91505092915050565b60008060408385031215613cf057613cef614b5c565b5b6000613cfe85828601613af4565b9250506020613d0f85828601613a5f565b9150509250929050565b60008060408385031215613d3057613d2f614b5c565b5b6000613d3e85828601613af4565b9250506020613d4f85828601613a74565b9150509250929050565b600080600080600060608688031215613d7557613d74614b5c565b5b6000613d8388828901613af4565b955050602086013567ffffffffffffffff811115613da457613da3614b57565b5b613db088828901613a9e565b9450945050604086013567ffffffffffffffff811115613dd357613dd2614b57565b5b613ddf88828901613a9e565b92509250509295509295909350565b60008060408385031215613e0557613e04614b5c565b5b6000613e1385828601613af4565b9250506020613e2485828601613af4565b9150509250929050565b6000613e3a8383613fa4565b905092915050565b6000613e4e8383614211565b60208301905092915050565b613e63816148f8565b82525050565b6000613e74826145dd565b613e7e8185614618565b935083602082028501613e90856145bd565b8060005b85811015613ecc5784840389528151613ead8582613e2e565b9450613eb8836145fe565b925060208a01995050600181019050613e94565b50829750879550505050505092915050565b6000613ee9826145e8565b613ef38185614629565b9350613efe836145cd565b8060005b83811015613f2f578151613f168882613e42565b9750613f218361460b565b925050600181019050613f02565b5085935050505092915050565b613f458161490a565b82525050565b613f5481614916565b82525050565b6000613f66838561463a565b9350613f73838584614976565b82840190509392505050565b6000613f8b8385614667565b9350613f98838584614976565b82840190509392505050565b6000613faf826145f3565b613fb98185614645565b9350613fc9818560208601614985565b613fd281614b61565b840191505092915050565b6000613fe8826145f3565b613ff28185614656565b9350614002818560208601614985565b61400b81614b61565b840191505092915050565b6000614021826145f3565b61402b8185614667565b935061403b818560208601614985565b80840191505092915050565b6000614054602083614656565b915061405f82614b7f565b602082019050919050565b6000614077601e83614656565b915061408282614ba8565b602082019050919050565b600061409a601b83614656565b91506140a582614bd1565b602082019050919050565b7f2000000000000000000000000000000000000000000000000000000000000000815250565b60006140e3602883614656565b91506140ee82614bfa565b604082019050919050565b6000614106603383614656565b915061411182614c49565b604082019050919050565b6000614129604183614656565b915061413482614c98565b606082019050919050565b600061414c602183614656565b915061415782614d0d565b604082019050919050565b600061416f602383614656565b915061417a82614d5c565b604082019050919050565b6000614192604683614656565b915061419d82614dab565b606082019050919050565b60006141b5601783614667565b91506141c082614e20565b601782019050919050565b60006141d8601183614667565b91506141e382614e49565b601182019050919050565b60006141fb602f83614656565b915061420682614e72565b604082019050919050565b61421a8161496c565b82525050565b6142298161496c565b82525050565b600061423c828486613f5a565b9150614247826140b0565b6001820191508190509392505050565b6000614264828486613f7f565b91508190509392505050565b600061427b826141a8565b91506142878285614016565b9150614292826141cb565b915061429e8284614016565b91508190509392505050565b600060a0820190506142bf6000830188613e5a565b81810360208301526142d18187613e69565b905081810360408301526142e58186613fdd565b90506142f46060830185614220565b6143016080830184613f3c565b9695505050505050565b60006040820190506143206000830185613e5a565b61432d6020830184614220565b9392505050565b60006060820190506143496000830186613e5a565b6143566020830185614220565b6143636040830184613f3c565b949350505050565b60006020820190506143806000830184613f3c565b92915050565b600060208201905061439b6000830184613f4b565b92915050565b600060208201905081810360008301526143bb8184613fdd565b905092915050565b600060208201905081810360008301526143dc81614047565b9050919050565b600060208201905081810360008301526143fc8161406a565b9050919050565b6000602082019050818103600083015261441c8161408d565b9050919050565b6000602082019050818103600083015261443c816140d6565b9050919050565b6000602082019050818103600083015261445c816140f9565b9050919050565b6000602082019050818103600083015261447c8161411c565b9050919050565b6000602082019050818103600083015261449c8161413f565b9050919050565b600060208201905081810360008301526144bc81614162565b9050919050565b600060208201905081810360008301526144dc81614185565b9050919050565b600060208201905081810360008301526144fc816141ee565b9050919050565b60006020820190506145186000830184614220565b92915050565b60006040820190506145336000830185614220565b6145406020830184613f3c565b9392505050565b600060c08201905061455c6000830189614220565b818103602083015261456e8188613fdd565b905081810360408301526145828187613fdd565b905081810360608301526145968186613ede565b90506145a56080830185614220565b6145b260a0830184613e5a565b979650505050505050565b6000819050602082019050919050565b6000819050602082019050919050565b600081519050919050565b600081519050919050565b600081519050919050565b6000602082019050919050565b6000602082019050919050565b600082825260208201905092915050565b600082825260208201905092915050565b600081905092915050565b600082825260208201905092915050565b600082825260208201905092915050565b600081905092915050565b600061467d8261496c565b91506146888361496c565b9250827fffffffffffffffffffffffffffffffffffffffffffffffffffffffffffffffff038211156146bd576146bc614a5d565b5b828201905092915050565b60006146d38261496c565b91506146de8361496c565b9250826146ee576146ed614a8c565b5b828204905092915050565b6000808291508390505b60018511156147435780860481111561471f5761471e614a5d565b5b600185161561472e5780820291505b808102905061473c85614b72565b9450614703565b94509492505050565b60006147578261496c565b91506147628361496c565b925061478f7fffffffffffffffffffffffffffffffffffffffffffffffffffffffffffffffff8484614797565b905092915050565b6000826147a75760019050614863565b816147b55760009050614863565b81600181146147cb57600281146147d557614804565b6001915050614863565b60ff8411156147e7576147e6614a5d565b5b8360020a9150848211156147fe576147fd614a5d565b5b50614863565b5060208310610133831016604e8410600b84101617156148395782820a90508381111561483457614833614a5d565b5b614863565b61484684848460016146f9565b9250905081840481111561485d5761485c614a5d565b5b81810290505b9392505050565b60006148758261496c565b91506148808361496c565b9250817fffffffffffffffffffffffffffffffffffffffffffffffffffffffffffffffff04831182151516156148b9576148b8614a5d565b5b828202905092915050565b60006148cf8261496c565b91506148da8361496c565b9250828210156148ed576148ec614a5d565b5b828203905092915050565b60006149038261494c565b9050919050565b60008115159050919050565b6000819050919050565b60007fffffffff0000000000000000000000000000000000000000000000000000000082169050919050565b600073ffffffffffffffffffffffffffffffffffffffff82169050919050565b6000819050919050565b82818337600083830152505050565b60005b838110156149a3578082015181840152602081019050614988565b838111156149b2576000848401525b50505050565b60006149c38261496c565b915060008214156149d7576149d6614a5d565b5b600182039050919050565b600060028204905060018216806149fa57607f821691505b60208210811415614a0e57614a0d614abb565b5b50919050565b6000614a1f8261496c565b91507fffffffffffffffffffffffffffffffffffffffffffffffffffffffffffffffff821415614a5257614a51614a5d565b5b600182019050919050565b7f4e487b7100000000000000000000000000000000000000000000000000000000600052601160045260246000fd5b7f4e487b7100000000000000000000000000000000000000000000000000000000600052601260045260246000fd5b7f4e487b7100000000000000000000000000000000000000000000000000000000600052602260045260246000fd5b7f4e487b7100000000000000000000000000000000000000000000000000000000600052603260045260246000fd5b7f4e487b7100000000000000000000000000000000000000000000000000000000600052604160045260246000fd5b600080fd5b600080fd5b600080fd5b600080fd5b600080fd5b6000601f19601f8301169050919050565b60008160011c9050919050565b7f537472696e67733a20686578206c656e67746820696e73756666696369656e74600082015250565b7f546865206164647265737320686173206e6f74207065726d697373696f6e0000600082015250565b7f536166654d6174683a206164646974696f6e206f766572666c6f770000000000600082015250565b7f53756d206f662074686520666f757220706172616d65746572732073686f756c60008201527f6420626520313030000000000000000000000000000000000000000000000000602082015250565b7f53756d206f66207468652074776f20656e7669726f6e6d656e7420706172616d60008201527f65746572732073686f756c642062652031303000000000000000000000000000602082015250565b7f686173682073656e74206265666f726520746865206f70656e696e672064617460008201527f65206f7220616674657220746865206861736820636c6f73696e67206461746560208201527f2100000000000000000000000000000000000000000000000000000000000000604082015250565b7f536166654d6174683a206d756c7469706c69636174696f6e206f766572666c6f60008201527f7700000000000000000000000000000000000000000000000000000000000000602082015250565b7f42696420616c726561647920706c6163656420666f7220746869732074656e6460008201527f6572210000000000000000000000000000000000000000000000000000000000602082015250565b7f646174612073656e74206265666f726520746865206861736820636c6f73696e60008201527f672064617465206f7220616674657220746865206461746120636c6f73696e6760208201527f20646174652e0000000000000000000000000000000000000000000000000000604082015250565b7f416363657373436f6e74726f6c3a206163636f756e7420000000000000000000600082015250565b7f206973206d697373696e6720726f6c6520000000000000000000000000000000600082015250565b7f416363657373436f6e74726f6c3a2063616e206f6e6c792072656e6f756e636560008201527f20726f6c657320666f722073656c660000000000000000000000000000000000602082015250565b614eca816148f8565b8114614ed557600080fd5b50565b614ee181614916565b8114614eec57600080fd5b50565b614ef881614920565b8114614f0357600080fd5b50565b614f0f8161496c565b8114614f1a57600080fd5b5056fea2646970667358221220f29c31d34ec9b38b3faf9512ae71491c46f0b559ded943e8f9219b688f5117db64736f6c63430008060033",
			"opcodes": "PUSH1 0x80 PUSH1 0x40 MSTORE CALLVALUE DUP1 ISZERO PUSH3 0x11 JUMPI PUSH1 0x0 DUP1 REVERT JUMPDEST POP PUSH3 0x27 PUSH1 0x0 DUP1 SHL CALLER PUSH3 0x62 PUSH1 0x20 SHL PUSH1 0x20 SHR JUMP JUMPDEST PUSH3 0x5C PUSH32 0x67BEE59EE70CE8DB2640FEFB72D33F9B54EE798D412840C7C6D3E247987EB248 PUSH1 0x0 DUP1 SHL PUSH3 0x78 PUSH1 0x20 SHL PUSH1 0x20 SHR JUMP JUMPDEST PUSH3 0x25D JUMP JUMPDEST PUSH3 0x74 DUP3 DUP3 PUSH3 0xDB PUSH1 0x20 SHL PUSH1 0x20 SHR JUMP JUMPDEST POP POP JUMP JUMPDEST PUSH1 0x0 PUSH3 0x8B DUP4 PUSH3 0x1CC PUSH1 0x20 SHL PUSH1 0x20 SHR JUMP JUMPDEST SWAP1 POP DUP2 PUSH1 0x0 DUP1 DUP6 DUP2 MSTORE PUSH1 0x20 ADD SWAP1 DUP2 MSTORE PUSH1 0x20 ADD PUSH1 0x0 KECCAK256 PUSH1 0x1 ADD DUP2 SWAP1 SSTORE POP DUP2 DUP2 DUP5 PUSH32 0xBD79B86FFE0AB8E8776151514217CD7CACD52C909F66475C3AF44E129F0B00FF PUSH1 0x40 MLOAD PUSH1 0x40 MLOAD DUP1 SWAP2 SUB SWAP1 LOG4 POP POP POP JUMP JUMPDEST PUSH3 0xED DUP3 DUP3 PUSH3 0x1EB PUSH1 0x20 SHL PUSH1 0x20 SHR JUMP JUMPDEST PUSH3 0x1C8 JUMPI PUSH1 0x1 PUSH1 0x0 DUP1 DUP5 DUP2 MSTORE PUSH1 0x20 ADD SWAP1 DUP2 MSTORE PUSH1 0x20 ADD PUSH1 0x0 KECCAK256 PUSH1 0x0 ADD PUSH1 0x0 DUP4 PUSH20 0xFFFFFFFFFFFFFFFFFFFFFFFFFFFFFFFFFFFFFFFF AND PUSH20 0xFFFFFFFFFFFFFFFFFFFFFFFFFFFFFFFFFFFFFFFF AND DUP2 MSTORE PUSH1 0x20 ADD SWAP1 DUP2 MSTORE PUSH1 0x20 ADD PUSH1 0x0 KECCAK256 PUSH1 0x0 PUSH2 0x100 EXP DUP2 SLOAD DUP2 PUSH1 0xFF MUL NOT AND SWAP1 DUP4 ISZERO ISZERO MUL OR SWAP1 SSTORE POP PUSH3 0x16D PUSH3 0x255 PUSH1 0x20 SHL PUSH1 0x20 SHR JUMP JUMPDEST PUSH20 0xFFFFFFFFFFFFFFFFFFFFFFFFFFFFFFFFFFFFFFFF AND DUP2 PUSH20 0xFFFFFFFFFFFFFFFFFFFFFFFFFFFFFFFFFFFFFFFF AND DUP4 PUSH32 0x2F8788117E7EFF1D82E926EC794901D17C78024A50270940304540A733656F0D PUSH1 0x40 MLOAD PUSH1 0x40 MLOAD DUP1 SWAP2 SUB SWAP1 LOG4 JUMPDEST POP POP JUMP JUMPDEST PUSH1 0x0 DUP1 PUSH1 0x0 DUP4 DUP2 MSTORE PUSH1 0x20 ADD SWAP1 DUP2 MSTORE PUSH1 0x20 ADD PUSH1 0x0 KECCAK256 PUSH1 0x1 ADD SLOAD SWAP1 POP SWAP2 SWAP1 POP JUMP JUMPDEST PUSH1 0x0 DUP1 PUSH1 0x0 DUP5 DUP2 MSTORE PUSH1 0x20 ADD SWAP1 DUP2 MSTORE PUSH1 0x20 ADD PUSH1 0x0 KECCAK256 PUSH1 0x0 ADD PUSH1 0x0 DUP4 PUSH20 0xFFFFFFFFFFFFFFFFFFFFFFFFFFFFFFFFFFFFFFFF AND PUSH20 0xFFFFFFFFFFFFFFFFFFFFFFFFFFFFFFFFFFFFFFFF AND DUP2 MSTORE PUSH1 0x20 ADD SWAP1 DUP2 MSTORE PUSH1 0x20 ADD PUSH1 0x0 KECCAK256 PUSH1 0x0 SWAP1 SLOAD SWAP1 PUSH2 0x100 EXP SWAP1 DIV PUSH1 0xFF AND SWAP1 POP SWAP3 SWAP2 POP POP JUMP JUMPDEST PUSH1 0x0 CALLER SWAP1 POP SWAP1 JUMP JUMPDEST PUSH2 0x4F53 DUP1 PUSH3 0x26D PUSH1 0x0 CODECOPY PUSH1 0x0 RETURN INVALID PUSH1 0x80 PUSH1 0x40 MSTORE CALLVALUE DUP1 ISZERO PUSH2 0x10 JUMPI PUSH1 0x0 DUP1 REVERT JUMPDEST POP PUSH1 0x4 CALLDATASIZE LT PUSH2 0x18E JUMPI PUSH1 0x0 CALLDATALOAD PUSH1 0xE0 SHR DUP1 PUSH4 0x9CF0F0B7 GT PUSH2 0xDE JUMPI DUP1 PUSH4 0xCA8836D2 GT PUSH2 0x97 JUMPI DUP1 PUSH4 0xD547741F GT PUSH2 0x71 JUMPI DUP1 PUSH4 0xD547741F EQ PUSH2 0x4AC JUMPI DUP1 PUSH4 0xEC39B826 EQ PUSH2 0x4C8 JUMPI DUP1 PUSH4 0xF3FA1482 EQ PUSH2 0x4E6 JUMPI DUP1 PUSH4 0xFC3F90E8 EQ PUSH2 0x516 JUMPI PUSH2 0x18E JUMP JUMPDEST DUP1 PUSH4 0xCA8836D2 EQ PUSH2 0x42A JUMPI DUP1 PUSH4 0xCE630FD6 EQ PUSH2 0x45B JUMPI DUP1 PUSH4 0xCF6F4007 EQ PUSH2 0x477 JUMPI PUSH2 0x18E JUMP JUMPDEST DUP1 PUSH4 0x9CF0F0B7 EQ PUSH2 0x352 JUMPI DUP1 PUSH4 0x9FB63F0F EQ PUSH2 0x36E JUMPI DUP1 PUSH4 0x9FC89AED EQ PUSH2 0x3A0 JUMPI DUP1 PUSH4 0xA1C6A78E EQ PUSH2 0x3D4 JUMPI DUP1 PUSH4 0xA217FDDF EQ PUSH2 0x3F0 JUMPI DUP1 PUSH4 0xB5E967FB EQ PUSH2 0x40E JUMPI PUSH2 0x18E JUMP JUMPDEST DUP1 PUSH4 0x43A96B73 GT PUSH2 0x14B JUMPI DUP1 PUSH4 0x66AB1D52 GT PUSH2 0x125 JUMPI DUP1 PUSH4 0x66AB1D52 EQ PUSH2 0x2CE JUMPI DUP1 PUSH4 0x6C7B8380 EQ PUSH2 0x2EA JUMPI DUP1 PUSH4 0x8F902FAB EQ PUSH2 0x306 JUMPI DUP1 PUSH4 0x91D14854 EQ PUSH2 0x322 JUMPI PUSH2 0x18E JUMP JUMPDEST DUP1 PUSH4 0x43A96B73 EQ PUSH2 0x265 JUMPI DUP1 PUSH4 0x5AAC39E7 EQ PUSH2 0x281 JUMPI DUP1 PUSH4 0x66288CE8 EQ PUSH2 0x2B2 JUMPI PUSH2 0x18E JUMP JUMPDEST DUP1 PUSH4 0x1FFC9A7 EQ PUSH2 0x193 JUMPI DUP1 PUSH4 0x18FD3E10 EQ PUSH2 0x1C3 JUMPI DUP1 PUSH4 0x248A9CA3 EQ PUSH2 0x1E1 JUMPI DUP1 PUSH4 0x2F2FF15D EQ PUSH2 0x211 JUMPI DUP1 PUSH4 0x36568ABE EQ PUSH2 0x22D JUMPI DUP1 PUSH4 0x3FF3A80C EQ PUSH2 0x249 JUMPI JUMPDEST PUSH1 0x0 DUP1 REVERT JUMPDEST PUSH2 0x1AD PUSH1 0x4 DUP1 CALLDATASIZE SUB DUP2 ADD SWAP1 PUSH2 0x1A8 SWAP2 SWAP1 PUSH2 0x3BA3 JUMP JUMPDEST PUSH2 0x532 JUMP JUMPDEST PUSH1 0x40 MLOAD PUSH2 0x1BA SWAP2 SWAP1 PUSH2 0x436B JUMP JUMPDEST PUSH1 0x40 MLOAD DUP1 SWAP2 SUB SWAP1 RETURN JUMPDEST PUSH2 0x1CB PUSH2 0x5AC JUMP JUMPDEST PUSH1 0x40 MLOAD PUSH2 0x1D8 SWAP2 SWAP1 PUSH2 0x4386 JUMP JUMPDEST PUSH1 0x40 MLOAD DUP1 SWAP2 SUB SWAP1 RETURN JUMPDEST PUSH2 0x1FB PUSH1 0x4 DUP1 CALLDATASIZE SUB DUP2 ADD SWAP1 PUSH2 0x1F6 SWAP2 SWAP1 PUSH2 0x3B36 JUMP JUMPDEST PUSH2 0x5D0 JUMP JUMPDEST PUSH1 0x40 MLOAD PUSH2 0x208 SWAP2 SWAP1 PUSH2 0x4386 JUMP JUMPDEST PUSH1 0x40 MLOAD DUP1 SWAP2 SUB SWAP1 RETURN JUMPDEST PUSH2 0x22B PUSH1 0x4 DUP1 CALLDATASIZE SUB DUP2 ADD SWAP1 PUSH2 0x226 SWAP2 SWAP1 PUSH2 0x3B63 JUMP JUMPDEST PUSH2 0x5EF JUMP JUMPDEST STOP JUMPDEST PUSH2 0x247 PUSH1 0x4 DUP1 CALLDATASIZE SUB DUP2 ADD SWAP1 PUSH2 0x242 SWAP2 SWAP1 PUSH2 0x3B63 JUMP JUMPDEST PUSH2 0x610 JUMP JUMPDEST STOP JUMPDEST PUSH2 0x263 PUSH1 0x4 DUP1 CALLDATASIZE SUB DUP2 ADD SWAP1 PUSH2 0x25E SWAP2 SWAP1 PUSH2 0x3BD0 JUMP JUMPDEST PUSH2 0x693 JUMP JUMPDEST STOP JUMPDEST PUSH2 0x27F PUSH1 0x4 DUP1 CALLDATASIZE SUB DUP2 ADD SWAP1 PUSH2 0x27A SWAP2 SWAP1 PUSH2 0x3CAC JUMP JUMPDEST PUSH2 0xBD8 JUMP JUMPDEST STOP JUMPDEST PUSH2 0x29B PUSH1 0x4 DUP1 CALLDATASIZE SUB DUP2 ADD SWAP1 PUSH2 0x296 SWAP2 SWAP1 PUSH2 0x3CAC JUMP JUMPDEST PUSH2 0xE19 JUMP JUMPDEST PUSH1 0x40 MLOAD PUSH2 0x2A9 SWAP3 SWAP2 SWAP1 PUSH2 0x430B JUMP JUMPDEST PUSH1 0x40 MLOAD DUP1 SWAP2 SUB SWAP1 RETURN JUMPDEST PUSH2 0x2CC PUSH1 0x4 DUP1 CALLDATASIZE SUB DUP2 ADD SWAP1 PUSH2 0x2C7 SWAP2 SWAP1 PUSH2 0x3D59 JUMP JUMPDEST PUSH2 0xF0A JUMP JUMPDEST STOP JUMPDEST PUSH2 0x2E8 PUSH1 0x4 DUP1 CALLDATASIZE SUB DUP2 ADD SWAP1 PUSH2 0x2E3 SWAP2 SWAP1 PUSH2 0x3D19 JUMP JUMPDEST PUSH2 0x12C6 JUMP JUMPDEST STOP JUMPDEST PUSH2 0x304 PUSH1 0x4 DUP1 CALLDATASIZE SUB DUP2 ADD SWAP1 PUSH2 0x2FF SWAP2 SWAP1 PUSH2 0x3CAC JUMP JUMPDEST PUSH2 0x1691 JUMP JUMPDEST STOP JUMPDEST PUSH2 0x320 PUSH1 0x4 DUP1 CALLDATASIZE SUB DUP2 ADD SWAP1 PUSH2 0x31B SWAP2 SWAP1 PUSH2 0x3B09 JUMP JUMPDEST PUSH2 0x1D43 JUMP JUMPDEST STOP JUMPDEST PUSH2 0x33C PUSH1 0x4 DUP1 CALLDATASIZE SUB DUP2 ADD SWAP1 PUSH2 0x337 SWAP2 SWAP1 PUSH2 0x3B63 JUMP JUMPDEST PUSH2 0x1D53 JUMP JUMPDEST PUSH1 0x40 MLOAD PUSH2 0x349 SWAP2 SWAP1 PUSH2 0x436B JUMP JUMPDEST PUSH1 0x40 MLOAD DUP1 SWAP2 SUB SWAP1 RETURN JUMPDEST PUSH2 0x36C PUSH1 0x4 DUP1 CALLDATASIZE SUB DUP2 ADD SWAP1 PUSH2 0x367 SWAP2 SWAP1 PUSH2 0x3B09 JUMP JUMPDEST PUSH2 0x1DBD JUMP JUMPDEST STOP JUMPDEST PUSH2 0x388 PUSH1 0x4 DUP1 CALLDATASIZE SUB DUP2 ADD SWAP1 PUSH2 0x383 SWAP2 SWAP1 PUSH2 0x3DEE JUMP JUMPDEST PUSH2 0x1DCD JUMP JUMPDEST PUSH1 0x40 MLOAD PUSH2 0x397 SWAP4 SWAP3 SWAP2 SWAP1 PUSH2 0x4334 JUMP JUMPDEST PUSH1 0x40 MLOAD DUP1 SWAP2 SUB SWAP1 RETURN JUMPDEST PUSH2 0x3BA PUSH1 0x4 DUP1 CALLDATASIZE SUB DUP2 ADD SWAP1 PUSH2 0x3B5 SWAP2 SWAP1 PUSH2 0x3CD9 JUMP JUMPDEST PUSH2 0x1F4E JUMP JUMPDEST PUSH1 0x40 MLOAD PUSH2 0x3CB SWAP6 SWAP5 SWAP4 SWAP3 SWAP2 SWAP1 PUSH2 0x42AA JUMP JUMPDEST PUSH1 0x40 MLOAD DUP1 SWAP2 SUB SWAP1 RETURN JUMPDEST PUSH2 0x3EE PUSH1 0x4 DUP1 CALLDATASIZE SUB DUP2 ADD SWAP1 PUSH2 0x3E9 SWAP2 SWAP1 PUSH2 0x3B09 JUMP JUMPDEST PUSH2 0x22F2 JUMP JUMPDEST STOP JUMPDEST PUSH2 0x3F8 PUSH2 0x231F JUMP JUMPDEST PUSH1 0x40 MLOAD PUSH2 0x405 SWAP2 SWAP1 PUSH2 0x4386 JUMP JUMPDEST PUSH1 0x40 MLOAD DUP1 SWAP2 SUB SWAP1 RETURN JUMPDEST PUSH2 0x428 PUSH1 0x4 DUP1 CALLDATASIZE SUB DUP2 ADD SWAP1 PUSH2 0x423 SWAP2 SWAP1 PUSH2 0x3B09 JUMP JUMPDEST PUSH2 0x2326 JUMP JUMPDEST STOP JUMPDEST PUSH2 0x444 PUSH1 0x4 DUP1 CALLDATASIZE SUB DUP2 ADD SWAP1 PUSH2 0x43F SWAP2 SWAP1 PUSH2 0x3CAC JUMP JUMPDEST PUSH2 0x2353 JUMP JUMPDEST PUSH1 0x40 MLOAD PUSH2 0x452 SWAP3 SWAP2 SWAP1 PUSH2 0x451E JUMP JUMPDEST PUSH1 0x40 MLOAD DUP1 SWAP2 SUB SWAP1 RETURN JUMPDEST PUSH2 0x475 PUSH1 0x4 DUP1 CALLDATASIZE SUB DUP2 ADD SWAP1 PUSH2 0x470 SWAP2 SWAP1 PUSH2 0x3B09 JUMP JUMPDEST PUSH2 0x2390 JUMP JUMPDEST STOP JUMPDEST PUSH2 0x491 PUSH1 0x4 DUP1 CALLDATASIZE SUB DUP2 ADD SWAP1 PUSH2 0x48C SWAP2 SWAP1 PUSH2 0x3CAC JUMP JUMPDEST PUSH2 0x23BD JUMP JUMPDEST PUSH1 0x40 MLOAD PUSH2 0x4A3 SWAP7 SWAP6 SWAP5 SWAP4 SWAP3 SWAP2 SWAP1 PUSH2 0x4547 JUMP JUMPDEST PUSH1 0x40 MLOAD DUP1 SWAP2 SUB SWAP1 RETURN JUMPDEST PUSH2 0x4C6 PUSH1 0x4 DUP1 CALLDATASIZE SUB DUP2 ADD SWAP1 PUSH2 0x4C1 SWAP2 SWAP1 PUSH2 0x3B63 JUMP JUMPDEST PUSH2 0x25ED JUMP JUMPDEST STOP JUMPDEST PUSH2 0x4D0 PUSH2 0x260E JUMP JUMPDEST PUSH1 0x40 MLOAD PUSH2 0x4DD SWAP2 SWAP1 PUSH2 0x4503 JUMP JUMPDEST PUSH1 0x40 MLOAD DUP1 SWAP2 SUB SWAP1 RETURN JUMPDEST PUSH2 0x500 PUSH1 0x4 DUP1 CALLDATASIZE SUB DUP2 ADD SWAP1 PUSH2 0x4FB SWAP2 SWAP1 PUSH2 0x3CAC JUMP JUMPDEST PUSH2 0x2618 JUMP JUMPDEST PUSH1 0x40 MLOAD PUSH2 0x50D SWAP2 SWAP1 PUSH2 0x4503 JUMP JUMPDEST PUSH1 0x40 MLOAD DUP1 SWAP2 SUB SWAP1 RETURN JUMPDEST PUSH2 0x530 PUSH1 0x4 DUP1 CALLDATASIZE SUB DUP2 ADD SWAP1 PUSH2 0x52B SWAP2 SWAP1 PUSH2 0x3B09 JUMP JUMPDEST PUSH2 0x265C JUMP JUMPDEST STOP JUMPDEST PUSH1 0x0 PUSH32 0x7965DB0B00000000000000000000000000000000000000000000000000000000 PUSH28 0xFFFFFFFFFFFFFFFFFFFFFFFFFFFFFFFFFFFFFFFFFFFFFFFFFFFFFFFF NOT AND DUP3 PUSH28 0xFFFFFFFFFFFFFFFFFFFFFFFFFFFFFFFFFFFFFFFFFFFFFFFFFFFFFFFF NOT AND EQ DUP1 PUSH2 0x5A5 JUMPI POP PUSH2 0x5A4 DUP3 PUSH2 0x266C JUMP JUMPDEST JUMPDEST SWAP1 POP SWAP2 SWAP1 POP JUMP JUMPDEST PUSH32 0x67BEE59EE70CE8DB2640FEFB72D33F9B54EE798D412840C7C6D3E247987EB248 DUP2 JUMP JUMPDEST PUSH1 0x0 DUP1 PUSH1 0x0 DUP4 DUP2 MSTORE PUSH1 0x20 ADD SWAP1 DUP2 MSTORE PUSH1 0x20 ADD PUSH1 0x0 KECCAK256 PUSH1 0x1 ADD SLOAD SWAP1 POP SWAP2 SWAP1 POP JUMP JUMPDEST PUSH2 0x5F8 DUP3 PUSH2 0x5D0 JUMP JUMPDEST PUSH2 0x601 DUP2 PUSH2 0x26D6 JUMP JUMPDEST PUSH2 0x60B DUP4 DUP4 PUSH2 0x26EA JUMP JUMPDEST POP POP POP JUMP JUMPDEST PUSH2 0x618 PUSH2 0x27CA JUMP JUMPDEST PUSH20 0xFFFFFFFFFFFFFFFFFFFFFFFFFFFFFFFFFFFFFFFF AND DUP2 PUSH20 0xFFFFFFFFFFFFFFFFFFFFFFFFFFFFFFFFFFFFFFFF AND EQ PUSH2 0x685 JUMPI PUSH1 0x40 MLOAD PUSH32 0x8C379A000000000000000000000000000000000000000000000000000000000 DUP2 MSTORE PUSH1 0x4 ADD PUSH2 0x67C SWAP1 PUSH2 0x44E3 JUMP JUMPDEST PUSH1 0x40 MLOAD DUP1 SWAP2 SUB SWAP1 REVERT JUMPDEST PUSH2 0x68F DUP3 DUP3 PUSH2 0x27D2 JUMP JUMPDEST POP POP JUMP JUMPDEST PUSH1 0x1 ISZERO ISZERO PUSH2 0x6A4 PUSH1 0x0 DUP1 SHL CALLER PUSH2 0x1D53 JUMP JUMPDEST ISZERO ISZERO EQ PUSH2 0x6E6 JUMPI PUSH1 0x40 MLOAD PUSH32 0x8C379A000000000000000000000000000000000000000000000000000000000 DUP2 MSTORE PUSH1 0x4 ADD PUSH2 0x6DD SWAP1 PUSH2 0x43E3 JUMP JUMPDEST PUSH1 0x40 MLOAD DUP1 SWAP2 SUB SWAP1 REVERT JUMPDEST PUSH1 0x0 DUP3 DUP3 PUSH1 0x40 MLOAD PUSH1 0x20 ADD PUSH2 0x6FB SWAP3 SWAP2 SWAP1 PUSH2 0x422F JUMP JUMPDEST PUSH1 0x40 MLOAD PUSH1 0x20 DUP2 DUP4 SUB SUB DUP2 MSTORE SWAP1 PUSH1 0x40 MSTORE SWAP1 POP PUSH1 0x0 PUSH2 0x74D DUP3 PUSH1 0x40 MLOAD DUP1 PUSH1 0x40 ADD PUSH1 0x40 MSTORE DUP1 PUSH1 0x1 DUP2 MSTORE PUSH1 0x20 ADD PUSH32 0x2000000000000000000000000000000000000000000000000000000000000000 DUP2 MSTORE POP PUSH2 0x28B3 JUMP JUMPDEST SWAP1 POP PUSH1 0x0 PUSH2 0x814 PUSH2 0x7E2 PUSH2 0x7B0 PUSH2 0x77E DUP6 PUSH1 0x5 DUP2 MLOAD DUP2 LT PUSH2 0x771 JUMPI PUSH2 0x770 PUSH2 0x4AEA JUMP JUMPDEST JUMPDEST PUSH1 0x20 MUL PUSH1 0x20 ADD ADD MLOAD PUSH2 0x2998 JUMP JUMPDEST PUSH2 0x7A2 DUP7 PUSH1 0x2 DUP2 MLOAD DUP2 LT PUSH2 0x795 JUMPI PUSH2 0x794 PUSH2 0x4AEA JUMP JUMPDEST JUMPDEST PUSH1 0x20 MUL PUSH1 0x20 ADD ADD MLOAD PUSH2 0x2998 JUMP JUMPDEST PUSH2 0x2A30 SWAP1 SWAP2 SWAP1 PUSH4 0xFFFFFFFF AND JUMP JUMPDEST PUSH2 0x7D4 DUP6 PUSH1 0x1 DUP2 MLOAD DUP2 LT PUSH2 0x7C7 JUMPI PUSH2 0x7C6 PUSH2 0x4AEA JUMP JUMPDEST JUMPDEST PUSH1 0x20 MUL PUSH1 0x20 ADD ADD MLOAD PUSH2 0x2998 JUMP JUMPDEST PUSH2 0x2A30 SWAP1 SWAP2 SWAP1 PUSH4 0xFFFFFFFF AND JUMP JUMPDEST PUSH2 0x806 DUP5 PUSH1 0x0 DUP2 MLOAD DUP2 LT PUSH2 0x7F9 JUMPI PUSH2 0x7F8 PUSH2 0x4AEA JUMP JUMPDEST JUMPDEST PUSH1 0x20 MUL PUSH1 0x20 ADD ADD MLOAD PUSH2 0x2998 JUMP JUMPDEST PUSH2 0x2A30 SWAP1 SWAP2 SWAP1 PUSH4 0xFFFFFFFF AND JUMP JUMPDEST SWAP1 POP PUSH1 0x64 DUP2 EQ PUSH2 0x859 JUMPI PUSH1 0x40 MLOAD PUSH32 0x8C379A000000000000000000000000000000000000000000000000000000000 DUP2 MSTORE PUSH1 0x4 ADD PUSH2 0x850 SWAP1 PUSH2 0x4423 JUMP JUMPDEST PUSH1 0x40 MLOAD DUP1 SWAP2 SUB SWAP1 REVERT JUMPDEST PUSH1 0x0 PUSH2 0x8B4 PUSH2 0x882 DUP5 PUSH1 0x4 DUP2 MLOAD DUP2 LT PUSH2 0x875 JUMPI PUSH2 0x874 PUSH2 0x4AEA JUMP JUMPDEST JUMPDEST PUSH1 0x20 MUL PUSH1 0x20 ADD ADD MLOAD PUSH2 0x2998 JUMP JUMPDEST PUSH2 0x8A6 DUP6 PUSH1 0x3 DUP2 MLOAD DUP2 LT PUSH2 0x899 JUMPI PUSH2 0x898 PUSH2 0x4AEA JUMP JUMPDEST JUMPDEST PUSH1 0x20 MUL PUSH1 0x20 ADD ADD MLOAD PUSH2 0x2998 JUMP JUMPDEST PUSH2 0x2A30 SWAP1 SWAP2 SWAP1 PUSH4 0xFFFFFFFF AND JUMP JUMPDEST SWAP1 POP PUSH1 0x64 DUP2 EQ PUSH2 0x8F9 JUMPI PUSH1 0x40 MLOAD PUSH32 0x8C379A000000000000000000000000000000000000000000000000000000000 DUP2 MSTORE PUSH1 0x4 ADD PUSH2 0x8F0 SWAP1 PUSH2 0x4443 JUMP JUMPDEST PUSH1 0x40 MLOAD DUP1 SWAP2 SUB SWAP1 REVERT JUMPDEST DUP8 DUP8 GT PUSH2 0x905 JUMPI PUSH1 0x0 DUP1 REVERT JUMPDEST PUSH1 0x0 PUSH1 0x5 PUSH1 0x0 PUSH1 0x4 SLOAD DUP2 MSTORE PUSH1 0x20 ADD SWAP1 DUP2 MSTORE PUSH1 0x20 ADD PUSH1 0x0 KECCAK256 SWAP1 POP PUSH1 0x4 SLOAD DUP2 PUSH1 0x0 ADD DUP2 SWAP1 SSTORE POP DUP13 DUP13 DUP3 PUSH1 0xA ADD SWAP2 SWAP1 PUSH2 0x93C SWAP3 SWAP2 SWAP1 PUSH2 0x3822 JUMP JUMPDEST POP DUP11 DUP11 DUP3 PUSH1 0xB ADD SWAP2 SWAP1 PUSH2 0x950 SWAP3 SWAP2 SWAP1 PUSH2 0x3822 JUMP JUMPDEST POP TIMESTAMP DUP2 PUSH1 0x1 ADD DUP2 SWAP1 SSTORE POP PUSH1 0x1 DUP10 PUSH2 0x967 SWAP2 SWAP1 PUSH2 0x486A JUMP JUMPDEST TIMESTAMP PUSH2 0x972 SWAP2 SWAP1 PUSH2 0x4672 JUMP JUMPDEST DUP2 PUSH1 0x3 ADD DUP2 SWAP1 SSTORE POP PUSH1 0x1 DUP9 PUSH2 0x987 SWAP2 SWAP1 PUSH2 0x486A JUMP JUMPDEST TIMESTAMP PUSH2 0x992 SWAP2 SWAP1 PUSH2 0x4672 JUMP JUMPDEST DUP2 PUSH1 0x2 ADD DUP2 SWAP1 SSTORE POP CALLER DUP2 PUSH1 0x8 ADD PUSH1 0x0 PUSH2 0x100 EXP DUP2 SLOAD DUP2 PUSH20 0xFFFFFFFFFFFFFFFFFFFFFFFFFFFFFFFFFFFFFFFF MUL NOT AND SWAP1 DUP4 PUSH20 0xFFFFFFFFFFFFFFFFFFFFFFFFFFFFFFFFFFFFFFFF AND MUL OR SWAP1 SSTORE POP DUP1 PUSH1 0x4 ADD PUSH2 0xA05 DUP6 PUSH1 0x0 DUP2 MLOAD DUP2 LT PUSH2 0x9F8 JUMPI PUSH2 0x9F7 PUSH2 0x4AEA JUMP JUMPDEST JUMPDEST PUSH1 0x20 MUL PUSH1 0x20 ADD ADD MLOAD PUSH2 0x2998 JUMP JUMPDEST SWAP1 DUP1 PUSH1 0x1 DUP2 SLOAD ADD DUP1 DUP3 SSTORE DUP1 SWAP2 POP POP PUSH1 0x1 SWAP1 SUB SWAP1 PUSH1 0x0 MSTORE PUSH1 0x20 PUSH1 0x0 KECCAK256 ADD PUSH1 0x0 SWAP1 SWAP2 SWAP1 SWAP2 SWAP1 SWAP2 POP SSTORE DUP1 PUSH1 0x4 ADD PUSH2 0xA53 DUP6 PUSH1 0x1 DUP2 MLOAD DUP2 LT PUSH2 0xA46 JUMPI PUSH2 0xA45 PUSH2 0x4AEA JUMP JUMPDEST JUMPDEST PUSH1 0x20 MUL PUSH1 0x20 ADD ADD MLOAD PUSH2 0x2998 JUMP JUMPDEST SWAP1 DUP1 PUSH1 0x1 DUP2 SLOAD ADD DUP1 DUP3 SSTORE DUP1 SWAP2 POP POP PUSH1 0x1 SWAP1 SUB SWAP1 PUSH1 0x0 MSTORE PUSH1 0x20 PUSH1 0x0 KECCAK256 ADD PUSH1 0x0 SWAP1 SWAP2 SWAP1 SWAP2 SWAP1 SWAP2 POP SSTORE DUP1 PUSH1 0x4 ADD PUSH2 0xAA1 DUP6 PUSH1 0x2 DUP2 MLOAD DUP2 LT PUSH2 0xA94 JUMPI PUSH2 0xA93 PUSH2 0x4AEA JUMP JUMPDEST JUMPDEST PUSH1 0x20 MUL PUSH1 0x20 ADD ADD MLOAD PUSH2 0x2998 JUMP JUMPDEST SWAP1 DUP1 PUSH1 0x1 DUP2 SLOAD ADD DUP1 DUP3 SSTORE DUP1 SWAP2 POP POP PUSH1 0x1 SWAP1 SUB SWAP1 PUSH1 0x0 MSTORE PUSH1 0x20 PUSH1 0x0 KECCAK256 ADD PUSH1 0x0 SWAP1 SWAP2 SWAP1 SWAP2 SWAP1 SWAP2 POP SSTORE DUP1 PUSH1 0x4 ADD PUSH2 0xAEF DUP6 PUSH1 0x3 DUP2 MLOAD DUP2 LT PUSH2 0xAE2 JUMPI PUSH2 0xAE1 PUSH2 0x4AEA JUMP JUMPDEST JUMPDEST PUSH1 0x20 MUL PUSH1 0x20 ADD ADD MLOAD PUSH2 0x2998 JUMP JUMPDEST SWAP1 DUP1 PUSH1 0x1 DUP2 SLOAD ADD DUP1 DUP3 SSTORE DUP1 SWAP2 POP POP PUSH1 0x1 SWAP1 SUB SWAP1 PUSH1 0x0 MSTORE PUSH1 0x20 PUSH1 0x0 KECCAK256 ADD PUSH1 0x0 SWAP1 SWAP2 SWAP1 SWAP2 SWAP1 SWAP2 POP SSTORE DUP1 PUSH1 0x4 ADD PUSH2 0xB3D DUP6 PUSH1 0x4 DUP2 MLOAD DUP2 LT PUSH2 0xB30 JUMPI PUSH2 0xB2F PUSH2 0x4AEA JUMP JUMPDEST JUMPDEST PUSH1 0x20 MUL PUSH1 0x20 ADD ADD MLOAD PUSH2 0x2998 JUMP JUMPDEST SWAP1 DUP1 PUSH1 0x1 DUP2 SLOAD ADD DUP1 DUP3 SSTORE DUP1 SWAP2 POP POP PUSH1 0x1 SWAP1 SUB SWAP1 PUSH1 0x0 MSTORE PUSH1 0x20 PUSH1 0x0 KECCAK256 ADD PUSH1 0x0 SWAP1 SWAP2 SWAP1 SWAP2 SWAP1 SWAP2 POP SSTORE DUP1 PUSH1 0x4 ADD PUSH2 0xB8B DUP6 PUSH1 0x5 DUP2 MLOAD DUP2 LT PUSH2 0xB7E JUMPI PUSH2 0xB7D PUSH2 0x4AEA JUMP JUMPDEST JUMPDEST PUSH1 0x20 MUL PUSH1 0x20 ADD ADD MLOAD PUSH2 0x2998 JUMP JUMPDEST SWAP1 DUP1 PUSH1 0x1 DUP2 SLOAD ADD DUP1 DUP3 SSTORE DUP1 SWAP2 POP POP PUSH1 0x1 SWAP1 SUB SWAP1 PUSH1 0x0 MSTORE PUSH1 0x20 PUSH1 0x0 KECCAK256 ADD PUSH1 0x0 SWAP1 SWAP2 SWAP1 SWAP2 SWAP1 SWAP2 POP SSTORE PUSH1 0x4 PUSH1 0x0 DUP2 SLOAD DUP1 SWAP3 SWAP2 SWAP1 PUSH2 0xBC4 SWAP1 PUSH2 0x4A14 JUMP JUMPDEST SWAP2 SWAP1 POP SSTORE POP POP POP POP POP POP POP POP POP POP POP POP POP POP JUMP JUMPDEST PUSH1 0x1 ISZERO ISZERO PUSH2 0xBE9 PUSH1 0x0 DUP1 SHL CALLER PUSH2 0x1D53 JUMP JUMPDEST ISZERO ISZERO EQ PUSH2 0xC2B JUMPI PUSH1 0x40 MLOAD PUSH32 0x8C379A000000000000000000000000000000000000000000000000000000000 DUP2 MSTORE PUSH1 0x4 ADD PUSH2 0xC22 SWAP1 PUSH2 0x43E3 JUMP JUMPDEST PUSH1 0x40 MLOAD DUP1 SWAP2 SUB SWAP1 REVERT JUMPDEST DUP1 TIMESTAMP PUSH1 0x5 PUSH1 0x0 DUP4 DUP2 MSTORE PUSH1 0x20 ADD SWAP1 DUP2 MSTORE PUSH1 0x20 ADD PUSH1 0x0 KECCAK256 PUSH1 0x2 ADD SLOAD LT PUSH2 0xC4E JUMPI PUSH1 0x0 DUP1 REVERT JUMPDEST PUSH1 0x5 PUSH1 0x0 DUP4 DUP2 MSTORE PUSH1 0x20 ADD SWAP1 DUP2 MSTORE PUSH1 0x20 ADD PUSH1 0x0 KECCAK256 PUSH1 0x8 ADD PUSH1 0x0 SWAP1 SLOAD SWAP1 PUSH2 0x100 EXP SWAP1 DIV PUSH20 0xFFFFFFFFFFFFFFFFFFFFFFFFFFFFFFFFFFFFFFFF AND PUSH20 0xFFFFFFFFFFFFFFFFFFFFFFFFFFFFFFFFFFFFFFFF AND CALLER PUSH20 0xFFFFFFFFFFFFFFFFFFFFFFFFFFFFFFFFFFFFFFFF AND EQ PUSH2 0xCBC JUMPI PUSH1 0x0 DUP1 REVERT JUMPDEST PUSH1 0x0 PUSH1 0x7 PUSH1 0x0 DUP5 DUP2 MSTORE PUSH1 0x20 ADD SWAP1 DUP2 MSTORE PUSH1 0x20 ADD PUSH1 0x0 KECCAK256 PUSH1 0x0 DUP2 SLOAD DUP2 LT PUSH2 0xCE4 JUMPI PUSH2 0xCE3 PUSH2 0x4AEA JUMP JUMPDEST JUMPDEST SWAP1 PUSH1 0x0 MSTORE PUSH1 0x20 PUSH1 0x0 KECCAK256 ADD SLOAD SWAP1 POP PUSH1 0x0 DUP1 PUSH1 0x1 SWAP1 POP JUMPDEST PUSH1 0x6 PUSH1 0x0 DUP7 DUP2 MSTORE PUSH1 0x20 ADD SWAP1 DUP2 MSTORE PUSH1 0x20 ADD PUSH1 0x0 KECCAK256 DUP1 SLOAD SWAP1 POP DUP2 LT ISZERO PUSH2 0xD6E JUMPI PUSH1 0x0 PUSH1 0x7 PUSH1 0x0 DUP8 DUP2 MSTORE PUSH1 0x20 ADD SWAP1 DUP2 MSTORE PUSH1 0x20 ADD PUSH1 0x0 KECCAK256 DUP3 DUP2 SLOAD DUP2 LT PUSH2 0xD3E JUMPI PUSH2 0xD3D PUSH2 0x4AEA JUMP JUMPDEST JUMPDEST SWAP1 PUSH1 0x0 MSTORE PUSH1 0x20 PUSH1 0x0 KECCAK256 ADD SLOAD SWAP1 POP DUP4 DUP2 LT ISZERO PUSH2 0xD5A JUMPI DUP1 SWAP4 POP DUP2 SWAP3 POP JUMPDEST POP DUP1 DUP1 PUSH2 0xD66 SWAP1 PUSH2 0x4A14 JUMP JUMPDEST SWAP2 POP POP PUSH2 0xCF9 JUMP JUMPDEST POP PUSH1 0x6 PUSH1 0x0 DUP6 DUP2 MSTORE PUSH1 0x20 ADD SWAP1 DUP2 MSTORE PUSH1 0x20 ADD PUSH1 0x0 KECCAK256 DUP2 DUP2 SLOAD DUP2 LT PUSH2 0xD94 JUMPI PUSH2 0xD93 PUSH2 0x4AEA JUMP JUMPDEST JUMPDEST SWAP1 PUSH1 0x0 MSTORE PUSH1 0x20 PUSH1 0x0 KECCAK256 ADD PUSH1 0x0 SWAP1 SLOAD SWAP1 PUSH2 0x100 EXP SWAP1 DIV PUSH20 0xFFFFFFFFFFFFFFFFFFFFFFFFFFFFFFFFFFFFFFFF AND PUSH1 0x5 PUSH1 0x0 DUP7 DUP2 MSTORE PUSH1 0x20 ADD SWAP1 DUP2 MSTORE PUSH1 0x20 ADD PUSH1 0x0 KECCAK256 PUSH1 0x9 ADD PUSH1 0x0 PUSH2 0x100 EXP DUP2 SLOAD DUP2 PUSH20 0xFFFFFFFFFFFFFFFFFFFFFFFFFFFFFFFFFFFFFFFF MUL NOT AND SWAP1 DUP4 PUSH20 0xFFFFFFFFFFFFFFFFFFFFFFFFFFFFFFFFFFFFFFFF AND MUL OR SWAP1 SSTORE POP POP POP POP POP JUMP JUMPDEST PUSH1 0x0 DUP1 DUP3 TIMESTAMP PUSH1 0x5 PUSH1 0x0 DUP4 DUP2 MSTORE PUSH1 0x20 ADD SWAP1 DUP2 MSTORE PUSH1 0x20 ADD PUSH1 0x0 KECCAK256 PUSH1 0x2 ADD SLOAD LT PUSH2 0xE3F JUMPI PUSH1 0x0 DUP1 REVERT JUMPDEST PUSH1 0x5 PUSH1 0x0 DUP6 DUP2 MSTORE PUSH1 0x20 ADD SWAP1 DUP2 MSTORE PUSH1 0x20 ADD PUSH1 0x0 KECCAK256 PUSH1 0x9 ADD PUSH1 0x0 SWAP1 SLOAD SWAP1 PUSH2 0x100 EXP SWAP1 DIV PUSH20 0xFFFFFFFFFFFFFFFFFFFFFFFFFFFFFFFFFFFFFFFF AND PUSH1 0x5 PUSH1 0x0 DUP7 DUP2 MSTORE PUSH1 0x20 ADD SWAP1 DUP2 MSTORE PUSH1 0x20 ADD PUSH1 0x0 KECCAK256 PUSH1 0x6 ADD PUSH1 0x0 PUSH1 0x5 PUSH1 0x0 DUP9 DUP2 MSTORE PUSH1 0x20 ADD SWAP1 DUP2 MSTORE PUSH1 0x20 ADD PUSH1 0x0 KECCAK256 PUSH1 0x9 ADD PUSH1 0x0 SWAP1 SLOAD SWAP1 PUSH2 0x100 EXP SWAP1 DIV PUSH20 0xFFFFFFFFFFFFFFFFFFFFFFFFFFFFFFFFFFFFFFFF AND PUSH20 0xFFFFFFFFFFFFFFFFFFFFFFFFFFFFFFFFFFFFFFFF AND PUSH20 0xFFFFFFFFFFFFFFFFFFFFFFFFFFFFFFFFFFFFFFFF AND DUP2 MSTORE PUSH1 0x20 ADD SWAP1 DUP2 MSTORE PUSH1 0x20 ADD PUSH1 0x0 KECCAK256 SLOAD SWAP3 POP SWAP3 POP POP SWAP2 POP SWAP2 JUMP JUMPDEST PUSH1 0x1 ISZERO ISZERO PUSH2 0xF38 PUSH32 0x67BEE59EE70CE8DB2640FEFB72D33F9B54EE798D412840C7C6D3E247987EB248 CALLER PUSH2 0x1D53 JUMP JUMPDEST ISZERO ISZERO EQ PUSH2 0xF7A JUMPI PUSH1 0x40 MLOAD PUSH32 0x8C379A000000000000000000000000000000000000000000000000000000000 DUP2 MSTORE PUSH1 0x4 ADD PUSH2 0xF71 SWAP1 PUSH2 0x43E3 JUMP JUMPDEST PUSH1 0x40 MLOAD DUP1 SWAP2 SUB SWAP1 REVERT JUMPDEST DUP5 PUSH1 0x5 PUSH1 0x0 DUP3 DUP2 MSTORE PUSH1 0x20 ADD SWAP1 DUP2 MSTORE PUSH1 0x20 ADD PUSH1 0x0 KECCAK256 PUSH1 0x3 ADD SLOAD TIMESTAMP LT ISZERO DUP1 ISZERO PUSH2 0xFB6 JUMPI POP PUSH1 0x5 PUSH1 0x0 DUP3 DUP2 MSTORE PUSH1 0x20 ADD SWAP1 DUP2 MSTORE PUSH1 0x20 ADD PUSH1 0x0 KECCAK256 PUSH1 0x2 ADD SLOAD TIMESTAMP LT JUMPDEST PUSH2 0xFF5 JUMPI PUSH1 0x40 MLOAD PUSH32 0x8C379A000000000000000000000000000000000000000000000000000000000 DUP2 MSTORE PUSH1 0x4 ADD PUSH2 0xFEC SWAP1 PUSH2 0x44C3 JUMP JUMPDEST PUSH1 0x40 MLOAD DUP1 SWAP2 SUB SWAP1 REVERT JUMPDEST CALLER PUSH20 0xFFFFFFFFFFFFFFFFFFFFFFFFFFFFFFFFFFFFFFFF AND PUSH1 0x5 PUSH1 0x0 DUP9 DUP2 MSTORE PUSH1 0x20 ADD SWAP1 DUP2 MSTORE PUSH1 0x20 ADD PUSH1 0x0 KECCAK256 PUSH1 0x5 ADD PUSH1 0x0 CALLER PUSH20 0xFFFFFFFFFFFFFFFFFFFFFFFFFFFFFFFFFFFFFFFF AND PUSH20 0xFFFFFFFFFFFFFFFFFFFFFFFFFFFFFFFFFFFFFFFF AND DUP2 MSTORE PUSH1 0x20 ADD SWAP1 DUP2 MSTORE PUSH1 0x20 ADD PUSH1 0x0 KECCAK256 PUSH1 0x0 ADD PUSH1 0x0 SWAP1 SLOAD SWAP1 PUSH2 0x100 EXP SWAP1 DIV PUSH20 0xFFFFFFFFFFFFFFFFFFFFFFFFFFFFFFFFFFFFFFFF AND PUSH20 0xFFFFFFFFFFFFFFFFFFFFFFFFFFFFFFFFFFFFFFFF AND EQ PUSH2 0x10A3 JUMPI PUSH1 0x0 DUP1 REVERT JUMPDEST PUSH1 0x5 PUSH1 0x0 DUP8 DUP2 MSTORE PUSH1 0x20 ADD SWAP1 DUP2 MSTORE PUSH1 0x20 ADD PUSH1 0x0 KECCAK256 PUSH1 0x5 ADD PUSH1 0x0 CALLER PUSH20 0xFFFFFFFFFFFFFFFFFFFFFFFFFFFFFFFFFFFFFFFF AND PUSH20 0xFFFFFFFFFFFFFFFFFFFFFFFFFFFFFFFFFFFFFFFF AND DUP2 MSTORE PUSH1 0x20 ADD SWAP1 DUP2 MSTORE PUSH1 0x20 ADD PUSH1 0x0 KECCAK256 PUSH1 0x1 ADD SLOAD DUP6 DUP6 PUSH1 0x40 MLOAD PUSH1 0x20 ADD PUSH2 0x110D SWAP3 SWAP2 SWAP1 PUSH2 0x4257 JUMP JUMPDEST PUSH1 0x40 MLOAD PUSH1 0x20 DUP2 DUP4 SUB SUB DUP2 MSTORE SWAP1 PUSH1 0x40 MSTORE DUP1 MLOAD SWAP1 PUSH1 0x20 ADD KECCAK256 EQ PUSH2 0x112D JUMPI PUSH1 0x0 DUP1 REVERT JUMPDEST PUSH1 0x0 PUSH1 0x5 PUSH1 0x0 DUP9 DUP2 MSTORE PUSH1 0x20 ADD SWAP1 DUP2 MSTORE PUSH1 0x20 ADD PUSH1 0x0 KECCAK256 SWAP1 POP DUP6 DUP6 DUP3 PUSH1 0x5 ADD PUSH1 0x0 CALLER PUSH20 0xFFFFFFFFFFFFFFFFFFFFFFFFFFFFFFFFFFFFFFFF AND PUSH20 0xFFFFFFFFFFFFFFFFFFFFFFFFFFFFFFFFFFFFFFFF AND DUP2 MSTORE PUSH1 0x20 ADD SWAP1 DUP2 MSTORE PUSH1 0x20 ADD PUSH1 0x0 KECCAK256 PUSH1 0x3 ADD SWAP2 SWAP1 PUSH2 0x1197 SWAP3 SWAP2 SWAP1 PUSH2 0x3822 JUMP JUMPDEST POP DUP4 DUP4 DUP3 PUSH1 0x5 ADD PUSH1 0x0 CALLER PUSH20 0xFFFFFFFFFFFFFFFFFFFFFFFFFFFFFFFFFFFFFFFF AND PUSH20 0xFFFFFFFFFFFFFFFFFFFFFFFFFFFFFFFFFFFFFFFF AND DUP2 MSTORE PUSH1 0x20 ADD SWAP1 DUP2 MSTORE PUSH1 0x20 ADD PUSH1 0x0 KECCAK256 PUSH1 0x4 ADD SWAP2 SWAP1 PUSH2 0x11EB SWAP3 SWAP2 SWAP1 PUSH2 0x3822 JUMP JUMPDEST POP PUSH1 0x1 DUP2 PUSH1 0x5 ADD PUSH1 0x0 CALLER PUSH20 0xFFFFFFFFFFFFFFFFFFFFFFFFFFFFFFFFFFFFFFFF AND PUSH20 0xFFFFFFFFFFFFFFFFFFFFFFFFFFFFFFFFFFFFFFFF AND DUP2 MSTORE PUSH1 0x20 ADD SWAP1 DUP2 MSTORE PUSH1 0x20 ADD PUSH1 0x0 KECCAK256 PUSH1 0x2 ADD PUSH1 0x0 PUSH2 0x100 EXP DUP2 SLOAD DUP2 PUSH1 0xFF MUL NOT AND SWAP1 DUP4 ISZERO ISZERO MUL OR SWAP1 SSTORE POP PUSH1 0x6 PUSH1 0x0 DUP9 DUP2 MSTORE PUSH1 0x20 ADD SWAP1 DUP2 MSTORE PUSH1 0x20 ADD PUSH1 0x0 KECCAK256 CALLER SWAP1 DUP1 PUSH1 0x1 DUP2 SLOAD ADD DUP1 DUP3 SSTORE DUP1 SWAP2 POP POP PUSH1 0x1 SWAP1 SUB SWAP1 PUSH1 0x0 MSTORE PUSH1 0x20 PUSH1 0x0 KECCAK256 ADD PUSH1 0x0 SWAP1 SWAP2 SWAP1 SWAP2 SWAP1 SWAP2 PUSH2 0x100 EXP DUP2 SLOAD DUP2 PUSH20 0xFFFFFFFFFFFFFFFFFFFFFFFFFFFFFFFFFFFFFFFF MUL NOT AND SWAP1 DUP4 PUSH20 0xFFFFFFFFFFFFFFFFFFFFFFFFFFFFFFFFFFFFFFFF AND MUL OR SWAP1 SSTORE POP POP POP POP POP POP POP POP JUMP JUMPDEST PUSH1 0x1 ISZERO ISZERO PUSH2 0x12F4 PUSH32 0x67BEE59EE70CE8DB2640FEFB72D33F9B54EE798D412840C7C6D3E247987EB248 CALLER PUSH2 0x1D53 JUMP JUMPDEST ISZERO ISZERO EQ PUSH2 0x1336 JUMPI PUSH1 0x40 MLOAD PUSH32 0x8C379A000000000000000000000000000000000000000000000000000000000 DUP2 MSTORE PUSH1 0x4 ADD PUSH2 0x132D SWAP1 PUSH2 0x43E3 JUMP JUMPDEST PUSH1 0x40 MLOAD DUP1 SWAP2 SUB SWAP1 REVERT JUMPDEST DUP2 PUSH1 0x5 PUSH1 0x0 DUP3 DUP2 MSTORE PUSH1 0x20 ADD SWAP1 DUP2 MSTORE PUSH1 0x20 ADD PUSH1 0x0 KECCAK256 PUSH1 0x1 ADD SLOAD TIMESTAMP LT ISZERO DUP1 ISZERO PUSH2 0x1373 JUMPI POP PUSH1 0x5 PUSH1 0x0 DUP3 DUP2 MSTORE PUSH1 0x20 ADD SWAP1 DUP2 MSTORE PUSH1 0x20 ADD PUSH1 0x0 KECCAK256 PUSH1 0x3 ADD SLOAD TIMESTAMP GT ISZERO JUMPDEST PUSH2 0x13B2 JUMPI PUSH1 0x40 MLOAD PUSH32 0x8C379A000000000000000000000000000000000000000000000000000000000 DUP2 MSTORE PUSH1 0x4 ADD PUSH2 0x13A9 SWAP1 PUSH2 0x4463 JUMP JUMPDEST PUSH1 0x40 MLOAD DUP1 SWAP2 SUB SWAP1 REVERT JUMPDEST DUP3 PUSH1 0x1 ISZERO ISZERO PUSH1 0x5 PUSH1 0x0 DUP4 DUP2 MSTORE PUSH1 0x20 ADD SWAP1 DUP2 MSTORE PUSH1 0x20 ADD PUSH1 0x0 KECCAK256 PUSH1 0x7 ADD PUSH1 0x0 CALLER PUSH20 0xFFFFFFFFFFFFFFFFFFFFFFFFFFFFFFFFFFFFFFFF AND PUSH20 0xFFFFFFFFFFFFFFFFFFFFFFFFFFFFFFFFFFFFFFFF AND DUP2 MSTORE PUSH1 0x20 ADD SWAP1 DUP2 MSTORE PUSH1 0x20 ADD PUSH1 0x0 KECCAK256 PUSH1 0x0 SWAP1 SLOAD SWAP1 PUSH2 0x100 EXP SWAP1 DIV PUSH1 0xFF AND ISZERO ISZERO EQ ISZERO PUSH2 0x145B JUMPI PUSH1 0x40 MLOAD PUSH32 0x8C379A000000000000000000000000000000000000000000000000000000000 DUP2 MSTORE PUSH1 0x4 ADD PUSH2 0x1452 SWAP1 PUSH2 0x44A3 JUMP JUMPDEST PUSH1 0x40 MLOAD DUP1 SWAP2 SUB SWAP1 REVERT JUMPDEST PUSH1 0x0 PUSH1 0x5 PUSH1 0x0 DUP7 DUP2 MSTORE PUSH1 0x20 ADD SWAP1 DUP2 MSTORE PUSH1 0x20 ADD PUSH1 0x0 KECCAK256 SWAP1 POP PUSH1 0x1 DUP2 PUSH1 0x7 ADD PUSH1 0x0 CALLER PUSH20 0xFFFFFFFFFFFFFFFFFFFFFFFFFFFFFFFFFFFFFFFF AND PUSH20 0xFFFFFFFFFFFFFFFFFFFFFFFFFFFFFFFFFFFFFFFF AND DUP2 MSTORE PUSH1 0x20 ADD SWAP1 DUP2 MSTORE PUSH1 0x20 ADD PUSH1 0x0 KECCAK256 PUSH1 0x0 PUSH2 0x100 EXP DUP2 SLOAD DUP2 PUSH1 0xFF MUL NOT AND SWAP1 DUP4 ISZERO ISZERO MUL OR SWAP1 SSTORE POP PUSH1 0x40 MLOAD DUP1 PUSH1 0xC0 ADD PUSH1 0x40 MSTORE DUP1 CALLER PUSH20 0xFFFFFFFFFFFFFFFFFFFFFFFFFFFFFFFFFFFFFFFF AND DUP2 MSTORE PUSH1 0x20 ADD DUP6 DUP2 MSTORE PUSH1 0x20 ADD PUSH1 0x0 ISZERO ISZERO DUP2 MSTORE PUSH1 0x20 ADD PUSH1 0x40 MLOAD DUP1 PUSH1 0x20 ADD PUSH1 0x40 MSTORE DUP1 PUSH1 0x0 DUP2 MSTORE POP DUP2 MSTORE PUSH1 0x20 ADD PUSH1 0x40 MLOAD DUP1 PUSH1 0x20 ADD PUSH1 0x40 MSTORE DUP1 PUSH1 0x0 DUP2 MSTORE POP DUP2 MSTORE PUSH1 0x20 ADD PUSH1 0x0 PUSH8 0xFFFFFFFFFFFFFFFF DUP2 GT ISZERO PUSH2 0x1547 JUMPI PUSH2 0x1546 PUSH2 0x4B19 JUMP JUMPDEST JUMPDEST PUSH1 0x40 MLOAD SWAP1 DUP1 DUP3 MSTORE DUP1 PUSH1 0x20 MUL PUSH1 0x20 ADD DUP3 ADD PUSH1 0x40 MSTORE DUP1 ISZERO PUSH2 0x157A JUMPI DUP2 PUSH1 0x20 ADD JUMPDEST PUSH1 0x60 DUP2 MSTORE PUSH1 0x20 ADD SWAP1 PUSH1 0x1 SWAP1 SUB SWAP1 DUP2 PUSH2 0x1565 JUMPI SWAP1 POP JUMPDEST POP DUP2 MSTORE POP DUP2 PUSH1 0x5 ADD PUSH1 0x0 CALLER PUSH20 0xFFFFFFFFFFFFFFFFFFFFFFFFFFFFFFFFFFFFFFFF AND PUSH20 0xFFFFFFFFFFFFFFFFFFFFFFFFFFFFFFFFFFFFFFFF AND DUP2 MSTORE PUSH1 0x20 ADD SWAP1 DUP2 MSTORE PUSH1 0x20 ADD PUSH1 0x0 KECCAK256 PUSH1 0x0 DUP3 ADD MLOAD DUP2 PUSH1 0x0 ADD PUSH1 0x0 PUSH2 0x100 EXP DUP2 SLOAD DUP2 PUSH20 0xFFFFFFFFFFFFFFFFFFFFFFFFFFFFFFFFFFFFFFFF MUL NOT AND SWAP1 DUP4 PUSH20 0xFFFFFFFFFFFFFFFFFFFFFFFFFFFFFFFFFFFFFFFF AND MUL OR SWAP1 SSTORE POP PUSH1 0x20 DUP3 ADD MLOAD DUP2 PUSH1 0x1 ADD SSTORE PUSH1 0x40 DUP3 ADD MLOAD DUP2 PUSH1 0x2 ADD PUSH1 0x0 PUSH2 0x100 EXP DUP2 SLOAD DUP2 PUSH1 0xFF MUL NOT AND SWAP1 DUP4 ISZERO ISZERO MUL OR SWAP1 SSTORE POP PUSH1 0x60 DUP3 ADD MLOAD DUP2 PUSH1 0x3 ADD SWAP1 DUP1 MLOAD SWAP1 PUSH1 0x20 ADD SWAP1 PUSH2 0x164C SWAP3 SWAP2 SWAP1 PUSH2 0x38A8 JUMP JUMPDEST POP PUSH1 0x80 DUP3 ADD MLOAD DUP2 PUSH1 0x4 ADD SWAP1 DUP1 MLOAD SWAP1 PUSH1 0x20 ADD SWAP1 PUSH2 0x1669 SWAP3 SWAP2 SWAP1 PUSH2 0x38A8 JUMP JUMPDEST POP PUSH1 0xA0 DUP3 ADD MLOAD DUP2 PUSH1 0x5 ADD SWAP1 DUP1 MLOAD SWAP1 PUSH1 0x20 ADD SWAP1 PUSH2 0x1686 SWAP3 SWAP2 SWAP1 PUSH2 0x392E JUMP JUMPDEST POP SWAP1 POP POP POP POP POP POP POP JUMP JUMPDEST PUSH1 0x1 ISZERO ISZERO PUSH2 0x16A2 PUSH1 0x0 DUP1 SHL CALLER PUSH2 0x1D53 JUMP JUMPDEST ISZERO ISZERO EQ PUSH2 0x16E4 JUMPI PUSH1 0x40 MLOAD PUSH32 0x8C379A000000000000000000000000000000000000000000000000000000000 DUP2 MSTORE PUSH1 0x4 ADD PUSH2 0x16DB SWAP1 PUSH2 0x43E3 JUMP JUMPDEST PUSH1 0x40 MLOAD DUP1 SWAP2 SUB SWAP1 REVERT JUMPDEST DUP1 TIMESTAMP PUSH1 0x5 PUSH1 0x0 DUP4 DUP2 MSTORE PUSH1 0x20 ADD SWAP1 DUP2 MSTORE PUSH1 0x20 ADD PUSH1 0x0 KECCAK256 PUSH1 0x2 ADD SLOAD LT PUSH2 0x1707 JUMPI PUSH1 0x0 DUP1 REVERT JUMPDEST PUSH1 0x5 PUSH1 0x0 DUP4 DUP2 MSTORE PUSH1 0x20 ADD SWAP1 DUP2 MSTORE PUSH1 0x20 ADD PUSH1 0x0 KECCAK256 PUSH1 0x8 ADD PUSH1 0x0 SWAP1 SLOAD SWAP1 PUSH2 0x100 EXP SWAP1 DIV PUSH20 0xFFFFFFFFFFFFFFFFFFFFFFFFFFFFFFFFFFFFFFFF AND PUSH20 0xFFFFFFFFFFFFFFFFFFFFFFFFFFFFFFFFFFFFFFFF AND CALLER PUSH20 0xFFFFFFFFFFFFFFFFFFFFFFFFFFFFFFFFFFFFFFFF AND EQ PUSH2 0x1775 JUMPI PUSH1 0x0 DUP1 REVERT JUMPDEST PUSH1 0x0 PUSH2 0x1780 DUP4 PUSH2 0x2A8E JUMP JUMPDEST SWAP1 POP PUSH2 0x178B DUP4 PUSH2 0x2C15 JUMP JUMPDEST PUSH1 0x0 JUMPDEST PUSH1 0x6 PUSH1 0x0 DUP6 DUP2 MSTORE PUSH1 0x20 ADD SWAP1 DUP2 MSTORE PUSH1 0x20 ADD PUSH1 0x0 KECCAK256 DUP1 SLOAD SWAP1 POP DUP2 LT ISZERO PUSH2 0x1D3D JUMPI PUSH1 0x0 PUSH1 0x6 PUSH1 0x0 DUP7 DUP2 MSTORE PUSH1 0x20 ADD SWAP1 DUP2 MSTORE PUSH1 0x20 ADD PUSH1 0x0 KECCAK256 DUP3 DUP2 SLOAD DUP2 LT PUSH2 0x17D3 JUMPI PUSH2 0x17D2 PUSH2 0x4AEA JUMP JUMPDEST JUMPDEST SWAP1 PUSH1 0x0 MSTORE PUSH1 0x20 PUSH1 0x0 KECCAK256 ADD PUSH1 0x0 SWAP1 SLOAD SWAP1 PUSH2 0x100 EXP SWAP1 DIV PUSH20 0xFFFFFFFFFFFFFFFFFFFFFFFFFFFFFFFFFFFFFFFF AND SWAP1 POP PUSH1 0x0 PUSH1 0x5 PUSH1 0x0 DUP8 DUP2 MSTORE PUSH1 0x20 ADD SWAP1 DUP2 MSTORE PUSH1 0x20 ADD PUSH1 0x0 KECCAK256 PUSH1 0x5 ADD PUSH1 0x0 DUP4 PUSH20 0xFFFFFFFFFFFFFFFFFFFFFFFFFFFFFFFFFFFFFFFF AND PUSH20 0xFFFFFFFFFFFFFFFFFFFFFFFFFFFFFFFFFFFFFFFF AND DUP2 MSTORE PUSH1 0x20 ADD SWAP1 DUP2 MSTORE PUSH1 0x20 ADD PUSH1 0x0 KECCAK256 PUSH1 0x40 MLOAD DUP1 PUSH1 0xC0 ADD PUSH1 0x40 MSTORE SWAP1 DUP2 PUSH1 0x0 DUP3 ADD PUSH1 0x0 SWAP1 SLOAD SWAP1 PUSH2 0x100 EXP SWAP1 DIV PUSH20 0xFFFFFFFFFFFFFFFFFFFFFFFFFFFFFFFFFFFFFFFF AND PUSH20 0xFFFFFFFFFFFFFFFFFFFFFFFFFFFFFFFFFFFFFFFF AND PUSH20 0xFFFFFFFFFFFFFFFFFFFFFFFFFFFFFFFFFFFFFFFF AND DUP2 MSTORE PUSH1 0x20 ADD PUSH1 0x1 DUP3 ADD SLOAD DUP2 MSTORE PUSH1 0x20 ADD PUSH1 0x2 DUP3 ADD PUSH1 0x0 SWAP1 SLOAD SWAP1 PUSH2 0x100 EXP SWAP1 DIV PUSH1 0xFF AND ISZERO ISZERO ISZERO ISZERO DUP2 MSTORE PUSH1 0x20 ADD PUSH1 0x3 DUP3 ADD DUP1 SLOAD PUSH2 0x18EB SWAP1 PUSH2 0x49E2 JUMP JUMPDEST DUP1 PUSH1 0x1F ADD PUSH1 0x20 DUP1 SWAP2 DIV MUL PUSH1 0x20 ADD PUSH1 0x40 MLOAD SWAP1 DUP2 ADD PUSH1 0x40 MSTORE DUP1 SWAP3 SWAP2 SWAP1 DUP2 DUP2 MSTORE PUSH1 0x20 ADD DUP3 DUP1 SLOAD PUSH2 0x1917 SWAP1 PUSH2 0x49E2 JUMP JUMPDEST DUP1 ISZERO PUSH2 0x1964 JUMPI DUP1 PUSH1 0x1F LT PUSH2 0x1939 JUMPI PUSH2 0x100 DUP1 DUP4 SLOAD DIV MUL DUP4 MSTORE SWAP2 PUSH1 0x20 ADD SWAP2 PUSH2 0x1964 JUMP JUMPDEST DUP3 ADD SWAP2 SWAP1 PUSH1 0x0 MSTORE PUSH1 0x20 PUSH1 0x0 KECCAK256 SWAP1 JUMPDEST DUP2 SLOAD DUP2 MSTORE SWAP1 PUSH1 0x1 ADD SWAP1 PUSH1 0x20 ADD DUP1 DUP4 GT PUSH2 0x1947 JUMPI DUP3 SWAP1 SUB PUSH1 0x1F AND DUP3 ADD SWAP2 JUMPDEST POP POP POP POP POP DUP2 MSTORE PUSH1 0x20 ADD PUSH1 0x4 DUP3 ADD DUP1 SLOAD PUSH2 0x197D SWAP1 PUSH2 0x49E2 JUMP JUMPDEST DUP1 PUSH1 0x1F ADD PUSH1 0x20 DUP1 SWAP2 DIV MUL PUSH1 0x20 ADD PUSH1 0x40 MLOAD SWAP1 DUP2 ADD PUSH1 0x40 MSTORE DUP1 SWAP3 SWAP2 SWAP1 DUP2 DUP2 MSTORE PUSH1 0x20 ADD DUP3 DUP1 SLOAD PUSH2 0x19A9 SWAP1 PUSH2 0x49E2 JUMP JUMPDEST DUP1 ISZERO PUSH2 0x19F6 JUMPI DUP1 PUSH1 0x1F LT PUSH2 0x19CB JUMPI PUSH2 0x100 DUP1 DUP4 SLOAD DIV MUL DUP4 MSTORE SWAP2 PUSH1 0x20 ADD SWAP2 PUSH2 0x19F6 JUMP JUMPDEST DUP3 ADD SWAP2 SWAP1 PUSH1 0x0 MSTORE PUSH1 0x20 PUSH1 0x0 KECCAK256 SWAP1 JUMPDEST DUP2 SLOAD DUP2 MSTORE SWAP1 PUSH1 0x1 ADD SWAP1 PUSH1 0x20 ADD DUP1 DUP4 GT PUSH2 0x19D9 JUMPI DUP3 SWAP1 SUB PUSH1 0x1F AND DUP3 ADD SWAP2 JUMPDEST POP POP POP POP POP DUP2 MSTORE PUSH1 0x20 ADD PUSH1 0x5 DUP3 ADD DUP1 SLOAD DUP1 PUSH1 0x20 MUL PUSH1 0x20 ADD PUSH1 0x40 MLOAD SWAP1 DUP2 ADD PUSH1 0x40 MSTORE DUP1 SWAP3 SWAP2 SWAP1 DUP2 DUP2 MSTORE PUSH1 0x20 ADD PUSH1 0x0 SWAP1 JUMPDEST DUP3 DUP3 LT ISZERO PUSH2 0x1AD0 JUMPI DUP4 DUP3 SWAP1 PUSH1 0x0 MSTORE PUSH1 0x20 PUSH1 0x0 KECCAK256 ADD DUP1 SLOAD PUSH2 0x1A43 SWAP1 PUSH2 0x49E2 JUMP JUMPDEST DUP1 PUSH1 0x1F ADD PUSH1 0x20 DUP1 SWAP2 DIV MUL PUSH1 0x20 ADD PUSH1 0x40 MLOAD SWAP1 DUP2 ADD PUSH1 0x40 MSTORE DUP1 SWAP3 SWAP2 SWAP1 DUP2 DUP2 MSTORE PUSH1 0x20 ADD DUP3 DUP1 SLOAD PUSH2 0x1A6F SWAP1 PUSH2 0x49E2 JUMP JUMPDEST DUP1 ISZERO PUSH2 0x1ABC JUMPI DUP1 PUSH1 0x1F LT PUSH2 0x1A91 JUMPI PUSH2 0x100 DUP1 DUP4 SLOAD DIV MUL DUP4 MSTORE SWAP2 PUSH1 0x20 ADD SWAP2 PUSH2 0x1ABC JUMP JUMPDEST DUP3 ADD SWAP2 SWAP1 PUSH1 0x0 MSTORE PUSH1 0x20 PUSH1 0x0 KECCAK256 SWAP1 JUMPDEST DUP2 SLOAD DUP2 MSTORE SWAP1 PUSH1 0x1 ADD SWAP1 PUSH1 0x20 ADD DUP1 DUP4 GT PUSH2 0x1A9F JUMPI DUP3 SWAP1 SUB PUSH1 0x1F AND DUP3 ADD SWAP2 JUMPDEST POP POP POP POP POP DUP2 MSTORE PUSH1 0x20 ADD SWAP1 PUSH1 0x1 ADD SWAP1 PUSH2 0x1A24 JUMP JUMPDEST POP POP POP POP DUP2 MSTORE POP POP SWAP1 POP PUSH1 0x1 ISZERO ISZERO DUP2 PUSH1 0x40 ADD MLOAD ISZERO ISZERO EQ ISZERO PUSH2 0x1D28 JUMPI PUSH1 0x0 PUSH2 0x1B15 DUP3 PUSH1 0xA0 ADD MLOAD PUSH1 0x0 DUP2 MLOAD DUP2 LT PUSH2 0x1B08 JUMPI PUSH2 0x1B07 PUSH2 0x4AEA JUMP JUMPDEST JUMPDEST PUSH1 0x20 MUL PUSH1 0x20 ADD ADD MLOAD PUSH2 0x2998 JUMP JUMPDEST SWAP1 POP PUSH1 0x0 PUSH2 0x1B4A DUP3 PUSH2 0x1B45 DUP6 PUSH1 0xA0 ADD MLOAD PUSH1 0x1 DUP2 MLOAD DUP2 LT PUSH2 0x1B38 JUMPI PUSH2 0x1B37 PUSH2 0x4AEA JUMP JUMPDEST JUMPDEST PUSH1 0x20 MUL PUSH1 0x20 ADD ADD MLOAD PUSH2 0x2998 JUMP JUMPDEST PUSH2 0x2FED JUMP JUMPDEST SWAP1 POP PUSH1 0x0 PUSH2 0x1BB9 DUP4 PUSH2 0x1BB4 PUSH2 0x1B7D DUP8 PUSH1 0xA0 ADD MLOAD PUSH1 0x2 DUP2 MLOAD DUP2 LT PUSH2 0x1B70 JUMPI PUSH2 0x1B6F PUSH2 0x4AEA JUMP JUMPDEST JUMPDEST PUSH1 0x20 MUL PUSH1 0x20 ADD ADD MLOAD PUSH2 0x2998 JUMP JUMPDEST PUSH2 0x1BA5 DUP9 PUSH1 0xA0 ADD MLOAD PUSH1 0x3 DUP2 MLOAD DUP2 LT PUSH2 0x1B98 JUMPI PUSH2 0x1B97 PUSH2 0x4AEA JUMP JUMPDEST JUMPDEST PUSH1 0x20 MUL PUSH1 0x20 ADD ADD MLOAD PUSH2 0x2998 JUMP JUMPDEST DUP12 PUSH1 0x60 ADD MLOAD DUP13 PUSH1 0x80 ADD MLOAD PUSH2 0x3055 JUMP JUMPDEST PUSH2 0x2FED JUMP JUMPDEST SWAP1 POP PUSH1 0x0 PUSH2 0x1BEE DUP5 PUSH2 0x1BE9 DUP8 PUSH1 0xA0 ADD MLOAD PUSH1 0x4 DUP2 MLOAD DUP2 LT PUSH2 0x1BDC JUMPI PUSH2 0x1BDB PUSH2 0x4AEA JUMP JUMPDEST JUMPDEST PUSH1 0x20 MUL PUSH1 0x20 ADD ADD MLOAD PUSH2 0x2998 JUMP JUMPDEST PUSH2 0x2FED JUMP JUMPDEST SWAP1 POP PUSH1 0x0 PUSH2 0x1C09 DUP6 DUP11 PUSH1 0x0 ADD MLOAD PUSH2 0x30C2 SWAP1 SWAP2 SWAP1 PUSH4 0xFFFFFFFF AND JUMP JUMPDEST SWAP1 POP PUSH2 0x1C34 PUSH2 0x1C25 DUP6 DUP12 PUSH1 0x20 ADD MLOAD PUSH2 0x30C2 SWAP1 SWAP2 SWAP1 PUSH4 0xFFFFFFFF AND JUMP JUMPDEST DUP3 PUSH2 0x2A30 SWAP1 SWAP2 SWAP1 PUSH4 0xFFFFFFFF AND JUMP JUMPDEST SWAP1 POP PUSH2 0x1C5F PUSH2 0x1C50 DUP5 DUP12 PUSH1 0x40 ADD MLOAD PUSH2 0x30C2 SWAP1 SWAP2 SWAP1 PUSH4 0xFFFFFFFF AND JUMP JUMPDEST DUP3 PUSH2 0x2A30 SWAP1 SWAP2 SWAP1 PUSH4 0xFFFFFFFF AND JUMP JUMPDEST SWAP1 POP PUSH2 0x1C8A PUSH2 0x1C7B DUP4 DUP12 PUSH1 0xA0 ADD MLOAD PUSH2 0x30C2 SWAP1 SWAP2 SWAP1 PUSH4 0xFFFFFFFF AND JUMP JUMPDEST DUP3 PUSH2 0x2A30 SWAP1 SWAP2 SWAP1 PUSH4 0xFFFFFFFF AND JUMP JUMPDEST SWAP1 POP PUSH1 0x7 PUSH1 0x0 DUP13 DUP2 MSTORE PUSH1 0x20 ADD SWAP1 DUP2 MSTORE PUSH1 0x20 ADD PUSH1 0x0 KECCAK256 DUP2 SWAP1 DUP1 PUSH1 0x1 DUP2 SLOAD ADD DUP1 DUP3 SSTORE DUP1 SWAP2 POP POP PUSH1 0x1 SWAP1 SUB SWAP1 PUSH1 0x0 MSTORE PUSH1 0x20 PUSH1 0x0 KECCAK256 ADD PUSH1 0x0 SWAP1 SWAP2 SWAP1 SWAP2 SWAP1 SWAP2 POP SSTORE DUP1 PUSH1 0x5 PUSH1 0x0 DUP14 DUP2 MSTORE PUSH1 0x20 ADD SWAP1 DUP2 MSTORE PUSH1 0x20 ADD PUSH1 0x0 KECCAK256 PUSH1 0x6 ADD PUSH1 0x0 DUP9 PUSH1 0x0 ADD MLOAD PUSH20 0xFFFFFFFFFFFFFFFFFFFFFFFFFFFFFFFFFFFFFFFF AND PUSH20 0xFFFFFFFFFFFFFFFFFFFFFFFFFFFFFFFFFFFFFFFF AND DUP2 MSTORE PUSH1 0x20 ADD SWAP1 DUP2 MSTORE PUSH1 0x20 ADD PUSH1 0x0 KECCAK256 DUP2 SWAP1 SSTORE POP POP POP POP POP POP JUMPDEST POP POP DUP1 DUP1 PUSH2 0x1D35 SWAP1 PUSH2 0x4A14 JUMP JUMPDEST SWAP2 POP POP PUSH2 0x178E JUMP JUMPDEST POP POP POP POP JUMP JUMPDEST PUSH2 0x1D50 PUSH1 0x0 DUP1 SHL DUP3 PUSH2 0x25ED JUMP JUMPDEST POP JUMP JUMPDEST PUSH1 0x0 DUP1 PUSH1 0x0 DUP5 DUP2 MSTORE PUSH1 0x20 ADD SWAP1 DUP2 MSTORE PUSH1 0x20 ADD PUSH1 0x0 KECCAK256 PUSH1 0x0 ADD PUSH1 0x0 DUP4 PUSH20 0xFFFFFFFFFFFFFFFFFFFFFFFFFFFFFFFFFFFFFFFF AND PUSH20 0xFFFFFFFFFFFFFFFFFFFFFFFFFFFFFFFFFFFFFFFF AND DUP2 MSTORE PUSH1 0x20 ADD SWAP1 DUP2 MSTORE PUSH1 0x20 ADD PUSH1 0x0 KECCAK256 PUSH1 0x0 SWAP1 SLOAD SWAP1 PUSH2 0x100 EXP SWAP1 DIV PUSH1 0xFF AND SWAP1 POP SWAP3 SWAP2 POP POP JUMP JUMPDEST PUSH2 0x1DCA PUSH1 0x0 DUP1 SHL DUP3 PUSH2 0x5EF JUMP JUMPDEST POP JUMP JUMPDEST PUSH1 0x0 DUP1 PUSH1 0x0 DUP5 TIMESTAMP PUSH1 0x5 PUSH1 0x0 DUP4 DUP2 MSTORE PUSH1 0x20 ADD SWAP1 DUP2 MSTORE PUSH1 0x20 ADD PUSH1 0x0 KECCAK256 PUSH1 0x2 ADD SLOAD LT PUSH2 0x1DF5 JUMPI PUSH1 0x0 DUP1 REVERT JUMPDEST PUSH1 0x0 PUSH1 0x6 PUSH1 0x0 DUP9 DUP2 MSTORE PUSH1 0x20 ADD SWAP1 DUP2 MSTORE PUSH1 0x20 ADD PUSH1 0x0 KECCAK256 DUP7 DUP2 SLOAD DUP2 LT PUSH2 0x1E1C JUMPI PUSH2 0x1E1B PUSH2 0x4AEA JUMP JUMPDEST JUMPDEST SWAP1 PUSH1 0x0 MSTORE PUSH1 0x20 PUSH1 0x0 KECCAK256 ADD PUSH1 0x0 SWAP1 SLOAD SWAP1 PUSH2 0x100 EXP SWAP1 DIV PUSH20 0xFFFFFFFFFFFFFFFFFFFFFFFFFFFFFFFFFFFFFFFF AND PUSH20 0xFFFFFFFFFFFFFFFFFFFFFFFFFFFFFFFFFFFFFFFF AND PUSH1 0x5 PUSH1 0x0 DUP10 DUP2 MSTORE PUSH1 0x20 ADD SWAP1 DUP2 MSTORE PUSH1 0x20 ADD PUSH1 0x0 KECCAK256 PUSH1 0x9 ADD PUSH1 0x0 SWAP1 SLOAD SWAP1 PUSH2 0x100 EXP SWAP1 DIV PUSH20 0xFFFFFFFFFFFFFFFFFFFFFFFFFFFFFFFFFFFFFFFF AND PUSH20 0xFFFFFFFFFFFFFFFFFFFFFFFFFFFFFFFFFFFFFFFF AND EQ ISZERO PUSH2 0x1EB9 JUMPI PUSH1 0x1 SWAP1 POP PUSH2 0x1EBE JUMP JUMPDEST PUSH1 0x0 SWAP1 POP JUMPDEST PUSH1 0x6 PUSH1 0x0 DUP9 DUP2 MSTORE PUSH1 0x20 ADD SWAP1 DUP2 MSTORE PUSH1 0x20 ADD PUSH1 0x0 KECCAK256 DUP7 DUP2 SLOAD DUP2 LT PUSH2 0x1EE3 JUMPI PUSH2 0x1EE2 PUSH2 0x4AEA JUMP JUMPDEST JUMPDEST SWAP1 PUSH1 0x0 MSTORE PUSH1 0x20 PUSH1 0x0 KECCAK256 ADD PUSH1 0x0 SWAP1 SLOAD SWAP1 PUSH2 0x100 EXP SWAP1 DIV PUSH20 0xFFFFFFFFFFFFFFFFFFFFFFFFFFFFFFFFFFFFFFFF AND PUSH1 0x7 PUSH1 0x0 DUP10 DUP2 MSTORE PUSH1 0x20 ADD SWAP1 DUP2 MSTORE PUSH1 0x20 ADD PUSH1 0x0 KECCAK256 DUP8 DUP2 SLOAD DUP2 LT PUSH2 0x1F33 JUMPI PUSH2 0x1F32 PUSH2 0x4AEA JUMP JUMPDEST JUMPDEST SWAP1 PUSH1 0x0 MSTORE PUSH1 0x20 PUSH1 0x0 KECCAK256 ADD SLOAD DUP3 SWAP5 POP SWAP5 POP SWAP5 POP POP POP SWAP3 POP SWAP3 POP SWAP3 JUMP JUMPDEST PUSH1 0x0 PUSH1 0x60 DUP1 PUSH1 0x0 DUP1 DUP7 TIMESTAMP PUSH1 0x5 PUSH1 0x0 DUP4 DUP2 MSTORE PUSH1 0x20 ADD SWAP1 DUP2 MSTORE PUSH1 0x20 ADD PUSH1 0x0 KECCAK256 PUSH1 0x2 ADD SLOAD LT PUSH2 0x1F79 JUMPI PUSH1 0x0 DUP1 REVERT JUMPDEST PUSH1 0x0 PUSH1 0x5 PUSH1 0x0 DUP11 DUP2 MSTORE PUSH1 0x20 ADD SWAP1 DUP2 MSTORE PUSH1 0x20 ADD PUSH1 0x0 KECCAK256 PUSH1 0x5 ADD PUSH1 0x0 DUP10 PUSH20 0xFFFFFFFFFFFFFFFFFFFFFFFFFFFFFFFFFFFFFFFF AND PUSH20 0xFFFFFFFFFFFFFFFFFFFFFFFFFFFFFFFFFFFFFFFF AND DUP2 MSTORE PUSH1 0x20 ADD SWAP1 DUP2 MSTORE PUSH1 0x20 ADD PUSH1 0x0 KECCAK256 PUSH1 0x0 ADD PUSH1 0x0 SWAP1 SLOAD SWAP1 PUSH2 0x100 EXP SWAP1 DIV PUSH20 0xFFFFFFFFFFFFFFFFFFFFFFFFFFFFFFFFFFFFFFFF AND SWAP1 POP PUSH1 0x0 PUSH1 0x5 PUSH1 0x0 DUP12 DUP2 MSTORE PUSH1 0x20 ADD SWAP1 DUP2 MSTORE PUSH1 0x20 ADD PUSH1 0x0 KECCAK256 PUSH1 0x5 ADD PUSH1 0x0 DUP11 PUSH20 0xFFFFFFFFFFFFFFFFFFFFFFFFFFFFFFFFFFFFFFFF AND PUSH20 0xFFFFFFFFFFFFFFFFFFFFFFFFFFFFFFFFFFFFFFFF AND DUP2 MSTORE PUSH1 0x20 ADD SWAP1 DUP2 MSTORE PUSH1 0x20 ADD PUSH1 0x0 KECCAK256 PUSH1 0x5 ADD DUP1 SLOAD DUP1 PUSH1 0x20 MUL PUSH1 0x20 ADD PUSH1 0x40 MLOAD SWAP1 DUP2 ADD PUSH1 0x40 MSTORE DUP1 SWAP3 SWAP2 SWAP1 DUP2 DUP2 MSTORE PUSH1 0x20 ADD PUSH1 0x0 SWAP1 JUMPDEST DUP3 DUP3 LT ISZERO PUSH2 0x2118 JUMPI DUP4 DUP3 SWAP1 PUSH1 0x0 MSTORE PUSH1 0x20 PUSH1 0x0 KECCAK256 ADD DUP1 SLOAD PUSH2 0x208B SWAP1 PUSH2 0x49E2 JUMP JUMPDEST DUP1 PUSH1 0x1F ADD PUSH1 0x20 DUP1 SWAP2 DIV MUL PUSH1 0x20 ADD PUSH1 0x40 MLOAD SWAP1 DUP2 ADD PUSH1 0x40 MSTORE DUP1 SWAP3 SWAP2 SWAP1 DUP2 DUP2 MSTORE PUSH1 0x20 ADD DUP3 DUP1 SLOAD PUSH2 0x20B7 SWAP1 PUSH2 0x49E2 JUMP JUMPDEST DUP1 ISZERO PUSH2 0x2104 JUMPI DUP1 PUSH1 0x1F LT PUSH2 0x20D9 JUMPI PUSH2 0x100 DUP1 DUP4 SLOAD DIV MUL DUP4 MSTORE SWAP2 PUSH1 0x20 ADD SWAP2 PUSH2 0x2104 JUMP JUMPDEST DUP3 ADD SWAP2 SWAP1 PUSH1 0x0 MSTORE PUSH1 0x20 PUSH1 0x0 KECCAK256 SWAP1 JUMPDEST DUP2 SLOAD DUP2 MSTORE SWAP1 PUSH1 0x1 ADD SWAP1 PUSH1 0x20 ADD DUP1 DUP4 GT PUSH2 0x20E7 JUMPI DUP3 SWAP1 SUB PUSH1 0x1F AND DUP3 ADD SWAP2 JUMPDEST POP POP POP POP POP DUP2 MSTORE PUSH1 0x20 ADD SWAP1 PUSH1 0x1 ADD SWAP1 PUSH2 0x206C JUMP JUMPDEST POP POP POP POP SWAP1 POP PUSH1 0x0 PUSH1 0x5 PUSH1 0x0 DUP13 DUP2 MSTORE PUSH1 0x20 ADD SWAP1 DUP2 MSTORE PUSH1 0x20 ADD PUSH1 0x0 KECCAK256 PUSH1 0x5 ADD PUSH1 0x0 DUP12 PUSH20 0xFFFFFFFFFFFFFFFFFFFFFFFFFFFFFFFFFFFFFFFF AND PUSH20 0xFFFFFFFFFFFFFFFFFFFFFFFFFFFFFFFFFFFFFFFF AND DUP2 MSTORE PUSH1 0x20 ADD SWAP1 DUP2 MSTORE PUSH1 0x20 ADD PUSH1 0x0 KECCAK256 PUSH1 0x4 ADD DUP1 SLOAD PUSH2 0x2181 SWAP1 PUSH2 0x49E2 JUMP JUMPDEST DUP1 PUSH1 0x1F ADD PUSH1 0x20 DUP1 SWAP2 DIV MUL PUSH1 0x20 ADD PUSH1 0x40 MLOAD SWAP1 DUP2 ADD PUSH1 0x40 MSTORE DUP1 SWAP3 SWAP2 SWAP1 DUP2 DUP2 MSTORE PUSH1 0x20 ADD DUP3 DUP1 SLOAD PUSH2 0x21AD SWAP1 PUSH2 0x49E2 JUMP JUMPDEST DUP1 ISZERO PUSH2 0x21FA JUMPI DUP1 PUSH1 0x1F LT PUSH2 0x21CF JUMPI PUSH2 0x100 DUP1 DUP4 SLOAD DIV MUL DUP4 MSTORE SWAP2 PUSH1 0x20 ADD SWAP2 PUSH2 0x21FA JUMP JUMPDEST DUP3 ADD SWAP2 SWAP1 PUSH1 0x0 MSTORE PUSH1 0x20 PUSH1 0x0 KECCAK256 SWAP1 JUMPDEST DUP2 SLOAD DUP2 MSTORE SWAP1 PUSH1 0x1 ADD SWAP1 PUSH1 0x20 ADD DUP1 DUP4 GT PUSH2 0x21DD JUMPI DUP3 SWAP1 SUB PUSH1 0x1F AND DUP3 ADD SWAP2 JUMPDEST POP POP POP POP POP SWAP1 POP PUSH1 0x0 DUP11 PUSH20 0xFFFFFFFFFFFFFFFFFFFFFFFFFFFFFFFFFFFFFFFF AND PUSH1 0x5 PUSH1 0x0 DUP15 DUP2 MSTORE PUSH1 0x20 ADD SWAP1 DUP2 MSTORE PUSH1 0x20 ADD PUSH1 0x0 KECCAK256 PUSH1 0x9 ADD PUSH1 0x0 SWAP1 SLOAD SWAP1 PUSH2 0x100 EXP SWAP1 DIV PUSH20 0xFFFFFFFFFFFFFFFFFFFFFFFFFFFFFFFFFFFFFFFF AND PUSH20 0xFFFFFFFFFFFFFFFFFFFFFFFFFFFFFFFFFFFFFFFF AND EQ ISZERO PUSH2 0x2276 JUMPI PUSH1 0x1 SWAP1 POP PUSH2 0x227B JUMP JUMPDEST PUSH1 0x0 SWAP1 POP JUMPDEST PUSH1 0x0 PUSH1 0x5 PUSH1 0x0 DUP15 DUP2 MSTORE PUSH1 0x20 ADD SWAP1 DUP2 MSTORE PUSH1 0x20 ADD PUSH1 0x0 KECCAK256 PUSH1 0x6 ADD PUSH1 0x0 DUP14 PUSH20 0xFFFFFFFFFFFFFFFFFFFFFFFFFFFFFFFFFFFFFFFF AND PUSH20 0xFFFFFFFFFFFFFFFFFFFFFFFFFFFFFFFFFFFFFFFF AND DUP2 MSTORE PUSH1 0x20 ADD SWAP1 DUP2 MSTORE PUSH1 0x20 ADD PUSH1 0x0 KECCAK256 SLOAD SWAP1 POP DUP5 DUP5 DUP5 DUP4 DUP6 SWAP11 POP SWAP11 POP SWAP11 POP SWAP11 POP SWAP11 POP POP POP POP POP POP POP SWAP3 SWAP6 POP SWAP3 SWAP6 SWAP1 SWAP4 POP JUMP JUMPDEST PUSH2 0x231C PUSH32 0x67BEE59EE70CE8DB2640FEFB72D33F9B54EE798D412840C7C6D3E247987EB248 DUP3 PUSH2 0x5EF JUMP JUMPDEST POP JUMP JUMPDEST PUSH1 0x0 DUP1 SHL DUP2 JUMP JUMPDEST PUSH2 0x2350 PUSH32 0x67BEE59EE70CE8DB2640FEFB72D33F9B54EE798D412840C7C6D3E247987EB248 DUP3 PUSH2 0x610 JUMP JUMPDEST POP JUMP JUMPDEST PUSH1 0x0 DUP1 PUSH1 0x0 TIMESTAMP PUSH1 0x5 PUSH1 0x0 DUP7 DUP2 MSTORE PUSH1 0x20 ADD SWAP1 DUP2 MSTORE PUSH1 0x20 ADD PUSH1 0x0 KECCAK256 PUSH1 0x3 ADD SLOAD GT ISZERO PUSH2 0x237F JUMPI PUSH1 0x1 SWAP1 POP PUSH2 0x2384 JUMP JUMPDEST PUSH1 0x0 SWAP1 POP JUMPDEST DUP4 DUP2 SWAP3 POP SWAP3 POP POP SWAP2 POP SWAP2 JUMP JUMPDEST PUSH2 0x23BA PUSH32 0x67BEE59EE70CE8DB2640FEFB72D33F9B54EE798D412840C7C6D3E247987EB248 DUP3 PUSH2 0x25ED JUMP JUMPDEST POP JUMP JUMPDEST PUSH1 0x0 PUSH1 0x60 DUP1 PUSH1 0x60 PUSH1 0x0 DUP1 PUSH1 0x5 PUSH1 0x0 DUP9 DUP2 MSTORE PUSH1 0x20 ADD SWAP1 DUP2 MSTORE PUSH1 0x20 ADD PUSH1 0x0 KECCAK256 PUSH1 0x0 ADD SLOAD PUSH1 0x5 PUSH1 0x0 DUP10 DUP2 MSTORE PUSH1 0x20 ADD SWAP1 DUP2 MSTORE PUSH1 0x20 ADD PUSH1 0x0 KECCAK256 PUSH1 0xA ADD PUSH1 0x5 PUSH1 0x0 DUP11 DUP2 MSTORE PUSH1 0x20 ADD SWAP1 DUP2 MSTORE PUSH1 0x20 ADD PUSH1 0x0 KECCAK256 PUSH1 0xB ADD PUSH1 0x5 PUSH1 0x0 DUP12 DUP2 MSTORE PUSH1 0x20 ADD SWAP1 DUP2 MSTORE PUSH1 0x20 ADD PUSH1 0x0 KECCAK256 PUSH1 0x4 ADD PUSH1 0x6 PUSH1 0x0 DUP13 DUP2 MSTORE PUSH1 0x20 ADD SWAP1 DUP2 MSTORE PUSH1 0x20 ADD PUSH1 0x0 KECCAK256 DUP1 SLOAD SWAP1 POP PUSH1 0x5 PUSH1 0x0 DUP14 DUP2 MSTORE PUSH1 0x20 ADD SWAP1 DUP2 MSTORE PUSH1 0x20 ADD PUSH1 0x0 KECCAK256 PUSH1 0x9 ADD PUSH1 0x0 SWAP1 SLOAD SWAP1 PUSH2 0x100 EXP SWAP1 DIV PUSH20 0xFFFFFFFFFFFFFFFFFFFFFFFFFFFFFFFFFFFFFFFF AND DUP5 DUP1 SLOAD PUSH2 0x247A SWAP1 PUSH2 0x49E2 JUMP JUMPDEST DUP1 PUSH1 0x1F ADD PUSH1 0x20 DUP1 SWAP2 DIV MUL PUSH1 0x20 ADD PUSH1 0x40 MLOAD SWAP1 DUP2 ADD PUSH1 0x40 MSTORE DUP1 SWAP3 SWAP2 SWAP1 DUP2 DUP2 MSTORE PUSH1 0x20 ADD DUP3 DUP1 SLOAD PUSH2 0x24A6 SWAP1 PUSH2 0x49E2 JUMP JUMPDEST DUP1 ISZERO PUSH2 0x24F3 JUMPI DUP1 PUSH1 0x1F LT PUSH2 0x24C8 JUMPI PUSH2 0x100 DUP1 DUP4 SLOAD DIV MUL DUP4 MSTORE SWAP2 PUSH1 0x20 ADD SWAP2 PUSH2 0x24F3 JUMP JUMPDEST DUP3 ADD SWAP2 SWAP1 PUSH1 0x0 MSTORE PUSH1 0x20 PUSH1 0x0 KECCAK256 SWAP1 JUMPDEST DUP2 SLOAD DUP2 MSTORE SWAP1 PUSH1 0x1 ADD SWAP1 PUSH1 0x20 ADD DUP1 DUP4 GT PUSH2 0x24D6 JUMPI DUP3 SWAP1 SUB PUSH1 0x1F AND DUP3 ADD SWAP2 JUMPDEST POP POP POP POP POP SWAP5 POP DUP4 DUP1 SLOAD PUSH2 0x2506 SWAP1 PUSH2 0x49E2 JUMP JUMPDEST DUP1 PUSH1 0x1F ADD PUSH1 0x20 DUP1 SWAP2 DIV MUL PUSH1 0x20 ADD PUSH1 0x40 MLOAD SWAP1 DUP2 ADD PUSH1 0x40 MSTORE DUP1 SWAP3 SWAP2 SWAP1 DUP2 DUP2 MSTORE PUSH1 0x20 ADD DUP3 DUP1 SLOAD PUSH2 0x2532 SWAP1 PUSH2 0x49E2 JUMP JUMPDEST DUP1 ISZERO PUSH2 0x257F JUMPI DUP1 PUSH1 0x1F LT PUSH2 0x2554 JUMPI PUSH2 0x100 DUP1 DUP4 SLOAD DIV MUL DUP4 MSTORE SWAP2 PUSH1 0x20 ADD SWAP2 PUSH2 0x257F JUMP JUMPDEST DUP3 ADD SWAP2 SWAP1 PUSH1 0x0 MSTORE PUSH1 0x20 PUSH1 0x0 KECCAK256 SWAP1 JUMPDEST DUP2 SLOAD DUP2 MSTORE SWAP1 PUSH1 0x1 ADD SWAP1 PUSH1 0x20 ADD DUP1 DUP4 GT PUSH2 0x2562 JUMPI DUP3 SWAP1 SUB PUSH1 0x1F AND DUP3 ADD SWAP2 JUMPDEST POP POP POP POP POP SWAP4 POP DUP3 DUP1 SLOAD DUP1 PUSH1 0x20 MUL PUSH1 0x20 ADD PUSH1 0x40 MLOAD SWAP1 DUP2 ADD PUSH1 0x40 MSTORE DUP1 SWAP3 SWAP2 SWAP1 DUP2 DUP2 MSTORE PUSH1 0x20 ADD DUP3 DUP1 SLOAD DUP1 ISZERO PUSH2 0x25D1 JUMPI PUSH1 0x20 MUL DUP3 ADD SWAP2 SWAP1 PUSH1 0x0 MSTORE PUSH1 0x20 PUSH1 0x0 KECCAK256 SWAP1 JUMPDEST DUP2 SLOAD DUP2 MSTORE PUSH1 0x20 ADD SWAP1 PUSH1 0x1 ADD SWAP1 DUP1 DUP4 GT PUSH2 0x25BD JUMPI JUMPDEST POP POP POP POP POP SWAP3 POP SWAP6 POP SWAP6 POP SWAP6 POP SWAP6 POP SWAP6 POP SWAP6 POP SWAP2 SWAP4 SWAP6 POP SWAP2 SWAP4 SWAP6 JUMP JUMPDEST PUSH2 0x25F6 DUP3 PUSH2 0x5D0 JUMP JUMPDEST PUSH2 0x25FF DUP2 PUSH2 0x26D6 JUMP JUMPDEST PUSH2 0x2609 DUP4 DUP4 PUSH2 0x27D2 JUMP JUMPDEST POP POP POP JUMP JUMPDEST PUSH1 0x0 PUSH1 0x4 SLOAD SWAP1 POP SWAP1 JUMP JUMPDEST PUSH1 0x0 DUP2 TIMESTAMP PUSH1 0x5 PUSH1 0x0 DUP4 DUP2 MSTORE PUSH1 0x20 ADD SWAP1 DUP2 MSTORE PUSH1 0x20 ADD PUSH1 0x0 KECCAK256 PUSH1 0x2 ADD SLOAD LT PUSH2 0x263D JUMPI PUSH1 0x0 DUP1 REVERT JUMPDEST PUSH1 0x6 PUSH1 0x0 DUP5 DUP2 MSTORE PUSH1 0x20 ADD SWAP1 DUP2 MSTORE PUSH1 0x20 ADD PUSH1 0x0 KECCAK256 DUP1 SLOAD SWAP1 POP SWAP2 POP POP SWAP2 SWAP1 POP JUMP JUMPDEST PUSH2 0x2669 PUSH1 0x0 DUP1 SHL DUP3 PUSH2 0x610 JUMP JUMPDEST POP JUMP JUMPDEST PUSH1 0x0 PUSH32 0x1FFC9A700000000000000000000000000000000000000000000000000000000 PUSH28 0xFFFFFFFFFFFFFFFFFFFFFFFFFFFFFFFFFFFFFFFFFFFFFFFFFFFFFFFF NOT AND DUP3 PUSH28 0xFFFFFFFFFFFFFFFFFFFFFFFFFFFFFFFFFFFFFFFFFFFFFFFFFFFFFFFF NOT AND EQ SWAP1 POP SWAP2 SWAP1 POP JUMP JUMPDEST PUSH2 0x26E7 DUP2 PUSH2 0x26E2 PUSH2 0x27CA JUMP JUMPDEST PUSH2 0x313D JUMP JUMPDEST POP JUMP JUMPDEST PUSH2 0x26F4 DUP3 DUP3 PUSH2 0x1D53 JUMP JUMPDEST PUSH2 0x27C6 JUMPI PUSH1 0x1 PUSH1 0x0 DUP1 DUP5 DUP2 MSTORE PUSH1 0x20 ADD SWAP1 DUP2 MSTORE PUSH1 0x20 ADD PUSH1 0x0 KECCAK256 PUSH1 0x0 ADD PUSH1 0x0 DUP4 PUSH20 0xFFFFFFFFFFFFFFFFFFFFFFFFFFFFFFFFFFFFFFFF AND PUSH20 0xFFFFFFFFFFFFFFFFFFFFFFFFFFFFFFFFFFFFFFFF AND DUP2 MSTORE PUSH1 0x20 ADD SWAP1 DUP2 MSTORE PUSH1 0x20 ADD PUSH1 0x0 KECCAK256 PUSH1 0x0 PUSH2 0x100 EXP DUP2 SLOAD DUP2 PUSH1 0xFF MUL NOT AND SWAP1 DUP4 ISZERO ISZERO MUL OR SWAP1 SSTORE POP PUSH2 0x276B PUSH2 0x27CA JUMP JUMPDEST PUSH20 0xFFFFFFFFFFFFFFFFFFFFFFFFFFFFFFFFFFFFFFFF AND DUP2 PUSH20 0xFFFFFFFFFFFFFFFFFFFFFFFFFFFFFFFFFFFFFFFF AND DUP4 PUSH32 0x2F8788117E7EFF1D82E926EC794901D17C78024A50270940304540A733656F0D PUSH1 0x40 MLOAD PUSH1 0x40 MLOAD DUP1 SWAP2 SUB SWAP1 LOG4 JUMPDEST POP POP JUMP JUMPDEST PUSH1 0x0 CALLER SWAP1 POP SWAP1 JUMP JUMPDEST PUSH2 0x27DC DUP3 DUP3 PUSH2 0x1D53 JUMP JUMPDEST ISZERO PUSH2 0x28AF JUMPI PUSH1 0x0 DUP1 PUSH1 0x0 DUP5 DUP2 MSTORE PUSH1 0x20 ADD SWAP1 DUP2 MSTORE PUSH1 0x20 ADD PUSH1 0x0 KECCAK256 PUSH1 0x0 ADD PUSH1 0x0 DUP4 PUSH20 0xFFFFFFFFFFFFFFFFFFFFFFFFFFFFFFFFFFFFFFFF AND PUSH20 0xFFFFFFFFFFFFFFFFFFFFFFFFFFFFFFFFFFFFFFFF AND DUP2 MSTORE PUSH1 0x20 ADD SWAP1 DUP2 MSTORE PUSH1 0x20 ADD PUSH1 0x0 KECCAK256 PUSH1 0x0 PUSH2 0x100 EXP DUP2 SLOAD DUP2 PUSH1 0xFF MUL NOT AND SWAP1 DUP4 ISZERO ISZERO MUL OR SWAP1 SSTORE POP PUSH2 0x2854 PUSH2 0x27CA JUMP JUMPDEST PUSH20 0xFFFFFFFFFFFFFFFFFFFFFFFFFFFFFFFFFFFFFFFF AND DUP2 PUSH20 0xFFFFFFFFFFFFFFFFFFFFFFFFFFFFFFFFFFFFFFFF AND DUP4 PUSH32 0xF6391F5C32D9C69D2A47EA670B442974B53935D1EDC7FD64EB21E047A839171B PUSH1 0x40 MLOAD PUSH1 0x40 MLOAD DUP1 SWAP2 SUB SWAP1 LOG4 JUMPDEST POP POP JUMP JUMPDEST PUSH1 0x60 PUSH1 0x0 PUSH2 0x28C0 DUP5 PUSH2 0x31C2 JUMP JUMPDEST SWAP1 POP PUSH1 0x0 PUSH2 0x28CD DUP5 PUSH2 0x31C2 JUMP JUMPDEST SWAP1 POP PUSH1 0x0 PUSH2 0x28E4 DUP3 DUP5 PUSH2 0x31F0 SWAP1 SWAP2 SWAP1 PUSH4 0xFFFFFFFF AND JUMP JUMPDEST PUSH8 0xFFFFFFFFFFFFFFFF DUP2 GT ISZERO PUSH2 0x28FD JUMPI PUSH2 0x28FC PUSH2 0x4B19 JUMP JUMPDEST JUMPDEST PUSH1 0x40 MLOAD SWAP1 DUP1 DUP3 MSTORE DUP1 PUSH1 0x20 MUL PUSH1 0x20 ADD DUP3 ADD PUSH1 0x40 MSTORE DUP1 ISZERO PUSH2 0x2930 JUMPI DUP2 PUSH1 0x20 ADD JUMPDEST PUSH1 0x60 DUP2 MSTORE PUSH1 0x20 ADD SWAP1 PUSH1 0x1 SWAP1 SUB SWAP1 DUP2 PUSH2 0x291B JUMPI SWAP1 POP JUMPDEST POP SWAP1 POP PUSH1 0x0 JUMPDEST DUP2 MLOAD DUP2 LT ISZERO PUSH2 0x298B JUMPI PUSH2 0x295A PUSH2 0x2955 DUP5 DUP7 PUSH2 0x3298 SWAP1 SWAP2 SWAP1 PUSH4 0xFFFFFFFF AND JUMP JUMPDEST PUSH2 0x32B2 JUMP JUMPDEST DUP3 DUP3 DUP2 MLOAD DUP2 LT PUSH2 0x296D JUMPI PUSH2 0x296C PUSH2 0x4AEA JUMP JUMPDEST JUMPDEST PUSH1 0x20 MUL PUSH1 0x20 ADD ADD DUP2 SWAP1 MSTORE POP DUP1 DUP1 PUSH2 0x2983 SWAP1 PUSH2 0x4A14 JUMP JUMPDEST SWAP2 POP POP PUSH2 0x2936 JUMP JUMPDEST POP DUP1 SWAP4 POP POP POP POP SWAP3 SWAP2 POP POP JUMP JUMPDEST PUSH1 0x0 DUP1 DUP3 SWAP1 POP PUSH1 0x0 DUP1 JUMPDEST DUP3 MLOAD DUP2 LT ISZERO PUSH2 0x2A25 JUMPI PUSH1 0x0 DUP4 DUP3 DUP2 MLOAD DUP2 LT PUSH2 0x29C0 JUMPI PUSH2 0x29BF PUSH2 0x4AEA JUMP JUMPDEST JUMPDEST PUSH1 0x20 ADD ADD MLOAD PUSH1 0xF8 SHR PUSH1 0xF8 SHL PUSH1 0xF8 SHR PUSH1 0xFF AND SWAP1 POP PUSH1 0x30 DUP2 LT ISZERO DUP1 ISZERO PUSH2 0x29E5 JUMPI POP PUSH1 0x39 DUP2 GT ISZERO JUMPDEST ISZERO PUSH2 0x2A11 JUMPI PUSH1 0x30 DUP2 PUSH2 0x29F7 SWAP2 SWAP1 PUSH2 0x48C4 JUMP JUMPDEST PUSH1 0xA DUP5 PUSH2 0x2A04 SWAP2 SWAP1 PUSH2 0x486A JUMP JUMPDEST PUSH2 0x2A0E SWAP2 SWAP1 PUSH2 0x4672 JUMP JUMPDEST SWAP3 POP JUMPDEST POP DUP1 DUP1 PUSH2 0x2A1D SWAP1 PUSH2 0x4A14 JUMP JUMPDEST SWAP2 POP POP PUSH2 0x29A2 JUMP JUMPDEST POP DUP1 SWAP3 POP POP POP SWAP2 SWAP1 POP JUMP JUMPDEST PUSH1 0x0 DUP1 DUP3 DUP5 PUSH2 0x2A3F SWAP2 SWAP1 PUSH2 0x4672 JUMP JUMPDEST SWAP1 POP DUP4 DUP2 LT ISZERO PUSH2 0x2A84 JUMPI PUSH1 0x40 MLOAD PUSH32 0x8C379A000000000000000000000000000000000000000000000000000000000 DUP2 MSTORE PUSH1 0x4 ADD PUSH2 0x2A7B SWAP1 PUSH2 0x4403 JUMP JUMPDEST PUSH1 0x40 MLOAD DUP1 SWAP2 SUB SWAP1 REVERT JUMPDEST DUP1 SWAP2 POP POP SWAP3 SWAP2 POP POP JUMP JUMPDEST PUSH2 0x2A96 PUSH2 0x398E JUMP JUMPDEST PUSH2 0x2A9E PUSH2 0x398E JUMP JUMPDEST PUSH1 0x5 PUSH1 0x0 DUP5 DUP2 MSTORE PUSH1 0x20 ADD SWAP1 DUP2 MSTORE PUSH1 0x20 ADD PUSH1 0x0 KECCAK256 PUSH1 0x4 ADD PUSH1 0x0 DUP2 SLOAD DUP2 LT PUSH2 0x2AC7 JUMPI PUSH2 0x2AC6 PUSH2 0x4AEA JUMP JUMPDEST JUMPDEST SWAP1 PUSH1 0x0 MSTORE PUSH1 0x20 PUSH1 0x0 KECCAK256 ADD SLOAD DUP2 PUSH1 0x0 ADD DUP2 DUP2 MSTORE POP POP PUSH1 0x5 PUSH1 0x0 DUP5 DUP2 MSTORE PUSH1 0x20 ADD SWAP1 DUP2 MSTORE PUSH1 0x20 ADD PUSH1 0x0 KECCAK256 PUSH1 0x4 ADD PUSH1 0x1 DUP2 SLOAD DUP2 LT PUSH2 0x2B04 JUMPI PUSH2 0x2B03 PUSH2 0x4AEA JUMP JUMPDEST JUMPDEST SWAP1 PUSH1 0x0 MSTORE PUSH1 0x20 PUSH1 0x0 KECCAK256 ADD SLOAD DUP2 PUSH1 0x20 ADD DUP2 DUP2 MSTORE POP POP PUSH1 0x5 PUSH1 0x0 DUP5 DUP2 MSTORE PUSH1 0x20 ADD SWAP1 DUP2 MSTORE PUSH1 0x20 ADD PUSH1 0x0 KECCAK256 PUSH1 0x4 ADD PUSH1 0x2 DUP2 SLOAD DUP2 LT PUSH2 0x2B41 JUMPI PUSH2 0x2B40 PUSH2 0x4AEA JUMP JUMPDEST JUMPDEST SWAP1 PUSH1 0x0 MSTORE PUSH1 0x20 PUSH1 0x0 KECCAK256 ADD SLOAD DUP2 PUSH1 0x40 ADD DUP2 DUP2 MSTORE POP POP PUSH1 0x5 PUSH1 0x0 DUP5 DUP2 MSTORE PUSH1 0x20 ADD SWAP1 DUP2 MSTORE PUSH1 0x20 ADD PUSH1 0x0 KECCAK256 PUSH1 0x4 ADD PUSH1 0x3 DUP2 SLOAD DUP2 LT PUSH2 0x2B7E JUMPI PUSH2 0x2B7D PUSH2 0x4AEA JUMP JUMPDEST JUMPDEST SWAP1 PUSH1 0x0 MSTORE PUSH1 0x20 PUSH1 0x0 KECCAK256 ADD SLOAD DUP2 PUSH1 0x60 ADD DUP2 DUP2 MSTORE POP POP PUSH1 0x5 PUSH1 0x0 DUP5 DUP2 MSTORE PUSH1 0x20 ADD SWAP1 DUP2 MSTORE PUSH1 0x20 ADD PUSH1 0x0 KECCAK256 PUSH1 0x4 ADD PUSH1 0x4 DUP2 SLOAD DUP2 LT PUSH2 0x2BBB JUMPI PUSH2 0x2BBA PUSH2 0x4AEA JUMP JUMPDEST JUMPDEST SWAP1 PUSH1 0x0 MSTORE PUSH1 0x20 PUSH1 0x0 KECCAK256 ADD SLOAD DUP2 PUSH1 0x80 ADD DUP2 DUP2 MSTORE POP POP PUSH1 0x5 PUSH1 0x0 DUP5 DUP2 MSTORE PUSH1 0x20 ADD SWAP1 DUP2 MSTORE PUSH1 0x20 ADD PUSH1 0x0 KECCAK256 PUSH1 0x4 ADD PUSH1 0x5 DUP2 SLOAD DUP2 LT PUSH2 0x2BF8 JUMPI PUSH2 0x2BF7 PUSH2 0x4AEA JUMP JUMPDEST JUMPDEST SWAP1 PUSH1 0x0 MSTORE PUSH1 0x20 PUSH1 0x0 KECCAK256 ADD SLOAD DUP2 PUSH1 0xA0 ADD DUP2 DUP2 MSTORE POP POP DUP1 SWAP2 POP POP SWAP2 SWAP1 POP JUMP JUMPDEST PUSH1 0x1 ISZERO ISZERO PUSH2 0x2C26 PUSH1 0x0 DUP1 SHL CALLER PUSH2 0x1D53 JUMP JUMPDEST ISZERO ISZERO EQ PUSH2 0x2C68 JUMPI PUSH1 0x40 MLOAD PUSH32 0x8C379A000000000000000000000000000000000000000000000000000000000 DUP2 MSTORE PUSH1 0x4 ADD PUSH2 0x2C5F SWAP1 PUSH2 0x43E3 JUMP JUMPDEST PUSH1 0x40 MLOAD DUP1 SWAP2 SUB SWAP1 REVERT JUMPDEST DUP1 TIMESTAMP PUSH1 0x5 PUSH1 0x0 DUP4 DUP2 MSTORE PUSH1 0x20 ADD SWAP1 DUP2 MSTORE PUSH1 0x20 ADD PUSH1 0x0 KECCAK256 PUSH1 0x2 ADD SLOAD LT PUSH2 0x2C8B JUMPI PUSH1 0x0 DUP1 REVERT JUMPDEST PUSH1 0x0 JUMPDEST PUSH1 0x6 PUSH1 0x0 DUP5 DUP2 MSTORE PUSH1 0x20 ADD SWAP1 DUP2 MSTORE PUSH1 0x20 ADD PUSH1 0x0 KECCAK256 DUP1 SLOAD SWAP1 POP DUP2 LT ISZERO PUSH2 0x2FE8 JUMPI PUSH1 0x0 PUSH1 0x5 PUSH1 0x0 DUP6 DUP2 MSTORE PUSH1 0x20 ADD SWAP1 DUP2 MSTORE PUSH1 0x20 ADD PUSH1 0x0 KECCAK256 PUSH1 0x5 ADD PUSH1 0x0 PUSH1 0x6 PUSH1 0x0 DUP8 DUP2 MSTORE PUSH1 0x20 ADD SWAP1 DUP2 MSTORE PUSH1 0x20 ADD PUSH1 0x0 KECCAK256 DUP5 DUP2 SLOAD DUP2 LT PUSH2 0x2CEB JUMPI PUSH2 0x2CEA PUSH2 0x4AEA JUMP JUMPDEST JUMPDEST SWAP1 PUSH1 0x0 MSTORE PUSH1 0x20 PUSH1 0x0 KECCAK256 ADD PUSH1 0x0 SWAP1 SLOAD SWAP1 PUSH2 0x100 EXP SWAP1 DIV PUSH20 0xFFFFFFFFFFFFFFFFFFFFFFFFFFFFFFFFFFFFFFFF AND PUSH20 0xFFFFFFFFFFFFFFFFFFFFFFFFFFFFFFFFFFFFFFFF AND PUSH20 0xFFFFFFFFFFFFFFFFFFFFFFFFFFFFFFFFFFFFFFFF AND DUP2 MSTORE PUSH1 0x20 ADD SWAP1 DUP2 MSTORE PUSH1 0x20 ADD PUSH1 0x0 KECCAK256 PUSH1 0x4 ADD DUP1 SLOAD PUSH2 0x2D5E SWAP1 PUSH2 0x49E2 JUMP JUMPDEST DUP1 PUSH1 0x1F ADD PUSH1 0x20 DUP1 SWAP2 DIV MUL PUSH1 0x20 ADD PUSH1 0x40 MLOAD SWAP1 DUP2 ADD PUSH1 0x40 MSTORE DUP1 SWAP3 SWAP2 SWAP1 DUP2 DUP2 MSTORE PUSH1 0x20 ADD DUP3 DUP1 SLOAD PUSH2 0x2D8A SWAP1 PUSH2 0x49E2 JUMP JUMPDEST DUP1 ISZERO PUSH2 0x2DD7 JUMPI DUP1 PUSH1 0x1F LT PUSH2 0x2DAC JUMPI PUSH2 0x100 DUP1 DUP4 SLOAD DIV MUL DUP4 MSTORE SWAP2 PUSH1 0x20 ADD SWAP2 PUSH2 0x2DD7 JUMP JUMPDEST DUP3 ADD SWAP2 SWAP1 PUSH1 0x0 MSTORE PUSH1 0x20 PUSH1 0x0 KECCAK256 SWAP1 JUMPDEST DUP2 SLOAD DUP2 MSTORE SWAP1 PUSH1 0x1 ADD SWAP1 PUSH1 0x20 ADD DUP1 DUP4 GT PUSH2 0x2DBA JUMPI DUP3 SWAP1 SUB PUSH1 0x1F AND DUP3 ADD SWAP2 JUMPDEST POP POP POP POP POP SWAP1 POP PUSH1 0x0 PUSH1 0x5 PUSH1 0x0 DUP7 DUP2 MSTORE PUSH1 0x20 ADD SWAP1 DUP2 MSTORE PUSH1 0x20 ADD PUSH1 0x0 KECCAK256 PUSH1 0x5 ADD PUSH1 0x0 PUSH1 0x6 PUSH1 0x0 DUP9 DUP2 MSTORE PUSH1 0x20 ADD SWAP1 DUP2 MSTORE PUSH1 0x20 ADD PUSH1 0x0 KECCAK256 DUP6 DUP2 SLOAD DUP2 LT PUSH2 0x2E1D JUMPI PUSH2 0x2E1C PUSH2 0x4AEA JUMP JUMPDEST JUMPDEST SWAP1 PUSH1 0x0 MSTORE PUSH1 0x20 PUSH1 0x0 KECCAK256 ADD PUSH1 0x0 SWAP1 SLOAD SWAP1 PUSH2 0x100 EXP SWAP1 DIV PUSH20 0xFFFFFFFFFFFFFFFFFFFFFFFFFFFFFFFFFFFFFFFF AND PUSH20 0xFFFFFFFFFFFFFFFFFFFFFFFFFFFFFFFFFFFFFFFF AND PUSH20 0xFFFFFFFFFFFFFFFFFFFFFFFFFFFFFFFFFFFFFFFF AND DUP2 MSTORE PUSH1 0x20 ADD SWAP1 DUP2 MSTORE PUSH1 0x20 ADD PUSH1 0x0 KECCAK256 PUSH1 0x3 ADD DUP1 SLOAD PUSH2 0x2E90 SWAP1 PUSH2 0x49E2 JUMP JUMPDEST DUP1 PUSH1 0x1F ADD PUSH1 0x20 DUP1 SWAP2 DIV MUL PUSH1 0x20 ADD PUSH1 0x40 MLOAD SWAP1 DUP2 ADD PUSH1 0x40 MSTORE DUP1 SWAP3 SWAP2 SWAP1 DUP2 DUP2 MSTORE PUSH1 0x20 ADD DUP3 DUP1 SLOAD PUSH2 0x2EBC SWAP1 PUSH2 0x49E2 JUMP JUMPDEST DUP1 ISZERO PUSH2 0x2F09 JUMPI DUP1 PUSH1 0x1F LT PUSH2 0x2EDE JUMPI PUSH2 0x100 DUP1 DUP4 SLOAD DIV MUL DUP4 MSTORE SWAP2 PUSH1 0x20 ADD SWAP2 PUSH2 0x2F09 JUMP JUMPDEST DUP3 ADD SWAP2 SWAP1 PUSH1 0x0 MSTORE PUSH1 0x20 PUSH1 0x0 KECCAK256 SWAP1 JUMPDEST DUP2 SLOAD DUP2 MSTORE SWAP1 PUSH1 0x1 ADD SWAP1 PUSH1 0x20 ADD DUP1 DUP4 GT PUSH2 0x2EEC JUMPI DUP3 SWAP1 SUB PUSH1 0x1F AND DUP3 ADD SWAP2 JUMPDEST POP POP POP POP POP SWAP1 POP PUSH2 0x2F1A DUP2 DUP4 PUSH2 0x28B3 JUMP JUMPDEST PUSH1 0x5 PUSH1 0x0 DUP8 DUP2 MSTORE PUSH1 0x20 ADD SWAP1 DUP2 MSTORE PUSH1 0x20 ADD PUSH1 0x0 KECCAK256 PUSH1 0x5 ADD PUSH1 0x0 PUSH1 0x6 PUSH1 0x0 DUP10 DUP2 MSTORE PUSH1 0x20 ADD SWAP1 DUP2 MSTORE PUSH1 0x20 ADD PUSH1 0x0 KECCAK256 DUP7 DUP2 SLOAD DUP2 LT PUSH2 0x2F57 JUMPI PUSH2 0x2F56 PUSH2 0x4AEA JUMP JUMPDEST JUMPDEST SWAP1 PUSH1 0x0 MSTORE PUSH1 0x20 PUSH1 0x0 KECCAK256 ADD PUSH1 0x0 SWAP1 SLOAD SWAP1 PUSH2 0x100 EXP SWAP1 DIV PUSH20 0xFFFFFFFFFFFFFFFFFFFFFFFFFFFFFFFFFFFFFFFF AND PUSH20 0xFFFFFFFFFFFFFFFFFFFFFFFFFFFFFFFFFFFFFFFF AND PUSH20 0xFFFFFFFFFFFFFFFFFFFFFFFFFFFFFFFFFFFFFFFF AND DUP2 MSTORE PUSH1 0x20 ADD SWAP1 DUP2 MSTORE PUSH1 0x20 ADD PUSH1 0x0 KECCAK256 PUSH1 0x5 ADD SWAP1 DUP1 MLOAD SWAP1 PUSH1 0x20 ADD SWAP1 PUSH2 0x2FD2 SWAP3 SWAP2 SWAP1 PUSH2 0x392E JUMP JUMPDEST POP POP POP DUP1 DUP1 PUSH2 0x2FE0 SWAP1 PUSH2 0x4A14 JUMP JUMPDEST SWAP2 POP POP PUSH2 0x2C8E JUMP JUMPDEST POP POP POP JUMP JUMPDEST PUSH1 0x0 DUP1 PUSH1 0x0 DUP5 SWAP1 POP JUMPDEST PUSH1 0x0 PUSH1 0xA DUP3 PUSH2 0x3005 SWAP2 SWAP1 PUSH2 0x46C8 JUMP JUMPDEST EQ PUSH2 0x302C JUMPI PUSH1 0xA DUP2 PUSH2 0x3017 SWAP2 SWAP1 PUSH2 0x46C8 JUMP JUMPDEST SWAP1 POP DUP2 DUP1 PUSH2 0x3024 SWAP1 PUSH2 0x4A14 JUMP JUMPDEST SWAP3 POP POP PUSH2 0x2FF6 JUMP JUMPDEST PUSH2 0x304B DUP3 PUSH1 0xA PUSH2 0x303C SWAP2 SWAP1 PUSH2 0x474C JUMP JUMPDEST DUP6 PUSH2 0x30C2 SWAP1 SWAP2 SWAP1 PUSH4 0xFFFFFFFF AND JUMP JUMPDEST SWAP3 POP POP POP SWAP3 SWAP2 POP POP JUMP JUMPDEST PUSH1 0x0 DUP1 PUSH2 0x3062 DUP6 DUP8 PUSH2 0x2FED JUMP JUMPDEST SWAP1 POP PUSH1 0x0 PUSH2 0x3079 DUP3 DUP7 PUSH2 0x30C2 SWAP1 SWAP2 SWAP1 PUSH4 0xFFFFFFFF AND JUMP JUMPDEST SWAP1 POP PUSH2 0x30A0 PUSH2 0x3091 DUP8 DUP7 PUSH2 0x30C2 SWAP1 SWAP2 SWAP1 PUSH4 0xFFFFFFFF AND JUMP JUMPDEST DUP3 PUSH2 0x2A30 SWAP1 SWAP2 SWAP1 PUSH4 0xFFFFFFFF AND JUMP JUMPDEST SWAP1 POP PUSH1 0x0 PUSH2 0x2710 SWAP1 POP DUP2 DUP2 PUSH2 0x30B5 SWAP2 SWAP1 PUSH2 0x48C4 JUMP JUMPDEST SWAP4 POP POP POP POP SWAP5 SWAP4 POP POP POP POP JUMP JUMPDEST PUSH1 0x0 DUP1 DUP4 EQ ISZERO PUSH2 0x30D5 JUMPI PUSH1 0x0 SWAP1 POP PUSH2 0x3137 JUMP JUMPDEST PUSH1 0x0 DUP3 DUP5 PUSH2 0x30E3 SWAP2 SWAP1 PUSH2 0x486A JUMP JUMPDEST SWAP1 POP DUP3 DUP5 DUP3 PUSH2 0x30F2 SWAP2 SWAP1 PUSH2 0x46C8 JUMP JUMPDEST EQ PUSH2 0x3132 JUMPI PUSH1 0x40 MLOAD PUSH32 0x8C379A000000000000000000000000000000000000000000000000000000000 DUP2 MSTORE PUSH1 0x4 ADD PUSH2 0x3129 SWAP1 PUSH2 0x4483 JUMP JUMPDEST PUSH1 0x40 MLOAD DUP1 SWAP2 SUB SWAP1 REVERT JUMPDEST DUP1 SWAP2 POP POP JUMPDEST SWAP3 SWAP2 POP POP JUMP JUMPDEST PUSH2 0x3147 DUP3 DUP3 PUSH2 0x1D53 JUMP JUMPDEST PUSH2 0x31BE JUMPI PUSH2 0x3154 DUP2 PUSH2 0x332E JUMP JUMPDEST PUSH2 0x3162 DUP4 PUSH1 0x0 SHR PUSH1 0x20 PUSH2 0x335B JUMP JUMPDEST PUSH1 0x40 MLOAD PUSH1 0x20 ADD PUSH2 0x3173 SWAP3 SWAP2 SWAP1 PUSH2 0x4270 JUMP JUMPDEST PUSH1 0x40 MLOAD PUSH1 0x20 DUP2 DUP4 SUB SUB DUP2 MSTORE SWAP1 PUSH1 0x40 MSTORE PUSH1 0x40 MLOAD PUSH32 0x8C379A000000000000000000000000000000000000000000000000000000000 DUP2 MSTORE PUSH1 0x4 ADD PUSH2 0x31B5 SWAP2 SWAP1 PUSH2 0x43A1 JUMP JUMPDEST PUSH1 0x40 MLOAD DUP1 SWAP2 SUB SWAP1 REVERT JUMPDEST POP POP JUMP JUMPDEST PUSH2 0x31CA PUSH2 0x39C4 JUMP JUMPDEST PUSH1 0x0 PUSH1 0x20 DUP4 ADD SWAP1 POP PUSH1 0x40 MLOAD DUP1 PUSH1 0x40 ADD PUSH1 0x40 MSTORE DUP1 DUP5 MLOAD DUP2 MSTORE PUSH1 0x20 ADD DUP3 DUP2 MSTORE POP SWAP2 POP POP SWAP2 SWAP1 POP JUMP JUMPDEST PUSH1 0x0 DUP1 DUP3 PUSH1 0x0 ADD MLOAD PUSH2 0x3214 DUP6 PUSH1 0x0 ADD MLOAD DUP7 PUSH1 0x20 ADD MLOAD DUP7 PUSH1 0x0 ADD MLOAD DUP8 PUSH1 0x20 ADD MLOAD PUSH2 0x3597 JUMP JUMPDEST PUSH2 0x321E SWAP2 SWAP1 PUSH2 0x4672 JUMP JUMPDEST SWAP1 POP JUMPDEST DUP4 PUSH1 0x0 ADD MLOAD DUP5 PUSH1 0x20 ADD MLOAD PUSH2 0x3235 SWAP2 SWAP1 PUSH2 0x4672 JUMP JUMPDEST DUP2 GT PUSH2 0x3291 JUMPI DUP2 DUP1 PUSH2 0x3246 SWAP1 PUSH2 0x4A14 JUMP JUMPDEST SWAP3 POP POP DUP3 PUSH1 0x0 ADD MLOAD PUSH2 0x3280 DUP6 PUSH1 0x20 ADD MLOAD DUP4 PUSH2 0x3261 SWAP2 SWAP1 PUSH2 0x48C4 JUMP JUMPDEST DUP7 PUSH1 0x0 ADD MLOAD PUSH2 0x3270 SWAP2 SWAP1 PUSH2 0x48C4 JUMP JUMPDEST DUP4 DUP7 PUSH1 0x0 ADD MLOAD DUP8 PUSH1 0x20 ADD MLOAD PUSH2 0x3597 JUMP JUMPDEST PUSH2 0x328A SWAP2 SWAP1 PUSH2 0x4672 JUMP JUMPDEST SWAP1 POP PUSH2 0x3221 JUMP JUMPDEST POP SWAP3 SWAP2 POP POP JUMP JUMPDEST PUSH2 0x32A0 PUSH2 0x39C4 JUMP JUMPDEST PUSH2 0x32AB DUP4 DUP4 DUP4 PUSH2 0x36D8 JUMP JUMPDEST POP SWAP3 SWAP2 POP POP JUMP JUMPDEST PUSH1 0x60 PUSH1 0x0 DUP3 PUSH1 0x0 ADD MLOAD PUSH8 0xFFFFFFFFFFFFFFFF DUP2 GT ISZERO PUSH2 0x32D4 JUMPI PUSH2 0x32D3 PUSH2 0x4B19 JUMP JUMPDEST JUMPDEST PUSH1 0x40 MLOAD SWAP1 DUP1 DUP3 MSTORE DUP1 PUSH1 0x1F ADD PUSH1 0x1F NOT AND PUSH1 0x20 ADD DUP3 ADD PUSH1 0x40 MSTORE DUP1 ISZERO PUSH2 0x3306 JUMPI DUP2 PUSH1 0x20 ADD PUSH1 0x1 DUP3 MUL DUP1 CALLDATASIZE DUP4 CALLDATACOPY DUP1 DUP3 ADD SWAP2 POP POP SWAP1 POP JUMPDEST POP SWAP1 POP PUSH1 0x0 PUSH1 0x20 DUP3 ADD SWAP1 POP PUSH2 0x3324 DUP2 DUP6 PUSH1 0x20 ADD MLOAD DUP7 PUSH1 0x0 ADD MLOAD PUSH2 0x37A3 JUMP JUMPDEST DUP2 SWAP3 POP POP POP SWAP2 SWAP1 POP JUMP JUMPDEST PUSH1 0x60 PUSH2 0x3354 DUP3 PUSH20 0xFFFFFFFFFFFFFFFFFFFFFFFFFFFFFFFFFFFFFFFF AND PUSH1 0x14 PUSH1 0xFF AND PUSH2 0x335B JUMP JUMPDEST SWAP1 POP SWAP2 SWAP1 POP JUMP JUMPDEST PUSH1 0x60 PUSH1 0x0 PUSH1 0x2 DUP4 PUSH1 0x2 PUSH2 0x336E SWAP2 SWAP1 PUSH2 0x486A JUMP JUMPDEST PUSH2 0x3378 SWAP2 SWAP1 PUSH2 0x4672 JUMP JUMPDEST PUSH8 0xFFFFFFFFFFFFFFFF DUP2 GT ISZERO PUSH2 0x3391 JUMPI PUSH2 0x3390 PUSH2 0x4B19 JUMP JUMPDEST JUMPDEST PUSH1 0x40 MLOAD SWAP1 DUP1 DUP3 MSTORE DUP1 PUSH1 0x1F ADD PUSH1 0x1F NOT AND PUSH1 0x20 ADD DUP3 ADD PUSH1 0x40 MSTORE DUP1 ISZERO PUSH2 0x33C3 JUMPI DUP2 PUSH1 0x20 ADD PUSH1 0x1 DUP3 MUL DUP1 CALLDATASIZE DUP4 CALLDATACOPY DUP1 DUP3 ADD SWAP2 POP POP SWAP1 POP JUMPDEST POP SWAP1 POP PUSH32 0x3000000000000000000000000000000000000000000000000000000000000000 DUP2 PUSH1 0x0 DUP2 MLOAD DUP2 LT PUSH2 0x33FB JUMPI PUSH2 0x33FA PUSH2 0x4AEA JUMP JUMPDEST JUMPDEST PUSH1 0x20 ADD ADD SWAP1 PUSH31 0xFFFFFFFFFFFFFFFFFFFFFFFFFFFFFFFFFFFFFFFFFFFFFFFFFFFFFFFFFFFFFF NOT AND SWAP1 DUP2 PUSH1 0x0 BYTE SWAP1 MSTORE8 POP PUSH32 0x7800000000000000000000000000000000000000000000000000000000000000 DUP2 PUSH1 0x1 DUP2 MLOAD DUP2 LT PUSH2 0x345F JUMPI PUSH2 0x345E PUSH2 0x4AEA JUMP JUMPDEST JUMPDEST PUSH1 0x20 ADD ADD SWAP1 PUSH31 0xFFFFFFFFFFFFFFFFFFFFFFFFFFFFFFFFFFFFFFFFFFFFFFFFFFFFFFFFFFFFFF NOT AND SWAP1 DUP2 PUSH1 0x0 BYTE SWAP1 MSTORE8 POP PUSH1 0x0 PUSH1 0x1 DUP5 PUSH1 0x2 PUSH2 0x349F SWAP2 SWAP1 PUSH2 0x486A JUMP JUMPDEST PUSH2 0x34A9 SWAP2 SWAP1 PUSH2 0x4672 JUMP JUMPDEST SWAP1 POP JUMPDEST PUSH1 0x1 DUP2 GT ISZERO PUSH2 0x3549 JUMPI PUSH32 0x3031323334353637383961626364656600000000000000000000000000000000 PUSH1 0xF DUP7 AND PUSH1 0x10 DUP2 LT PUSH2 0x34EB JUMPI PUSH2 0x34EA PUSH2 0x4AEA JUMP JUMPDEST JUMPDEST BYTE PUSH1 0xF8 SHL DUP3 DUP3 DUP2 MLOAD DUP2 LT PUSH2 0x3502 JUMPI PUSH2 0x3501 PUSH2 0x4AEA JUMP JUMPDEST JUMPDEST PUSH1 0x20 ADD ADD SWAP1 PUSH31 0xFFFFFFFFFFFFFFFFFFFFFFFFFFFFFFFFFFFFFFFFFFFFFFFFFFFFFFFFFFFFFF NOT AND SWAP1 DUP2 PUSH1 0x0 BYTE SWAP1 MSTORE8 POP PUSH1 0x4 DUP6 SWAP1 SHR SWAP5 POP DUP1 PUSH2 0x3542 SWAP1 PUSH2 0x49B8 JUMP JUMPDEST SWAP1 POP PUSH2 0x34AC JUMP JUMPDEST POP PUSH1 0x0 DUP5 EQ PUSH2 0x358D JUMPI PUSH1 0x40 MLOAD PUSH32 0x8C379A000000000000000000000000000000000000000000000000000000000 DUP2 MSTORE PUSH1 0x4 ADD PUSH2 0x3584 SWAP1 PUSH2 0x43C3 JUMP JUMPDEST PUSH1 0x40 MLOAD DUP1 SWAP2 SUB SWAP1 REVERT JUMPDEST DUP1 SWAP2 POP POP SWAP3 SWAP2 POP POP JUMP JUMPDEST PUSH1 0x0 DUP1 DUP5 SWAP1 POP PUSH1 0x0 DUP7 DUP6 GT PUSH2 0x36BF JUMPI PUSH1 0x20 DUP6 GT PUSH2 0x3661 JUMPI PUSH1 0x0 PUSH1 0x1 DUP7 PUSH1 0x20 PUSH2 0x35BF SWAP2 SWAP1 PUSH2 0x48C4 JUMP JUMPDEST PUSH1 0x8 PUSH2 0x35CB SWAP2 SWAP1 PUSH2 0x486A JUMP JUMPDEST PUSH1 0x2 PUSH2 0x35D7 SWAP2 SWAP1 PUSH2 0x474C JUMP JUMPDEST PUSH2 0x35E1 SWAP2 SWAP1 PUSH2 0x48C4 JUMP JUMPDEST NOT PUSH1 0x0 SHL SWAP1 POP PUSH1 0x0 DUP2 DUP7 MLOAD AND SWAP1 POP PUSH1 0x0 DUP8 DUP11 DUP11 PUSH2 0x35FE SWAP2 SWAP1 PUSH2 0x4672 JUMP JUMPDEST PUSH2 0x3608 SWAP2 SWAP1 PUSH2 0x48C4 JUMP JUMPDEST SWAP1 POP PUSH1 0x0 DUP4 DUP7 MLOAD AND SWAP1 POP JUMPDEST DUP3 DUP2 EQ PUSH2 0x3653 JUMPI DUP2 DUP7 LT PUSH2 0x363A JUMPI DUP11 DUP11 PUSH2 0x362D SWAP2 SWAP1 PUSH2 0x4672 JUMP JUMPDEST SWAP7 POP POP POP POP POP POP POP PUSH2 0x36D0 JUMP JUMPDEST DUP6 DUP1 PUSH2 0x3645 SWAP1 PUSH2 0x4A14 JUMP JUMPDEST SWAP7 POP POP DUP4 DUP7 MLOAD AND SWAP1 POP PUSH2 0x3613 JUMP JUMPDEST DUP6 SWAP7 POP POP POP POP POP POP POP PUSH2 0x36D0 JUMP JUMPDEST PUSH1 0x0 DUP6 DUP6 KECCAK256 SWAP1 POP PUSH1 0x0 SWAP2 POP JUMPDEST DUP6 DUP9 PUSH2 0x3679 SWAP2 SWAP1 PUSH2 0x48C4 JUMP JUMPDEST DUP3 GT PUSH2 0x36BD JUMPI PUSH1 0x0 DUP7 DUP5 KECCAK256 SWAP1 POP DUP1 DUP3 EQ ISZERO PUSH2 0x369A JUMPI DUP4 SWAP5 POP POP POP POP POP PUSH2 0x36D0 JUMP JUMPDEST PUSH1 0x1 DUP5 PUSH2 0x36A7 SWAP2 SWAP1 PUSH2 0x4672 JUMP JUMPDEST SWAP4 POP POP DUP2 DUP1 PUSH2 0x36B5 SWAP1 PUSH2 0x4A14 JUMP JUMPDEST SWAP3 POP POP PUSH2 0x366D JUMP JUMPDEST POP JUMPDEST DUP7 DUP7 PUSH2 0x36CB SWAP2 SWAP1 PUSH2 0x4672 JUMP JUMPDEST SWAP3 POP POP POP JUMPDEST SWAP5 SWAP4 POP POP POP POP JUMP JUMPDEST PUSH2 0x36E0 PUSH2 0x39C4 JUMP JUMPDEST PUSH1 0x0 PUSH2 0x36FE DUP6 PUSH1 0x0 ADD MLOAD DUP7 PUSH1 0x20 ADD MLOAD DUP7 PUSH1 0x0 ADD MLOAD DUP8 PUSH1 0x20 ADD MLOAD PUSH2 0x3597 JUMP JUMPDEST SWAP1 POP DUP5 PUSH1 0x20 ADD MLOAD DUP4 PUSH1 0x20 ADD DUP2 DUP2 MSTORE POP POP DUP5 PUSH1 0x20 ADD MLOAD DUP2 PUSH2 0x371E SWAP2 SWAP1 PUSH2 0x48C4 JUMP JUMPDEST DUP4 PUSH1 0x0 ADD DUP2 DUP2 MSTORE POP POP DUP5 PUSH1 0x0 ADD MLOAD DUP6 PUSH1 0x20 ADD MLOAD PUSH2 0x373B SWAP2 SWAP1 PUSH2 0x4672 JUMP JUMPDEST DUP2 EQ ISZERO PUSH2 0x3752 JUMPI PUSH1 0x0 DUP6 PUSH1 0x0 ADD DUP2 DUP2 MSTORE POP POP PUSH2 0x3798 JUMP JUMPDEST DUP4 PUSH1 0x0 ADD MLOAD DUP4 PUSH1 0x0 ADD MLOAD PUSH2 0x3766 SWAP2 SWAP1 PUSH2 0x4672 JUMP JUMPDEST DUP6 PUSH1 0x0 ADD DUP2 DUP2 MLOAD PUSH2 0x3777 SWAP2 SWAP1 PUSH2 0x48C4 JUMP JUMPDEST SWAP2 POP DUP2 DUP2 MSTORE POP POP DUP4 PUSH1 0x0 ADD MLOAD DUP2 PUSH2 0x378E SWAP2 SWAP1 PUSH2 0x4672 JUMP JUMPDEST DUP6 PUSH1 0x20 ADD DUP2 DUP2 MSTORE POP POP JUMPDEST DUP3 SWAP2 POP POP SWAP4 SWAP3 POP POP POP JUMP JUMPDEST JUMPDEST PUSH1 0x20 DUP2 LT PUSH2 0x37E2 JUMPI DUP2 MLOAD DUP4 MSTORE PUSH1 0x20 DUP4 PUSH2 0x37BD SWAP2 SWAP1 PUSH2 0x4672 JUMP JUMPDEST SWAP3 POP PUSH1 0x20 DUP3 PUSH2 0x37CC SWAP2 SWAP1 PUSH2 0x4672 JUMP JUMPDEST SWAP2 POP PUSH1 0x20 DUP2 PUSH2 0x37DB SWAP2 SWAP1 PUSH2 0x48C4 JUMP JUMPDEST SWAP1 POP PUSH2 0x37A4 JUMP JUMPDEST PUSH1 0x0 PUSH1 0x1 DUP3 PUSH1 0x20 PUSH2 0x37F3 SWAP2 SWAP1 PUSH2 0x48C4 JUMP JUMPDEST PUSH2 0x100 PUSH2 0x3800 SWAP2 SWAP1 PUSH2 0x474C JUMP JUMPDEST PUSH2 0x380A SWAP2 SWAP1 PUSH2 0x48C4 JUMP JUMPDEST SWAP1 POP DUP1 NOT DUP4 MLOAD AND DUP2 DUP6 MLOAD AND DUP2 DUP2 OR DUP7 MSTORE POP POP POP POP POP POP JUMP JUMPDEST DUP3 DUP1 SLOAD PUSH2 0x382E SWAP1 PUSH2 0x49E2 JUMP JUMPDEST SWAP1 PUSH1 0x0 MSTORE PUSH1 0x20 PUSH1 0x0 KECCAK256 SWAP1 PUSH1 0x1F ADD PUSH1 0x20 SWAP1 DIV DUP2 ADD SWAP3 DUP3 PUSH2 0x3850 JUMPI PUSH1 0x0 DUP6 SSTORE PUSH2 0x3897 JUMP JUMPDEST DUP3 PUSH1 0x1F LT PUSH2 0x3869 JUMPI DUP1 CALLDATALOAD PUSH1 0xFF NOT AND DUP4 DUP1 ADD OR DUP6 SSTORE PUSH2 0x3897 JUMP JUMPDEST DUP3 DUP1 ADD PUSH1 0x1 ADD DUP6 SSTORE DUP3 ISZERO PUSH2 0x3897 JUMPI SWAP2 DUP3 ADD JUMPDEST DUP3 DUP2 GT ISZERO PUSH2 0x3896 JUMPI DUP3 CALLDATALOAD DUP3 SSTORE SWAP2 PUSH1 0x20 ADD SWAP2 SWAP1 PUSH1 0x1 ADD SWAP1 PUSH2 0x387B JUMP JUMPDEST JUMPDEST POP SWAP1 POP PUSH2 0x38A4 SWAP2 SWAP1 PUSH2 0x39DE JUMP JUMPDEST POP SWAP1 JUMP JUMPDEST DUP3 DUP1 SLOAD PUSH2 0x38B4 SWAP1 PUSH2 0x49E2 JUMP JUMPDEST SWAP1 PUSH1 0x0 MSTORE PUSH1 0x20 PUSH1 0x0 KECCAK256 SWAP1 PUSH1 0x1F ADD PUSH1 0x20 SWAP1 DIV DUP2 ADD SWAP3 DUP3 PUSH2 0x38D6 JUMPI PUSH1 0x0 DUP6 SSTORE PUSH2 0x391D JUMP JUMPDEST DUP3 PUSH1 0x1F LT PUSH2 0x38EF JUMPI DUP1 MLOAD PUSH1 0xFF NOT AND DUP4 DUP1 ADD OR DUP6 SSTORE PUSH2 0x391D JUMP JUMPDEST DUP3 DUP1 ADD PUSH1 0x1 ADD DUP6 SSTORE DUP3 ISZERO PUSH2 0x391D JUMPI SWAP2 DUP3 ADD JUMPDEST DUP3 DUP2 GT ISZERO PUSH2 0x391C JUMPI DUP3 MLOAD DUP3 SSTORE SWAP2 PUSH1 0x20 ADD SWAP2 SWAP1 PUSH1 0x1 ADD SWAP1 PUSH2 0x3901 JUMP JUMPDEST JUMPDEST POP SWAP1 POP PUSH2 0x392A SWAP2 SWAP1 PUSH2 0x39DE JUMP JUMPDEST POP SWAP1 JUMP JUMPDEST DUP3 DUP1 SLOAD DUP3 DUP3 SSTORE SWAP1 PUSH1 0x0 MSTORE PUSH1 0x20 PUSH1 0x0 KECCAK256 SWAP1 DUP2 ADD SWAP3 DUP3 ISZERO PUSH2 0x397D JUMPI SWAP2 PUSH1 0x20 MUL DUP3 ADD JUMPDEST DUP3 DUP2 GT ISZERO PUSH2 0x397C JUMPI DUP3 MLOAD DUP3 SWAP1 DUP1 MLOAD SWAP1 PUSH1 0x20 ADD SWAP1 PUSH2 0x396C SWAP3 SWAP2 SWAP1 PUSH2 0x38A8 JUMP JUMPDEST POP SWAP2 PUSH1 0x20 ADD SWAP2 SWAP1 PUSH1 0x1 ADD SWAP1 PUSH2 0x394E JUMP JUMPDEST JUMPDEST POP SWAP1 POP PUSH2 0x398A SWAP2 SWAP1 PUSH2 0x39FB JUMP JUMPDEST POP SWAP1 JUMP JUMPDEST PUSH1 0x40 MLOAD DUP1 PUSH1 0xC0 ADD PUSH1 0x40 MSTORE DUP1 PUSH1 0x0 DUP2 MSTORE PUSH1 0x20 ADD PUSH1 0x0 DUP2 MSTORE PUSH1 0x20 ADD PUSH1 0x0 DUP2 MSTORE PUSH1 0x20 ADD PUSH1 0x0 DUP2 MSTORE PUSH1 0x20 ADD PUSH1 0x0 DUP2 MSTORE PUSH1 0x20 ADD PUSH1 0x0 DUP2 MSTORE POP SWAP1 JUMP JUMPDEST PUSH1 0x40 MLOAD DUP1 PUSH1 0x40 ADD PUSH1 0x40 MSTORE DUP1 PUSH1 0x0 DUP2 MSTORE PUSH1 0x20 ADD PUSH1 0x0 DUP2 MSTORE POP SWAP1 JUMP JUMPDEST JUMPDEST DUP1 DUP3 GT ISZERO PUSH2 0x39F7 JUMPI PUSH1 0x0 DUP2 PUSH1 0x0 SWAP1 SSTORE POP PUSH1 0x1 ADD PUSH2 0x39DF JUMP JUMPDEST POP SWAP1 JUMP JUMPDEST JUMPDEST DUP1 DUP3 GT ISZERO PUSH2 0x3A1B JUMPI PUSH1 0x0 DUP2 DUP2 PUSH2 0x3A12 SWAP2 SWAP1 PUSH2 0x3A1F JUMP JUMPDEST POP PUSH1 0x1 ADD PUSH2 0x39FC JUMP JUMPDEST POP SWAP1 JUMP JUMPDEST POP DUP1 SLOAD PUSH2 0x3A2B SWAP1 PUSH2 0x49E2 JUMP JUMPDEST PUSH1 0x0 DUP3 SSTORE DUP1 PUSH1 0x1F LT PUSH2 0x3A3D JUMPI POP PUSH2 0x3A5C JUMP JUMPDEST PUSH1 0x1F ADD PUSH1 0x20 SWAP1 DIV SWAP1 PUSH1 0x0 MSTORE PUSH1 0x20 PUSH1 0x0 KECCAK256 SWAP1 DUP2 ADD SWAP1 PUSH2 0x3A5B SWAP2 SWAP1 PUSH2 0x39DE JUMP JUMPDEST JUMPDEST POP JUMP JUMPDEST PUSH1 0x0 DUP2 CALLDATALOAD SWAP1 POP PUSH2 0x3A6E DUP2 PUSH2 0x4EC1 JUMP JUMPDEST SWAP3 SWAP2 POP POP JUMP JUMPDEST PUSH1 0x0 DUP2 CALLDATALOAD SWAP1 POP PUSH2 0x3A83 DUP2 PUSH2 0x4ED8 JUMP JUMPDEST SWAP3 SWAP2 POP POP JUMP JUMPDEST PUSH1 0x0 DUP2 CALLDATALOAD SWAP1 POP PUSH2 0x3A98 DUP2 PUSH2 0x4EEF JUMP JUMPDEST SWAP3 SWAP2 POP POP JUMP JUMPDEST PUSH1 0x0 DUP1 DUP4 PUSH1 0x1F DUP5 ADD SLT PUSH2 0x3AB4 JUMPI PUSH2 0x3AB3 PUSH2 0x4B4D JUMP JUMPDEST JUMPDEST DUP3 CALLDATALOAD SWAP1 POP PUSH8 0xFFFFFFFFFFFFFFFF DUP2 GT ISZERO PUSH2 0x3AD1 JUMPI PUSH2 0x3AD0 PUSH2 0x4B48 JUMP JUMPDEST JUMPDEST PUSH1 0x20 DUP4 ADD SWAP2 POP DUP4 PUSH1 0x1 DUP3 MUL DUP4 ADD GT ISZERO PUSH2 0x3AED JUMPI PUSH2 0x3AEC PUSH2 0x4B52 JUMP JUMPDEST JUMPDEST SWAP3 POP SWAP3 SWAP1 POP JUMP JUMPDEST PUSH1 0x0 DUP2 CALLDATALOAD SWAP1 POP PUSH2 0x3B03 DUP2 PUSH2 0x4F06 JUMP JUMPDEST SWAP3 SWAP2 POP POP JUMP JUMPDEST PUSH1 0x0 PUSH1 0x20 DUP3 DUP5 SUB SLT ISZERO PUSH2 0x3B1F JUMPI PUSH2 0x3B1E PUSH2 0x4B5C JUMP JUMPDEST JUMPDEST PUSH1 0x0 PUSH2 0x3B2D DUP5 DUP3 DUP6 ADD PUSH2 0x3A5F JUMP JUMPDEST SWAP2 POP POP SWAP3 SWAP2 POP POP JUMP JUMPDEST PUSH1 0x0 PUSH1 0x20 DUP3 DUP5 SUB SLT ISZERO PUSH2 0x3B4C JUMPI PUSH2 0x3B4B PUSH2 0x4B5C JUMP JUMPDEST JUMPDEST PUSH1 0x0 PUSH2 0x3B5A DUP5 DUP3 DUP6 ADD PUSH2 0x3A74 JUMP JUMPDEST SWAP2 POP POP SWAP3 SWAP2 POP POP JUMP JUMPDEST PUSH1 0x0 DUP1 PUSH1 0x40 DUP4 DUP6 SUB SLT ISZERO PUSH2 0x3B7A JUMPI PUSH2 0x3B79 PUSH2 0x4B5C JUMP JUMPDEST JUMPDEST PUSH1 0x0 PUSH2 0x3B88 DUP6 DUP3 DUP7 ADD PUSH2 0x3A74 JUMP JUMPDEST SWAP3 POP POP PUSH1 0x20 PUSH2 0x3B99 DUP6 DUP3 DUP7 ADD PUSH2 0x3A5F JUMP JUMPDEST SWAP2 POP POP SWAP3 POP SWAP3 SWAP1 POP JUMP JUMPDEST PUSH1 0x0 PUSH1 0x20 DUP3 DUP5 SUB SLT ISZERO PUSH2 0x3BB9 JUMPI PUSH2 0x3BB8 PUSH2 0x4B5C JUMP JUMPDEST JUMPDEST PUSH1 0x0 PUSH2 0x3BC7 DUP5 DUP3 DUP6 ADD PUSH2 0x3A89 JUMP JUMPDEST SWAP2 POP POP SWAP3 SWAP2 POP POP JUMP JUMPDEST PUSH1 0x0 DUP1 PUSH1 0x0 DUP1 PUSH1 0x0 DUP1 PUSH1 0x0 DUP1 PUSH1 0xA0 DUP10 DUP12 SUB SLT ISZERO PUSH2 0x3BF0 JUMPI PUSH2 0x3BEF PUSH2 0x4B5C JUMP JUMPDEST JUMPDEST PUSH1 0x0 DUP10 ADD CALLDATALOAD PUSH8 0xFFFFFFFFFFFFFFFF DUP2 GT ISZERO PUSH2 0x3C0E JUMPI PUSH2 0x3C0D PUSH2 0x4B57 JUMP JUMPDEST JUMPDEST PUSH2 0x3C1A DUP12 DUP3 DUP13 ADD PUSH2 0x3A9E JUMP JUMPDEST SWAP9 POP SWAP9 POP POP PUSH1 0x20 DUP10 ADD CALLDATALOAD PUSH8 0xFFFFFFFFFFFFFFFF DUP2 GT ISZERO PUSH2 0x3C3D JUMPI PUSH2 0x3C3C PUSH2 0x4B57 JUMP JUMPDEST JUMPDEST PUSH2 0x3C49 DUP12 DUP3 DUP13 ADD PUSH2 0x3A9E JUMP JUMPDEST SWAP7 POP SWAP7 POP POP PUSH1 0x40 PUSH2 0x3C5C DUP12 DUP3 DUP13 ADD PUSH2 0x3AF4 JUMP JUMPDEST SWAP5 POP POP PUSH1 0x60 PUSH2 0x3C6D DUP12 DUP3 DUP13 ADD PUSH2 0x3AF4 JUMP JUMPDEST SWAP4 POP POP PUSH1 0x80 DUP10 ADD CALLDATALOAD PUSH8 0xFFFFFFFFFFFFFFFF DUP2 GT ISZERO PUSH2 0x3C8E JUMPI PUSH2 0x3C8D PUSH2 0x4B57 JUMP JUMPDEST JUMPDEST PUSH2 0x3C9A DUP12 DUP3 DUP13 ADD PUSH2 0x3A9E JUMP JUMPDEST SWAP3 POP SWAP3 POP POP SWAP3 SWAP6 SWAP9 POP SWAP3 SWAP6 SWAP9 SWAP1 SWAP4 SWAP7 POP JUMP JUMPDEST PUSH1 0x0 PUSH1 0x20 DUP3 DUP5 SUB SLT ISZERO PUSH2 0x3CC2 JUMPI PUSH2 0x3CC1 PUSH2 0x4B5C JUMP JUMPDEST JUMPDEST PUSH1 0x0 PUSH2 0x3CD0 DUP5 DUP3 DUP6 ADD PUSH2 0x3AF4 JUMP JUMPDEST SWAP2 POP POP SWAP3 SWAP2 POP POP JUMP JUMPDEST PUSH1 0x0 DUP1 PUSH1 0x40 DUP4 DUP6 SUB SLT ISZERO PUSH2 0x3CF0 JUMPI PUSH2 0x3CEF PUSH2 0x4B5C JUMP JUMPDEST JUMPDEST PUSH1 0x0 PUSH2 0x3CFE DUP6 DUP3 DUP7 ADD PUSH2 0x3AF4 JUMP JUMPDEST SWAP3 POP POP PUSH1 0x20 PUSH2 0x3D0F DUP6 DUP3 DUP7 ADD PUSH2 0x3A5F JUMP JUMPDEST SWAP2 POP POP SWAP3 POP SWAP3 SWAP1 POP JUMP JUMPDEST PUSH1 0x0 DUP1 PUSH1 0x40 DUP4 DUP6 SUB SLT ISZERO PUSH2 0x3D30 JUMPI PUSH2 0x3D2F PUSH2 0x4B5C JUMP JUMPDEST JUMPDEST PUSH1 0x0 PUSH2 0x3D3E DUP6 DUP3 DUP7 ADD PUSH2 0x3AF4 JUMP JUMPDEST SWAP3 POP POP PUSH1 0x20 PUSH2 0x3D4F DUP6 DUP3 DUP7 ADD PUSH2 0x3A74 JUMP JUMPDEST SWAP2 POP POP SWAP3 POP SWAP3 SWAP1 POP JUMP JUMPDEST PUSH1 0x0 DUP1 PUSH1 0x0 DUP1 PUSH1 0x0 PUSH1 0x60 DUP7 DUP9 SUB SLT ISZERO PUSH2 0x3D75 JUMPI PUSH2 0x3D74 PUSH2 0x4B5C JUMP JUMPDEST JUMPDEST PUSH1 0x0 PUSH2 0x3D83 DUP9 DUP3 DUP10 ADD PUSH2 0x3AF4 JUMP JUMPDEST SWAP6 POP POP PUSH1 0x20 DUP7 ADD CALLDATALOAD PUSH8 0xFFFFFFFFFFFFFFFF DUP2 GT ISZERO PUSH2 0x3DA4 JUMPI PUSH2 0x3DA3 PUSH2 0x4B57 JUMP JUMPDEST JUMPDEST PUSH2 0x3DB0 DUP9 DUP3 DUP10 ADD PUSH2 0x3A9E JUMP JUMPDEST SWAP5 POP SWAP5 POP POP PUSH1 0x40 DUP7 ADD CALLDATALOAD PUSH8 0xFFFFFFFFFFFFFFFF DUP2 GT ISZERO PUSH2 0x3DD3 JUMPI PUSH2 0x3DD2 PUSH2 0x4B57 JUMP JUMPDEST JUMPDEST PUSH2 0x3DDF DUP9 DUP3 DUP10 ADD PUSH2 0x3A9E JUMP JUMPDEST SWAP3 POP SWAP3 POP POP SWAP3 SWAP6 POP SWAP3 SWAP6 SWAP1 SWAP4 POP JUMP JUMPDEST PUSH1 0x0 DUP1 PUSH1 0x40 DUP4 DUP6 SUB SLT ISZERO PUSH2 0x3E05 JUMPI PUSH2 0x3E04 PUSH2 0x4B5C JUMP JUMPDEST JUMPDEST PUSH1 0x0 PUSH2 0x3E13 DUP6 DUP3 DUP7 ADD PUSH2 0x3AF4 JUMP JUMPDEST SWAP3 POP POP PUSH1 0x20 PUSH2 0x3E24 DUP6 DUP3 DUP7 ADD PUSH2 0x3AF4 JUMP JUMPDEST SWAP2 POP POP SWAP3 POP SWAP3 SWAP1 POP JUMP JUMPDEST PUSH1 0x0 PUSH2 0x3E3A DUP4 DUP4 PUSH2 0x3FA4 JUMP JUMPDEST SWAP1 POP SWAP3 SWAP2 POP POP JUMP JUMPDEST PUSH1 0x0 PUSH2 0x3E4E DUP4 DUP4 PUSH2 0x4211 JUMP JUMPDEST PUSH1 0x20 DUP4 ADD SWAP1 POP SWAP3 SWAP2 POP POP JUMP JUMPDEST PUSH2 0x3E63 DUP2 PUSH2 0x48F8 JUMP JUMPDEST DUP3 MSTORE POP POP JUMP JUMPDEST PUSH1 0x0 PUSH2 0x3E74 DUP3 PUSH2 0x45DD JUMP JUMPDEST PUSH2 0x3E7E DUP2 DUP6 PUSH2 0x4618 JUMP JUMPDEST SWAP4 POP DUP4 PUSH1 0x20 DUP3 MUL DUP6 ADD PUSH2 0x3E90 DUP6 PUSH2 0x45BD JUMP JUMPDEST DUP1 PUSH1 0x0 JUMPDEST DUP6 DUP2 LT ISZERO PUSH2 0x3ECC JUMPI DUP5 DUP5 SUB DUP10 MSTORE DUP2 MLOAD PUSH2 0x3EAD DUP6 DUP3 PUSH2 0x3E2E JUMP JUMPDEST SWAP5 POP PUSH2 0x3EB8 DUP4 PUSH2 0x45FE JUMP JUMPDEST SWAP3 POP PUSH1 0x20 DUP11 ADD SWAP10 POP POP PUSH1 0x1 DUP2 ADD SWAP1 POP PUSH2 0x3E94 JUMP JUMPDEST POP DUP3 SWAP8 POP DUP8 SWAP6 POP POP POP POP POP POP SWAP3 SWAP2 POP POP JUMP JUMPDEST PUSH1 0x0 PUSH2 0x3EE9 DUP3 PUSH2 0x45E8 JUMP JUMPDEST PUSH2 0x3EF3 DUP2 DUP6 PUSH2 0x4629 JUMP JUMPDEST SWAP4 POP PUSH2 0x3EFE DUP4 PUSH2 0x45CD JUMP JUMPDEST DUP1 PUSH1 0x0 JUMPDEST DUP4 DUP2 LT ISZERO PUSH2 0x3F2F JUMPI DUP2 MLOAD PUSH2 0x3F16 DUP9 DUP3 PUSH2 0x3E42 JUMP JUMPDEST SWAP8 POP PUSH2 0x3F21 DUP4 PUSH2 0x460B JUMP JUMPDEST SWAP3 POP POP PUSH1 0x1 DUP2 ADD SWAP1 POP PUSH2 0x3F02 JUMP JUMPDEST POP DUP6 SWAP4 POP POP POP POP SWAP3 SWAP2 POP POP JUMP JUMPDEST PUSH2 0x3F45 DUP2 PUSH2 0x490A JUMP JUMPDEST DUP3 MSTORE POP POP JUMP JUMPDEST PUSH2 0x3F54 DUP2 PUSH2 0x4916 JUMP JUMPDEST DUP3 MSTORE POP POP JUMP JUMPDEST PUSH1 0x0 PUSH2 0x3F66 DUP4 DUP6 PUSH2 0x463A JUMP JUMPDEST SWAP4 POP PUSH2 0x3F73 DUP4 DUP6 DUP5 PUSH2 0x4976 JUMP JUMPDEST DUP3 DUP5 ADD SWAP1 POP SWAP4 SWAP3 POP POP POP JUMP JUMPDEST PUSH1 0x0 PUSH2 0x3F8B DUP4 DUP6 PUSH2 0x4667 JUMP JUMPDEST SWAP4 POP PUSH2 0x3F98 DUP4 DUP6 DUP5 PUSH2 0x4976 JUMP JUMPDEST DUP3 DUP5 ADD SWAP1 POP SWAP4 SWAP3 POP POP POP JUMP JUMPDEST PUSH1 0x0 PUSH2 0x3FAF DUP3 PUSH2 0x45F3 JUMP JUMPDEST PUSH2 0x3FB9 DUP2 DUP6 PUSH2 0x4645 JUMP JUMPDEST SWAP4 POP PUSH2 0x3FC9 DUP2 DUP6 PUSH1 0x20 DUP7 ADD PUSH2 0x4985 JUMP JUMPDEST PUSH2 0x3FD2 DUP2 PUSH2 0x4B61 JUMP JUMPDEST DUP5 ADD SWAP2 POP POP SWAP3 SWAP2 POP POP JUMP JUMPDEST PUSH1 0x0 PUSH2 0x3FE8 DUP3 PUSH2 0x45F3 JUMP JUMPDEST PUSH2 0x3FF2 DUP2 DUP6 PUSH2 0x4656 JUMP JUMPDEST SWAP4 POP PUSH2 0x4002 DUP2 DUP6 PUSH1 0x20 DUP7 ADD PUSH2 0x4985 JUMP JUMPDEST PUSH2 0x400B DUP2 PUSH2 0x4B61 JUMP JUMPDEST DUP5 ADD SWAP2 POP POP SWAP3 SWAP2 POP POP JUMP JUMPDEST PUSH1 0x0 PUSH2 0x4021 DUP3 PUSH2 0x45F3 JUMP JUMPDEST PUSH2 0x402B DUP2 DUP6 PUSH2 0x4667 JUMP JUMPDEST SWAP4 POP PUSH2 0x403B DUP2 DUP6 PUSH1 0x20 DUP7 ADD PUSH2 0x4985 JUMP JUMPDEST DUP1 DUP5 ADD SWAP2 POP POP SWAP3 SWAP2 POP POP JUMP JUMPDEST PUSH1 0x0 PUSH2 0x4054 PUSH1 0x20 DUP4 PUSH2 0x4656 JUMP JUMPDEST SWAP2 POP PUSH2 0x405F DUP3 PUSH2 0x4B7F JUMP JUMPDEST PUSH1 0x20 DUP3 ADD SWAP1 POP SWAP2 SWAP1 POP JUMP JUMPDEST PUSH1 0x0 PUSH2 0x4077 PUSH1 0x1E DUP4 PUSH2 0x4656 JUMP JUMPDEST SWAP2 POP PUSH2 0x4082 DUP3 PUSH2 0x4BA8 JUMP JUMPDEST PUSH1 0x20 DUP3 ADD SWAP1 POP SWAP2 SWAP1 POP JUMP JUMPDEST PUSH1 0x0 PUSH2 0x409A PUSH1 0x1B DUP4 PUSH2 0x4656 JUMP JUMPDEST SWAP2 POP PUSH2 0x40A5 DUP3 PUSH2 0x4BD1 JUMP JUMPDEST PUSH1 0x20 DUP3 ADD SWAP1 POP SWAP2 SWAP1 POP JUMP JUMPDEST PUSH32 0x2000000000000000000000000000000000000000000000000000000000000000 DUP2 MSTORE POP JUMP JUMPDEST PUSH1 0x0 PUSH2 0x40E3 PUSH1 0x28 DUP4 PUSH2 0x4656 JUMP JUMPDEST SWAP2 POP PUSH2 0x40EE DUP3 PUSH2 0x4BFA JUMP JUMPDEST PUSH1 0x40 DUP3 ADD SWAP1 POP SWAP2 SWAP1 POP JUMP JUMPDEST PUSH1 0x0 PUSH2 0x4106 PUSH1 0x33 DUP4 PUSH2 0x4656 JUMP JUMPDEST SWAP2 POP PUSH2 0x4111 DUP3 PUSH2 0x4C49 JUMP JUMPDEST PUSH1 0x40 DUP3 ADD SWAP1 POP SWAP2 SWAP1 POP JUMP JUMPDEST PUSH1 0x0 PUSH2 0x4129 PUSH1 0x41 DUP4 PUSH2 0x4656 JUMP JUMPDEST SWAP2 POP PUSH2 0x4134 DUP3 PUSH2 0x4C98 JUMP JUMPDEST PUSH1 0x60 DUP3 ADD SWAP1 POP SWAP2 SWAP1 POP JUMP JUMPDEST PUSH1 0x0 PUSH2 0x414C PUSH1 0x21 DUP4 PUSH2 0x4656 JUMP JUMPDEST SWAP2 POP PUSH2 0x4157 DUP3 PUSH2 0x4D0D JUMP JUMPDEST PUSH1 0x40 DUP3 ADD SWAP1 POP SWAP2 SWAP1 POP JUMP JUMPDEST PUSH1 0x0 PUSH2 0x416F PUSH1 0x23 DUP4 PUSH2 0x4656 JUMP JUMPDEST SWAP2 POP PUSH2 0x417A DUP3 PUSH2 0x4D5C JUMP JUMPDEST PUSH1 0x40 DUP3 ADD SWAP1 POP SWAP2 SWAP1 POP JUMP JUMPDEST PUSH1 0x0 PUSH2 0x4192 PUSH1 0x46 DUP4 PUSH2 0x4656 JUMP JUMPDEST SWAP2 POP PUSH2 0x419D DUP3 PUSH2 0x4DAB JUMP JUMPDEST PUSH1 0x60 DUP3 ADD SWAP1 POP SWAP2 SWAP1 POP JUMP JUMPDEST PUSH1 0x0 PUSH2 0x41B5 PUSH1 0x17 DUP4 PUSH2 0x4667 JUMP JUMPDEST SWAP2 POP PUSH2 0x41C0 DUP3 PUSH2 0x4E20 JUMP JUMPDEST PUSH1 0x17 DUP3 ADD SWAP1 POP SWAP2 SWAP1 POP JUMP JUMPDEST PUSH1 0x0 PUSH2 0x41D8 PUSH1 0x11 DUP4 PUSH2 0x4667 JUMP JUMPDEST SWAP2 POP PUSH2 0x41E3 DUP3 PUSH2 0x4E49 JUMP JUMPDEST PUSH1 0x11 DUP3 ADD SWAP1 POP SWAP2 SWAP1 POP JUMP JUMPDEST PUSH1 0x0 PUSH2 0x41FB PUSH1 0x2F DUP4 PUSH2 0x4656 JUMP JUMPDEST SWAP2 POP PUSH2 0x4206 DUP3 PUSH2 0x4E72 JUMP JUMPDEST PUSH1 0x40 DUP3 ADD SWAP1 POP SWAP2 SWAP1 POP JUMP JUMPDEST PUSH2 0x421A DUP2 PUSH2 0x496C JUMP JUMPDEST DUP3 MSTORE POP POP JUMP JUMPDEST PUSH2 0x4229 DUP2 PUSH2 0x496C JUMP JUMPDEST DUP3 MSTORE POP POP JUMP JUMPDEST PUSH1 0x0 PUSH2 0x423C DUP3 DUP5 DUP7 PUSH2 0x3F5A JUMP JUMPDEST SWAP2 POP PUSH2 0x4247 DUP3 PUSH2 0x40B0 JUMP JUMPDEST PUSH1 0x1 DUP3 ADD SWAP2 POP DUP2 SWAP1 POP SWAP4 SWAP3 POP POP POP JUMP JUMPDEST PUSH1 0x0 PUSH2 0x4264 DUP3 DUP5 DUP7 PUSH2 0x3F7F JUMP JUMPDEST SWAP2 POP DUP2 SWAP1 POP SWAP4 SWAP3 POP POP POP JUMP JUMPDEST PUSH1 0x0 PUSH2 0x427B DUP3 PUSH2 0x41A8 JUMP JUMPDEST SWAP2 POP PUSH2 0x4287 DUP3 DUP6 PUSH2 0x4016 JUMP JUMPDEST SWAP2 POP PUSH2 0x4292 DUP3 PUSH2 0x41CB JUMP JUMPDEST SWAP2 POP PUSH2 0x429E DUP3 DUP5 PUSH2 0x4016 JUMP JUMPDEST SWAP2 POP DUP2 SWAP1 POP SWAP4 SWAP3 POP POP POP JUMP JUMPDEST PUSH1 0x0 PUSH1 0xA0 DUP3 ADD SWAP1 POP PUSH2 0x42BF PUSH1 0x0 DUP4 ADD DUP9 PUSH2 0x3E5A JUMP JUMPDEST DUP2 DUP2 SUB PUSH1 0x20 DUP4 ADD MSTORE PUSH2 0x42D1 DUP2 DUP8 PUSH2 0x3E69 JUMP JUMPDEST SWAP1 POP DUP2 DUP2 SUB PUSH1 0x40 DUP4 ADD MSTORE PUSH2 0x42E5 DUP2 DUP7 PUSH2 0x3FDD JUMP JUMPDEST SWAP1 POP PUSH2 0x42F4 PUSH1 0x60 DUP4 ADD DUP6 PUSH2 0x4220 JUMP JUMPDEST PUSH2 0x4301 PUSH1 0x80 DUP4 ADD DUP5 PUSH2 0x3F3C JUMP JUMPDEST SWAP7 SWAP6 POP POP POP POP POP POP JUMP JUMPDEST PUSH1 0x0 PUSH1 0x40 DUP3 ADD SWAP1 POP PUSH2 0x4320 PUSH1 0x0 DUP4 ADD DUP6 PUSH2 0x3E5A JUMP JUMPDEST PUSH2 0x432D PUSH1 0x20 DUP4 ADD DUP5 PUSH2 0x4220 JUMP JUMPDEST SWAP4 SWAP3 POP POP POP JUMP JUMPDEST PUSH1 0x0 PUSH1 0x60 DUP3 ADD SWAP1 POP PUSH2 0x4349 PUSH1 0x0 DUP4 ADD DUP7 PUSH2 0x3E5A JUMP JUMPDEST PUSH2 0x4356 PUSH1 0x20 DUP4 ADD DUP6 PUSH2 0x4220 JUMP JUMPDEST PUSH2 0x4363 PUSH1 0x40 DUP4 ADD DUP5 PUSH2 0x3F3C JUMP JUMPDEST SWAP5 SWAP4 POP POP POP POP JUMP JUMPDEST PUSH1 0x0 PUSH1 0x20 DUP3 ADD SWAP1 POP PUSH2 0x4380 PUSH1 0x0 DUP4 ADD DUP5 PUSH2 0x3F3C JUMP JUMPDEST SWAP3 SWAP2 POP POP JUMP JUMPDEST PUSH1 0x0 PUSH1 0x20 DUP3 ADD SWAP1 POP PUSH2 0x439B PUSH1 0x0 DUP4 ADD DUP5 PUSH2 0x3F4B JUMP JUMPDEST SWAP3 SWAP2 POP POP JUMP JUMPDEST PUSH1 0x0 PUSH1 0x20 DUP3 ADD SWAP1 POP DUP2 DUP2 SUB PUSH1 0x0 DUP4 ADD MSTORE PUSH2 0x43BB DUP2 DUP5 PUSH2 0x3FDD JUMP JUMPDEST SWAP1 POP SWAP3 SWAP2 POP POP JUMP JUMPDEST PUSH1 0x0 PUSH1 0x20 DUP3 ADD SWAP1 POP DUP2 DUP2 SUB PUSH1 0x0 DUP4 ADD MSTORE PUSH2 0x43DC DUP2 PUSH2 0x4047 JUMP JUMPDEST SWAP1 POP SWAP2 SWAP1 POP JUMP JUMPDEST PUSH1 0x0 PUSH1 0x20 DUP3 ADD SWAP1 POP DUP2 DUP2 SUB PUSH1 0x0 DUP4 ADD MSTORE PUSH2 0x43FC DUP2 PUSH2 0x406A JUMP JUMPDEST SWAP1 POP SWAP2 SWAP1 POP JUMP JUMPDEST PUSH1 0x0 PUSH1 0x20 DUP3 ADD SWAP1 POP DUP2 DUP2 SUB PUSH1 0x0 DUP4 ADD MSTORE PUSH2 0x441C DUP2 PUSH2 0x408D JUMP JUMPDEST SWAP1 POP SWAP2 SWAP1 POP JUMP JUMPDEST PUSH1 0x0 PUSH1 0x20 DUP3 ADD SWAP1 POP DUP2 DUP2 SUB PUSH1 0x0 DUP4 ADD MSTORE PUSH2 0x443C DUP2 PUSH2 0x40D6 JUMP JUMPDEST SWAP1 POP SWAP2 SWAP1 POP JUMP JUMPDEST PUSH1 0x0 PUSH1 0x20 DUP3 ADD SWAP1 POP DUP2 DUP2 SUB PUSH1 0x0 DUP4 ADD MSTORE PUSH2 0x445C DUP2 PUSH2 0x40F9 JUMP JUMPDEST SWAP1 POP SWAP2 SWAP1 POP JUMP JUMPDEST PUSH1 0x0 PUSH1 0x20 DUP3 ADD SWAP1 POP DUP2 DUP2 SUB PUSH1 0x0 DUP4 ADD MSTORE PUSH2 0x447C DUP2 PUSH2 0x411C JUMP JUMPDEST SWAP1 POP SWAP2 SWAP1 POP JUMP JUMPDEST PUSH1 0x0 PUSH1 0x20 DUP3 ADD SWAP1 POP DUP2 DUP2 SUB PUSH1 0x0 DUP4 ADD MSTORE PUSH2 0x449C DUP2 PUSH2 0x413F JUMP JUMPDEST SWAP1 POP SWAP2 SWAP1 POP JUMP JUMPDEST PUSH1 0x0 PUSH1 0x20 DUP3 ADD SWAP1 POP DUP2 DUP2 SUB PUSH1 0x0 DUP4 ADD MSTORE PUSH2 0x44BC DUP2 PUSH2 0x4162 JUMP JUMPDEST SWAP1 POP SWAP2 SWAP1 POP JUMP JUMPDEST PUSH1 0x0 PUSH1 0x20 DUP3 ADD SWAP1 POP DUP2 DUP2 SUB PUSH1 0x0 DUP4 ADD MSTORE PUSH2 0x44DC DUP2 PUSH2 0x4185 JUMP JUMPDEST SWAP1 POP SWAP2 SWAP1 POP JUMP JUMPDEST PUSH1 0x0 PUSH1 0x20 DUP3 ADD SWAP1 POP DUP2 DUP2 SUB PUSH1 0x0 DUP4 ADD MSTORE PUSH2 0x44FC DUP2 PUSH2 0x41EE JUMP JUMPDEST SWAP1 POP SWAP2 SWAP1 POP JUMP JUMPDEST PUSH1 0x0 PUSH1 0x20 DUP3 ADD SWAP1 POP PUSH2 0x4518 PUSH1 0x0 DUP4 ADD DUP5 PUSH2 0x4220 JUMP JUMPDEST SWAP3 SWAP2 POP POP JUMP JUMPDEST PUSH1 0x0 PUSH1 0x40 DUP3 ADD SWAP1 POP PUSH2 0x4533 PUSH1 0x0 DUP4 ADD DUP6 PUSH2 0x4220 JUMP JUMPDEST PUSH2 0x4540 PUSH1 0x20 DUP4 ADD DUP5 PUSH2 0x3F3C JUMP JUMPDEST SWAP4 SWAP3 POP POP POP JUMP JUMPDEST PUSH1 0x0 PUSH1 0xC0 DUP3 ADD SWAP1 POP PUSH2 0x455C PUSH1 0x0 DUP4 ADD DUP10 PUSH2 0x4220 JUMP JUMPDEST DUP2 DUP2 SUB PUSH1 0x20 DUP4 ADD MSTORE PUSH2 0x456E DUP2 DUP9 PUSH2 0x3FDD JUMP JUMPDEST SWAP1 POP DUP2 DUP2 SUB PUSH1 0x40 DUP4 ADD MSTORE PUSH2 0x4582 DUP2 DUP8 PUSH2 0x3FDD JUMP JUMPDEST SWAP1 POP DUP2 DUP2 SUB PUSH1 0x60 DUP4 ADD MSTORE PUSH2 0x4596 DUP2 DUP7 PUSH2 0x3EDE JUMP JUMPDEST SWAP1 POP PUSH2 0x45A5 PUSH1 0x80 DUP4 ADD DUP6 PUSH2 0x4220 JUMP JUMPDEST PUSH2 0x45B2 PUSH1 0xA0 DUP4 ADD DUP5 PUSH2 0x3E5A JUMP JUMPDEST SWAP8 SWAP7 POP POP POP POP POP POP POP JUMP JUMPDEST PUSH1 0x0 DUP2 SWAP1 POP PUSH1 0x20 DUP3 ADD SWAP1 POP SWAP2 SWAP1 POP JUMP JUMPDEST PUSH1 0x0 DUP2 SWAP1 POP PUSH1 0x20 DUP3 ADD SWAP1 POP SWAP2 SWAP1 POP JUMP JUMPDEST PUSH1 0x0 DUP2 MLOAD SWAP1 POP SWAP2 SWAP1 POP JUMP JUMPDEST PUSH1 0x0 DUP2 MLOAD SWAP1 POP SWAP2 SWAP1 POP JUMP JUMPDEST PUSH1 0x0 DUP2 MLOAD SWAP1 POP SWAP2 SWAP1 POP JUMP JUMPDEST PUSH1 0x0 PUSH1 0x20 DUP3 ADD SWAP1 POP SWAP2 SWAP1 POP JUMP JUMPDEST PUSH1 0x0 PUSH1 0x20 DUP3 ADD SWAP1 POP SWAP2 SWAP1 POP JUMP JUMPDEST PUSH1 0x0 DUP3 DUP3 MSTORE PUSH1 0x20 DUP3 ADD SWAP1 POP SWAP3 SWAP2 POP POP JUMP JUMPDEST PUSH1 0x0 DUP3 DUP3 MSTORE PUSH1 0x20 DUP3 ADD SWAP1 POP SWAP3 SWAP2 POP POP JUMP JUMPDEST PUSH1 0x0 DUP2 SWAP1 POP SWAP3 SWAP2 POP POP JUMP JUMPDEST PUSH1 0x0 DUP3 DUP3 MSTORE PUSH1 0x20 DUP3 ADD SWAP1 POP SWAP3 SWAP2 POP POP JUMP JUMPDEST PUSH1 0x0 DUP3 DUP3 MSTORE PUSH1 0x20 DUP3 ADD SWAP1 POP SWAP3 SWAP2 POP POP JUMP JUMPDEST PUSH1 0x0 DUP2 SWAP1 POP SWAP3 SWAP2 POP POP JUMP JUMPDEST PUSH1 0x0 PUSH2 0x467D DUP3 PUSH2 0x496C JUMP JUMPDEST SWAP2 POP PUSH2 0x4688 DUP4 PUSH2 0x496C JUMP JUMPDEST SWAP3 POP DUP3 PUSH32 0xFFFFFFFFFFFFFFFFFFFFFFFFFFFFFFFFFFFFFFFFFFFFFFFFFFFFFFFFFFFFFFFF SUB DUP3 GT ISZERO PUSH2 0x46BD JUMPI PUSH2 0x46BC PUSH2 0x4A5D JUMP JUMPDEST JUMPDEST DUP3 DUP3 ADD SWAP1 POP SWAP3 SWAP2 POP POP JUMP JUMPDEST PUSH1 0x0 PUSH2 0x46D3 DUP3 PUSH2 0x496C JUMP JUMPDEST SWAP2 POP PUSH2 0x46DE DUP4 PUSH2 0x496C JUMP JUMPDEST SWAP3 POP DUP3 PUSH2 0x46EE JUMPI PUSH2 0x46ED PUSH2 0x4A8C JUMP JUMPDEST JUMPDEST DUP3 DUP3 DIV SWAP1 POP SWAP3 SWAP2 POP POP JUMP JUMPDEST PUSH1 0x0 DUP1 DUP3 SWAP2 POP DUP4 SWAP1 POP JUMPDEST PUSH1 0x1 DUP6 GT ISZERO PUSH2 0x4743 JUMPI DUP1 DUP7 DIV DUP2 GT ISZERO PUSH2 0x471F JUMPI PUSH2 0x471E PUSH2 0x4A5D JUMP JUMPDEST JUMPDEST PUSH1 0x1 DUP6 AND ISZERO PUSH2 0x472E JUMPI DUP1 DUP3 MUL SWAP2 POP JUMPDEST DUP1 DUP2 MUL SWAP1 POP PUSH2 0x473C DUP6 PUSH2 0x4B72 JUMP JUMPDEST SWAP5 POP PUSH2 0x4703 JUMP JUMPDEST SWAP5 POP SWAP5 SWAP3 POP POP POP JUMP JUMPDEST PUSH1 0x0 PUSH2 0x4757 DUP3 PUSH2 0x496C JUMP JUMPDEST SWAP2 POP PUSH2 0x4762 DUP4 PUSH2 0x496C JUMP JUMPDEST SWAP3 POP PUSH2 0x478F PUSH32 0xFFFFFFFFFFFFFFFFFFFFFFFFFFFFFFFFFFFFFFFFFFFFFFFFFFFFFFFFFFFFFFFF DUP5 DUP5 PUSH2 0x4797 JUMP JUMPDEST SWAP1 POP SWAP3 SWAP2 POP POP JUMP JUMPDEST PUSH1 0x0 DUP3 PUSH2 0x47A7 JUMPI PUSH1 0x1 SWAP1 POP PUSH2 0x4863 JUMP JUMPDEST DUP2 PUSH2 0x47B5 JUMPI PUSH1 0x0 SWAP1 POP PUSH2 0x4863 JUMP JUMPDEST DUP2 PUSH1 0x1 DUP2 EQ PUSH2 0x47CB JUMPI PUSH1 0x2 DUP2 EQ PUSH2 0x47D5 JUMPI PUSH2 0x4804 JUMP JUMPDEST PUSH1 0x1 SWAP2 POP POP PUSH2 0x4863 JUMP JUMPDEST PUSH1 0xFF DUP5 GT ISZERO PUSH2 0x47E7 JUMPI PUSH2 0x47E6 PUSH2 0x4A5D JUMP JUMPDEST JUMPDEST DUP4 PUSH1 0x2 EXP SWAP2 POP DUP5 DUP3 GT ISZERO PUSH2 0x47FE JUMPI PUSH2 0x47FD PUSH2 0x4A5D JUMP JUMPDEST JUMPDEST POP PUSH2 0x4863 JUMP JUMPDEST POP PUSH1 0x20 DUP4 LT PUSH2 0x133 DUP4 LT AND PUSH1 0x4E DUP5 LT PUSH1 0xB DUP5 LT AND OR ISZERO PUSH2 0x4839 JUMPI DUP3 DUP3 EXP SWAP1 POP DUP4 DUP2 GT ISZERO PUSH2 0x4834 JUMPI PUSH2 0x4833 PUSH2 0x4A5D JUMP JUMPDEST JUMPDEST PUSH2 0x4863 JUMP JUMPDEST PUSH2 0x4846 DUP5 DUP5 DUP5 PUSH1 0x1 PUSH2 0x46F9 JUMP JUMPDEST SWAP3 POP SWAP1 POP DUP2 DUP5 DIV DUP2 GT ISZERO PUSH2 0x485D JUMPI PUSH2 0x485C PUSH2 0x4A5D JUMP JUMPDEST JUMPDEST DUP2 DUP2 MUL SWAP1 POP JUMPDEST SWAP4 SWAP3 POP POP POP JUMP JUMPDEST PUSH1 0x0 PUSH2 0x4875 DUP3 PUSH2 0x496C JUMP JUMPDEST SWAP2 POP PUSH2 0x4880 DUP4 PUSH2 0x496C JUMP JUMPDEST SWAP3 POP DUP2 PUSH32 0xFFFFFFFFFFFFFFFFFFFFFFFFFFFFFFFFFFFFFFFFFFFFFFFFFFFFFFFFFFFFFFFF DIV DUP4 GT DUP3 ISZERO ISZERO AND ISZERO PUSH2 0x48B9 JUMPI PUSH2 0x48B8 PUSH2 0x4A5D JUMP JUMPDEST JUMPDEST DUP3 DUP3 MUL SWAP1 POP SWAP3 SWAP2 POP POP JUMP JUMPDEST PUSH1 0x0 PUSH2 0x48CF DUP3 PUSH2 0x496C JUMP JUMPDEST SWAP2 POP PUSH2 0x48DA DUP4 PUSH2 0x496C JUMP JUMPDEST SWAP3 POP DUP3 DUP3 LT ISZERO PUSH2 0x48ED JUMPI PUSH2 0x48EC PUSH2 0x4A5D JUMP JUMPDEST JUMPDEST DUP3 DUP3 SUB SWAP1 POP SWAP3 SWAP2 POP POP JUMP JUMPDEST PUSH1 0x0 PUSH2 0x4903 DUP3 PUSH2 0x494C JUMP JUMPDEST SWAP1 POP SWAP2 SWAP1 POP JUMP JUMPDEST PUSH1 0x0 DUP2 ISZERO ISZERO SWAP1 POP SWAP2 SWAP1 POP JUMP JUMPDEST PUSH1 0x0 DUP2 SWAP1 POP SWAP2 SWAP1 POP JUMP JUMPDEST PUSH1 0x0 PUSH32 0xFFFFFFFF00000000000000000000000000000000000000000000000000000000 DUP3 AND SWAP1 POP SWAP2 SWAP1 POP JUMP JUMPDEST PUSH1 0x0 PUSH20 0xFFFFFFFFFFFFFFFFFFFFFFFFFFFFFFFFFFFFFFFF DUP3 AND SWAP1 POP SWAP2 SWAP1 POP JUMP JUMPDEST PUSH1 0x0 DUP2 SWAP1 POP SWAP2 SWAP1 POP JUMP JUMPDEST DUP3 DUP2 DUP4 CALLDATACOPY PUSH1 0x0 DUP4 DUP4 ADD MSTORE POP POP POP JUMP JUMPDEST PUSH1 0x0 JUMPDEST DUP4 DUP2 LT ISZERO PUSH2 0x49A3 JUMPI DUP1 DUP3 ADD MLOAD DUP2 DUP5 ADD MSTORE PUSH1 0x20 DUP2 ADD SWAP1 POP PUSH2 0x4988 JUMP JUMPDEST DUP4 DUP2 GT ISZERO PUSH2 0x49B2 JUMPI PUSH1 0x0 DUP5 DUP5 ADD MSTORE JUMPDEST POP POP POP POP JUMP JUMPDEST PUSH1 0x0 PUSH2 0x49C3 DUP3 PUSH2 0x496C JUMP JUMPDEST SWAP2 POP PUSH1 0x0 DUP3 EQ ISZERO PUSH2 0x49D7 JUMPI PUSH2 0x49D6 PUSH2 0x4A5D JUMP JUMPDEST JUMPDEST PUSH1 0x1 DUP3 SUB SWAP1 POP SWAP2 SWAP1 POP JUMP JUMPDEST PUSH1 0x0 PUSH1 0x2 DUP3 DIV SWAP1 POP PUSH1 0x1 DUP3 AND DUP1 PUSH2 0x49FA JUMPI PUSH1 0x7F DUP3 AND SWAP2 POP JUMPDEST PUSH1 0x20 DUP3 LT DUP2 EQ ISZERO PUSH2 0x4A0E JUMPI PUSH2 0x4A0D PUSH2 0x4ABB JUMP JUMPDEST JUMPDEST POP SWAP2 SWAP1 POP JUMP JUMPDEST PUSH1 0x0 PUSH2 0x4A1F DUP3 PUSH2 0x496C JUMP JUMPDEST SWAP2 POP PUSH32 0xFFFFFFFFFFFFFFFFFFFFFFFFFFFFFFFFFFFFFFFFFFFFFFFFFFFFFFFFFFFFFFFF DUP3 EQ ISZERO PUSH2 0x4A52 JUMPI PUSH2 0x4A51 PUSH2 0x4A5D JUMP JUMPDEST JUMPDEST PUSH1 0x1 DUP3 ADD SWAP1 POP SWAP2 SWAP1 POP JUMP JUMPDEST PUSH32 0x4E487B7100000000000000000000000000000000000000000000000000000000 PUSH1 0x0 MSTORE PUSH1 0x11 PUSH1 0x4 MSTORE PUSH1 0x24 PUSH1 0x0 REVERT JUMPDEST PUSH32 0x4E487B7100000000000000000000000000000000000000000000000000000000 PUSH1 0x0 MSTORE PUSH1 0x12 PUSH1 0x4 MSTORE PUSH1 0x24 PUSH1 0x0 REVERT JUMPDEST PUSH32 0x4E487B7100000000000000000000000000000000000000000000000000000000 PUSH1 0x0 MSTORE PUSH1 0x22 PUSH1 0x4 MSTORE PUSH1 0x24 PUSH1 0x0 REVERT JUMPDEST PUSH32 0x4E487B7100000000000000000000000000000000000000000000000000000000 PUSH1 0x0 MSTORE PUSH1 0x32 PUSH1 0x4 MSTORE PUSH1 0x24 PUSH1 0x0 REVERT JUMPDEST PUSH32 0x4E487B7100000000000000000000000000000000000000000000000000000000 PUSH1 0x0 MSTORE PUSH1 0x41 PUSH1 0x4 MSTORE PUSH1 0x24 PUSH1 0x0 REVERT JUMPDEST PUSH1 0x0 DUP1 REVERT JUMPDEST PUSH1 0x0 DUP1 REVERT JUMPDEST PUSH1 0x0 DUP1 REVERT JUMPDEST PUSH1 0x0 DUP1 REVERT JUMPDEST PUSH1 0x0 DUP1 REVERT JUMPDEST PUSH1 0x0 PUSH1 0x1F NOT PUSH1 0x1F DUP4 ADD AND SWAP1 POP SWAP2 SWAP1 POP JUMP JUMPDEST PUSH1 0x0 DUP2 PUSH1 0x1 SHR SWAP1 POP SWAP2 SWAP1 POP JUMP JUMPDEST PUSH32 0x537472696E67733A20686578206C656E67746820696E73756666696369656E74 PUSH1 0x0 DUP3 ADD MSTORE POP JUMP JUMPDEST PUSH32 0x546865206164647265737320686173206E6F74207065726D697373696F6E0000 PUSH1 0x0 DUP3 ADD MSTORE POP JUMP JUMPDEST PUSH32 0x536166654D6174683A206164646974696F6E206F766572666C6F770000000000 PUSH1 0x0 DUP3 ADD MSTORE POP JUMP JUMPDEST PUSH32 0x53756D206F662074686520666F757220706172616D65746572732073686F756C PUSH1 0x0 DUP3 ADD MSTORE PUSH32 0x6420626520313030000000000000000000000000000000000000000000000000 PUSH1 0x20 DUP3 ADD MSTORE POP JUMP JUMPDEST PUSH32 0x53756D206F66207468652074776F20656E7669726F6E6D656E7420706172616D PUSH1 0x0 DUP3 ADD MSTORE PUSH32 0x65746572732073686F756C642062652031303000000000000000000000000000 PUSH1 0x20 DUP3 ADD MSTORE POP JUMP JUMPDEST PUSH32 0x686173682073656E74206265666F726520746865206F70656E696E6720646174 PUSH1 0x0 DUP3 ADD MSTORE PUSH32 0x65206F7220616674657220746865206861736820636C6F73696E672064617465 PUSH1 0x20 DUP3 ADD MSTORE PUSH32 0x2100000000000000000000000000000000000000000000000000000000000000 PUSH1 0x40 DUP3 ADD MSTORE POP JUMP JUMPDEST PUSH32 0x536166654D6174683A206D756C7469706C69636174696F6E206F766572666C6F PUSH1 0x0 DUP3 ADD MSTORE PUSH32 0x7700000000000000000000000000000000000000000000000000000000000000 PUSH1 0x20 DUP3 ADD MSTORE POP JUMP JUMPDEST PUSH32 0x42696420616C726561647920706C6163656420666F7220746869732074656E64 PUSH1 0x0 DUP3 ADD MSTORE PUSH32 0x6572210000000000000000000000000000000000000000000000000000000000 PUSH1 0x20 DUP3 ADD MSTORE POP JUMP JUMPDEST PUSH32 0x646174612073656E74206265666F726520746865206861736820636C6F73696E PUSH1 0x0 DUP3 ADD MSTORE PUSH32 0x672064617465206F7220616674657220746865206461746120636C6F73696E67 PUSH1 0x20 DUP3 ADD MSTORE PUSH32 0x20646174652E0000000000000000000000000000000000000000000000000000 PUSH1 0x40 DUP3 ADD MSTORE POP JUMP JUMPDEST PUSH32 0x416363657373436F6E74726F6C3A206163636F756E7420000000000000000000 PUSH1 0x0 DUP3 ADD MSTORE POP JUMP JUMPDEST PUSH32 0x206973206D697373696E6720726F6C6520000000000000000000000000000000 PUSH1 0x0 DUP3 ADD MSTORE POP JUMP JUMPDEST PUSH32 0x416363657373436F6E74726F6C3A2063616E206F6E6C792072656E6F756E6365 PUSH1 0x0 DUP3 ADD MSTORE PUSH32 0x20726F6C657320666F722073656C660000000000000000000000000000000000 PUSH1 0x20 DUP3 ADD MSTORE POP JUMP JUMPDEST PUSH2 0x4ECA DUP2 PUSH2 0x48F8 JUMP JUMPDEST DUP2 EQ PUSH2 0x4ED5 JUMPI PUSH1 0x0 DUP1 REVERT JUMPDEST POP JUMP JUMPDEST PUSH2 0x4EE1 DUP2 PUSH2 0x4916 JUMP JUMPDEST DUP2 EQ PUSH2 0x4EEC JUMPI PUSH1 0x0 DUP1 REVERT JUMPDEST POP JUMP JUMPDEST PUSH2 0x4EF8 DUP2 PUSH2 0x4920 JUMP JUMPDEST DUP2 EQ PUSH2 0x4F03 JUMPI PUSH1 0x0 DUP1 REVERT JUMPDEST POP JUMP JUMPDEST PUSH2 0x4F0F DUP2 PUSH2 0x496C JUMP JUMPDEST DUP2 EQ PUSH2 0x4F1A JUMPI PUSH1 0x0 DUP1 REVERT JUMPDEST POP JUMP INVALID LOG2 PUSH5 0x6970667358 0x22 SLT KECCAK256 CALLCODE SWAP13 BALANCE 0xD3 0x4E 0xC9 0xB3 DUP12 EXTCODEHASH 0xAF SWAP6 SLT 0xAE PUSH18 0x491C46F0B559DED943E8F9219B688F5117DB PUSH5 0x736F6C6343 STOP ADDMOD MOD STOP CALLER "
		},
		"gasEstimates": {
			"creation": {
				"codeDepositCost": "4061400",
				"executionCost": "infinite",
				"totalCost": "infinite"
			},
			"external": {
				"CreateTender(string,string,uint256,uint256,string)": "infinite",
				"DEFAULT_ADMIN_ROLE()": "446",
				"FIRM_ROLE()": "375",
				"addFirm(address)": "infinite",
				"addPA(address)": "infinite",
				"assign_winner(uint256)": "infinite",
				"compute_scores(uint256)": "infinite",
				"concludeBid(uint256,string,string)": "infinite",
				"displayWinner(uint256)": "infinite",
				"getBidDetails(uint256,address)": "infinite",
				"getResultsLenght(uint256)": "infinite",
				"getResultsValue(uint256,uint256)": "infinite",
				"getRoleAdmin(bytes32)": "infinite",
				"getTendersLength()": "2503",
				"grantRole(bytes32,address)": "infinite",
				"hasRole(bytes32,address)": "3251",
				"isPending(uint256)": "infinite",
				"placeBid(uint256,bytes32)": "infinite",
				"renounceFIRM(address)": "infinite",
				"renouncePA(address)": "infinite",
				"renounceRole(bytes32,address)": "infinite",
				"revokeFirm(address)": "infinite",
				"revokePA(address)": "infinite",
				"revokeRole(bytes32,address)": "infinite",
				"see_TenderDetails(uint256)": "infinite",
				"supportsInterface(bytes4)": "751"
			},
			"internal": {
				"SMT(string memory,string memory)": "infinite",
				"adjust_measures(uint256,uint256)": "infinite",
				"environment_score(uint256,uint256,uint256,uint256)": "infinite",
				"getWeights(uint256)": "infinite",
				"parseInt(string memory)": "infinite",
				"splitDescription(uint256)": "infinite"
			}
		},
		"methodIdentifiers": {
			"CreateTender(string,string,uint256,uint256,string)": "3ff3a80c",
			"DEFAULT_ADMIN_ROLE()": "a217fddf",
			"FIRM_ROLE()": "18fd3e10",
			"addFirm(address)": "a1c6a78e",
			"addPA(address)": "9cf0f0b7",
			"assign_winner(uint256)": "43a96b73",
			"compute_scores(uint256)": "6c7b8380",
			"concludeBid(uint256,string,string)": "66288ce8",
			"displayWinner(uint256)": "5aac39e7",
			"getBidDetails(uint256,address)": "9fc89aed",
			"getResultsLenght(uint256)": "f3fa1482",
			"getResultsValue(uint256,uint256)": "9fb63f0f",
			"getRoleAdmin(bytes32)": "248a9ca3",
			"getTendersLength()": "ec39b826",
			"grantRole(bytes32,address)": "2f2ff15d",
			"hasRole(bytes32,address)": "91d14854",
			"isPending(uint256)": "ca8836d2",
			"placeBid(uint256,bytes32)": "66ab1d52",
			"renounceFIRM(address)": "b5e967fb",
			"renouncePA(address)": "fc3f90e8",
			"renounceRole(bytes32,address)": "36568abe",
			"revokeFirm(address)": "ce630fd6",
			"revokePA(address)": "8f902fab",
			"revokeRole(bytes32,address)": "d547741f",
			"see_TenderDetails(uint256)": "cf6f4007",
			"supportsInterface(bytes4)": "01ffc9a7"
		}
	},
	"abi": [
		{
			"anonymous": false,
			"inputs": [
				{
					"indexed": true,
					"internalType": "bytes32",
					"name": "role",
					"type": "bytes32"
				},
				{
					"indexed": true,
					"internalType": "bytes32",
					"name": "previousAdminRole",
					"type": "bytes32"
				},
				{
					"indexed": true,
					"internalType": "bytes32",
					"name": "newAdminRole",
					"type": "bytes32"
				}
			],
			"name": "RoleAdminChanged",
			"type": "event"
		},
		{
			"anonymous": false,
			"inputs": [
				{
					"indexed": true,
					"internalType": "bytes32",
					"name": "role",
					"type": "bytes32"
				},
				{
					"indexed": true,
					"internalType": "address",
					"name": "account",
					"type": "address"
				},
				{
					"indexed": true,
					"internalType": "address",
					"name": "sender",
					"type": "address"
				}
			],
			"name": "RoleGranted",
			"type": "event"
		},
		{
			"anonymous": false,
			"inputs": [
				{
					"indexed": true,
					"internalType": "bytes32",
					"name": "role",
					"type": "bytes32"
				},
				{
					"indexed": true,
					"internalType": "address",
					"name": "account",
					"type": "address"
				},
				{
					"indexed": true,
					"internalType": "address",
					"name": "sender",
					"type": "address"
				}
			],
			"name": "RoleRevoked",
			"type": "event"
		},
		{
			"inputs": [
				{
					"internalType": "string",
					"name": "_tenderName",
					"type": "string"
				},
				{
					"internalType": "string",
					"name": "_description",
					"type": "string"
				},
				{
					"internalType": "uint256",
					"name": "_daysUntilClosingDateHash",
					"type": "uint256"
				},
				{
					"internalType": "uint256",
					"name": "_daysUntilClosingDateData",
					"type": "uint256"
				},
				{
					"internalType": "string",
					"name": "_weights",
					"type": "string"
				}
			],
			"name": "CreateTender",
			"outputs": [],
			"stateMutability": "nonpayable",
			"type": "function"
		},
		{
			"inputs": [],
			"name": "DEFAULT_ADMIN_ROLE",
			"outputs": [
				{
					"internalType": "bytes32",
					"name": "",
					"type": "bytes32"
				}
			],
			"stateMutability": "view",
			"type": "function"
		},
		{
			"inputs": [],
			"name": "FIRM_ROLE",
			"outputs": [
				{
					"internalType": "bytes32",
					"name": "",
					"type": "bytes32"
				}
			],
			"stateMutability": "view",
			"type": "function"
		},
		{
			"inputs": [
				{
					"internalType": "address",
					"name": "id",
					"type": "address"
				}
			],
			"name": "addFirm",
			"outputs": [],
			"stateMutability": "nonpayable",
			"type": "function"
		},
		{
			"inputs": [
				{
					"internalType": "address",
					"name": "id",
					"type": "address"
				}
			],
			"name": "addPA",
			"outputs": [],
			"stateMutability": "nonpayable",
			"type": "function"
		},
		{
			"inputs": [
				{
					"internalType": "uint256",
					"name": "_tenderKey",
					"type": "uint256"
				}
			],
			"name": "assign_winner",
			"outputs": [],
			"stateMutability": "nonpayable",
			"type": "function"
		},
		{
			"inputs": [
				{
					"internalType": "uint256",
					"name": "_tenderKey",
					"type": "uint256"
				}
			],
			"name": "compute_scores",
			"outputs": [],
			"stateMutability": "nonpayable",
			"type": "function"
		},
		{
			"inputs": [
				{
					"internalType": "uint256",
					"name": "_tenderKey",
					"type": "uint256"
				},
				{
					"internalType": "string",
					"name": "_description",
					"type": "string"
				},
				{
					"internalType": "string",
					"name": "_separator",
					"type": "string"
				}
			],
			"name": "concludeBid",
			"outputs": [],
			"stateMutability": "nonpayable",
			"type": "function"
		},
		{
			"inputs": [
				{
					"internalType": "uint256",
					"name": "_tenderKey",
					"type": "uint256"
				}
			],
			"name": "displayWinner",
			"outputs": [
				{
					"internalType": "address",
					"name": "",
					"type": "address"
				},
				{
					"internalType": "uint256",
					"name": "",
					"type": "uint256"
				}
			],
			"stateMutability": "view",
			"type": "function"
		},
		{
			"inputs": [
				{
					"internalType": "uint256",
					"name": "_tenderKey",
					"type": "uint256"
				},
				{
					"internalType": "address",
					"name": "_index",
					"type": "address"
				}
			],
			"name": "getBidDetails",
			"outputs": [
				{
					"internalType": "address",
					"name": "",
					"type": "address"
				},
				{
					"internalType": "string[]",
					"name": "",
					"type": "string[]"
				},
				{
					"internalType": "string",
					"name": "",
					"type": "string"
				},
				{
					"internalType": "uint256",
					"name": "",
					"type": "uint256"
				},
				{
					"internalType": "bool",
					"name": "",
					"type": "bool"
				}
			],
			"stateMutability": "view",
			"type": "function"
		},
		{
			"inputs": [
				{
					"internalType": "uint256",
					"name": "_tenderKey",
					"type": "uint256"
				}
			],
			"name": "getResultsLenght",
			"outputs": [
				{
					"internalType": "uint256",
					"name": "",
					"type": "uint256"
				}
			],
			"stateMutability": "view",
			"type": "function"
		},
		{
			"inputs": [
				{
					"internalType": "uint256",
					"name": "_tenderKey",
					"type": "uint256"
				},
				{
					"internalType": "uint256",
					"name": "_index",
					"type": "uint256"
				}
			],
			"name": "getResultsValue",
			"outputs": [
				{
					"internalType": "address",
					"name": "",
					"type": "address"
				},
				{
					"internalType": "uint256",
					"name": "",
					"type": "uint256"
				},
				{
					"internalType": "bool",
					"name": "",
					"type": "bool"
				}
			],
			"stateMutability": "view",
			"type": "function"
		},
		{
			"inputs": [
				{
					"internalType": "bytes32",
					"name": "role",
					"type": "bytes32"
				}
			],
			"name": "getRoleAdmin",
			"outputs": [
				{
					"internalType": "bytes32",
					"name": "",
					"type": "bytes32"
				}
			],
			"stateMutability": "view",
			"type": "function"
		},
		{
			"inputs": [],
			"name": "getTendersLength",
			"outputs": [
				{
					"internalType": "uint256",
					"name": "",
					"type": "uint256"
				}
			],
			"stateMutability": "view",
			"type": "function"
		},
		{
			"inputs": [
				{
					"internalType": "bytes32",
					"name": "role",
					"type": "bytes32"
				},
				{
					"internalType": "address",
					"name": "account",
					"type": "address"
				}
			],
			"name": "grantRole",
			"outputs": [],
			"stateMutability": "nonpayable",
			"type": "function"
		},
		{
			"inputs": [
				{
					"internalType": "bytes32",
					"name": "role",
					"type": "bytes32"
				},
				{
					"internalType": "address",
					"name": "account",
					"type": "address"
				}
			],
			"name": "hasRole",
			"outputs": [
				{
					"internalType": "bool",
					"name": "",
					"type": "bool"
				}
			],
			"stateMutability": "view",
			"type": "function"
		},
		{
			"inputs": [
				{
					"internalType": "uint256",
					"name": "_tenderKey",
					"type": "uint256"
				}
			],
			"name": "isPending",
			"outputs": [
				{
					"internalType": "uint256",
					"name": "",
					"type": "uint256"
				},
				{
					"internalType": "bool",
					"name": "",
					"type": "bool"
				}
			],
			"stateMutability": "view",
			"type": "function"
		},
		{
			"inputs": [
				{
					"internalType": "uint256",
					"name": "_tenderKey",
					"type": "uint256"
				},
				{
					"internalType": "bytes32",
					"name": "_hashOffer",
					"type": "bytes32"
				}
			],
			"name": "placeBid",
			"outputs": [],
			"stateMutability": "nonpayable",
			"type": "function"
		},
		{
			"inputs": [
				{
					"internalType": "address",
					"name": "id",
					"type": "address"
				}
			],
			"name": "renounceFIRM",
			"outputs": [],
			"stateMutability": "nonpayable",
			"type": "function"
		},
		{
			"inputs": [
				{
					"internalType": "address",
					"name": "id",
					"type": "address"
				}
			],
			"name": "renouncePA",
			"outputs": [],
			"stateMutability": "nonpayable",
			"type": "function"
		},
		{
			"inputs": [
				{
					"internalType": "bytes32",
					"name": "role",
					"type": "bytes32"
				},
				{
					"internalType": "address",
					"name": "account",
					"type": "address"
				}
			],
			"name": "renounceRole",
			"outputs": [],
			"stateMutability": "nonpayable",
			"type": "function"
		},
		{
			"inputs": [
				{
					"internalType": "address",
					"name": "id",
					"type": "address"
				}
			],
			"name": "revokeFirm",
			"outputs": [],
			"stateMutability": "nonpayable",
			"type": "function"
		},
		{
			"inputs": [
				{
					"internalType": "address",
					"name": "id",
					"type": "address"
				}
			],
			"name": "revokePA",
			"outputs": [],
			"stateMutability": "nonpayable",
			"type": "function"
		},
		{
			"inputs": [
				{
					"internalType": "bytes32",
					"name": "role",
					"type": "bytes32"
				},
				{
					"internalType": "address",
					"name": "account",
					"type": "address"
				}
			],
			"name": "revokeRole",
			"outputs": [],
			"stateMutability": "nonpayable",
			"type": "function"
		},
		{
			"inputs": [
				{
					"internalType": "uint256",
					"name": "_tenderKey",
					"type": "uint256"
				}
			],
			"name": "see_TenderDetails",
			"outputs": [
				{
					"internalType": "uint256",
					"name": "tender_id",
					"type": "uint256"
				},
				{
					"internalType": "string",
					"name": "tenderName",
					"type": "string"
				},
				{
					"internalType": "string",
					"name": "description",
					"type": "string"
				},
				{
					"internalType": "uint256[]",
					"name": "evaluation_weights",
					"type": "uint256[]"
				},
				{
					"internalType": "uint256",
					"name": "firms",
					"type": "uint256"
				},
				{
					"internalType": "address",
					"name": "winningContractor",
					"type": "address"
				}
			],
			"stateMutability": "view",
			"type": "function"
		},
		{
			"inputs": [
				{
					"internalType": "bytes4",
					"name": "interfaceId",
					"type": "bytes4"
				}
			],
			"name": "supportsInterface",
			"outputs": [
				{
					"internalType": "bool",
					"name": "",
					"type": "bool"
				}
			],
			"stateMutability": "view",
			"type": "function"
		}
	]
}