{
	"data": {
		"bytecode": {
			"linkReferences": {},
			"object": "60806040523480156200001157600080fd5b50620000276000801b336200006260201b60201c565b6200005c7f67bee59ee70ce8db2640fefb72d33f9b54ee798d412840c7c6d3e247987eb2486000801b6200007860201b60201c565b6200025d565b620000748282620000db60201b60201c565b5050565b60006200008b83620001cc60201b60201c565b905081600080858152602001908152602001600020600101819055508181847fbd79b86ffe0ab8e8776151514217cd7cacd52c909f66475c3af44e129f0b00ff60405160405180910390a4505050565b620000ed8282620001eb60201b60201c565b620001c857600160008084815260200190815260200160002060000160008373ffffffffffffffffffffffffffffffffffffffff1673ffffffffffffffffffffffffffffffffffffffff16815260200190815260200160002060006101000a81548160ff0219169083151502179055506200016d6200025560201b60201c565b73ffffffffffffffffffffffffffffffffffffffff168173ffffffffffffffffffffffffffffffffffffffff16837f2f8788117e7eff1d82e926ec794901d17c78024a50270940304540a733656f0d60405160405180910390a45b5050565b6000806000838152602001908152602001600020600101549050919050565b600080600084815260200190815260200160002060000160008373ffffffffffffffffffffffffffffffffffffffff1673ffffffffffffffffffffffffffffffffffffffff16815260200190815260200160002060009054906101000a900460ff16905092915050565b600033905090565b614f9d806200026d6000396000f3fe608060405234801561001057600080fd5b506004361061018e5760003560e01c80639cf0f0b7116100de578063ca8836d211610097578063d547741f11610071578063d547741f146104ac578063ec39b826146104c8578063f3fa1482146104e6578063fc3f90e8146105165761018e565b8063ca8836d21461042a578063ce630fd61461045b578063cf6f4007146104775761018e565b80639cf0f0b7146103525780639fb63f0f1461036e5780639fc89aed146103a0578063a1c6a78e146103d4578063a217fddf146103f0578063b5e967fb1461040e5761018e565b806343a96b731161014b57806366ab1d521161012557806366ab1d52146102ce5780636c7b8380146102ea5780638f902fab1461030657806391d14854146103225761018e565b806343a96b73146102655780635aac39e71461028157806366288ce8146102b25761018e565b806301ffc9a71461019357806318fd3e10146101c3578063248a9ca3146101e15780632f2ff15d1461021157806336568abe1461022d5780633ff3a80c14610249575b600080fd5b6101ad60048036038101906101a89190613c21565b610532565b6040516101ba9190614376565b60405180910390f35b6101cb6105ac565b6040516101d89190614391565b60405180910390f35b6101fb60048036038101906101f69190613bb4565b6105d0565b6040516102089190614391565b60405180910390f35b61022b60048036038101906102269190613be1565b6105ef565b005b61024760048036038101906102429190613be1565b610610565b005b610263600480360381019061025e9190613c4e565b610693565b005b61027f600480360381019061027a9190613d2a565b610bf5565b005b61029b60048036038101906102969190613d2a565b610e36565b6040516102a9929190614316565b60405180910390f35b6102cc60048036038101906102c79190613dd7565b610f27565b005b6102e860048036038101906102e39190613d97565b6112e3565b005b61030460048036038101906102ff9190613d2a565b6116ae565b005b610320600480360381019061031b9190613b87565b611d60565b005b61033c60048036038101906103379190613be1565b611d70565b6040516103499190614376565b60405180910390f35b61036c60048036038101906103679190613b87565b611dda565b005b61038860048036038101906103839190613e6c565b611dea565b6040516103979392919061433f565b60405180910390f35b6103ba60048036038101906103b59190613d57565b611f6b565b6040516103cb9594939291906142b5565b60405180910390f35b6103ee60048036038101906103e99190613b87565b61230f565b005b6103f861233c565b6040516104059190614391565b60405180910390f35b61042860048036038101906104239190613b87565b612343565b005b610444600480360381019061043f9190613d2a565b612370565b604051610452929190614529565b60405180910390f35b61047560048036038101906104709190613b87565b6123ad565b005b610491600480360381019061048c9190613d2a565b6123da565b6040516104a396959493929190614552565b60405180910390f35b6104c660048036038101906104c19190613be1565b61260a565b005b6104d061262b565b6040516104dd919061450e565b60405180910390f35b61050060048036038101906104fb9190613d2a565b612635565b60405161050d919061450e565b60405180910390f35b610530600480360381019061052b9190613b87565b612679565b005b60007f7965db0b000000000000000000000000000000000000000000000000000000007bffffffffffffffffffffffffffffffffffffffffffffffffffffffff1916827bffffffffffffffffffffffffffffffffffffffffffffffffffffffff191614806105a557506105a482612689565b5b9050919050565b7f67bee59ee70ce8db2640fefb72d33f9b54ee798d412840c7c6d3e247987eb24881565b6000806000838152602001908152602001600020600101549050919050565b6105f8826105d0565b610601816126f3565b61060b8383612707565b505050565b6106186127e7565b73ffffffffffffffffffffffffffffffffffffffff168173ffffffffffffffffffffffffffffffffffffffff1614610685576040517f08c379a000000000000000000000000000000000000000000000000000000000815260040161067c906144ee565b60405180910390fd5b61068f82826127ef565b5050565b600115156106a46000801b33611d70565b1515146106e6576040517f08c379a00000000000000000000000000000000000000000000000000000000081526004016106dd906143ee565b60405180910390fd5b600061076b83838080601f016020809104026020016040519081016040528093929190818152602001838380828437600081840152601f19601f820116905080830192505050505050506040518060400160405280600181526020017f2d000000000000000000000000000000000000000000000000000000000000008152506128d0565b905060006108326108006107ce61079c8560058151811061078f5761078e614b5a565b5b60200260200101516129b5565b6107c0866002815181106107b3576107b2614b5a565b5b60200260200101516129b5565b612ac190919063ffffffff16565b6107f2856001815181106107e5576107e4614b5a565b5b60200260200101516129b5565b612ac190919063ffffffff16565b6108248460008151811061081757610816614b5a565b5b60200260200101516129b5565b612ac190919063ffffffff16565b905060648114610877576040517f08c379a000000000000000000000000000000000000000000000000000000000815260040161086e906144ae565b60405180910390fd5b60006108d26108a08460048151811061089357610892614b5a565b5b60200260200101516129b5565b6108c4856003815181106108b7576108b6614b5a565b5b60200260200101516129b5565b612ac190919063ffffffff16565b905060648114610917576040517f08c379a000000000000000000000000000000000000000000000000000000000815260040161090e906144ce565b60405180910390fd5b85871161092357600080fd5b6000600560006004548152602001908152602001600020905060045481600001819055508b8b82600a01919061095a9291906138a0565b50898982600b01919061096e9291906138a0565b50428160010181905550600187610985919061486a565b426109909190614672565b81600301819055506001886109a5919061486a565b426109b09190614672565b8160020181905550338160080160006101000a81548173ffffffffffffffffffffffffffffffffffffffff021916908373ffffffffffffffffffffffffffffffffffffffff16021790555080600401610a2385600081518110610a1657610a15614b5a565b5b60200260200101516129b5565b908060018154018082558091505060019003906000526020600020016000909190919091505580600401610a7185600181518110610a6457610a63614b5a565b5b60200260200101516129b5565b908060018154018082558091505060019003906000526020600020016000909190919091505580600401610abf85600281518110610ab257610ab1614b5a565b5b60200260200101516129b5565b908060018154018082558091505060019003906000526020600020016000909190919091505580600401610b0d85600381518110610b0057610aff614b5a565b5b60200260200101516129b5565b908060018154018082558091505060019003906000526020600020016000909190919091505580600401610b5b85600481518110610b4e57610b4d614b5a565b5b60200260200101516129b5565b908060018154018082558091505060019003906000526020600020016000909190919091505580600401610ba985600581518110610b9c57610b9b614b5a565b5b60200260200101516129b5565b908060018154018082558091505060019003906000526020600020016000909190919091505560046000815480929190610be290614a55565b9190505550505050505050505050505050565b60011515610c066000801b33611d70565b151514610c48576040517f08c379a0000000000000000000000000000000000000000000000000000000008152600401610c3f906143ee565b60405180910390fd5b8042600560008381526020019081526020016000206002015410610c6b57600080fd5b6005600083815260200190815260200160002060080160009054906101000a900473ffffffffffffffffffffffffffffffffffffffff1673ffffffffffffffffffffffffffffffffffffffff163373ffffffffffffffffffffffffffffffffffffffff1614610cd957600080fd5b600060076000848152602001908152602001600020600081548110610d0157610d00614b5a565b5b90600052602060002001549050600080600190505b6006600086815260200190815260200160002080549050811015610d8b576000600760008781526020019081526020016000208281548110610d5b57610d5a614b5a565b5b9060005260206000200154905083811015610d77578093508192505b508080610d8390614a55565b915050610d16565b50600660008581526020019081526020016000208181548110610db157610db0614b5a565b5b9060005260206000200160009054906101000a900473ffffffffffffffffffffffffffffffffffffffff166005600086815260200190815260200160002060090160006101000a81548173ffffffffffffffffffffffffffffffffffffffff021916908373ffffffffffffffffffffffffffffffffffffffff16021790555050505050565b6000808242600560008381526020019081526020016000206002015410610e5c57600080fd5b6005600085815260200190815260200160002060090160009054906101000a900473ffffffffffffffffffffffffffffffffffffffff166005600086815260200190815260200160002060060160006005600088815260200190815260200160002060090160009054906101000a900473ffffffffffffffffffffffffffffffffffffffff1673ffffffffffffffffffffffffffffffffffffffff1673ffffffffffffffffffffffffffffffffffffffff168152602001908152602001600020549250925050915091565b60011515610f557f67bee59ee70ce8db2640fefb72d33f9b54ee798d412840c7c6d3e247987eb24833611d70565b151514610f97576040517f08c379a0000000000000000000000000000000000000000000000000000000008152600401610f8e906143ee565b60405180910390fd5b8460056000828152602001908152602001600020600301544210158015610fd35750600560008281526020019081526020016000206002015442105b611012576040517f08c379a00000000000000000000000000000000000000000000000000000000081526004016110099061448e565b60405180910390fd5b3373ffffffffffffffffffffffffffffffffffffffff166005600088815260200190815260200160002060050160003373ffffffffffffffffffffffffffffffffffffffff1673ffffffffffffffffffffffffffffffffffffffff16815260200190815260200160002060000160009054906101000a900473ffffffffffffffffffffffffffffffffffffffff1673ffffffffffffffffffffffffffffffffffffffff16146110c057600080fd5b6005600087815260200190815260200160002060050160003373ffffffffffffffffffffffffffffffffffffffff1673ffffffffffffffffffffffffffffffffffffffff16815260200190815260200160002060010154858560405160200161112a929190614262565b604051602081830303815290604052805190602001201461114a57600080fd5b600060056000888152602001908152602001600020905085858260050160003373ffffffffffffffffffffffffffffffffffffffff1673ffffffffffffffffffffffffffffffffffffffff16815260200190815260200160002060030191906111b49291906138a0565b5083838260050160003373ffffffffffffffffffffffffffffffffffffffff1673ffffffffffffffffffffffffffffffffffffffff16815260200190815260200160002060040191906112089291906138a0565b5060018160050160003373ffffffffffffffffffffffffffffffffffffffff1673ffffffffffffffffffffffffffffffffffffffff16815260200190815260200160002060020160006101000a81548160ff02191690831515021790555060066000888152602001908152602001600020339080600181540180825580915050600190039060005260206000200160009091909190916101000a81548173ffffffffffffffffffffffffffffffffffffffff021916908373ffffffffffffffffffffffffffffffffffffffff16021790555050505050505050565b600115156113117f67bee59ee70ce8db2640fefb72d33f9b54ee798d412840c7c6d3e247987eb24833611d70565b151514611353576040517f08c379a000000000000000000000000000000000000000000000000000000000815260040161134a906143ee565b60405180910390fd5b8160056000828152602001908152602001600020600101544210158015611390575060056000828152602001908152602001600020600301544211155b6113cf576040517f08c379a00000000000000000000000000000000000000000000000000000000081526004016113c69061442e565b60405180910390fd5b82600115156005600083815260200190815260200160002060070160003373ffffffffffffffffffffffffffffffffffffffff1673ffffffffffffffffffffffffffffffffffffffff16815260200190815260200160002060009054906101000a900460ff1615151415611478576040517f08c379a000000000000000000000000000000000000000000000000000000000815260040161146f9061446e565b60405180910390fd5b600060056000868152602001908152602001600020905060018160070160003373ffffffffffffffffffffffffffffffffffffffff1673ffffffffffffffffffffffffffffffffffffffff16815260200190815260200160002060006101000a81548160ff0219169083151502179055506040518060c001604052803373ffffffffffffffffffffffffffffffffffffffff168152602001858152602001600015158152602001604051806020016040528060008152508152602001604051806020016040528060008152508152602001600067ffffffffffffffff81111561156457611563614b89565b5b60405190808252806020026020018201604052801561159757816020015b60608152602001906001900390816115825790505b508152508160050160003373ffffffffffffffffffffffffffffffffffffffff1673ffffffffffffffffffffffffffffffffffffffff16815260200190815260200160002060008201518160000160006101000a81548173ffffffffffffffffffffffffffffffffffffffff021916908373ffffffffffffffffffffffffffffffffffffffff1602179055506020820151816001015560408201518160020160006101000a81548160ff0219169083151502179055506060820151816003019080519060200190611669929190613926565b506080820151816004019080519060200190611686929190613926565b5060a08201518160050190805190602001906116a39291906139ac565b509050505050505050565b600115156116bf6000801b33611d70565b151514611701576040517f08c379a00000000000000000000000000000000000000000000000000000000081526004016116f8906143ee565b60405180910390fd5b804260056000838152602001908152602001600020600201541061172457600080fd5b6005600083815260200190815260200160002060080160009054906101000a900473ffffffffffffffffffffffffffffffffffffffff1673ffffffffffffffffffffffffffffffffffffffff163373ffffffffffffffffffffffffffffffffffffffff161461179257600080fd5b600061179d83612b1f565b90506117a883612ca6565b60005b6006600085815260200190815260200160002080549050811015611d5a5760006006600086815260200190815260200160002082815481106117f0576117ef614b5a565b5b9060005260206000200160009054906101000a900473ffffffffffffffffffffffffffffffffffffffff16905060006005600087815260200190815260200160002060050160008373ffffffffffffffffffffffffffffffffffffffff1673ffffffffffffffffffffffffffffffffffffffff1681526020019081526020016000206040518060c00160405290816000820160009054906101000a900473ffffffffffffffffffffffffffffffffffffffff1673ffffffffffffffffffffffffffffffffffffffff1673ffffffffffffffffffffffffffffffffffffffff168152602001600182015481526020016002820160009054906101000a900460ff1615151515815260200160038201805461190890614a23565b80601f016020809104026020016040519081016040528092919081815260200182805461193490614a23565b80156119815780601f1061195657610100808354040283529160200191611981565b820191906000526020600020905b81548152906001019060200180831161196457829003601f168201915b5050505050815260200160048201805461199a90614a23565b80601f01602080910402602001604051908101604052809291908181526020018280546119c690614a23565b8015611a135780601f106119e857610100808354040283529160200191611a13565b820191906000526020600020905b8154815290600101906020018083116119f657829003601f168201915b5050505050815260200160058201805480602002602001604051908101604052809291908181526020016000905b82821015611aed578382906000526020600020018054611a6090614a23565b80601f0160208091040260200160405190810160405280929190818152602001828054611a8c90614a23565b8015611ad95780601f10611aae57610100808354040283529160200191611ad9565b820191906000526020600020905b815481529060010190602001808311611abc57829003601f168201915b505050505081526020019060010190611a41565b5050505081525050905060011515816040015115151415611d45576000611b328260a00151600081518110611b2557611b24614b5a565b5b60200260200101516129b5565b90506000611b6782611b628560a00151600181518110611b5557611b54614b5a565b5b60200260200101516129b5565b61307e565b90506000611bd683611bd1611b9a8760a00151600281518110611b8d57611b8c614b5a565b5b60200260200101516129b5565b611bc28860a00151600381518110611bb557611bb4614b5a565b5b60200260200101516129b5565b8b606001518c608001516130e6565b61307e565b90506000611c0b84611c068760a00151600481518110611bf957611bf8614b5a565b5b60200260200101516129b5565b61307e565b90506000611c26858a6000015161314090919063ffffffff16565b9050611c51611c42858b6020015161314090919063ffffffff16565b82612ac190919063ffffffff16565b9050611c7c611c6d848b6040015161314090919063ffffffff16565b82612ac190919063ffffffff16565b9050611ca7611c98838b60a0015161314090919063ffffffff16565b82612ac190919063ffffffff16565b9050600760008c815260200190815260200160002081908060018154018082558091505060019003906000526020600020016000909190919091505580600560008d81526020019081526020016000206006016000886000015173ffffffffffffffffffffffffffffffffffffffff1673ffffffffffffffffffffffffffffffffffffffff1681526020019081526020016000208190555050505050505b50508080611d5290614a55565b9150506117ab565b50505050565b611d6d6000801b8261260a565b50565b600080600084815260200190815260200160002060000160008373ffffffffffffffffffffffffffffffffffffffff1673ffffffffffffffffffffffffffffffffffffffff16815260200190815260200160002060009054906101000a900460ff16905092915050565b611de76000801b826105ef565b50565b60008060008442600560008381526020019081526020016000206002015410611e1257600080fd5b6000600660008881526020019081526020016000208681548110611e3957611e38614b5a565b5b9060005260206000200160009054906101000a900473ffffffffffffffffffffffffffffffffffffffff1673ffffffffffffffffffffffffffffffffffffffff166005600089815260200190815260200160002060090160009054906101000a900473ffffffffffffffffffffffffffffffffffffffff1673ffffffffffffffffffffffffffffffffffffffff161415611ed65760019050611edb565b600090505b600660008881526020019081526020016000208681548110611f0057611eff614b5a565b5b9060005260206000200160009054906101000a900473ffffffffffffffffffffffffffffffffffffffff16600760008981526020019081526020016000208781548110611f5057611f4f614b5a565b5b90600052602060002001548294509450945050509250925092565b60006060806000808642600560008381526020019081526020016000206002015410611f9657600080fd5b6000600560008a815260200190815260200160002060050160008973ffffffffffffffffffffffffffffffffffffffff1673ffffffffffffffffffffffffffffffffffffffff16815260200190815260200160002060000160009054906101000a900473ffffffffffffffffffffffffffffffffffffffff1690506000600560008b815260200190815260200160002060050160008a73ffffffffffffffffffffffffffffffffffffffff1673ffffffffffffffffffffffffffffffffffffffff168152602001908152602001600020600501805480602002602001604051908101604052809291908181526020016000905b828210156121355783829060005260206000200180546120a890614a23565b80601f01602080910402602001604051908101604052809291908181526020018280546120d490614a23565b80156121215780601f106120f657610100808354040283529160200191612121565b820191906000526020600020905b81548152906001019060200180831161210457829003601f168201915b505050505081526020019060010190612089565b5050505090506000600560008c815260200190815260200160002060050160008b73ffffffffffffffffffffffffffffffffffffffff1673ffffffffffffffffffffffffffffffffffffffff168152602001908152602001600020600401805461219e90614a23565b80601f01602080910402602001604051908101604052809291908181526020018280546121ca90614a23565b80156122175780601f106121ec57610100808354040283529160200191612217565b820191906000526020600020905b8154815290600101906020018083116121fa57829003601f168201915b5050505050905060008a73ffffffffffffffffffffffffffffffffffffffff16600560008e815260200190815260200160002060090160009054906101000a900473ffffffffffffffffffffffffffffffffffffffff1673ffffffffffffffffffffffffffffffffffffffff1614156122935760019050612298565b600090505b6000600560008e815260200190815260200160002060060160008d73ffffffffffffffffffffffffffffffffffffffff1673ffffffffffffffffffffffffffffffffffffffff16815260200190815260200160002054905084848483859a509a509a509a509a505050505050509295509295909350565b6123397f67bee59ee70ce8db2640fefb72d33f9b54ee798d412840c7c6d3e247987eb248826105ef565b50565b6000801b81565b61236d7f67bee59ee70ce8db2640fefb72d33f9b54ee798d412840c7c6d3e247987eb24882610610565b50565b6000806000426005600086815260200190815260200160002060030154111561239c57600190506123a1565b600090505b83819250925050915091565b6123d77f67bee59ee70ce8db2640fefb72d33f9b54ee798d412840c7c6d3e247987eb2488261260a565b50565b60006060806060600080600560008881526020019081526020016000206000015460056000898152602001908152602001600020600a01600560008a8152602001908152602001600020600b01600560008b8152602001908152602001600020600401600660008c815260200190815260200160002080549050600560008d815260200190815260200160002060090160009054906101000a900473ffffffffffffffffffffffffffffffffffffffff1684805461249790614a23565b80601f01602080910402602001604051908101604052809291908181526020018280546124c390614a23565b80156125105780601f106124e557610100808354040283529160200191612510565b820191906000526020600020905b8154815290600101906020018083116124f357829003601f168201915b5050505050945083805461252390614a23565b80601f016020809104026020016040519081016040528092919081815260200182805461254f90614a23565b801561259c5780601f106125715761010080835404028352916020019161259c565b820191906000526020600020905b81548152906001019060200180831161257f57829003601f168201915b50505050509350828054806020026020016040519081016040528092919081815260200182805480156125ee57602002820191906000526020600020905b8154815260200190600101908083116125da575b5050505050925095509550955095509550955091939550919395565b612613826105d0565b61261c816126f3565b61262683836127ef565b505050565b6000600454905090565b6000814260056000838152602001908152602001600020600201541061265a57600080fd5b6006600084815260200190815260200160002080549050915050919050565b6126866000801b82610610565b50565b60007f01ffc9a7000000000000000000000000000000000000000000000000000000007bffffffffffffffffffffffffffffffffffffffffffffffffffffffff1916827bffffffffffffffffffffffffffffffffffffffffffffffffffffffff1916149050919050565b612704816126ff6127e7565b6131bb565b50565b6127118282611d70565b6127e357600160008084815260200190815260200160002060000160008373ffffffffffffffffffffffffffffffffffffffff1673ffffffffffffffffffffffffffffffffffffffff16815260200190815260200160002060006101000a81548160ff0219169083151502179055506127886127e7565b73ffffffffffffffffffffffffffffffffffffffff168173ffffffffffffffffffffffffffffffffffffffff16837f2f8788117e7eff1d82e926ec794901d17c78024a50270940304540a733656f0d60405160405180910390a45b5050565b600033905090565b6127f98282611d70565b156128cc57600080600084815260200190815260200160002060000160008373ffffffffffffffffffffffffffffffffffffffff1673ffffffffffffffffffffffffffffffffffffffff16815260200190815260200160002060006101000a81548160ff0219169083151502179055506128716127e7565b73ffffffffffffffffffffffffffffffffffffffff168173ffffffffffffffffffffffffffffffffffffffff16837ff6391f5c32d9c69d2a47ea670b442974b53935d1edc7fd64eb21e047a839171b60405160405180910390a45b5050565b606060006128dd84613240565b905060006128ea84613240565b90506000612901828461326e90919063ffffffff16565b67ffffffffffffffff81111561291a57612919614b89565b5b60405190808252806020026020018201604052801561294d57816020015b60608152602001906001900390816129385790505b50905060005b81518110156129a857612977612972848661331690919063ffffffff16565b613330565b82828151811061298a57612989614b5a565b5b602002602001018190525080806129a090614a55565b915050612953565b5080935050505092915050565b6000808290506000600190506000600183516129d191906148c4565b90505b600081101580156129e55750825181105b15612ab95760308382815181106129ff576129fe614b5a565b5b602001015160f81c60f81b60f81c60ff1610158015612a4257506039838281518110612a2e57612a2d614b5a565b5b602001015160f81c60f81b60f81c60ff1611155b612a4f57612a4e614a9e565b5b816030848381518110612a6557612a64614b5a565b5b602001015160f81c60f81b60f81c612a7d91906148f8565b60ff16612a8a919061486a565b84612a959190614672565b9350600a82612aa4919061486a565b91508080612ab1906149f9565b9150506129d4565b505050919050565b6000808284612ad09190614672565b905083811015612b15576040517f08c379a0000000000000000000000000000000000000000000000000000000008152600401612b0c9061440e565b60405180910390fd5b8091505092915050565b612b27613a0c565b612b2f613a0c565b60056000848152602001908152602001600020600401600081548110612b5857612b57614b5a565b5b906000526020600020015481600001818152505060056000848152602001908152602001600020600401600181548110612b9557612b94614b5a565b5b906000526020600020015481602001818152505060056000848152602001908152602001600020600401600281548110612bd257612bd1614b5a565b5b906000526020600020015481604001818152505060056000848152602001908152602001600020600401600381548110612c0f57612c0e614b5a565b5b906000526020600020015481606001818152505060056000848152602001908152602001600020600401600481548110612c4c57612c4b614b5a565b5b906000526020600020015481608001818152505060056000848152602001908152602001600020600401600581548110612c8957612c88614b5a565b5b90600052602060002001548160a001818152505080915050919050565b60011515612cb76000801b33611d70565b151514612cf9576040517f08c379a0000000000000000000000000000000000000000000000000000000008152600401612cf0906143ee565b60405180910390fd5b8042600560008381526020019081526020016000206002015410612d1c57600080fd5b60005b6006600084815260200190815260200160002080549050811015613079576000600560008581526020019081526020016000206005016000600660008781526020019081526020016000208481548110612d7c57612d7b614b5a565b5b9060005260206000200160009054906101000a900473ffffffffffffffffffffffffffffffffffffffff1673ffffffffffffffffffffffffffffffffffffffff1673ffffffffffffffffffffffffffffffffffffffff1681526020019081526020016000206004018054612def90614a23565b80601f0160208091040260200160405190810160405280929190818152602001828054612e1b90614a23565b8015612e685780601f10612e3d57610100808354040283529160200191612e68565b820191906000526020600020905b815481529060010190602001808311612e4b57829003601f168201915b505050505090506000600560008681526020019081526020016000206005016000600660008881526020019081526020016000208581548110612eae57612ead614b5a565b5b9060005260206000200160009054906101000a900473ffffffffffffffffffffffffffffffffffffffff1673ffffffffffffffffffffffffffffffffffffffff1673ffffffffffffffffffffffffffffffffffffffff1681526020019081526020016000206003018054612f2190614a23565b80601f0160208091040260200160405190810160405280929190818152602001828054612f4d90614a23565b8015612f9a5780601f10612f6f57610100808354040283529160200191612f9a565b820191906000526020600020905b815481529060010190602001808311612f7d57829003601f168201915b50505050509050612fab81836128d0565b600560008781526020019081526020016000206005016000600660008981526020019081526020016000208681548110612fe857612fe7614b5a565b5b9060005260206000200160009054906101000a900473ffffffffffffffffffffffffffffffffffffffff1673ffffffffffffffffffffffffffffffffffffffff1673ffffffffffffffffffffffffffffffffffffffff16815260200190815260200160002060050190805190602001906130639291906139ac565b505050808061307190614a55565b915050612d1f565b505050565b60008060008490505b6000600a8261309691906146c8565b146130bd57600a816130a891906146c8565b905081806130b590614a55565b925050613087565b6130dc82600a6130cd919061474c565b8561314090919063ffffffff16565b9250505092915050565b6000806130f3858761307e565b9050600061310a828661314090919063ffffffff16565b9050613131613122878661314090919063ffffffff16565b82612ac190919063ffffffff16565b90508092505050949350505050565b60008083141561315357600090506131b5565b60008284613161919061486a565b905082848261317091906146c8565b146131b0576040517f08c379a00000000000000000000000000000000000000000000000000000000081526004016131a79061444e565b60405180910390fd5b809150505b92915050565b6131c58282611d70565b61323c576131d2816133ac565b6131e08360001c60206133d9565b6040516020016131f192919061427b565b6040516020818303038152906040526040517f08c379a000000000000000000000000000000000000000000000000000000000815260040161323391906143ac565b60405180910390fd5b5050565b613248613a42565b600060208301905060405180604001604052808451815260200182815250915050919050565b60008082600001516132928560000151866020015186600001518760200151613615565b61329c9190614672565b90505b836000015184602001516132b39190614672565b811161330f5781806132c490614a55565b92505082600001516132fe8560200151836132df91906148c4565b86600001516132ee91906148c4565b8386600001518760200151613615565b6133089190614672565b905061329f565b5092915050565b61331e613a42565b613329838383613756565b5092915050565b60606000826000015167ffffffffffffffff81111561335257613351614b89565b5b6040519080825280601f01601f1916602001820160405280156133845781602001600182028036833780820191505090505b50905060006020820190506133a28185602001518660000151613821565b8192505050919050565b60606133d28273ffffffffffffffffffffffffffffffffffffffff16601460ff166133d9565b9050919050565b6060600060028360026133ec919061486a565b6133f69190614672565b67ffffffffffffffff81111561340f5761340e614b89565b5b6040519080825280601f01601f1916602001820160405280156134415781602001600182028036833780820191505090505b5090507f30000000000000000000000000000000000000000000000000000000000000008160008151811061347957613478614b5a565b5b60200101907effffffffffffffffffffffffffffffffffffffffffffffffffffffffffffff1916908160001a9053507f7800000000000000000000000000000000000000000000000000000000000000816001815181106134dd576134dc614b5a565b5b60200101907effffffffffffffffffffffffffffffffffffffffffffffffffffffffffffff1916908160001a9053506000600184600261351d919061486a565b6135279190614672565b90505b60018111156135c7577f3031323334353637383961626364656600000000000000000000000000000000600f86166010811061356957613568614b5a565b5b1a60f81b8282815181106135805761357f614b5a565b5b60200101907effffffffffffffffffffffffffffffffffffffffffffffffffffffffffffff1916908160001a905350600485901c9450806135c0906149f9565b905061352a565b506000841461360b576040517f08c379a0000000000000000000000000000000000000000000000000000000008152600401613602906143ce565b60405180910390fd5b8091505092915050565b600080849050600086851161373d57602085116136df576000600186602061363d91906148c4565b6008613649919061486a565b6002613655919061474c565b61365f91906148c4565b1960001b905060008186511690506000878a8a61367c9190614672565b61368691906148c4565b905060008386511690505b8281146136d1578186106136b8578a8a6136ab9190614672565b965050505050505061374e565b85806136c390614a55565b965050838651169050613691565b85965050505050505061374e565b60008585209050600091505b85886136f791906148c4565b821161373b576000868420905080821415613718578394505050505061374e565b6001846137259190614672565b935050818061373390614a55565b9250506136eb565b505b86866137499190614672565b925050505b949350505050565b61375e613a42565b600061377c8560000151866020015186600001518760200151613615565b9050846020015183602001818152505084602001518161379c91906148c4565b836000018181525050846000015185602001516137b99190614672565b8114156137d0576000856000018181525050613816565b836000015183600001516137e49190614672565b856000018181516137f591906148c4565b9150818152505083600001518161380c9190614672565b8560200181815250505b829150509392505050565b5b60208110613860578151835260208361383b9190614672565b925060208261384a9190614672565b915060208161385991906148c4565b9050613822565b6000600182602061387191906148c4565b61010061387e919061474c565b61388891906148c4565b90508019835116818551168181178652505050505050565b8280546138ac90614a23565b90600052602060002090601f0160209004810192826138ce5760008555613915565b82601f106138e757803560ff1916838001178555613915565b82800160010185558215613915579182015b828111156139145782358255916020019190600101906138f9565b5b5090506139229190613a5c565b5090565b82805461393290614a23565b90600052602060002090601f016020900481019282613954576000855561399b565b82601f1061396d57805160ff191683800117855561399b565b8280016001018555821561399b579182015b8281111561399a57825182559160200191906001019061397f565b5b5090506139a89190613a5c565b5090565b8280548282559060005260206000209081019282156139fb579160200282015b828111156139fa5782518290805190602001906139ea929190613926565b50916020019190600101906139cc565b5b509050613a089190613a79565b5090565b6040518060c001604052806000815260200160008152602001600081526020016000815260200160008152602001600081525090565b604051806040016040528060008152602001600081525090565b5b80821115613a75576000816000905550600101613a5d565b5090565b5b80821115613a995760008181613a909190613a9d565b50600101613a7a565b5090565b508054613aa990614a23565b6000825580601f10613abb5750613ada565b601f016020900490600052602060002090810190613ad99190613a5c565b5b50565b600081359050613aec81614f0b565b92915050565b600081359050613b0181614f22565b92915050565b600081359050613b1681614f39565b92915050565b60008083601f840112613b3257613b31614bbd565b5b8235905067ffffffffffffffff811115613b4f57613b4e614bb8565b5b602083019150836001820283011115613b6b57613b6a614bc2565b5b9250929050565b600081359050613b8181614f50565b92915050565b600060208284031215613b9d57613b9c614bcc565b5b6000613bab84828501613add565b91505092915050565b600060208284031215613bca57613bc9614bcc565b5b6000613bd884828501613af2565b91505092915050565b60008060408385031215613bf857613bf7614bcc565b5b6000613c0685828601613af2565b9250506020613c1785828601613add565b9150509250929050565b600060208284031215613c3757613c36614bcc565b5b6000613c4584828501613b07565b91505092915050565b60008060008060008060008060a0898b031215613c6e57613c6d614bcc565b5b600089013567ffffffffffffffff811115613c8c57613c8b614bc7565b5b613c988b828c01613b1c565b9850985050602089013567ffffffffffffffff811115613cbb57613cba614bc7565b5b613cc78b828c01613b1c565b96509650506040613cda8b828c01613b72565b9450506060613ceb8b828c01613b72565b935050608089013567ffffffffffffffff811115613d0c57613d0b614bc7565b5b613d188b828c01613b1c565b92509250509295985092959890939650565b600060208284031215613d4057613d3f614bcc565b5b6000613d4e84828501613b72565b91505092915050565b60008060408385031215613d6e57613d6d614bcc565b5b6000613d7c85828601613b72565b9250506020613d8d85828601613add565b9150509250929050565b60008060408385031215613dae57613dad614bcc565b5b6000613dbc85828601613b72565b9250506020613dcd85828601613af2565b9150509250929050565b600080600080600060608688031215613df357613df2614bcc565b5b6000613e0188828901613b72565b955050602086013567ffffffffffffffff811115613e2257613e21614bc7565b5b613e2e88828901613b1c565b9450945050604086013567ffffffffffffffff811115613e5157613e50614bc7565b5b613e5d88828901613b1c565b92509250509295509295909350565b60008060408385031215613e8357613e82614bcc565b5b6000613e9185828601613b72565b9250506020613ea285828601613b72565b9150509250929050565b6000613eb88383613ffd565b905092915050565b6000613ecc8383614244565b60208301905092915050565b613ee18161492c565b82525050565b6000613ef2826145e8565b613efc8185614623565b935083602082028501613f0e856145c8565b8060005b85811015613f4a5784840389528151613f2b8582613eac565b9450613f3683614609565b925060208a01995050600181019050613f12565b50829750879550505050505092915050565b6000613f67826145f3565b613f718185614634565b9350613f7c836145d8565b8060005b83811015613fad578151613f948882613ec0565b9750613f9f83614616565b925050600181019050613f80565b5085935050505092915050565b613fc38161493e565b82525050565b613fd28161494a565b82525050565b6000613fe48385614667565b9350613ff18385846149b7565b82840190509392505050565b6000614008826145fe565b6140128185614645565b93506140228185602086016149c6565b61402b81614bd1565b840191505092915050565b6000614041826145fe565b61404b8185614656565b935061405b8185602086016149c6565b61406481614bd1565b840191505092915050565b600061407a826145fe565b6140848185614667565b93506140948185602086016149c6565b80840191505092915050565b60006140ad602083614656565b91506140b882614bef565b602082019050919050565b60006140d0601e83614656565b91506140db82614c18565b602082019050919050565b60006140f3601b83614656565b91506140fe82614c41565b602082019050919050565b6000614116604183614656565b915061412182614c6a565b606082019050919050565b6000614139602183614656565b915061414482614cdf565b604082019050919050565b600061415c602383614656565b915061416782614d2e565b604082019050919050565b600061417f604683614656565b915061418a82614d7d565b606082019050919050565b60006141a2600f83614656565b91506141ad82614df2565b602082019050919050565b60006141c5601783614667565b91506141d082614e1b565b601782019050919050565b60006141e8602d83614656565b91506141f382614e44565b604082019050919050565b600061420b601183614667565b915061421682614e93565b601182019050919050565b600061422e602f83614656565b915061423982614ebc565b604082019050919050565b61424d816149a0565b82525050565b61425c816149a0565b82525050565b600061426f828486613fd8565b91508190509392505050565b6000614286826141b8565b9150614292828561406f565b915061429d826141fe565b91506142a9828461406f565b91508190509392505050565b600060a0820190506142ca6000830188613ed8565b81810360208301526142dc8187613ee7565b905081810360408301526142f08186614036565b90506142ff6060830185614253565b61430c6080830184613fba565b9695505050505050565b600060408201905061432b6000830185613ed8565b6143386020830184614253565b9392505050565b60006060820190506143546000830186613ed8565b6143616020830185614253565b61436e6040830184613fba565b949350505050565b600060208201905061438b6000830184613fba565b92915050565b60006020820190506143a66000830184613fc9565b92915050565b600060208201905081810360008301526143c68184614036565b905092915050565b600060208201905081810360008301526143e7816140a0565b9050919050565b60006020820190508181036000830152614407816140c3565b9050919050565b60006020820190508181036000830152614427816140e6565b9050919050565b6000602082019050818103600083015261444781614109565b9050919050565b600060208201905081810360008301526144678161412c565b9050919050565b600060208201905081810360008301526144878161414f565b9050919050565b600060208201905081810360008301526144a781614172565b9050919050565b600060208201905081810360008301526144c781614195565b9050919050565b600060208201905081810360008301526144e7816141db565b9050919050565b6000602082019050818103600083015261450781614221565b9050919050565b60006020820190506145236000830184614253565b92915050565b600060408201905061453e6000830185614253565b61454b6020830184613fba565b9392505050565b600060c0820190506145676000830189614253565b81810360208301526145798188614036565b9050818103604083015261458d8187614036565b905081810360608301526145a18186613f5c565b90506145b06080830185614253565b6145bd60a0830184613ed8565b979650505050505050565b6000819050602082019050919050565b6000819050602082019050919050565b600081519050919050565b600081519050919050565b600081519050919050565b6000602082019050919050565b6000602082019050919050565b600082825260208201905092915050565b600082825260208201905092915050565b600082825260208201905092915050565b600082825260208201905092915050565b600081905092915050565b600061467d826149a0565b9150614688836149a0565b9250827fffffffffffffffffffffffffffffffffffffffffffffffffffffffffffffffff038211156146bd576146bc614acd565b5b828201905092915050565b60006146d3826149a0565b91506146de836149a0565b9250826146ee576146ed614afc565b5b828204905092915050565b6000808291508390505b60018511156147435780860481111561471f5761471e614acd565b5b600185161561472e5780820291505b808102905061473c85614be2565b9450614703565b94509492505050565b6000614757826149a0565b9150614762836149a0565b925061478f7fffffffffffffffffffffffffffffffffffffffffffffffffffffffffffffffff8484614797565b905092915050565b6000826147a75760019050614863565b816147b55760009050614863565b81600181146147cb57600281146147d557614804565b6001915050614863565b60ff8411156147e7576147e6614acd565b5b8360020a9150848211156147fe576147fd614acd565b5b50614863565b5060208310610133831016604e8410600b84101617156148395782820a90508381111561483457614833614acd565b5b614863565b61484684848460016146f9565b9250905081840481111561485d5761485c614acd565b5b81810290505b9392505050565b6000614875826149a0565b9150614880836149a0565b9250817fffffffffffffffffffffffffffffffffffffffffffffffffffffffffffffffff04831182151516156148b9576148b8614acd565b5b828202905092915050565b60006148cf826149a0565b91506148da836149a0565b9250828210156148ed576148ec614acd565b5b828203905092915050565b6000614903826149aa565b915061490e836149aa565b92508282101561492157614920614acd565b5b828203905092915050565b600061493782614980565b9050919050565b60008115159050919050565b6000819050919050565b60007fffffffff0000000000000000000000000000000000000000000000000000000082169050919050565b600073ffffffffffffffffffffffffffffffffffffffff82169050919050565b6000819050919050565b600060ff82169050919050565b82818337600083830152505050565b60005b838110156149e45780820151818401526020810190506149c9565b838111156149f3576000848401525b50505050565b6000614a04826149a0565b91506000821415614a1857614a17614acd565b5b600182039050919050565b60006002820490506001821680614a3b57607f821691505b60208210811415614a4f57614a4e614b2b565b5b50919050565b6000614a60826149a0565b91507fffffffffffffffffffffffffffffffffffffffffffffffffffffffffffffffff821415614a9357614a92614acd565b5b600182019050919050565b7f4e487b7100000000000000000000000000000000000000000000000000000000600052600160045260246000fd5b7f4e487b7100000000000000000000000000000000000000000000000000000000600052601160045260246000fd5b7f4e487b7100000000000000000000000000000000000000000000000000000000600052601260045260246000fd5b7f4e487b7100000000000000000000000000000000000000000000000000000000600052602260045260246000fd5b7f4e487b7100000000000000000000000000000000000000000000000000000000600052603260045260246000fd5b7f4e487b7100000000000000000000000000000000000000000000000000000000600052604160045260246000fd5b600080fd5b600080fd5b600080fd5b600080fd5b600080fd5b6000601f19601f8301169050919050565b60008160011c9050919050565b7f537472696e67733a20686578206c656e67746820696e73756666696369656e74600082015250565b7f546865206164647265737320686173206e6f74207065726d697373696f6e0000600082015250565b7f536166654d6174683a206164646974696f6e206f766572666c6f770000000000600082015250565b7f686173682073656e74206265666f726520746865206f70656e696e672064617460008201527f65206f7220616674657220746865206861736820636c6f73696e67206461746560208201527f2100000000000000000000000000000000000000000000000000000000000000604082015250565b7f536166654d6174683a206d756c7469706c69636174696f6e206f766572666c6f60008201527f7700000000000000000000000000000000000000000000000000000000000000602082015250565b7f42696420616c726561647920706c6163656420666f7220746869732074656e6460008201527f6572210000000000000000000000000000000000000000000000000000000000602082015250565b7f646174612073656e74206265666f726520746865206861736820636c6f73696e60008201527f672064617465206f7220616674657220746865206461746120636c6f73696e6760208201527f20646174652e0000000000000000000000000000000000000000000000000000604082015250565b7f73756d206d757374206265203130300000000000000000000000000000000000600082015250565b7f416363657373436f6e74726f6c3a206163636f756e7420000000000000000000600082015250565b7f53756d206f662074776f20656e7669726f6e6d656e7420706172616d6574657260008201527f73206d7573742062652031303000000000000000000000000000000000000000602082015250565b7f206973206d697373696e6720726f6c6520000000000000000000000000000000600082015250565b7f416363657373436f6e74726f6c3a2063616e206f6e6c792072656e6f756e636560008201527f20726f6c657320666f722073656c660000000000000000000000000000000000602082015250565b614f148161492c565b8114614f1f57600080fd5b50565b614f2b8161494a565b8114614f3657600080fd5b50565b614f4281614954565b8114614f4d57600080fd5b50565b614f59816149a0565b8114614f6457600080fd5b5056fea2646970667358221220d60ddb402caf6638be2972fe9439541582db45d0f8c687cd70c78dc7e6ab2e9c64736f6c63430008060033",
			"opcodes": "PUSH1 0x80 PUSH1 0x40 MSTORE CALLVALUE DUP1 ISZERO PUSH3 0x11 JUMPI PUSH1 0x0 DUP1 REVERT JUMPDEST POP PUSH3 0x27 PUSH1 0x0 DUP1 SHL CALLER PUSH3 0x62 PUSH1 0x20 SHL PUSH1 0x20 SHR JUMP JUMPDEST PUSH3 0x5C PUSH32 0x67BEE59EE70CE8DB2640FEFB72D33F9B54EE798D412840C7C6D3E247987EB248 PUSH1 0x0 DUP1 SHL PUSH3 0x78 PUSH1 0x20 SHL PUSH1 0x20 SHR JUMP JUMPDEST PUSH3 0x25D JUMP JUMPDEST PUSH3 0x74 DUP3 DUP3 PUSH3 0xDB PUSH1 0x20 SHL PUSH1 0x20 SHR JUMP JUMPDEST POP POP JUMP JUMPDEST PUSH1 0x0 PUSH3 0x8B DUP4 PUSH3 0x1CC PUSH1 0x20 SHL PUSH1 0x20 SHR JUMP JUMPDEST SWAP1 POP DUP2 PUSH1 0x0 DUP1 DUP6 DUP2 MSTORE PUSH1 0x20 ADD SWAP1 DUP2 MSTORE PUSH1 0x20 ADD PUSH1 0x0 KECCAK256 PUSH1 0x1 ADD DUP2 SWAP1 SSTORE POP DUP2 DUP2 DUP5 PUSH32 0xBD79B86FFE0AB8E8776151514217CD7CACD52C909F66475C3AF44E129F0B00FF PUSH1 0x40 MLOAD PUSH1 0x40 MLOAD DUP1 SWAP2 SUB SWAP1 LOG4 POP POP POP JUMP JUMPDEST PUSH3 0xED DUP3 DUP3 PUSH3 0x1EB PUSH1 0x20 SHL PUSH1 0x20 SHR JUMP JUMPDEST PUSH3 0x1C8 JUMPI PUSH1 0x1 PUSH1 0x0 DUP1 DUP5 DUP2 MSTORE PUSH1 0x20 ADD SWAP1 DUP2 MSTORE PUSH1 0x20 ADD PUSH1 0x0 KECCAK256 PUSH1 0x0 ADD PUSH1 0x0 DUP4 PUSH20 0xFFFFFFFFFFFFFFFFFFFFFFFFFFFFFFFFFFFFFFFF AND PUSH20 0xFFFFFFFFFFFFFFFFFFFFFFFFFFFFFFFFFFFFFFFF AND DUP2 MSTORE PUSH1 0x20 ADD SWAP1 DUP2 MSTORE PUSH1 0x20 ADD PUSH1 0x0 KECCAK256 PUSH1 0x0 PUSH2 0x100 EXP DUP2 SLOAD DUP2 PUSH1 0xFF MUL NOT AND SWAP1 DUP4 ISZERO ISZERO MUL OR SWAP1 SSTORE POP PUSH3 0x16D PUSH3 0x255 PUSH1 0x20 SHL PUSH1 0x20 SHR JUMP JUMPDEST PUSH20 0xFFFFFFFFFFFFFFFFFFFFFFFFFFFFFFFFFFFFFFFF AND DUP2 PUSH20 0xFFFFFFFFFFFFFFFFFFFFFFFFFFFFFFFFFFFFFFFF AND DUP4 PUSH32 0x2F8788117E7EFF1D82E926EC794901D17C78024A50270940304540A733656F0D PUSH1 0x40 MLOAD PUSH1 0x40 MLOAD DUP1 SWAP2 SUB SWAP1 LOG4 JUMPDEST POP POP JUMP JUMPDEST PUSH1 0x0 DUP1 PUSH1 0x0 DUP4 DUP2 MSTORE PUSH1 0x20 ADD SWAP1 DUP2 MSTORE PUSH1 0x20 ADD PUSH1 0x0 KECCAK256 PUSH1 0x1 ADD SLOAD SWAP1 POP SWAP2 SWAP1 POP JUMP JUMPDEST PUSH1 0x0 DUP1 PUSH1 0x0 DUP5 DUP2 MSTORE PUSH1 0x20 ADD SWAP1 DUP2 MSTORE PUSH1 0x20 ADD PUSH1 0x0 KECCAK256 PUSH1 0x0 ADD PUSH1 0x0 DUP4 PUSH20 0xFFFFFFFFFFFFFFFFFFFFFFFFFFFFFFFFFFFFFFFF AND PUSH20 0xFFFFFFFFFFFFFFFFFFFFFFFFFFFFFFFFFFFFFFFF AND DUP2 MSTORE PUSH1 0x20 ADD SWAP1 DUP2 MSTORE PUSH1 0x20 ADD PUSH1 0x0 KECCAK256 PUSH1 0x0 SWAP1 SLOAD SWAP1 PUSH2 0x100 EXP SWAP1 DIV PUSH1 0xFF AND SWAP1 POP SWAP3 SWAP2 POP POP JUMP JUMPDEST PUSH1 0x0 CALLER SWAP1 POP SWAP1 JUMP JUMPDEST PUSH2 0x4F9D DUP1 PUSH3 0x26D PUSH1 0x0 CODECOPY PUSH1 0x0 RETURN INVALID PUSH1 0x80 PUSH1 0x40 MSTORE CALLVALUE DUP1 ISZERO PUSH2 0x10 JUMPI PUSH1 0x0 DUP1 REVERT JUMPDEST POP PUSH1 0x4 CALLDATASIZE LT PUSH2 0x18E JUMPI PUSH1 0x0 CALLDATALOAD PUSH1 0xE0 SHR DUP1 PUSH4 0x9CF0F0B7 GT PUSH2 0xDE JUMPI DUP1 PUSH4 0xCA8836D2 GT PUSH2 0x97 JUMPI DUP1 PUSH4 0xD547741F GT PUSH2 0x71 JUMPI DUP1 PUSH4 0xD547741F EQ PUSH2 0x4AC JUMPI DUP1 PUSH4 0xEC39B826 EQ PUSH2 0x4C8 JUMPI DUP1 PUSH4 0xF3FA1482 EQ PUSH2 0x4E6 JUMPI DUP1 PUSH4 0xFC3F90E8 EQ PUSH2 0x516 JUMPI PUSH2 0x18E JUMP JUMPDEST DUP1 PUSH4 0xCA8836D2 EQ PUSH2 0x42A JUMPI DUP1 PUSH4 0xCE630FD6 EQ PUSH2 0x45B JUMPI DUP1 PUSH4 0xCF6F4007 EQ PUSH2 0x477 JUMPI PUSH2 0x18E JUMP JUMPDEST DUP1 PUSH4 0x9CF0F0B7 EQ PUSH2 0x352 JUMPI DUP1 PUSH4 0x9FB63F0F EQ PUSH2 0x36E JUMPI DUP1 PUSH4 0x9FC89AED EQ PUSH2 0x3A0 JUMPI DUP1 PUSH4 0xA1C6A78E EQ PUSH2 0x3D4 JUMPI DUP1 PUSH4 0xA217FDDF EQ PUSH2 0x3F0 JUMPI DUP1 PUSH4 0xB5E967FB EQ PUSH2 0x40E JUMPI PUSH2 0x18E JUMP JUMPDEST DUP1 PUSH4 0x43A96B73 GT PUSH2 0x14B JUMPI DUP1 PUSH4 0x66AB1D52 GT PUSH2 0x125 JUMPI DUP1 PUSH4 0x66AB1D52 EQ PUSH2 0x2CE JUMPI DUP1 PUSH4 0x6C7B8380 EQ PUSH2 0x2EA JUMPI DUP1 PUSH4 0x8F902FAB EQ PUSH2 0x306 JUMPI DUP1 PUSH4 0x91D14854 EQ PUSH2 0x322 JUMPI PUSH2 0x18E JUMP JUMPDEST DUP1 PUSH4 0x43A96B73 EQ PUSH2 0x265 JUMPI DUP1 PUSH4 0x5AAC39E7 EQ PUSH2 0x281 JUMPI DUP1 PUSH4 0x66288CE8 EQ PUSH2 0x2B2 JUMPI PUSH2 0x18E JUMP JUMPDEST DUP1 PUSH4 0x1FFC9A7 EQ PUSH2 0x193 JUMPI DUP1 PUSH4 0x18FD3E10 EQ PUSH2 0x1C3 JUMPI DUP1 PUSH4 0x248A9CA3 EQ PUSH2 0x1E1 JUMPI DUP1 PUSH4 0x2F2FF15D EQ PUSH2 0x211 JUMPI DUP1 PUSH4 0x36568ABE EQ PUSH2 0x22D JUMPI DUP1 PUSH4 0x3FF3A80C EQ PUSH2 0x249 JUMPI JUMPDEST PUSH1 0x0 DUP1 REVERT JUMPDEST PUSH2 0x1AD PUSH1 0x4 DUP1 CALLDATASIZE SUB DUP2 ADD SWAP1 PUSH2 0x1A8 SWAP2 SWAP1 PUSH2 0x3C21 JUMP JUMPDEST PUSH2 0x532 JUMP JUMPDEST PUSH1 0x40 MLOAD PUSH2 0x1BA SWAP2 SWAP1 PUSH2 0x4376 JUMP JUMPDEST PUSH1 0x40 MLOAD DUP1 SWAP2 SUB SWAP1 RETURN JUMPDEST PUSH2 0x1CB PUSH2 0x5AC JUMP JUMPDEST PUSH1 0x40 MLOAD PUSH2 0x1D8 SWAP2 SWAP1 PUSH2 0x4391 JUMP JUMPDEST PUSH1 0x40 MLOAD DUP1 SWAP2 SUB SWAP1 RETURN JUMPDEST PUSH2 0x1FB PUSH1 0x4 DUP1 CALLDATASIZE SUB DUP2 ADD SWAP1 PUSH2 0x1F6 SWAP2 SWAP1 PUSH2 0x3BB4 JUMP JUMPDEST PUSH2 0x5D0 JUMP JUMPDEST PUSH1 0x40 MLOAD PUSH2 0x208 SWAP2 SWAP1 PUSH2 0x4391 JUMP JUMPDEST PUSH1 0x40 MLOAD DUP1 SWAP2 SUB SWAP1 RETURN JUMPDEST PUSH2 0x22B PUSH1 0x4 DUP1 CALLDATASIZE SUB DUP2 ADD SWAP1 PUSH2 0x226 SWAP2 SWAP1 PUSH2 0x3BE1 JUMP JUMPDEST PUSH2 0x5EF JUMP JUMPDEST STOP JUMPDEST PUSH2 0x247 PUSH1 0x4 DUP1 CALLDATASIZE SUB DUP2 ADD SWAP1 PUSH2 0x242 SWAP2 SWAP1 PUSH2 0x3BE1 JUMP JUMPDEST PUSH2 0x610 JUMP JUMPDEST STOP JUMPDEST PUSH2 0x263 PUSH1 0x4 DUP1 CALLDATASIZE SUB DUP2 ADD SWAP1 PUSH2 0x25E SWAP2 SWAP1 PUSH2 0x3C4E JUMP JUMPDEST PUSH2 0x693 JUMP JUMPDEST STOP JUMPDEST PUSH2 0x27F PUSH1 0x4 DUP1 CALLDATASIZE SUB DUP2 ADD SWAP1 PUSH2 0x27A SWAP2 SWAP1 PUSH2 0x3D2A JUMP JUMPDEST PUSH2 0xBF5 JUMP JUMPDEST STOP JUMPDEST PUSH2 0x29B PUSH1 0x4 DUP1 CALLDATASIZE SUB DUP2 ADD SWAP1 PUSH2 0x296 SWAP2 SWAP1 PUSH2 0x3D2A JUMP JUMPDEST PUSH2 0xE36 JUMP JUMPDEST PUSH1 0x40 MLOAD PUSH2 0x2A9 SWAP3 SWAP2 SWAP1 PUSH2 0x4316 JUMP JUMPDEST PUSH1 0x40 MLOAD DUP1 SWAP2 SUB SWAP1 RETURN JUMPDEST PUSH2 0x2CC PUSH1 0x4 DUP1 CALLDATASIZE SUB DUP2 ADD SWAP1 PUSH2 0x2C7 SWAP2 SWAP1 PUSH2 0x3DD7 JUMP JUMPDEST PUSH2 0xF27 JUMP JUMPDEST STOP JUMPDEST PUSH2 0x2E8 PUSH1 0x4 DUP1 CALLDATASIZE SUB DUP2 ADD SWAP1 PUSH2 0x2E3 SWAP2 SWAP1 PUSH2 0x3D97 JUMP JUMPDEST PUSH2 0x12E3 JUMP JUMPDEST STOP JUMPDEST PUSH2 0x304 PUSH1 0x4 DUP1 CALLDATASIZE SUB DUP2 ADD SWAP1 PUSH2 0x2FF SWAP2 SWAP1 PUSH2 0x3D2A JUMP JUMPDEST PUSH2 0x16AE JUMP JUMPDEST STOP JUMPDEST PUSH2 0x320 PUSH1 0x4 DUP1 CALLDATASIZE SUB DUP2 ADD SWAP1 PUSH2 0x31B SWAP2 SWAP1 PUSH2 0x3B87 JUMP JUMPDEST PUSH2 0x1D60 JUMP JUMPDEST STOP JUMPDEST PUSH2 0x33C PUSH1 0x4 DUP1 CALLDATASIZE SUB DUP2 ADD SWAP1 PUSH2 0x337 SWAP2 SWAP1 PUSH2 0x3BE1 JUMP JUMPDEST PUSH2 0x1D70 JUMP JUMPDEST PUSH1 0x40 MLOAD PUSH2 0x349 SWAP2 SWAP1 PUSH2 0x4376 JUMP JUMPDEST PUSH1 0x40 MLOAD DUP1 SWAP2 SUB SWAP1 RETURN JUMPDEST PUSH2 0x36C PUSH1 0x4 DUP1 CALLDATASIZE SUB DUP2 ADD SWAP1 PUSH2 0x367 SWAP2 SWAP1 PUSH2 0x3B87 JUMP JUMPDEST PUSH2 0x1DDA JUMP JUMPDEST STOP JUMPDEST PUSH2 0x388 PUSH1 0x4 DUP1 CALLDATASIZE SUB DUP2 ADD SWAP1 PUSH2 0x383 SWAP2 SWAP1 PUSH2 0x3E6C JUMP JUMPDEST PUSH2 0x1DEA JUMP JUMPDEST PUSH1 0x40 MLOAD PUSH2 0x397 SWAP4 SWAP3 SWAP2 SWAP1 PUSH2 0x433F JUMP JUMPDEST PUSH1 0x40 MLOAD DUP1 SWAP2 SUB SWAP1 RETURN JUMPDEST PUSH2 0x3BA PUSH1 0x4 DUP1 CALLDATASIZE SUB DUP2 ADD SWAP1 PUSH2 0x3B5 SWAP2 SWAP1 PUSH2 0x3D57 JUMP JUMPDEST PUSH2 0x1F6B JUMP JUMPDEST PUSH1 0x40 MLOAD PUSH2 0x3CB SWAP6 SWAP5 SWAP4 SWAP3 SWAP2 SWAP1 PUSH2 0x42B5 JUMP JUMPDEST PUSH1 0x40 MLOAD DUP1 SWAP2 SUB SWAP1 RETURN JUMPDEST PUSH2 0x3EE PUSH1 0x4 DUP1 CALLDATASIZE SUB DUP2 ADD SWAP1 PUSH2 0x3E9 SWAP2 SWAP1 PUSH2 0x3B87 JUMP JUMPDEST PUSH2 0x230F JUMP JUMPDEST STOP JUMPDEST PUSH2 0x3F8 PUSH2 0x233C JUMP JUMPDEST PUSH1 0x40 MLOAD PUSH2 0x405 SWAP2 SWAP1 PUSH2 0x4391 JUMP JUMPDEST PUSH1 0x40 MLOAD DUP1 SWAP2 SUB SWAP1 RETURN JUMPDEST PUSH2 0x428 PUSH1 0x4 DUP1 CALLDATASIZE SUB DUP2 ADD SWAP1 PUSH2 0x423 SWAP2 SWAP1 PUSH2 0x3B87 JUMP JUMPDEST PUSH2 0x2343 JUMP JUMPDEST STOP JUMPDEST PUSH2 0x444 PUSH1 0x4 DUP1 CALLDATASIZE SUB DUP2 ADD SWAP1 PUSH2 0x43F SWAP2 SWAP1 PUSH2 0x3D2A JUMP JUMPDEST PUSH2 0x2370 JUMP JUMPDEST PUSH1 0x40 MLOAD PUSH2 0x452 SWAP3 SWAP2 SWAP1 PUSH2 0x4529 JUMP JUMPDEST PUSH1 0x40 MLOAD DUP1 SWAP2 SUB SWAP1 RETURN JUMPDEST PUSH2 0x475 PUSH1 0x4 DUP1 CALLDATASIZE SUB DUP2 ADD SWAP1 PUSH2 0x470 SWAP2 SWAP1 PUSH2 0x3B87 JUMP JUMPDEST PUSH2 0x23AD JUMP JUMPDEST STOP JUMPDEST PUSH2 0x491 PUSH1 0x4 DUP1 CALLDATASIZE SUB DUP2 ADD SWAP1 PUSH2 0x48C SWAP2 SWAP1 PUSH2 0x3D2A JUMP JUMPDEST PUSH2 0x23DA JUMP JUMPDEST PUSH1 0x40 MLOAD PUSH2 0x4A3 SWAP7 SWAP6 SWAP5 SWAP4 SWAP3 SWAP2 SWAP1 PUSH2 0x4552 JUMP JUMPDEST PUSH1 0x40 MLOAD DUP1 SWAP2 SUB SWAP1 RETURN JUMPDEST PUSH2 0x4C6 PUSH1 0x4 DUP1 CALLDATASIZE SUB DUP2 ADD SWAP1 PUSH2 0x4C1 SWAP2 SWAP1 PUSH2 0x3BE1 JUMP JUMPDEST PUSH2 0x260A JUMP JUMPDEST STOP JUMPDEST PUSH2 0x4D0 PUSH2 0x262B JUMP JUMPDEST PUSH1 0x40 MLOAD PUSH2 0x4DD SWAP2 SWAP1 PUSH2 0x450E JUMP JUMPDEST PUSH1 0x40 MLOAD DUP1 SWAP2 SUB SWAP1 RETURN JUMPDEST PUSH2 0x500 PUSH1 0x4 DUP1 CALLDATASIZE SUB DUP2 ADD SWAP1 PUSH2 0x4FB SWAP2 SWAP1 PUSH2 0x3D2A JUMP JUMPDEST PUSH2 0x2635 JUMP JUMPDEST PUSH1 0x40 MLOAD PUSH2 0x50D SWAP2 SWAP1 PUSH2 0x450E JUMP JUMPDEST PUSH1 0x40 MLOAD DUP1 SWAP2 SUB SWAP1 RETURN JUMPDEST PUSH2 0x530 PUSH1 0x4 DUP1 CALLDATASIZE SUB DUP2 ADD SWAP1 PUSH2 0x52B SWAP2 SWAP1 PUSH2 0x3B87 JUMP JUMPDEST PUSH2 0x2679 JUMP JUMPDEST STOP JUMPDEST PUSH1 0x0 PUSH32 0x7965DB0B00000000000000000000000000000000000000000000000000000000 PUSH28 0xFFFFFFFFFFFFFFFFFFFFFFFFFFFFFFFFFFFFFFFFFFFFFFFFFFFFFFFF NOT AND DUP3 PUSH28 0xFFFFFFFFFFFFFFFFFFFFFFFFFFFFFFFFFFFFFFFFFFFFFFFFFFFFFFFF NOT AND EQ DUP1 PUSH2 0x5A5 JUMPI POP PUSH2 0x5A4 DUP3 PUSH2 0x2689 JUMP JUMPDEST JUMPDEST SWAP1 POP SWAP2 SWAP1 POP JUMP JUMPDEST PUSH32 0x67BEE59EE70CE8DB2640FEFB72D33F9B54EE798D412840C7C6D3E247987EB248 DUP2 JUMP JUMPDEST PUSH1 0x0 DUP1 PUSH1 0x0 DUP4 DUP2 MSTORE PUSH1 0x20 ADD SWAP1 DUP2 MSTORE PUSH1 0x20 ADD PUSH1 0x0 KECCAK256 PUSH1 0x1 ADD SLOAD SWAP1 POP SWAP2 SWAP1 POP JUMP JUMPDEST PUSH2 0x5F8 DUP3 PUSH2 0x5D0 JUMP JUMPDEST PUSH2 0x601 DUP2 PUSH2 0x26F3 JUMP JUMPDEST PUSH2 0x60B DUP4 DUP4 PUSH2 0x2707 JUMP JUMPDEST POP POP POP JUMP JUMPDEST PUSH2 0x618 PUSH2 0x27E7 JUMP JUMPDEST PUSH20 0xFFFFFFFFFFFFFFFFFFFFFFFFFFFFFFFFFFFFFFFF AND DUP2 PUSH20 0xFFFFFFFFFFFFFFFFFFFFFFFFFFFFFFFFFFFFFFFF AND EQ PUSH2 0x685 JUMPI PUSH1 0x40 MLOAD PUSH32 0x8C379A000000000000000000000000000000000000000000000000000000000 DUP2 MSTORE PUSH1 0x4 ADD PUSH2 0x67C SWAP1 PUSH2 0x44EE JUMP JUMPDEST PUSH1 0x40 MLOAD DUP1 SWAP2 SUB SWAP1 REVERT JUMPDEST PUSH2 0x68F DUP3 DUP3 PUSH2 0x27EF JUMP JUMPDEST POP POP JUMP JUMPDEST PUSH1 0x1 ISZERO ISZERO PUSH2 0x6A4 PUSH1 0x0 DUP1 SHL CALLER PUSH2 0x1D70 JUMP JUMPDEST ISZERO ISZERO EQ PUSH2 0x6E6 JUMPI PUSH1 0x40 MLOAD PUSH32 0x8C379A000000000000000000000000000000000000000000000000000000000 DUP2 MSTORE PUSH1 0x4 ADD PUSH2 0x6DD SWAP1 PUSH2 0x43EE JUMP JUMPDEST PUSH1 0x40 MLOAD DUP1 SWAP2 SUB SWAP1 REVERT JUMPDEST PUSH1 0x0 PUSH2 0x76B DUP4 DUP4 DUP1 DUP1 PUSH1 0x1F ADD PUSH1 0x20 DUP1 SWAP2 DIV MUL PUSH1 0x20 ADD PUSH1 0x40 MLOAD SWAP1 DUP2 ADD PUSH1 0x40 MSTORE DUP1 SWAP4 SWAP3 SWAP2 SWAP1 DUP2 DUP2 MSTORE PUSH1 0x20 ADD DUP4 DUP4 DUP1 DUP3 DUP5 CALLDATACOPY PUSH1 0x0 DUP2 DUP5 ADD MSTORE PUSH1 0x1F NOT PUSH1 0x1F DUP3 ADD AND SWAP1 POP DUP1 DUP4 ADD SWAP3 POP POP POP POP POP POP POP PUSH1 0x40 MLOAD DUP1 PUSH1 0x40 ADD PUSH1 0x40 MSTORE DUP1 PUSH1 0x1 DUP2 MSTORE PUSH1 0x20 ADD PUSH32 0x2D00000000000000000000000000000000000000000000000000000000000000 DUP2 MSTORE POP PUSH2 0x28D0 JUMP JUMPDEST SWAP1 POP PUSH1 0x0 PUSH2 0x832 PUSH2 0x800 PUSH2 0x7CE PUSH2 0x79C DUP6 PUSH1 0x5 DUP2 MLOAD DUP2 LT PUSH2 0x78F JUMPI PUSH2 0x78E PUSH2 0x4B5A JUMP JUMPDEST JUMPDEST PUSH1 0x20 MUL PUSH1 0x20 ADD ADD MLOAD PUSH2 0x29B5 JUMP JUMPDEST PUSH2 0x7C0 DUP7 PUSH1 0x2 DUP2 MLOAD DUP2 LT PUSH2 0x7B3 JUMPI PUSH2 0x7B2 PUSH2 0x4B5A JUMP JUMPDEST JUMPDEST PUSH1 0x20 MUL PUSH1 0x20 ADD ADD MLOAD PUSH2 0x29B5 JUMP JUMPDEST PUSH2 0x2AC1 SWAP1 SWAP2 SWAP1 PUSH4 0xFFFFFFFF AND JUMP JUMPDEST PUSH2 0x7F2 DUP6 PUSH1 0x1 DUP2 MLOAD DUP2 LT PUSH2 0x7E5 JUMPI PUSH2 0x7E4 PUSH2 0x4B5A JUMP JUMPDEST JUMPDEST PUSH1 0x20 MUL PUSH1 0x20 ADD ADD MLOAD PUSH2 0x29B5 JUMP JUMPDEST PUSH2 0x2AC1 SWAP1 SWAP2 SWAP1 PUSH4 0xFFFFFFFF AND JUMP JUMPDEST PUSH2 0x824 DUP5 PUSH1 0x0 DUP2 MLOAD DUP2 LT PUSH2 0x817 JUMPI PUSH2 0x816 PUSH2 0x4B5A JUMP JUMPDEST JUMPDEST PUSH1 0x20 MUL PUSH1 0x20 ADD ADD MLOAD PUSH2 0x29B5 JUMP JUMPDEST PUSH2 0x2AC1 SWAP1 SWAP2 SWAP1 PUSH4 0xFFFFFFFF AND JUMP JUMPDEST SWAP1 POP PUSH1 0x64 DUP2 EQ PUSH2 0x877 JUMPI PUSH1 0x40 MLOAD PUSH32 0x8C379A000000000000000000000000000000000000000000000000000000000 DUP2 MSTORE PUSH1 0x4 ADD PUSH2 0x86E SWAP1 PUSH2 0x44AE JUMP JUMPDEST PUSH1 0x40 MLOAD DUP1 SWAP2 SUB SWAP1 REVERT JUMPDEST PUSH1 0x0 PUSH2 0x8D2 PUSH2 0x8A0 DUP5 PUSH1 0x4 DUP2 MLOAD DUP2 LT PUSH2 0x893 JUMPI PUSH2 0x892 PUSH2 0x4B5A JUMP JUMPDEST JUMPDEST PUSH1 0x20 MUL PUSH1 0x20 ADD ADD MLOAD PUSH2 0x29B5 JUMP JUMPDEST PUSH2 0x8C4 DUP6 PUSH1 0x3 DUP2 MLOAD DUP2 LT PUSH2 0x8B7 JUMPI PUSH2 0x8B6 PUSH2 0x4B5A JUMP JUMPDEST JUMPDEST PUSH1 0x20 MUL PUSH1 0x20 ADD ADD MLOAD PUSH2 0x29B5 JUMP JUMPDEST PUSH2 0x2AC1 SWAP1 SWAP2 SWAP1 PUSH4 0xFFFFFFFF AND JUMP JUMPDEST SWAP1 POP PUSH1 0x64 DUP2 EQ PUSH2 0x917 JUMPI PUSH1 0x40 MLOAD PUSH32 0x8C379A000000000000000000000000000000000000000000000000000000000 DUP2 MSTORE PUSH1 0x4 ADD PUSH2 0x90E SWAP1 PUSH2 0x44CE JUMP JUMPDEST PUSH1 0x40 MLOAD DUP1 SWAP2 SUB SWAP1 REVERT JUMPDEST DUP6 DUP8 GT PUSH2 0x923 JUMPI PUSH1 0x0 DUP1 REVERT JUMPDEST PUSH1 0x0 PUSH1 0x5 PUSH1 0x0 PUSH1 0x4 SLOAD DUP2 MSTORE PUSH1 0x20 ADD SWAP1 DUP2 MSTORE PUSH1 0x20 ADD PUSH1 0x0 KECCAK256 SWAP1 POP PUSH1 0x4 SLOAD DUP2 PUSH1 0x0 ADD DUP2 SWAP1 SSTORE POP DUP12 DUP12 DUP3 PUSH1 0xA ADD SWAP2 SWAP1 PUSH2 0x95A SWAP3 SWAP2 SWAP1 PUSH2 0x38A0 JUMP JUMPDEST POP DUP10 DUP10 DUP3 PUSH1 0xB ADD SWAP2 SWAP1 PUSH2 0x96E SWAP3 SWAP2 SWAP1 PUSH2 0x38A0 JUMP JUMPDEST POP TIMESTAMP DUP2 PUSH1 0x1 ADD DUP2 SWAP1 SSTORE POP PUSH1 0x1 DUP8 PUSH2 0x985 SWAP2 SWAP1 PUSH2 0x486A JUMP JUMPDEST TIMESTAMP PUSH2 0x990 SWAP2 SWAP1 PUSH2 0x4672 JUMP JUMPDEST DUP2 PUSH1 0x3 ADD DUP2 SWAP1 SSTORE POP PUSH1 0x1 DUP9 PUSH2 0x9A5 SWAP2 SWAP1 PUSH2 0x486A JUMP JUMPDEST TIMESTAMP PUSH2 0x9B0 SWAP2 SWAP1 PUSH2 0x4672 JUMP JUMPDEST DUP2 PUSH1 0x2 ADD DUP2 SWAP1 SSTORE POP CALLER DUP2 PUSH1 0x8 ADD PUSH1 0x0 PUSH2 0x100 EXP DUP2 SLOAD DUP2 PUSH20 0xFFFFFFFFFFFFFFFFFFFFFFFFFFFFFFFFFFFFFFFF MUL NOT AND SWAP1 DUP4 PUSH20 0xFFFFFFFFFFFFFFFFFFFFFFFFFFFFFFFFFFFFFFFF AND MUL OR SWAP1 SSTORE POP DUP1 PUSH1 0x4 ADD PUSH2 0xA23 DUP6 PUSH1 0x0 DUP2 MLOAD DUP2 LT PUSH2 0xA16 JUMPI PUSH2 0xA15 PUSH2 0x4B5A JUMP JUMPDEST JUMPDEST PUSH1 0x20 MUL PUSH1 0x20 ADD ADD MLOAD PUSH2 0x29B5 JUMP JUMPDEST SWAP1 DUP1 PUSH1 0x1 DUP2 SLOAD ADD DUP1 DUP3 SSTORE DUP1 SWAP2 POP POP PUSH1 0x1 SWAP1 SUB SWAP1 PUSH1 0x0 MSTORE PUSH1 0x20 PUSH1 0x0 KECCAK256 ADD PUSH1 0x0 SWAP1 SWAP2 SWAP1 SWAP2 SWAP1 SWAP2 POP SSTORE DUP1 PUSH1 0x4 ADD PUSH2 0xA71 DUP6 PUSH1 0x1 DUP2 MLOAD DUP2 LT PUSH2 0xA64 JUMPI PUSH2 0xA63 PUSH2 0x4B5A JUMP JUMPDEST JUMPDEST PUSH1 0x20 MUL PUSH1 0x20 ADD ADD MLOAD PUSH2 0x29B5 JUMP JUMPDEST SWAP1 DUP1 PUSH1 0x1 DUP2 SLOAD ADD DUP1 DUP3 SSTORE DUP1 SWAP2 POP POP PUSH1 0x1 SWAP1 SUB SWAP1 PUSH1 0x0 MSTORE PUSH1 0x20 PUSH1 0x0 KECCAK256 ADD PUSH1 0x0 SWAP1 SWAP2 SWAP1 SWAP2 SWAP1 SWAP2 POP SSTORE DUP1 PUSH1 0x4 ADD PUSH2 0xABF DUP6 PUSH1 0x2 DUP2 MLOAD DUP2 LT PUSH2 0xAB2 JUMPI PUSH2 0xAB1 PUSH2 0x4B5A JUMP JUMPDEST JUMPDEST PUSH1 0x20 MUL PUSH1 0x20 ADD ADD MLOAD PUSH2 0x29B5 JUMP JUMPDEST SWAP1 DUP1 PUSH1 0x1 DUP2 SLOAD ADD DUP1 DUP3 SSTORE DUP1 SWAP2 POP POP PUSH1 0x1 SWAP1 SUB SWAP1 PUSH1 0x0 MSTORE PUSH1 0x20 PUSH1 0x0 KECCAK256 ADD PUSH1 0x0 SWAP1 SWAP2 SWAP1 SWAP2 SWAP1 SWAP2 POP SSTORE DUP1 PUSH1 0x4 ADD PUSH2 0xB0D DUP6 PUSH1 0x3 DUP2 MLOAD DUP2 LT PUSH2 0xB00 JUMPI PUSH2 0xAFF PUSH2 0x4B5A JUMP JUMPDEST JUMPDEST PUSH1 0x20 MUL PUSH1 0x20 ADD ADD MLOAD PUSH2 0x29B5 JUMP JUMPDEST SWAP1 DUP1 PUSH1 0x1 DUP2 SLOAD ADD DUP1 DUP3 SSTORE DUP1 SWAP2 POP POP PUSH1 0x1 SWAP1 SUB SWAP1 PUSH1 0x0 MSTORE PUSH1 0x20 PUSH1 0x0 KECCAK256 ADD PUSH1 0x0 SWAP1 SWAP2 SWAP1 SWAP2 SWAP1 SWAP2 POP SSTORE DUP1 PUSH1 0x4 ADD PUSH2 0xB5B DUP6 PUSH1 0x4 DUP2 MLOAD DUP2 LT PUSH2 0xB4E JUMPI PUSH2 0xB4D PUSH2 0x4B5A JUMP JUMPDEST JUMPDEST PUSH1 0x20 MUL PUSH1 0x20 ADD ADD MLOAD PUSH2 0x29B5 JUMP JUMPDEST SWAP1 DUP1 PUSH1 0x1 DUP2 SLOAD ADD DUP1 DUP3 SSTORE DUP1 SWAP2 POP POP PUSH1 0x1 SWAP1 SUB SWAP1 PUSH1 0x0 MSTORE PUSH1 0x20 PUSH1 0x0 KECCAK256 ADD PUSH1 0x0 SWAP1 SWAP2 SWAP1 SWAP2 SWAP1 SWAP2 POP SSTORE DUP1 PUSH1 0x4 ADD PUSH2 0xBA9 DUP6 PUSH1 0x5 DUP2 MLOAD DUP2 LT PUSH2 0xB9C JUMPI PUSH2 0xB9B PUSH2 0x4B5A JUMP JUMPDEST JUMPDEST PUSH1 0x20 MUL PUSH1 0x20 ADD ADD MLOAD PUSH2 0x29B5 JUMP JUMPDEST SWAP1 DUP1 PUSH1 0x1 DUP2 SLOAD ADD DUP1 DUP3 SSTORE DUP1 SWAP2 POP POP PUSH1 0x1 SWAP1 SUB SWAP1 PUSH1 0x0 MSTORE PUSH1 0x20 PUSH1 0x0 KECCAK256 ADD PUSH1 0x0 SWAP1 SWAP2 SWAP1 SWAP2 SWAP1 SWAP2 POP SSTORE PUSH1 0x4 PUSH1 0x0 DUP2 SLOAD DUP1 SWAP3 SWAP2 SWAP1 PUSH2 0xBE2 SWAP1 PUSH2 0x4A55 JUMP JUMPDEST SWAP2 SWAP1 POP SSTORE POP POP POP POP POP POP POP POP POP POP POP POP POP JUMP JUMPDEST PUSH1 0x1 ISZERO ISZERO PUSH2 0xC06 PUSH1 0x0 DUP1 SHL CALLER PUSH2 0x1D70 JUMP JUMPDEST ISZERO ISZERO EQ PUSH2 0xC48 JUMPI PUSH1 0x40 MLOAD PUSH32 0x8C379A000000000000000000000000000000000000000000000000000000000 DUP2 MSTORE PUSH1 0x4 ADD PUSH2 0xC3F SWAP1 PUSH2 0x43EE JUMP JUMPDEST PUSH1 0x40 MLOAD DUP1 SWAP2 SUB SWAP1 REVERT JUMPDEST DUP1 TIMESTAMP PUSH1 0x5 PUSH1 0x0 DUP4 DUP2 MSTORE PUSH1 0x20 ADD SWAP1 DUP2 MSTORE PUSH1 0x20 ADD PUSH1 0x0 KECCAK256 PUSH1 0x2 ADD SLOAD LT PUSH2 0xC6B JUMPI PUSH1 0x0 DUP1 REVERT JUMPDEST PUSH1 0x5 PUSH1 0x0 DUP4 DUP2 MSTORE PUSH1 0x20 ADD SWAP1 DUP2 MSTORE PUSH1 0x20 ADD PUSH1 0x0 KECCAK256 PUSH1 0x8 ADD PUSH1 0x0 SWAP1 SLOAD SWAP1 PUSH2 0x100 EXP SWAP1 DIV PUSH20 0xFFFFFFFFFFFFFFFFFFFFFFFFFFFFFFFFFFFFFFFF AND PUSH20 0xFFFFFFFFFFFFFFFFFFFFFFFFFFFFFFFFFFFFFFFF AND CALLER PUSH20 0xFFFFFFFFFFFFFFFFFFFFFFFFFFFFFFFFFFFFFFFF AND EQ PUSH2 0xCD9 JUMPI PUSH1 0x0 DUP1 REVERT JUMPDEST PUSH1 0x0 PUSH1 0x7 PUSH1 0x0 DUP5 DUP2 MSTORE PUSH1 0x20 ADD SWAP1 DUP2 MSTORE PUSH1 0x20 ADD PUSH1 0x0 KECCAK256 PUSH1 0x0 DUP2 SLOAD DUP2 LT PUSH2 0xD01 JUMPI PUSH2 0xD00 PUSH2 0x4B5A JUMP JUMPDEST JUMPDEST SWAP1 PUSH1 0x0 MSTORE PUSH1 0x20 PUSH1 0x0 KECCAK256 ADD SLOAD SWAP1 POP PUSH1 0x0 DUP1 PUSH1 0x1 SWAP1 POP JUMPDEST PUSH1 0x6 PUSH1 0x0 DUP7 DUP2 MSTORE PUSH1 0x20 ADD SWAP1 DUP2 MSTORE PUSH1 0x20 ADD PUSH1 0x0 KECCAK256 DUP1 SLOAD SWAP1 POP DUP2 LT ISZERO PUSH2 0xD8B JUMPI PUSH1 0x0 PUSH1 0x7 PUSH1 0x0 DUP8 DUP2 MSTORE PUSH1 0x20 ADD SWAP1 DUP2 MSTORE PUSH1 0x20 ADD PUSH1 0x0 KECCAK256 DUP3 DUP2 SLOAD DUP2 LT PUSH2 0xD5B JUMPI PUSH2 0xD5A PUSH2 0x4B5A JUMP JUMPDEST JUMPDEST SWAP1 PUSH1 0x0 MSTORE PUSH1 0x20 PUSH1 0x0 KECCAK256 ADD SLOAD SWAP1 POP DUP4 DUP2 LT ISZERO PUSH2 0xD77 JUMPI DUP1 SWAP4 POP DUP2 SWAP3 POP JUMPDEST POP DUP1 DUP1 PUSH2 0xD83 SWAP1 PUSH2 0x4A55 JUMP JUMPDEST SWAP2 POP POP PUSH2 0xD16 JUMP JUMPDEST POP PUSH1 0x6 PUSH1 0x0 DUP6 DUP2 MSTORE PUSH1 0x20 ADD SWAP1 DUP2 MSTORE PUSH1 0x20 ADD PUSH1 0x0 KECCAK256 DUP2 DUP2 SLOAD DUP2 LT PUSH2 0xDB1 JUMPI PUSH2 0xDB0 PUSH2 0x4B5A JUMP JUMPDEST JUMPDEST SWAP1 PUSH1 0x0 MSTORE PUSH1 0x20 PUSH1 0x0 KECCAK256 ADD PUSH1 0x0 SWAP1 SLOAD SWAP1 PUSH2 0x100 EXP SWAP1 DIV PUSH20 0xFFFFFFFFFFFFFFFFFFFFFFFFFFFFFFFFFFFFFFFF AND PUSH1 0x5 PUSH1 0x0 DUP7 DUP2 MSTORE PUSH1 0x20 ADD SWAP1 DUP2 MSTORE PUSH1 0x20 ADD PUSH1 0x0 KECCAK256 PUSH1 0x9 ADD PUSH1 0x0 PUSH2 0x100 EXP DUP2 SLOAD DUP2 PUSH20 0xFFFFFFFFFFFFFFFFFFFFFFFFFFFFFFFFFFFFFFFF MUL NOT AND SWAP1 DUP4 PUSH20 0xFFFFFFFFFFFFFFFFFFFFFFFFFFFFFFFFFFFFFFFF AND MUL OR SWAP1 SSTORE POP POP POP POP POP JUMP JUMPDEST PUSH1 0x0 DUP1 DUP3 TIMESTAMP PUSH1 0x5 PUSH1 0x0 DUP4 DUP2 MSTORE PUSH1 0x20 ADD SWAP1 DUP2 MSTORE PUSH1 0x20 ADD PUSH1 0x0 KECCAK256 PUSH1 0x2 ADD SLOAD LT PUSH2 0xE5C JUMPI PUSH1 0x0 DUP1 REVERT JUMPDEST PUSH1 0x5 PUSH1 0x0 DUP6 DUP2 MSTORE PUSH1 0x20 ADD SWAP1 DUP2 MSTORE PUSH1 0x20 ADD PUSH1 0x0 KECCAK256 PUSH1 0x9 ADD PUSH1 0x0 SWAP1 SLOAD SWAP1 PUSH2 0x100 EXP SWAP1 DIV PUSH20 0xFFFFFFFFFFFFFFFFFFFFFFFFFFFFFFFFFFFFFFFF AND PUSH1 0x5 PUSH1 0x0 DUP7 DUP2 MSTORE PUSH1 0x20 ADD SWAP1 DUP2 MSTORE PUSH1 0x20 ADD PUSH1 0x0 KECCAK256 PUSH1 0x6 ADD PUSH1 0x0 PUSH1 0x5 PUSH1 0x0 DUP9 DUP2 MSTORE PUSH1 0x20 ADD SWAP1 DUP2 MSTORE PUSH1 0x20 ADD PUSH1 0x0 KECCAK256 PUSH1 0x9 ADD PUSH1 0x0 SWAP1 SLOAD SWAP1 PUSH2 0x100 EXP SWAP1 DIV PUSH20 0xFFFFFFFFFFFFFFFFFFFFFFFFFFFFFFFFFFFFFFFF AND PUSH20 0xFFFFFFFFFFFFFFFFFFFFFFFFFFFFFFFFFFFFFFFF AND PUSH20 0xFFFFFFFFFFFFFFFFFFFFFFFFFFFFFFFFFFFFFFFF AND DUP2 MSTORE PUSH1 0x20 ADD SWAP1 DUP2 MSTORE PUSH1 0x20 ADD PUSH1 0x0 KECCAK256 SLOAD SWAP3 POP SWAP3 POP POP SWAP2 POP SWAP2 JUMP JUMPDEST PUSH1 0x1 ISZERO ISZERO PUSH2 0xF55 PUSH32 0x67BEE59EE70CE8DB2640FEFB72D33F9B54EE798D412840C7C6D3E247987EB248 CALLER PUSH2 0x1D70 JUMP JUMPDEST ISZERO ISZERO EQ PUSH2 0xF97 JUMPI PUSH1 0x40 MLOAD PUSH32 0x8C379A000000000000000000000000000000000000000000000000000000000 DUP2 MSTORE PUSH1 0x4 ADD PUSH2 0xF8E SWAP1 PUSH2 0x43EE JUMP JUMPDEST PUSH1 0x40 MLOAD DUP1 SWAP2 SUB SWAP1 REVERT JUMPDEST DUP5 PUSH1 0x5 PUSH1 0x0 DUP3 DUP2 MSTORE PUSH1 0x20 ADD SWAP1 DUP2 MSTORE PUSH1 0x20 ADD PUSH1 0x0 KECCAK256 PUSH1 0x3 ADD SLOAD TIMESTAMP LT ISZERO DUP1 ISZERO PUSH2 0xFD3 JUMPI POP PUSH1 0x5 PUSH1 0x0 DUP3 DUP2 MSTORE PUSH1 0x20 ADD SWAP1 DUP2 MSTORE PUSH1 0x20 ADD PUSH1 0x0 KECCAK256 PUSH1 0x2 ADD SLOAD TIMESTAMP LT JUMPDEST PUSH2 0x1012 JUMPI PUSH1 0x40 MLOAD PUSH32 0x8C379A000000000000000000000000000000000000000000000000000000000 DUP2 MSTORE PUSH1 0x4 ADD PUSH2 0x1009 SWAP1 PUSH2 0x448E JUMP JUMPDEST PUSH1 0x40 MLOAD DUP1 SWAP2 SUB SWAP1 REVERT JUMPDEST CALLER PUSH20 0xFFFFFFFFFFFFFFFFFFFFFFFFFFFFFFFFFFFFFFFF AND PUSH1 0x5 PUSH1 0x0 DUP9 DUP2 MSTORE PUSH1 0x20 ADD SWAP1 DUP2 MSTORE PUSH1 0x20 ADD PUSH1 0x0 KECCAK256 PUSH1 0x5 ADD PUSH1 0x0 CALLER PUSH20 0xFFFFFFFFFFFFFFFFFFFFFFFFFFFFFFFFFFFFFFFF AND PUSH20 0xFFFFFFFFFFFFFFFFFFFFFFFFFFFFFFFFFFFFFFFF AND DUP2 MSTORE PUSH1 0x20 ADD SWAP1 DUP2 MSTORE PUSH1 0x20 ADD PUSH1 0x0 KECCAK256 PUSH1 0x0 ADD PUSH1 0x0 SWAP1 SLOAD SWAP1 PUSH2 0x100 EXP SWAP1 DIV PUSH20 0xFFFFFFFFFFFFFFFFFFFFFFFFFFFFFFFFFFFFFFFF AND PUSH20 0xFFFFFFFFFFFFFFFFFFFFFFFFFFFFFFFFFFFFFFFF AND EQ PUSH2 0x10C0 JUMPI PUSH1 0x0 DUP1 REVERT JUMPDEST PUSH1 0x5 PUSH1 0x0 DUP8 DUP2 MSTORE PUSH1 0x20 ADD SWAP1 DUP2 MSTORE PUSH1 0x20 ADD PUSH1 0x0 KECCAK256 PUSH1 0x5 ADD PUSH1 0x0 CALLER PUSH20 0xFFFFFFFFFFFFFFFFFFFFFFFFFFFFFFFFFFFFFFFF AND PUSH20 0xFFFFFFFFFFFFFFFFFFFFFFFFFFFFFFFFFFFFFFFF AND DUP2 MSTORE PUSH1 0x20 ADD SWAP1 DUP2 MSTORE PUSH1 0x20 ADD PUSH1 0x0 KECCAK256 PUSH1 0x1 ADD SLOAD DUP6 DUP6 PUSH1 0x40 MLOAD PUSH1 0x20 ADD PUSH2 0x112A SWAP3 SWAP2 SWAP1 PUSH2 0x4262 JUMP JUMPDEST PUSH1 0x40 MLOAD PUSH1 0x20 DUP2 DUP4 SUB SUB DUP2 MSTORE SWAP1 PUSH1 0x40 MSTORE DUP1 MLOAD SWAP1 PUSH1 0x20 ADD KECCAK256 EQ PUSH2 0x114A JUMPI PUSH1 0x0 DUP1 REVERT JUMPDEST PUSH1 0x0 PUSH1 0x5 PUSH1 0x0 DUP9 DUP2 MSTORE PUSH1 0x20 ADD SWAP1 DUP2 MSTORE PUSH1 0x20 ADD PUSH1 0x0 KECCAK256 SWAP1 POP DUP6 DUP6 DUP3 PUSH1 0x5 ADD PUSH1 0x0 CALLER PUSH20 0xFFFFFFFFFFFFFFFFFFFFFFFFFFFFFFFFFFFFFFFF AND PUSH20 0xFFFFFFFFFFFFFFFFFFFFFFFFFFFFFFFFFFFFFFFF AND DUP2 MSTORE PUSH1 0x20 ADD SWAP1 DUP2 MSTORE PUSH1 0x20 ADD PUSH1 0x0 KECCAK256 PUSH1 0x3 ADD SWAP2 SWAP1 PUSH2 0x11B4 SWAP3 SWAP2 SWAP1 PUSH2 0x38A0 JUMP JUMPDEST POP DUP4 DUP4 DUP3 PUSH1 0x5 ADD PUSH1 0x0 CALLER PUSH20 0xFFFFFFFFFFFFFFFFFFFFFFFFFFFFFFFFFFFFFFFF AND PUSH20 0xFFFFFFFFFFFFFFFFFFFFFFFFFFFFFFFFFFFFFFFF AND DUP2 MSTORE PUSH1 0x20 ADD SWAP1 DUP2 MSTORE PUSH1 0x20 ADD PUSH1 0x0 KECCAK256 PUSH1 0x4 ADD SWAP2 SWAP1 PUSH2 0x1208 SWAP3 SWAP2 SWAP1 PUSH2 0x38A0 JUMP JUMPDEST POP PUSH1 0x1 DUP2 PUSH1 0x5 ADD PUSH1 0x0 CALLER PUSH20 0xFFFFFFFFFFFFFFFFFFFFFFFFFFFFFFFFFFFFFFFF AND PUSH20 0xFFFFFFFFFFFFFFFFFFFFFFFFFFFFFFFFFFFFFFFF AND DUP2 MSTORE PUSH1 0x20 ADD SWAP1 DUP2 MSTORE PUSH1 0x20 ADD PUSH1 0x0 KECCAK256 PUSH1 0x2 ADD PUSH1 0x0 PUSH2 0x100 EXP DUP2 SLOAD DUP2 PUSH1 0xFF MUL NOT AND SWAP1 DUP4 ISZERO ISZERO MUL OR SWAP1 SSTORE POP PUSH1 0x6 PUSH1 0x0 DUP9 DUP2 MSTORE PUSH1 0x20 ADD SWAP1 DUP2 MSTORE PUSH1 0x20 ADD PUSH1 0x0 KECCAK256 CALLER SWAP1 DUP1 PUSH1 0x1 DUP2 SLOAD ADD DUP1 DUP3 SSTORE DUP1 SWAP2 POP POP PUSH1 0x1 SWAP1 SUB SWAP1 PUSH1 0x0 MSTORE PUSH1 0x20 PUSH1 0x0 KECCAK256 ADD PUSH1 0x0 SWAP1 SWAP2 SWAP1 SWAP2 SWAP1 SWAP2 PUSH2 0x100 EXP DUP2 SLOAD DUP2 PUSH20 0xFFFFFFFFFFFFFFFFFFFFFFFFFFFFFFFFFFFFFFFF MUL NOT AND SWAP1 DUP4 PUSH20 0xFFFFFFFFFFFFFFFFFFFFFFFFFFFFFFFFFFFFFFFF AND MUL OR SWAP1 SSTORE POP POP POP POP POP POP POP POP JUMP JUMPDEST PUSH1 0x1 ISZERO ISZERO PUSH2 0x1311 PUSH32 0x67BEE59EE70CE8DB2640FEFB72D33F9B54EE798D412840C7C6D3E247987EB248 CALLER PUSH2 0x1D70 JUMP JUMPDEST ISZERO ISZERO EQ PUSH2 0x1353 JUMPI PUSH1 0x40 MLOAD PUSH32 0x8C379A000000000000000000000000000000000000000000000000000000000 DUP2 MSTORE PUSH1 0x4 ADD PUSH2 0x134A SWAP1 PUSH2 0x43EE JUMP JUMPDEST PUSH1 0x40 MLOAD DUP1 SWAP2 SUB SWAP1 REVERT JUMPDEST DUP2 PUSH1 0x5 PUSH1 0x0 DUP3 DUP2 MSTORE PUSH1 0x20 ADD SWAP1 DUP2 MSTORE PUSH1 0x20 ADD PUSH1 0x0 KECCAK256 PUSH1 0x1 ADD SLOAD TIMESTAMP LT ISZERO DUP1 ISZERO PUSH2 0x1390 JUMPI POP PUSH1 0x5 PUSH1 0x0 DUP3 DUP2 MSTORE PUSH1 0x20 ADD SWAP1 DUP2 MSTORE PUSH1 0x20 ADD PUSH1 0x0 KECCAK256 PUSH1 0x3 ADD SLOAD TIMESTAMP GT ISZERO JUMPDEST PUSH2 0x13CF JUMPI PUSH1 0x40 MLOAD PUSH32 0x8C379A000000000000000000000000000000000000000000000000000000000 DUP2 MSTORE PUSH1 0x4 ADD PUSH2 0x13C6 SWAP1 PUSH2 0x442E JUMP JUMPDEST PUSH1 0x40 MLOAD DUP1 SWAP2 SUB SWAP1 REVERT JUMPDEST DUP3 PUSH1 0x1 ISZERO ISZERO PUSH1 0x5 PUSH1 0x0 DUP4 DUP2 MSTORE PUSH1 0x20 ADD SWAP1 DUP2 MSTORE PUSH1 0x20 ADD PUSH1 0x0 KECCAK256 PUSH1 0x7 ADD PUSH1 0x0 CALLER PUSH20 0xFFFFFFFFFFFFFFFFFFFFFFFFFFFFFFFFFFFFFFFF AND PUSH20 0xFFFFFFFFFFFFFFFFFFFFFFFFFFFFFFFFFFFFFFFF AND DUP2 MSTORE PUSH1 0x20 ADD SWAP1 DUP2 MSTORE PUSH1 0x20 ADD PUSH1 0x0 KECCAK256 PUSH1 0x0 SWAP1 SLOAD SWAP1 PUSH2 0x100 EXP SWAP1 DIV PUSH1 0xFF AND ISZERO ISZERO EQ ISZERO PUSH2 0x1478 JUMPI PUSH1 0x40 MLOAD PUSH32 0x8C379A000000000000000000000000000000000000000000000000000000000 DUP2 MSTORE PUSH1 0x4 ADD PUSH2 0x146F SWAP1 PUSH2 0x446E JUMP JUMPDEST PUSH1 0x40 MLOAD DUP1 SWAP2 SUB SWAP1 REVERT JUMPDEST PUSH1 0x0 PUSH1 0x5 PUSH1 0x0 DUP7 DUP2 MSTORE PUSH1 0x20 ADD SWAP1 DUP2 MSTORE PUSH1 0x20 ADD PUSH1 0x0 KECCAK256 SWAP1 POP PUSH1 0x1 DUP2 PUSH1 0x7 ADD PUSH1 0x0 CALLER PUSH20 0xFFFFFFFFFFFFFFFFFFFFFFFFFFFFFFFFFFFFFFFF AND PUSH20 0xFFFFFFFFFFFFFFFFFFFFFFFFFFFFFFFFFFFFFFFF AND DUP2 MSTORE PUSH1 0x20 ADD SWAP1 DUP2 MSTORE PUSH1 0x20 ADD PUSH1 0x0 KECCAK256 PUSH1 0x0 PUSH2 0x100 EXP DUP2 SLOAD DUP2 PUSH1 0xFF MUL NOT AND SWAP1 DUP4 ISZERO ISZERO MUL OR SWAP1 SSTORE POP PUSH1 0x40 MLOAD DUP1 PUSH1 0xC0 ADD PUSH1 0x40 MSTORE DUP1 CALLER PUSH20 0xFFFFFFFFFFFFFFFFFFFFFFFFFFFFFFFFFFFFFFFF AND DUP2 MSTORE PUSH1 0x20 ADD DUP6 DUP2 MSTORE PUSH1 0x20 ADD PUSH1 0x0 ISZERO ISZERO DUP2 MSTORE PUSH1 0x20 ADD PUSH1 0x40 MLOAD DUP1 PUSH1 0x20 ADD PUSH1 0x40 MSTORE DUP1 PUSH1 0x0 DUP2 MSTORE POP DUP2 MSTORE PUSH1 0x20 ADD PUSH1 0x40 MLOAD DUP1 PUSH1 0x20 ADD PUSH1 0x40 MSTORE DUP1 PUSH1 0x0 DUP2 MSTORE POP DUP2 MSTORE PUSH1 0x20 ADD PUSH1 0x0 PUSH8 0xFFFFFFFFFFFFFFFF DUP2 GT ISZERO PUSH2 0x1564 JUMPI PUSH2 0x1563 PUSH2 0x4B89 JUMP JUMPDEST JUMPDEST PUSH1 0x40 MLOAD SWAP1 DUP1 DUP3 MSTORE DUP1 PUSH1 0x20 MUL PUSH1 0x20 ADD DUP3 ADD PUSH1 0x40 MSTORE DUP1 ISZERO PUSH2 0x1597 JUMPI DUP2 PUSH1 0x20 ADD JUMPDEST PUSH1 0x60 DUP2 MSTORE PUSH1 0x20 ADD SWAP1 PUSH1 0x1 SWAP1 SUB SWAP1 DUP2 PUSH2 0x1582 JUMPI SWAP1 POP JUMPDEST POP DUP2 MSTORE POP DUP2 PUSH1 0x5 ADD PUSH1 0x0 CALLER PUSH20 0xFFFFFFFFFFFFFFFFFFFFFFFFFFFFFFFFFFFFFFFF AND PUSH20 0xFFFFFFFFFFFFFFFFFFFFFFFFFFFFFFFFFFFFFFFF AND DUP2 MSTORE PUSH1 0x20 ADD SWAP1 DUP2 MSTORE PUSH1 0x20 ADD PUSH1 0x0 KECCAK256 PUSH1 0x0 DUP3 ADD MLOAD DUP2 PUSH1 0x0 ADD PUSH1 0x0 PUSH2 0x100 EXP DUP2 SLOAD DUP2 PUSH20 0xFFFFFFFFFFFFFFFFFFFFFFFFFFFFFFFFFFFFFFFF MUL NOT AND SWAP1 DUP4 PUSH20 0xFFFFFFFFFFFFFFFFFFFFFFFFFFFFFFFFFFFFFFFF AND MUL OR SWAP1 SSTORE POP PUSH1 0x20 DUP3 ADD MLOAD DUP2 PUSH1 0x1 ADD SSTORE PUSH1 0x40 DUP3 ADD MLOAD DUP2 PUSH1 0x2 ADD PUSH1 0x0 PUSH2 0x100 EXP DUP2 SLOAD DUP2 PUSH1 0xFF MUL NOT AND SWAP1 DUP4 ISZERO ISZERO MUL OR SWAP1 SSTORE POP PUSH1 0x60 DUP3 ADD MLOAD DUP2 PUSH1 0x3 ADD SWAP1 DUP1 MLOAD SWAP1 PUSH1 0x20 ADD SWAP1 PUSH2 0x1669 SWAP3 SWAP2 SWAP1 PUSH2 0x3926 JUMP JUMPDEST POP PUSH1 0x80 DUP3 ADD MLOAD DUP2 PUSH1 0x4 ADD SWAP1 DUP1 MLOAD SWAP1 PUSH1 0x20 ADD SWAP1 PUSH2 0x1686 SWAP3 SWAP2 SWAP1 PUSH2 0x3926 JUMP JUMPDEST POP PUSH1 0xA0 DUP3 ADD MLOAD DUP2 PUSH1 0x5 ADD SWAP1 DUP1 MLOAD SWAP1 PUSH1 0x20 ADD SWAP1 PUSH2 0x16A3 SWAP3 SWAP2 SWAP1 PUSH2 0x39AC JUMP JUMPDEST POP SWAP1 POP POP POP POP POP POP POP JUMP JUMPDEST PUSH1 0x1 ISZERO ISZERO PUSH2 0x16BF PUSH1 0x0 DUP1 SHL CALLER PUSH2 0x1D70 JUMP JUMPDEST ISZERO ISZERO EQ PUSH2 0x1701 JUMPI PUSH1 0x40 MLOAD PUSH32 0x8C379A000000000000000000000000000000000000000000000000000000000 DUP2 MSTORE PUSH1 0x4 ADD PUSH2 0x16F8 SWAP1 PUSH2 0x43EE JUMP JUMPDEST PUSH1 0x40 MLOAD DUP1 SWAP2 SUB SWAP1 REVERT JUMPDEST DUP1 TIMESTAMP PUSH1 0x5 PUSH1 0x0 DUP4 DUP2 MSTORE PUSH1 0x20 ADD SWAP1 DUP2 MSTORE PUSH1 0x20 ADD PUSH1 0x0 KECCAK256 PUSH1 0x2 ADD SLOAD LT PUSH2 0x1724 JUMPI PUSH1 0x0 DUP1 REVERT JUMPDEST PUSH1 0x5 PUSH1 0x0 DUP4 DUP2 MSTORE PUSH1 0x20 ADD SWAP1 DUP2 MSTORE PUSH1 0x20 ADD PUSH1 0x0 KECCAK256 PUSH1 0x8 ADD PUSH1 0x0 SWAP1 SLOAD SWAP1 PUSH2 0x100 EXP SWAP1 DIV PUSH20 0xFFFFFFFFFFFFFFFFFFFFFFFFFFFFFFFFFFFFFFFF AND PUSH20 0xFFFFFFFFFFFFFFFFFFFFFFFFFFFFFFFFFFFFFFFF AND CALLER PUSH20 0xFFFFFFFFFFFFFFFFFFFFFFFFFFFFFFFFFFFFFFFF AND EQ PUSH2 0x1792 JUMPI PUSH1 0x0 DUP1 REVERT JUMPDEST PUSH1 0x0 PUSH2 0x179D DUP4 PUSH2 0x2B1F JUMP JUMPDEST SWAP1 POP PUSH2 0x17A8 DUP4 PUSH2 0x2CA6 JUMP JUMPDEST PUSH1 0x0 JUMPDEST PUSH1 0x6 PUSH1 0x0 DUP6 DUP2 MSTORE PUSH1 0x20 ADD SWAP1 DUP2 MSTORE PUSH1 0x20 ADD PUSH1 0x0 KECCAK256 DUP1 SLOAD SWAP1 POP DUP2 LT ISZERO PUSH2 0x1D5A JUMPI PUSH1 0x0 PUSH1 0x6 PUSH1 0x0 DUP7 DUP2 MSTORE PUSH1 0x20 ADD SWAP1 DUP2 MSTORE PUSH1 0x20 ADD PUSH1 0x0 KECCAK256 DUP3 DUP2 SLOAD DUP2 LT PUSH2 0x17F0 JUMPI PUSH2 0x17EF PUSH2 0x4B5A JUMP JUMPDEST JUMPDEST SWAP1 PUSH1 0x0 MSTORE PUSH1 0x20 PUSH1 0x0 KECCAK256 ADD PUSH1 0x0 SWAP1 SLOAD SWAP1 PUSH2 0x100 EXP SWAP1 DIV PUSH20 0xFFFFFFFFFFFFFFFFFFFFFFFFFFFFFFFFFFFFFFFF AND SWAP1 POP PUSH1 0x0 PUSH1 0x5 PUSH1 0x0 DUP8 DUP2 MSTORE PUSH1 0x20 ADD SWAP1 DUP2 MSTORE PUSH1 0x20 ADD PUSH1 0x0 KECCAK256 PUSH1 0x5 ADD PUSH1 0x0 DUP4 PUSH20 0xFFFFFFFFFFFFFFFFFFFFFFFFFFFFFFFFFFFFFFFF AND PUSH20 0xFFFFFFFFFFFFFFFFFFFFFFFFFFFFFFFFFFFFFFFF AND DUP2 MSTORE PUSH1 0x20 ADD SWAP1 DUP2 MSTORE PUSH1 0x20 ADD PUSH1 0x0 KECCAK256 PUSH1 0x40 MLOAD DUP1 PUSH1 0xC0 ADD PUSH1 0x40 MSTORE SWAP1 DUP2 PUSH1 0x0 DUP3 ADD PUSH1 0x0 SWAP1 SLOAD SWAP1 PUSH2 0x100 EXP SWAP1 DIV PUSH20 0xFFFFFFFFFFFFFFFFFFFFFFFFFFFFFFFFFFFFFFFF AND PUSH20 0xFFFFFFFFFFFFFFFFFFFFFFFFFFFFFFFFFFFFFFFF AND PUSH20 0xFFFFFFFFFFFFFFFFFFFFFFFFFFFFFFFFFFFFFFFF AND DUP2 MSTORE PUSH1 0x20 ADD PUSH1 0x1 DUP3 ADD SLOAD DUP2 MSTORE PUSH1 0x20 ADD PUSH1 0x2 DUP3 ADD PUSH1 0x0 SWAP1 SLOAD SWAP1 PUSH2 0x100 EXP SWAP1 DIV PUSH1 0xFF AND ISZERO ISZERO ISZERO ISZERO DUP2 MSTORE PUSH1 0x20 ADD PUSH1 0x3 DUP3 ADD DUP1 SLOAD PUSH2 0x1908 SWAP1 PUSH2 0x4A23 JUMP JUMPDEST DUP1 PUSH1 0x1F ADD PUSH1 0x20 DUP1 SWAP2 DIV MUL PUSH1 0x20 ADD PUSH1 0x40 MLOAD SWAP1 DUP2 ADD PUSH1 0x40 MSTORE DUP1 SWAP3 SWAP2 SWAP1 DUP2 DUP2 MSTORE PUSH1 0x20 ADD DUP3 DUP1 SLOAD PUSH2 0x1934 SWAP1 PUSH2 0x4A23 JUMP JUMPDEST DUP1 ISZERO PUSH2 0x1981 JUMPI DUP1 PUSH1 0x1F LT PUSH2 0x1956 JUMPI PUSH2 0x100 DUP1 DUP4 SLOAD DIV MUL DUP4 MSTORE SWAP2 PUSH1 0x20 ADD SWAP2 PUSH2 0x1981 JUMP JUMPDEST DUP3 ADD SWAP2 SWAP1 PUSH1 0x0 MSTORE PUSH1 0x20 PUSH1 0x0 KECCAK256 SWAP1 JUMPDEST DUP2 SLOAD DUP2 MSTORE SWAP1 PUSH1 0x1 ADD SWAP1 PUSH1 0x20 ADD DUP1 DUP4 GT PUSH2 0x1964 JUMPI DUP3 SWAP1 SUB PUSH1 0x1F AND DUP3 ADD SWAP2 JUMPDEST POP POP POP POP POP DUP2 MSTORE PUSH1 0x20 ADD PUSH1 0x4 DUP3 ADD DUP1 SLOAD PUSH2 0x199A SWAP1 PUSH2 0x4A23 JUMP JUMPDEST DUP1 PUSH1 0x1F ADD PUSH1 0x20 DUP1 SWAP2 DIV MUL PUSH1 0x20 ADD PUSH1 0x40 MLOAD SWAP1 DUP2 ADD PUSH1 0x40 MSTORE DUP1 SWAP3 SWAP2 SWAP1 DUP2 DUP2 MSTORE PUSH1 0x20 ADD DUP3 DUP1 SLOAD PUSH2 0x19C6 SWAP1 PUSH2 0x4A23 JUMP JUMPDEST DUP1 ISZERO PUSH2 0x1A13 JUMPI DUP1 PUSH1 0x1F LT PUSH2 0x19E8 JUMPI PUSH2 0x100 DUP1 DUP4 SLOAD DIV MUL DUP4 MSTORE SWAP2 PUSH1 0x20 ADD SWAP2 PUSH2 0x1A13 JUMP JUMPDEST DUP3 ADD SWAP2 SWAP1 PUSH1 0x0 MSTORE PUSH1 0x20 PUSH1 0x0 KECCAK256 SWAP1 JUMPDEST DUP2 SLOAD DUP2 MSTORE SWAP1 PUSH1 0x1 ADD SWAP1 PUSH1 0x20 ADD DUP1 DUP4 GT PUSH2 0x19F6 JUMPI DUP3 SWAP1 SUB PUSH1 0x1F AND DUP3 ADD SWAP2 JUMPDEST POP POP POP POP POP DUP2 MSTORE PUSH1 0x20 ADD PUSH1 0x5 DUP3 ADD DUP1 SLOAD DUP1 PUSH1 0x20 MUL PUSH1 0x20 ADD PUSH1 0x40 MLOAD SWAP1 DUP2 ADD PUSH1 0x40 MSTORE DUP1 SWAP3 SWAP2 SWAP1 DUP2 DUP2 MSTORE PUSH1 0x20 ADD PUSH1 0x0 SWAP1 JUMPDEST DUP3 DUP3 LT ISZERO PUSH2 0x1AED JUMPI DUP4 DUP3 SWAP1 PUSH1 0x0 MSTORE PUSH1 0x20 PUSH1 0x0 KECCAK256 ADD DUP1 SLOAD PUSH2 0x1A60 SWAP1 PUSH2 0x4A23 JUMP JUMPDEST DUP1 PUSH1 0x1F ADD PUSH1 0x20 DUP1 SWAP2 DIV MUL PUSH1 0x20 ADD PUSH1 0x40 MLOAD SWAP1 DUP2 ADD PUSH1 0x40 MSTORE DUP1 SWAP3 SWAP2 SWAP1 DUP2 DUP2 MSTORE PUSH1 0x20 ADD DUP3 DUP1 SLOAD PUSH2 0x1A8C SWAP1 PUSH2 0x4A23 JUMP JUMPDEST DUP1 ISZERO PUSH2 0x1AD9 JUMPI DUP1 PUSH1 0x1F LT PUSH2 0x1AAE JUMPI PUSH2 0x100 DUP1 DUP4 SLOAD DIV MUL DUP4 MSTORE SWAP2 PUSH1 0x20 ADD SWAP2 PUSH2 0x1AD9 JUMP JUMPDEST DUP3 ADD SWAP2 SWAP1 PUSH1 0x0 MSTORE PUSH1 0x20 PUSH1 0x0 KECCAK256 SWAP1 JUMPDEST DUP2 SLOAD DUP2 MSTORE SWAP1 PUSH1 0x1 ADD SWAP1 PUSH1 0x20 ADD DUP1 DUP4 GT PUSH2 0x1ABC JUMPI DUP3 SWAP1 SUB PUSH1 0x1F AND DUP3 ADD SWAP2 JUMPDEST POP POP POP POP POP DUP2 MSTORE PUSH1 0x20 ADD SWAP1 PUSH1 0x1 ADD SWAP1 PUSH2 0x1A41 JUMP JUMPDEST POP POP POP POP DUP2 MSTORE POP POP SWAP1 POP PUSH1 0x1 ISZERO ISZERO DUP2 PUSH1 0x40 ADD MLOAD ISZERO ISZERO EQ ISZERO PUSH2 0x1D45 JUMPI PUSH1 0x0 PUSH2 0x1B32 DUP3 PUSH1 0xA0 ADD MLOAD PUSH1 0x0 DUP2 MLOAD DUP2 LT PUSH2 0x1B25 JUMPI PUSH2 0x1B24 PUSH2 0x4B5A JUMP JUMPDEST JUMPDEST PUSH1 0x20 MUL PUSH1 0x20 ADD ADD MLOAD PUSH2 0x29B5 JUMP JUMPDEST SWAP1 POP PUSH1 0x0 PUSH2 0x1B67 DUP3 PUSH2 0x1B62 DUP6 PUSH1 0xA0 ADD MLOAD PUSH1 0x1 DUP2 MLOAD DUP2 LT PUSH2 0x1B55 JUMPI PUSH2 0x1B54 PUSH2 0x4B5A JUMP JUMPDEST JUMPDEST PUSH1 0x20 MUL PUSH1 0x20 ADD ADD MLOAD PUSH2 0x29B5 JUMP JUMPDEST PUSH2 0x307E JUMP JUMPDEST SWAP1 POP PUSH1 0x0 PUSH2 0x1BD6 DUP4 PUSH2 0x1BD1 PUSH2 0x1B9A DUP8 PUSH1 0xA0 ADD MLOAD PUSH1 0x2 DUP2 MLOAD DUP2 LT PUSH2 0x1B8D JUMPI PUSH2 0x1B8C PUSH2 0x4B5A JUMP JUMPDEST JUMPDEST PUSH1 0x20 MUL PUSH1 0x20 ADD ADD MLOAD PUSH2 0x29B5 JUMP JUMPDEST PUSH2 0x1BC2 DUP9 PUSH1 0xA0 ADD MLOAD PUSH1 0x3 DUP2 MLOAD DUP2 LT PUSH2 0x1BB5 JUMPI PUSH2 0x1BB4 PUSH2 0x4B5A JUMP JUMPDEST JUMPDEST PUSH1 0x20 MUL PUSH1 0x20 ADD ADD MLOAD PUSH2 0x29B5 JUMP JUMPDEST DUP12 PUSH1 0x60 ADD MLOAD DUP13 PUSH1 0x80 ADD MLOAD PUSH2 0x30E6 JUMP JUMPDEST PUSH2 0x307E JUMP JUMPDEST SWAP1 POP PUSH1 0x0 PUSH2 0x1C0B DUP5 PUSH2 0x1C06 DUP8 PUSH1 0xA0 ADD MLOAD PUSH1 0x4 DUP2 MLOAD DUP2 LT PUSH2 0x1BF9 JUMPI PUSH2 0x1BF8 PUSH2 0x4B5A JUMP JUMPDEST JUMPDEST PUSH1 0x20 MUL PUSH1 0x20 ADD ADD MLOAD PUSH2 0x29B5 JUMP JUMPDEST PUSH2 0x307E JUMP JUMPDEST SWAP1 POP PUSH1 0x0 PUSH2 0x1C26 DUP6 DUP11 PUSH1 0x0 ADD MLOAD PUSH2 0x3140 SWAP1 SWAP2 SWAP1 PUSH4 0xFFFFFFFF AND JUMP JUMPDEST SWAP1 POP PUSH2 0x1C51 PUSH2 0x1C42 DUP6 DUP12 PUSH1 0x20 ADD MLOAD PUSH2 0x3140 SWAP1 SWAP2 SWAP1 PUSH4 0xFFFFFFFF AND JUMP JUMPDEST DUP3 PUSH2 0x2AC1 SWAP1 SWAP2 SWAP1 PUSH4 0xFFFFFFFF AND JUMP JUMPDEST SWAP1 POP PUSH2 0x1C7C PUSH2 0x1C6D DUP5 DUP12 PUSH1 0x40 ADD MLOAD PUSH2 0x3140 SWAP1 SWAP2 SWAP1 PUSH4 0xFFFFFFFF AND JUMP JUMPDEST DUP3 PUSH2 0x2AC1 SWAP1 SWAP2 SWAP1 PUSH4 0xFFFFFFFF AND JUMP JUMPDEST SWAP1 POP PUSH2 0x1CA7 PUSH2 0x1C98 DUP4 DUP12 PUSH1 0xA0 ADD MLOAD PUSH2 0x3140 SWAP1 SWAP2 SWAP1 PUSH4 0xFFFFFFFF AND JUMP JUMPDEST DUP3 PUSH2 0x2AC1 SWAP1 SWAP2 SWAP1 PUSH4 0xFFFFFFFF AND JUMP JUMPDEST SWAP1 POP PUSH1 0x7 PUSH1 0x0 DUP13 DUP2 MSTORE PUSH1 0x20 ADD SWAP1 DUP2 MSTORE PUSH1 0x20 ADD PUSH1 0x0 KECCAK256 DUP2 SWAP1 DUP1 PUSH1 0x1 DUP2 SLOAD ADD DUP1 DUP3 SSTORE DUP1 SWAP2 POP POP PUSH1 0x1 SWAP1 SUB SWAP1 PUSH1 0x0 MSTORE PUSH1 0x20 PUSH1 0x0 KECCAK256 ADD PUSH1 0x0 SWAP1 SWAP2 SWAP1 SWAP2 SWAP1 SWAP2 POP SSTORE DUP1 PUSH1 0x5 PUSH1 0x0 DUP14 DUP2 MSTORE PUSH1 0x20 ADD SWAP1 DUP2 MSTORE PUSH1 0x20 ADD PUSH1 0x0 KECCAK256 PUSH1 0x6 ADD PUSH1 0x0 DUP9 PUSH1 0x0 ADD MLOAD PUSH20 0xFFFFFFFFFFFFFFFFFFFFFFFFFFFFFFFFFFFFFFFF AND PUSH20 0xFFFFFFFFFFFFFFFFFFFFFFFFFFFFFFFFFFFFFFFF AND DUP2 MSTORE PUSH1 0x20 ADD SWAP1 DUP2 MSTORE PUSH1 0x20 ADD PUSH1 0x0 KECCAK256 DUP2 SWAP1 SSTORE POP POP POP POP POP POP JUMPDEST POP POP DUP1 DUP1 PUSH2 0x1D52 SWAP1 PUSH2 0x4A55 JUMP JUMPDEST SWAP2 POP POP PUSH2 0x17AB JUMP JUMPDEST POP POP POP POP JUMP JUMPDEST PUSH2 0x1D6D PUSH1 0x0 DUP1 SHL DUP3 PUSH2 0x260A JUMP JUMPDEST POP JUMP JUMPDEST PUSH1 0x0 DUP1 PUSH1 0x0 DUP5 DUP2 MSTORE PUSH1 0x20 ADD SWAP1 DUP2 MSTORE PUSH1 0x20 ADD PUSH1 0x0 KECCAK256 PUSH1 0x0 ADD PUSH1 0x0 DUP4 PUSH20 0xFFFFFFFFFFFFFFFFFFFFFFFFFFFFFFFFFFFFFFFF AND PUSH20 0xFFFFFFFFFFFFFFFFFFFFFFFFFFFFFFFFFFFFFFFF AND DUP2 MSTORE PUSH1 0x20 ADD SWAP1 DUP2 MSTORE PUSH1 0x20 ADD PUSH1 0x0 KECCAK256 PUSH1 0x0 SWAP1 SLOAD SWAP1 PUSH2 0x100 EXP SWAP1 DIV PUSH1 0xFF AND SWAP1 POP SWAP3 SWAP2 POP POP JUMP JUMPDEST PUSH2 0x1DE7 PUSH1 0x0 DUP1 SHL DUP3 PUSH2 0x5EF JUMP JUMPDEST POP JUMP JUMPDEST PUSH1 0x0 DUP1 PUSH1 0x0 DUP5 TIMESTAMP PUSH1 0x5 PUSH1 0x0 DUP4 DUP2 MSTORE PUSH1 0x20 ADD SWAP1 DUP2 MSTORE PUSH1 0x20 ADD PUSH1 0x0 KECCAK256 PUSH1 0x2 ADD SLOAD LT PUSH2 0x1E12 JUMPI PUSH1 0x0 DUP1 REVERT JUMPDEST PUSH1 0x0 PUSH1 0x6 PUSH1 0x0 DUP9 DUP2 MSTORE PUSH1 0x20 ADD SWAP1 DUP2 MSTORE PUSH1 0x20 ADD PUSH1 0x0 KECCAK256 DUP7 DUP2 SLOAD DUP2 LT PUSH2 0x1E39 JUMPI PUSH2 0x1E38 PUSH2 0x4B5A JUMP JUMPDEST JUMPDEST SWAP1 PUSH1 0x0 MSTORE PUSH1 0x20 PUSH1 0x0 KECCAK256 ADD PUSH1 0x0 SWAP1 SLOAD SWAP1 PUSH2 0x100 EXP SWAP1 DIV PUSH20 0xFFFFFFFFFFFFFFFFFFFFFFFFFFFFFFFFFFFFFFFF AND PUSH20 0xFFFFFFFFFFFFFFFFFFFFFFFFFFFFFFFFFFFFFFFF AND PUSH1 0x5 PUSH1 0x0 DUP10 DUP2 MSTORE PUSH1 0x20 ADD SWAP1 DUP2 MSTORE PUSH1 0x20 ADD PUSH1 0x0 KECCAK256 PUSH1 0x9 ADD PUSH1 0x0 SWAP1 SLOAD SWAP1 PUSH2 0x100 EXP SWAP1 DIV PUSH20 0xFFFFFFFFFFFFFFFFFFFFFFFFFFFFFFFFFFFFFFFF AND PUSH20 0xFFFFFFFFFFFFFFFFFFFFFFFFFFFFFFFFFFFFFFFF AND EQ ISZERO PUSH2 0x1ED6 JUMPI PUSH1 0x1 SWAP1 POP PUSH2 0x1EDB JUMP JUMPDEST PUSH1 0x0 SWAP1 POP JUMPDEST PUSH1 0x6 PUSH1 0x0 DUP9 DUP2 MSTORE PUSH1 0x20 ADD SWAP1 DUP2 MSTORE PUSH1 0x20 ADD PUSH1 0x0 KECCAK256 DUP7 DUP2 SLOAD DUP2 LT PUSH2 0x1F00 JUMPI PUSH2 0x1EFF PUSH2 0x4B5A JUMP JUMPDEST JUMPDEST SWAP1 PUSH1 0x0 MSTORE PUSH1 0x20 PUSH1 0x0 KECCAK256 ADD PUSH1 0x0 SWAP1 SLOAD SWAP1 PUSH2 0x100 EXP SWAP1 DIV PUSH20 0xFFFFFFFFFFFFFFFFFFFFFFFFFFFFFFFFFFFFFFFF AND PUSH1 0x7 PUSH1 0x0 DUP10 DUP2 MSTORE PUSH1 0x20 ADD SWAP1 DUP2 MSTORE PUSH1 0x20 ADD PUSH1 0x0 KECCAK256 DUP8 DUP2 SLOAD DUP2 LT PUSH2 0x1F50 JUMPI PUSH2 0x1F4F PUSH2 0x4B5A JUMP JUMPDEST JUMPDEST SWAP1 PUSH1 0x0 MSTORE PUSH1 0x20 PUSH1 0x0 KECCAK256 ADD SLOAD DUP3 SWAP5 POP SWAP5 POP SWAP5 POP POP POP SWAP3 POP SWAP3 POP SWAP3 JUMP JUMPDEST PUSH1 0x0 PUSH1 0x60 DUP1 PUSH1 0x0 DUP1 DUP7 TIMESTAMP PUSH1 0x5 PUSH1 0x0 DUP4 DUP2 MSTORE PUSH1 0x20 ADD SWAP1 DUP2 MSTORE PUSH1 0x20 ADD PUSH1 0x0 KECCAK256 PUSH1 0x2 ADD SLOAD LT PUSH2 0x1F96 JUMPI PUSH1 0x0 DUP1 REVERT JUMPDEST PUSH1 0x0 PUSH1 0x5 PUSH1 0x0 DUP11 DUP2 MSTORE PUSH1 0x20 ADD SWAP1 DUP2 MSTORE PUSH1 0x20 ADD PUSH1 0x0 KECCAK256 PUSH1 0x5 ADD PUSH1 0x0 DUP10 PUSH20 0xFFFFFFFFFFFFFFFFFFFFFFFFFFFFFFFFFFFFFFFF AND PUSH20 0xFFFFFFFFFFFFFFFFFFFFFFFFFFFFFFFFFFFFFFFF AND DUP2 MSTORE PUSH1 0x20 ADD SWAP1 DUP2 MSTORE PUSH1 0x20 ADD PUSH1 0x0 KECCAK256 PUSH1 0x0 ADD PUSH1 0x0 SWAP1 SLOAD SWAP1 PUSH2 0x100 EXP SWAP1 DIV PUSH20 0xFFFFFFFFFFFFFFFFFFFFFFFFFFFFFFFFFFFFFFFF AND SWAP1 POP PUSH1 0x0 PUSH1 0x5 PUSH1 0x0 DUP12 DUP2 MSTORE PUSH1 0x20 ADD SWAP1 DUP2 MSTORE PUSH1 0x20 ADD PUSH1 0x0 KECCAK256 PUSH1 0x5 ADD PUSH1 0x0 DUP11 PUSH20 0xFFFFFFFFFFFFFFFFFFFFFFFFFFFFFFFFFFFFFFFF AND PUSH20 0xFFFFFFFFFFFFFFFFFFFFFFFFFFFFFFFFFFFFFFFF AND DUP2 MSTORE PUSH1 0x20 ADD SWAP1 DUP2 MSTORE PUSH1 0x20 ADD PUSH1 0x0 KECCAK256 PUSH1 0x5 ADD DUP1 SLOAD DUP1 PUSH1 0x20 MUL PUSH1 0x20 ADD PUSH1 0x40 MLOAD SWAP1 DUP2 ADD PUSH1 0x40 MSTORE DUP1 SWAP3 SWAP2 SWAP1 DUP2 DUP2 MSTORE PUSH1 0x20 ADD PUSH1 0x0 SWAP1 JUMPDEST DUP3 DUP3 LT ISZERO PUSH2 0x2135 JUMPI DUP4 DUP3 SWAP1 PUSH1 0x0 MSTORE PUSH1 0x20 PUSH1 0x0 KECCAK256 ADD DUP1 SLOAD PUSH2 0x20A8 SWAP1 PUSH2 0x4A23 JUMP JUMPDEST DUP1 PUSH1 0x1F ADD PUSH1 0x20 DUP1 SWAP2 DIV MUL PUSH1 0x20 ADD PUSH1 0x40 MLOAD SWAP1 DUP2 ADD PUSH1 0x40 MSTORE DUP1 SWAP3 SWAP2 SWAP1 DUP2 DUP2 MSTORE PUSH1 0x20 ADD DUP3 DUP1 SLOAD PUSH2 0x20D4 SWAP1 PUSH2 0x4A23 JUMP JUMPDEST DUP1 ISZERO PUSH2 0x2121 JUMPI DUP1 PUSH1 0x1F LT PUSH2 0x20F6 JUMPI PUSH2 0x100 DUP1 DUP4 SLOAD DIV MUL DUP4 MSTORE SWAP2 PUSH1 0x20 ADD SWAP2 PUSH2 0x2121 JUMP JUMPDEST DUP3 ADD SWAP2 SWAP1 PUSH1 0x0 MSTORE PUSH1 0x20 PUSH1 0x0 KECCAK256 SWAP1 JUMPDEST DUP2 SLOAD DUP2 MSTORE SWAP1 PUSH1 0x1 ADD SWAP1 PUSH1 0x20 ADD DUP1 DUP4 GT PUSH2 0x2104 JUMPI DUP3 SWAP1 SUB PUSH1 0x1F AND DUP3 ADD SWAP2 JUMPDEST POP POP POP POP POP DUP2 MSTORE PUSH1 0x20 ADD SWAP1 PUSH1 0x1 ADD SWAP1 PUSH2 0x2089 JUMP JUMPDEST POP POP POP POP SWAP1 POP PUSH1 0x0 PUSH1 0x5 PUSH1 0x0 DUP13 DUP2 MSTORE PUSH1 0x20 ADD SWAP1 DUP2 MSTORE PUSH1 0x20 ADD PUSH1 0x0 KECCAK256 PUSH1 0x5 ADD PUSH1 0x0 DUP12 PUSH20 0xFFFFFFFFFFFFFFFFFFFFFFFFFFFFFFFFFFFFFFFF AND PUSH20 0xFFFFFFFFFFFFFFFFFFFFFFFFFFFFFFFFFFFFFFFF AND DUP2 MSTORE PUSH1 0x20 ADD SWAP1 DUP2 MSTORE PUSH1 0x20 ADD PUSH1 0x0 KECCAK256 PUSH1 0x4 ADD DUP1 SLOAD PUSH2 0x219E SWAP1 PUSH2 0x4A23 JUMP JUMPDEST DUP1 PUSH1 0x1F ADD PUSH1 0x20 DUP1 SWAP2 DIV MUL PUSH1 0x20 ADD PUSH1 0x40 MLOAD SWAP1 DUP2 ADD PUSH1 0x40 MSTORE DUP1 SWAP3 SWAP2 SWAP1 DUP2 DUP2 MSTORE PUSH1 0x20 ADD DUP3 DUP1 SLOAD PUSH2 0x21CA SWAP1 PUSH2 0x4A23 JUMP JUMPDEST DUP1 ISZERO PUSH2 0x2217 JUMPI DUP1 PUSH1 0x1F LT PUSH2 0x21EC JUMPI PUSH2 0x100 DUP1 DUP4 SLOAD DIV MUL DUP4 MSTORE SWAP2 PUSH1 0x20 ADD SWAP2 PUSH2 0x2217 JUMP JUMPDEST DUP3 ADD SWAP2 SWAP1 PUSH1 0x0 MSTORE PUSH1 0x20 PUSH1 0x0 KECCAK256 SWAP1 JUMPDEST DUP2 SLOAD DUP2 MSTORE SWAP1 PUSH1 0x1 ADD SWAP1 PUSH1 0x20 ADD DUP1 DUP4 GT PUSH2 0x21FA JUMPI DUP3 SWAP1 SUB PUSH1 0x1F AND DUP3 ADD SWAP2 JUMPDEST POP POP POP POP POP SWAP1 POP PUSH1 0x0 DUP11 PUSH20 0xFFFFFFFFFFFFFFFFFFFFFFFFFFFFFFFFFFFFFFFF AND PUSH1 0x5 PUSH1 0x0 DUP15 DUP2 MSTORE PUSH1 0x20 ADD SWAP1 DUP2 MSTORE PUSH1 0x20 ADD PUSH1 0x0 KECCAK256 PUSH1 0x9 ADD PUSH1 0x0 SWAP1 SLOAD SWAP1 PUSH2 0x100 EXP SWAP1 DIV PUSH20 0xFFFFFFFFFFFFFFFFFFFFFFFFFFFFFFFFFFFFFFFF AND PUSH20 0xFFFFFFFFFFFFFFFFFFFFFFFFFFFFFFFFFFFFFFFF AND EQ ISZERO PUSH2 0x2293 JUMPI PUSH1 0x1 SWAP1 POP PUSH2 0x2298 JUMP JUMPDEST PUSH1 0x0 SWAP1 POP JUMPDEST PUSH1 0x0 PUSH1 0x5 PUSH1 0x0 DUP15 DUP2 MSTORE PUSH1 0x20 ADD SWAP1 DUP2 MSTORE PUSH1 0x20 ADD PUSH1 0x0 KECCAK256 PUSH1 0x6 ADD PUSH1 0x0 DUP14 PUSH20 0xFFFFFFFFFFFFFFFFFFFFFFFFFFFFFFFFFFFFFFFF AND PUSH20 0xFFFFFFFFFFFFFFFFFFFFFFFFFFFFFFFFFFFFFFFF AND DUP2 MSTORE PUSH1 0x20 ADD SWAP1 DUP2 MSTORE PUSH1 0x20 ADD PUSH1 0x0 KECCAK256 SLOAD SWAP1 POP DUP5 DUP5 DUP5 DUP4 DUP6 SWAP11 POP SWAP11 POP SWAP11 POP SWAP11 POP SWAP11 POP POP POP POP POP POP POP SWAP3 SWAP6 POP SWAP3 SWAP6 SWAP1 SWAP4 POP JUMP JUMPDEST PUSH2 0x2339 PUSH32 0x67BEE59EE70CE8DB2640FEFB72D33F9B54EE798D412840C7C6D3E247987EB248 DUP3 PUSH2 0x5EF JUMP JUMPDEST POP JUMP JUMPDEST PUSH1 0x0 DUP1 SHL DUP2 JUMP JUMPDEST PUSH2 0x236D PUSH32 0x67BEE59EE70CE8DB2640FEFB72D33F9B54EE798D412840C7C6D3E247987EB248 DUP3 PUSH2 0x610 JUMP JUMPDEST POP JUMP JUMPDEST PUSH1 0x0 DUP1 PUSH1 0x0 TIMESTAMP PUSH1 0x5 PUSH1 0x0 DUP7 DUP2 MSTORE PUSH1 0x20 ADD SWAP1 DUP2 MSTORE PUSH1 0x20 ADD PUSH1 0x0 KECCAK256 PUSH1 0x3 ADD SLOAD GT ISZERO PUSH2 0x239C JUMPI PUSH1 0x1 SWAP1 POP PUSH2 0x23A1 JUMP JUMPDEST PUSH1 0x0 SWAP1 POP JUMPDEST DUP4 DUP2 SWAP3 POP SWAP3 POP POP SWAP2 POP SWAP2 JUMP JUMPDEST PUSH2 0x23D7 PUSH32 0x67BEE59EE70CE8DB2640FEFB72D33F9B54EE798D412840C7C6D3E247987EB248 DUP3 PUSH2 0x260A JUMP JUMPDEST POP JUMP JUMPDEST PUSH1 0x0 PUSH1 0x60 DUP1 PUSH1 0x60 PUSH1 0x0 DUP1 PUSH1 0x5 PUSH1 0x0 DUP9 DUP2 MSTORE PUSH1 0x20 ADD SWAP1 DUP2 MSTORE PUSH1 0x20 ADD PUSH1 0x0 KECCAK256 PUSH1 0x0 ADD SLOAD PUSH1 0x5 PUSH1 0x0 DUP10 DUP2 MSTORE PUSH1 0x20 ADD SWAP1 DUP2 MSTORE PUSH1 0x20 ADD PUSH1 0x0 KECCAK256 PUSH1 0xA ADD PUSH1 0x5 PUSH1 0x0 DUP11 DUP2 MSTORE PUSH1 0x20 ADD SWAP1 DUP2 MSTORE PUSH1 0x20 ADD PUSH1 0x0 KECCAK256 PUSH1 0xB ADD PUSH1 0x5 PUSH1 0x0 DUP12 DUP2 MSTORE PUSH1 0x20 ADD SWAP1 DUP2 MSTORE PUSH1 0x20 ADD PUSH1 0x0 KECCAK256 PUSH1 0x4 ADD PUSH1 0x6 PUSH1 0x0 DUP13 DUP2 MSTORE PUSH1 0x20 ADD SWAP1 DUP2 MSTORE PUSH1 0x20 ADD PUSH1 0x0 KECCAK256 DUP1 SLOAD SWAP1 POP PUSH1 0x5 PUSH1 0x0 DUP14 DUP2 MSTORE PUSH1 0x20 ADD SWAP1 DUP2 MSTORE PUSH1 0x20 ADD PUSH1 0x0 KECCAK256 PUSH1 0x9 ADD PUSH1 0x0 SWAP1 SLOAD SWAP1 PUSH2 0x100 EXP SWAP1 DIV PUSH20 0xFFFFFFFFFFFFFFFFFFFFFFFFFFFFFFFFFFFFFFFF AND DUP5 DUP1 SLOAD PUSH2 0x2497 SWAP1 PUSH2 0x4A23 JUMP JUMPDEST DUP1 PUSH1 0x1F ADD PUSH1 0x20 DUP1 SWAP2 DIV MUL PUSH1 0x20 ADD PUSH1 0x40 MLOAD SWAP1 DUP2 ADD PUSH1 0x40 MSTORE DUP1 SWAP3 SWAP2 SWAP1 DUP2 DUP2 MSTORE PUSH1 0x20 ADD DUP3 DUP1 SLOAD PUSH2 0x24C3 SWAP1 PUSH2 0x4A23 JUMP JUMPDEST DUP1 ISZERO PUSH2 0x2510 JUMPI DUP1 PUSH1 0x1F LT PUSH2 0x24E5 JUMPI PUSH2 0x100 DUP1 DUP4 SLOAD DIV MUL DUP4 MSTORE SWAP2 PUSH1 0x20 ADD SWAP2 PUSH2 0x2510 JUMP JUMPDEST DUP3 ADD SWAP2 SWAP1 PUSH1 0x0 MSTORE PUSH1 0x20 PUSH1 0x0 KECCAK256 SWAP1 JUMPDEST DUP2 SLOAD DUP2 MSTORE SWAP1 PUSH1 0x1 ADD SWAP1 PUSH1 0x20 ADD DUP1 DUP4 GT PUSH2 0x24F3 JUMPI DUP3 SWAP1 SUB PUSH1 0x1F AND DUP3 ADD SWAP2 JUMPDEST POP POP POP POP POP SWAP5 POP DUP4 DUP1 SLOAD PUSH2 0x2523 SWAP1 PUSH2 0x4A23 JUMP JUMPDEST DUP1 PUSH1 0x1F ADD PUSH1 0x20 DUP1 SWAP2 DIV MUL PUSH1 0x20 ADD PUSH1 0x40 MLOAD SWAP1 DUP2 ADD PUSH1 0x40 MSTORE DUP1 SWAP3 SWAP2 SWAP1 DUP2 DUP2 MSTORE PUSH1 0x20 ADD DUP3 DUP1 SLOAD PUSH2 0x254F SWAP1 PUSH2 0x4A23 JUMP JUMPDEST DUP1 ISZERO PUSH2 0x259C JUMPI DUP1 PUSH1 0x1F LT PUSH2 0x2571 JUMPI PUSH2 0x100 DUP1 DUP4 SLOAD DIV MUL DUP4 MSTORE SWAP2 PUSH1 0x20 ADD SWAP2 PUSH2 0x259C JUMP JUMPDEST DUP3 ADD SWAP2 SWAP1 PUSH1 0x0 MSTORE PUSH1 0x20 PUSH1 0x0 KECCAK256 SWAP1 JUMPDEST DUP2 SLOAD DUP2 MSTORE SWAP1 PUSH1 0x1 ADD SWAP1 PUSH1 0x20 ADD DUP1 DUP4 GT PUSH2 0x257F JUMPI DUP3 SWAP1 SUB PUSH1 0x1F AND DUP3 ADD SWAP2 JUMPDEST POP POP POP POP POP SWAP4 POP DUP3 DUP1 SLOAD DUP1 PUSH1 0x20 MUL PUSH1 0x20 ADD PUSH1 0x40 MLOAD SWAP1 DUP2 ADD PUSH1 0x40 MSTORE DUP1 SWAP3 SWAP2 SWAP1 DUP2 DUP2 MSTORE PUSH1 0x20 ADD DUP3 DUP1 SLOAD DUP1 ISZERO PUSH2 0x25EE JUMPI PUSH1 0x20 MUL DUP3 ADD SWAP2 SWAP1 PUSH1 0x0 MSTORE PUSH1 0x20 PUSH1 0x0 KECCAK256 SWAP1 JUMPDEST DUP2 SLOAD DUP2 MSTORE PUSH1 0x20 ADD SWAP1 PUSH1 0x1 ADD SWAP1 DUP1 DUP4 GT PUSH2 0x25DA JUMPI JUMPDEST POP POP POP POP POP SWAP3 POP SWAP6 POP SWAP6 POP SWAP6 POP SWAP6 POP SWAP6 POP SWAP6 POP SWAP2 SWAP4 SWAP6 POP SWAP2 SWAP4 SWAP6 JUMP JUMPDEST PUSH2 0x2613 DUP3 PUSH2 0x5D0 JUMP JUMPDEST PUSH2 0x261C DUP2 PUSH2 0x26F3 JUMP JUMPDEST PUSH2 0x2626 DUP4 DUP4 PUSH2 0x27EF JUMP JUMPDEST POP POP POP JUMP JUMPDEST PUSH1 0x0 PUSH1 0x4 SLOAD SWAP1 POP SWAP1 JUMP JUMPDEST PUSH1 0x0 DUP2 TIMESTAMP PUSH1 0x5 PUSH1 0x0 DUP4 DUP2 MSTORE PUSH1 0x20 ADD SWAP1 DUP2 MSTORE PUSH1 0x20 ADD PUSH1 0x0 KECCAK256 PUSH1 0x2 ADD SLOAD LT PUSH2 0x265A JUMPI PUSH1 0x0 DUP1 REVERT JUMPDEST PUSH1 0x6 PUSH1 0x0 DUP5 DUP2 MSTORE PUSH1 0x20 ADD SWAP1 DUP2 MSTORE PUSH1 0x20 ADD PUSH1 0x0 KECCAK256 DUP1 SLOAD SWAP1 POP SWAP2 POP POP SWAP2 SWAP1 POP JUMP JUMPDEST PUSH2 0x2686 PUSH1 0x0 DUP1 SHL DUP3 PUSH2 0x610 JUMP JUMPDEST POP JUMP JUMPDEST PUSH1 0x0 PUSH32 0x1FFC9A700000000000000000000000000000000000000000000000000000000 PUSH28 0xFFFFFFFFFFFFFFFFFFFFFFFFFFFFFFFFFFFFFFFFFFFFFFFFFFFFFFFF NOT AND DUP3 PUSH28 0xFFFFFFFFFFFFFFFFFFFFFFFFFFFFFFFFFFFFFFFFFFFFFFFFFFFFFFFF NOT AND EQ SWAP1 POP SWAP2 SWAP1 POP JUMP JUMPDEST PUSH2 0x2704 DUP2 PUSH2 0x26FF PUSH2 0x27E7 JUMP JUMPDEST PUSH2 0x31BB JUMP JUMPDEST POP JUMP JUMPDEST PUSH2 0x2711 DUP3 DUP3 PUSH2 0x1D70 JUMP JUMPDEST PUSH2 0x27E3 JUMPI PUSH1 0x1 PUSH1 0x0 DUP1 DUP5 DUP2 MSTORE PUSH1 0x20 ADD SWAP1 DUP2 MSTORE PUSH1 0x20 ADD PUSH1 0x0 KECCAK256 PUSH1 0x0 ADD PUSH1 0x0 DUP4 PUSH20 0xFFFFFFFFFFFFFFFFFFFFFFFFFFFFFFFFFFFFFFFF AND PUSH20 0xFFFFFFFFFFFFFFFFFFFFFFFFFFFFFFFFFFFFFFFF AND DUP2 MSTORE PUSH1 0x20 ADD SWAP1 DUP2 MSTORE PUSH1 0x20 ADD PUSH1 0x0 KECCAK256 PUSH1 0x0 PUSH2 0x100 EXP DUP2 SLOAD DUP2 PUSH1 0xFF MUL NOT AND SWAP1 DUP4 ISZERO ISZERO MUL OR SWAP1 SSTORE POP PUSH2 0x2788 PUSH2 0x27E7 JUMP JUMPDEST PUSH20 0xFFFFFFFFFFFFFFFFFFFFFFFFFFFFFFFFFFFFFFFF AND DUP2 PUSH20 0xFFFFFFFFFFFFFFFFFFFFFFFFFFFFFFFFFFFFFFFF AND DUP4 PUSH32 0x2F8788117E7EFF1D82E926EC794901D17C78024A50270940304540A733656F0D PUSH1 0x40 MLOAD PUSH1 0x40 MLOAD DUP1 SWAP2 SUB SWAP1 LOG4 JUMPDEST POP POP JUMP JUMPDEST PUSH1 0x0 CALLER SWAP1 POP SWAP1 JUMP JUMPDEST PUSH2 0x27F9 DUP3 DUP3 PUSH2 0x1D70 JUMP JUMPDEST ISZERO PUSH2 0x28CC JUMPI PUSH1 0x0 DUP1 PUSH1 0x0 DUP5 DUP2 MSTORE PUSH1 0x20 ADD SWAP1 DUP2 MSTORE PUSH1 0x20 ADD PUSH1 0x0 KECCAK256 PUSH1 0x0 ADD PUSH1 0x0 DUP4 PUSH20 0xFFFFFFFFFFFFFFFFFFFFFFFFFFFFFFFFFFFFFFFF AND PUSH20 0xFFFFFFFFFFFFFFFFFFFFFFFFFFFFFFFFFFFFFFFF AND DUP2 MSTORE PUSH1 0x20 ADD SWAP1 DUP2 MSTORE PUSH1 0x20 ADD PUSH1 0x0 KECCAK256 PUSH1 0x0 PUSH2 0x100 EXP DUP2 SLOAD DUP2 PUSH1 0xFF MUL NOT AND SWAP1 DUP4 ISZERO ISZERO MUL OR SWAP1 SSTORE POP PUSH2 0x2871 PUSH2 0x27E7 JUMP JUMPDEST PUSH20 0xFFFFFFFFFFFFFFFFFFFFFFFFFFFFFFFFFFFFFFFF AND DUP2 PUSH20 0xFFFFFFFFFFFFFFFFFFFFFFFFFFFFFFFFFFFFFFFF AND DUP4 PUSH32 0xF6391F5C32D9C69D2A47EA670B442974B53935D1EDC7FD64EB21E047A839171B PUSH1 0x40 MLOAD PUSH1 0x40 MLOAD DUP1 SWAP2 SUB SWAP1 LOG4 JUMPDEST POP POP JUMP JUMPDEST PUSH1 0x60 PUSH1 0x0 PUSH2 0x28DD DUP5 PUSH2 0x3240 JUMP JUMPDEST SWAP1 POP PUSH1 0x0 PUSH2 0x28EA DUP5 PUSH2 0x3240 JUMP JUMPDEST SWAP1 POP PUSH1 0x0 PUSH2 0x2901 DUP3 DUP5 PUSH2 0x326E SWAP1 SWAP2 SWAP1 PUSH4 0xFFFFFFFF AND JUMP JUMPDEST PUSH8 0xFFFFFFFFFFFFFFFF DUP2 GT ISZERO PUSH2 0x291A JUMPI PUSH2 0x2919 PUSH2 0x4B89 JUMP JUMPDEST JUMPDEST PUSH1 0x40 MLOAD SWAP1 DUP1 DUP3 MSTORE DUP1 PUSH1 0x20 MUL PUSH1 0x20 ADD DUP3 ADD PUSH1 0x40 MSTORE DUP1 ISZERO PUSH2 0x294D JUMPI DUP2 PUSH1 0x20 ADD JUMPDEST PUSH1 0x60 DUP2 MSTORE PUSH1 0x20 ADD SWAP1 PUSH1 0x1 SWAP1 SUB SWAP1 DUP2 PUSH2 0x2938 JUMPI SWAP1 POP JUMPDEST POP SWAP1 POP PUSH1 0x0 JUMPDEST DUP2 MLOAD DUP2 LT ISZERO PUSH2 0x29A8 JUMPI PUSH2 0x2977 PUSH2 0x2972 DUP5 DUP7 PUSH2 0x3316 SWAP1 SWAP2 SWAP1 PUSH4 0xFFFFFFFF AND JUMP JUMPDEST PUSH2 0x3330 JUMP JUMPDEST DUP3 DUP3 DUP2 MLOAD DUP2 LT PUSH2 0x298A JUMPI PUSH2 0x2989 PUSH2 0x4B5A JUMP JUMPDEST JUMPDEST PUSH1 0x20 MUL PUSH1 0x20 ADD ADD DUP2 SWAP1 MSTORE POP DUP1 DUP1 PUSH2 0x29A0 SWAP1 PUSH2 0x4A55 JUMP JUMPDEST SWAP2 POP POP PUSH2 0x2953 JUMP JUMPDEST POP DUP1 SWAP4 POP POP POP POP SWAP3 SWAP2 POP POP JUMP JUMPDEST PUSH1 0x0 DUP1 DUP3 SWAP1 POP PUSH1 0x0 PUSH1 0x1 SWAP1 POP PUSH1 0x0 PUSH1 0x1 DUP4 MLOAD PUSH2 0x29D1 SWAP2 SWAP1 PUSH2 0x48C4 JUMP JUMPDEST SWAP1 POP JUMPDEST PUSH1 0x0 DUP2 LT ISZERO DUP1 ISZERO PUSH2 0x29E5 JUMPI POP DUP3 MLOAD DUP2 LT JUMPDEST ISZERO PUSH2 0x2AB9 JUMPI PUSH1 0x30 DUP4 DUP3 DUP2 MLOAD DUP2 LT PUSH2 0x29FF JUMPI PUSH2 0x29FE PUSH2 0x4B5A JUMP JUMPDEST JUMPDEST PUSH1 0x20 ADD ADD MLOAD PUSH1 0xF8 SHR PUSH1 0xF8 SHL PUSH1 0xF8 SHR PUSH1 0xFF AND LT ISZERO DUP1 ISZERO PUSH2 0x2A42 JUMPI POP PUSH1 0x39 DUP4 DUP3 DUP2 MLOAD DUP2 LT PUSH2 0x2A2E JUMPI PUSH2 0x2A2D PUSH2 0x4B5A JUMP JUMPDEST JUMPDEST PUSH1 0x20 ADD ADD MLOAD PUSH1 0xF8 SHR PUSH1 0xF8 SHL PUSH1 0xF8 SHR PUSH1 0xFF AND GT ISZERO JUMPDEST PUSH2 0x2A4F JUMPI PUSH2 0x2A4E PUSH2 0x4A9E JUMP JUMPDEST JUMPDEST DUP2 PUSH1 0x30 DUP5 DUP4 DUP2 MLOAD DUP2 LT PUSH2 0x2A65 JUMPI PUSH2 0x2A64 PUSH2 0x4B5A JUMP JUMPDEST JUMPDEST PUSH1 0x20 ADD ADD MLOAD PUSH1 0xF8 SHR PUSH1 0xF8 SHL PUSH1 0xF8 SHR PUSH2 0x2A7D SWAP2 SWAP1 PUSH2 0x48F8 JUMP JUMPDEST PUSH1 0xFF AND PUSH2 0x2A8A SWAP2 SWAP1 PUSH2 0x486A JUMP JUMPDEST DUP5 PUSH2 0x2A95 SWAP2 SWAP1 PUSH2 0x4672 JUMP JUMPDEST SWAP4 POP PUSH1 0xA DUP3 PUSH2 0x2AA4 SWAP2 SWAP1 PUSH2 0x486A JUMP JUMPDEST SWAP2 POP DUP1 DUP1 PUSH2 0x2AB1 SWAP1 PUSH2 0x49F9 JUMP JUMPDEST SWAP2 POP POP PUSH2 0x29D4 JUMP JUMPDEST POP POP POP SWAP2 SWAP1 POP JUMP JUMPDEST PUSH1 0x0 DUP1 DUP3 DUP5 PUSH2 0x2AD0 SWAP2 SWAP1 PUSH2 0x4672 JUMP JUMPDEST SWAP1 POP DUP4 DUP2 LT ISZERO PUSH2 0x2B15 JUMPI PUSH1 0x40 MLOAD PUSH32 0x8C379A000000000000000000000000000000000000000000000000000000000 DUP2 MSTORE PUSH1 0x4 ADD PUSH2 0x2B0C SWAP1 PUSH2 0x440E JUMP JUMPDEST PUSH1 0x40 MLOAD DUP1 SWAP2 SUB SWAP1 REVERT JUMPDEST DUP1 SWAP2 POP POP SWAP3 SWAP2 POP POP JUMP JUMPDEST PUSH2 0x2B27 PUSH2 0x3A0C JUMP JUMPDEST PUSH2 0x2B2F PUSH2 0x3A0C JUMP JUMPDEST PUSH1 0x5 PUSH1 0x0 DUP5 DUP2 MSTORE PUSH1 0x20 ADD SWAP1 DUP2 MSTORE PUSH1 0x20 ADD PUSH1 0x0 KECCAK256 PUSH1 0x4 ADD PUSH1 0x0 DUP2 SLOAD DUP2 LT PUSH2 0x2B58 JUMPI PUSH2 0x2B57 PUSH2 0x4B5A JUMP JUMPDEST JUMPDEST SWAP1 PUSH1 0x0 MSTORE PUSH1 0x20 PUSH1 0x0 KECCAK256 ADD SLOAD DUP2 PUSH1 0x0 ADD DUP2 DUP2 MSTORE POP POP PUSH1 0x5 PUSH1 0x0 DUP5 DUP2 MSTORE PUSH1 0x20 ADD SWAP1 DUP2 MSTORE PUSH1 0x20 ADD PUSH1 0x0 KECCAK256 PUSH1 0x4 ADD PUSH1 0x1 DUP2 SLOAD DUP2 LT PUSH2 0x2B95 JUMPI PUSH2 0x2B94 PUSH2 0x4B5A JUMP JUMPDEST JUMPDEST SWAP1 PUSH1 0x0 MSTORE PUSH1 0x20 PUSH1 0x0 KECCAK256 ADD SLOAD DUP2 PUSH1 0x20 ADD DUP2 DUP2 MSTORE POP POP PUSH1 0x5 PUSH1 0x0 DUP5 DUP2 MSTORE PUSH1 0x20 ADD SWAP1 DUP2 MSTORE PUSH1 0x20 ADD PUSH1 0x0 KECCAK256 PUSH1 0x4 ADD PUSH1 0x2 DUP2 SLOAD DUP2 LT PUSH2 0x2BD2 JUMPI PUSH2 0x2BD1 PUSH2 0x4B5A JUMP JUMPDEST JUMPDEST SWAP1 PUSH1 0x0 MSTORE PUSH1 0x20 PUSH1 0x0 KECCAK256 ADD SLOAD DUP2 PUSH1 0x40 ADD DUP2 DUP2 MSTORE POP POP PUSH1 0x5 PUSH1 0x0 DUP5 DUP2 MSTORE PUSH1 0x20 ADD SWAP1 DUP2 MSTORE PUSH1 0x20 ADD PUSH1 0x0 KECCAK256 PUSH1 0x4 ADD PUSH1 0x3 DUP2 SLOAD DUP2 LT PUSH2 0x2C0F JUMPI PUSH2 0x2C0E PUSH2 0x4B5A JUMP JUMPDEST JUMPDEST SWAP1 PUSH1 0x0 MSTORE PUSH1 0x20 PUSH1 0x0 KECCAK256 ADD SLOAD DUP2 PUSH1 0x60 ADD DUP2 DUP2 MSTORE POP POP PUSH1 0x5 PUSH1 0x0 DUP5 DUP2 MSTORE PUSH1 0x20 ADD SWAP1 DUP2 MSTORE PUSH1 0x20 ADD PUSH1 0x0 KECCAK256 PUSH1 0x4 ADD PUSH1 0x4 DUP2 SLOAD DUP2 LT PUSH2 0x2C4C JUMPI PUSH2 0x2C4B PUSH2 0x4B5A JUMP JUMPDEST JUMPDEST SWAP1 PUSH1 0x0 MSTORE PUSH1 0x20 PUSH1 0x0 KECCAK256 ADD SLOAD DUP2 PUSH1 0x80 ADD DUP2 DUP2 MSTORE POP POP PUSH1 0x5 PUSH1 0x0 DUP5 DUP2 MSTORE PUSH1 0x20 ADD SWAP1 DUP2 MSTORE PUSH1 0x20 ADD PUSH1 0x0 KECCAK256 PUSH1 0x4 ADD PUSH1 0x5 DUP2 SLOAD DUP2 LT PUSH2 0x2C89 JUMPI PUSH2 0x2C88 PUSH2 0x4B5A JUMP JUMPDEST JUMPDEST SWAP1 PUSH1 0x0 MSTORE PUSH1 0x20 PUSH1 0x0 KECCAK256 ADD SLOAD DUP2 PUSH1 0xA0 ADD DUP2 DUP2 MSTORE POP POP DUP1 SWAP2 POP POP SWAP2 SWAP1 POP JUMP JUMPDEST PUSH1 0x1 ISZERO ISZERO PUSH2 0x2CB7 PUSH1 0x0 DUP1 SHL CALLER PUSH2 0x1D70 JUMP JUMPDEST ISZERO ISZERO EQ PUSH2 0x2CF9 JUMPI PUSH1 0x40 MLOAD PUSH32 0x8C379A000000000000000000000000000000000000000000000000000000000 DUP2 MSTORE PUSH1 0x4 ADD PUSH2 0x2CF0 SWAP1 PUSH2 0x43EE JUMP JUMPDEST PUSH1 0x40 MLOAD DUP1 SWAP2 SUB SWAP1 REVERT JUMPDEST DUP1 TIMESTAMP PUSH1 0x5 PUSH1 0x0 DUP4 DUP2 MSTORE PUSH1 0x20 ADD SWAP1 DUP2 MSTORE PUSH1 0x20 ADD PUSH1 0x0 KECCAK256 PUSH1 0x2 ADD SLOAD LT PUSH2 0x2D1C JUMPI PUSH1 0x0 DUP1 REVERT JUMPDEST PUSH1 0x0 JUMPDEST PUSH1 0x6 PUSH1 0x0 DUP5 DUP2 MSTORE PUSH1 0x20 ADD SWAP1 DUP2 MSTORE PUSH1 0x20 ADD PUSH1 0x0 KECCAK256 DUP1 SLOAD SWAP1 POP DUP2 LT ISZERO PUSH2 0x3079 JUMPI PUSH1 0x0 PUSH1 0x5 PUSH1 0x0 DUP6 DUP2 MSTORE PUSH1 0x20 ADD SWAP1 DUP2 MSTORE PUSH1 0x20 ADD PUSH1 0x0 KECCAK256 PUSH1 0x5 ADD PUSH1 0x0 PUSH1 0x6 PUSH1 0x0 DUP8 DUP2 MSTORE PUSH1 0x20 ADD SWAP1 DUP2 MSTORE PUSH1 0x20 ADD PUSH1 0x0 KECCAK256 DUP5 DUP2 SLOAD DUP2 LT PUSH2 0x2D7C JUMPI PUSH2 0x2D7B PUSH2 0x4B5A JUMP JUMPDEST JUMPDEST SWAP1 PUSH1 0x0 MSTORE PUSH1 0x20 PUSH1 0x0 KECCAK256 ADD PUSH1 0x0 SWAP1 SLOAD SWAP1 PUSH2 0x100 EXP SWAP1 DIV PUSH20 0xFFFFFFFFFFFFFFFFFFFFFFFFFFFFFFFFFFFFFFFF AND PUSH20 0xFFFFFFFFFFFFFFFFFFFFFFFFFFFFFFFFFFFFFFFF AND PUSH20 0xFFFFFFFFFFFFFFFFFFFFFFFFFFFFFFFFFFFFFFFF AND DUP2 MSTORE PUSH1 0x20 ADD SWAP1 DUP2 MSTORE PUSH1 0x20 ADD PUSH1 0x0 KECCAK256 PUSH1 0x4 ADD DUP1 SLOAD PUSH2 0x2DEF SWAP1 PUSH2 0x4A23 JUMP JUMPDEST DUP1 PUSH1 0x1F ADD PUSH1 0x20 DUP1 SWAP2 DIV MUL PUSH1 0x20 ADD PUSH1 0x40 MLOAD SWAP1 DUP2 ADD PUSH1 0x40 MSTORE DUP1 SWAP3 SWAP2 SWAP1 DUP2 DUP2 MSTORE PUSH1 0x20 ADD DUP3 DUP1 SLOAD PUSH2 0x2E1B SWAP1 PUSH2 0x4A23 JUMP JUMPDEST DUP1 ISZERO PUSH2 0x2E68 JUMPI DUP1 PUSH1 0x1F LT PUSH2 0x2E3D JUMPI PUSH2 0x100 DUP1 DUP4 SLOAD DIV MUL DUP4 MSTORE SWAP2 PUSH1 0x20 ADD SWAP2 PUSH2 0x2E68 JUMP JUMPDEST DUP3 ADD SWAP2 SWAP1 PUSH1 0x0 MSTORE PUSH1 0x20 PUSH1 0x0 KECCAK256 SWAP1 JUMPDEST DUP2 SLOAD DUP2 MSTORE SWAP1 PUSH1 0x1 ADD SWAP1 PUSH1 0x20 ADD DUP1 DUP4 GT PUSH2 0x2E4B JUMPI DUP3 SWAP1 SUB PUSH1 0x1F AND DUP3 ADD SWAP2 JUMPDEST POP POP POP POP POP SWAP1 POP PUSH1 0x0 PUSH1 0x5 PUSH1 0x0 DUP7 DUP2 MSTORE PUSH1 0x20 ADD SWAP1 DUP2 MSTORE PUSH1 0x20 ADD PUSH1 0x0 KECCAK256 PUSH1 0x5 ADD PUSH1 0x0 PUSH1 0x6 PUSH1 0x0 DUP9 DUP2 MSTORE PUSH1 0x20 ADD SWAP1 DUP2 MSTORE PUSH1 0x20 ADD PUSH1 0x0 KECCAK256 DUP6 DUP2 SLOAD DUP2 LT PUSH2 0x2EAE JUMPI PUSH2 0x2EAD PUSH2 0x4B5A JUMP JUMPDEST JUMPDEST SWAP1 PUSH1 0x0 MSTORE PUSH1 0x20 PUSH1 0x0 KECCAK256 ADD PUSH1 0x0 SWAP1 SLOAD SWAP1 PUSH2 0x100 EXP SWAP1 DIV PUSH20 0xFFFFFFFFFFFFFFFFFFFFFFFFFFFFFFFFFFFFFFFF AND PUSH20 0xFFFFFFFFFFFFFFFFFFFFFFFFFFFFFFFFFFFFFFFF AND PUSH20 0xFFFFFFFFFFFFFFFFFFFFFFFFFFFFFFFFFFFFFFFF AND DUP2 MSTORE PUSH1 0x20 ADD SWAP1 DUP2 MSTORE PUSH1 0x20 ADD PUSH1 0x0 KECCAK256 PUSH1 0x3 ADD DUP1 SLOAD PUSH2 0x2F21 SWAP1 PUSH2 0x4A23 JUMP JUMPDEST DUP1 PUSH1 0x1F ADD PUSH1 0x20 DUP1 SWAP2 DIV MUL PUSH1 0x20 ADD PUSH1 0x40 MLOAD SWAP1 DUP2 ADD PUSH1 0x40 MSTORE DUP1 SWAP3 SWAP2 SWAP1 DUP2 DUP2 MSTORE PUSH1 0x20 ADD DUP3 DUP1 SLOAD PUSH2 0x2F4D SWAP1 PUSH2 0x4A23 JUMP JUMPDEST DUP1 ISZERO PUSH2 0x2F9A JUMPI DUP1 PUSH1 0x1F LT PUSH2 0x2F6F JUMPI PUSH2 0x100 DUP1 DUP4 SLOAD DIV MUL DUP4 MSTORE SWAP2 PUSH1 0x20 ADD SWAP2 PUSH2 0x2F9A JUMP JUMPDEST DUP3 ADD SWAP2 SWAP1 PUSH1 0x0 MSTORE PUSH1 0x20 PUSH1 0x0 KECCAK256 SWAP1 JUMPDEST DUP2 SLOAD DUP2 MSTORE SWAP1 PUSH1 0x1 ADD SWAP1 PUSH1 0x20 ADD DUP1 DUP4 GT PUSH2 0x2F7D JUMPI DUP3 SWAP1 SUB PUSH1 0x1F AND DUP3 ADD SWAP2 JUMPDEST POP POP POP POP POP SWAP1 POP PUSH2 0x2FAB DUP2 DUP4 PUSH2 0x28D0 JUMP JUMPDEST PUSH1 0x5 PUSH1 0x0 DUP8 DUP2 MSTORE PUSH1 0x20 ADD SWAP1 DUP2 MSTORE PUSH1 0x20 ADD PUSH1 0x0 KECCAK256 PUSH1 0x5 ADD PUSH1 0x0 PUSH1 0x6 PUSH1 0x0 DUP10 DUP2 MSTORE PUSH1 0x20 ADD SWAP1 DUP2 MSTORE PUSH1 0x20 ADD PUSH1 0x0 KECCAK256 DUP7 DUP2 SLOAD DUP2 LT PUSH2 0x2FE8 JUMPI PUSH2 0x2FE7 PUSH2 0x4B5A JUMP JUMPDEST JUMPDEST SWAP1 PUSH1 0x0 MSTORE PUSH1 0x20 PUSH1 0x0 KECCAK256 ADD PUSH1 0x0 SWAP1 SLOAD SWAP1 PUSH2 0x100 EXP SWAP1 DIV PUSH20 0xFFFFFFFFFFFFFFFFFFFFFFFFFFFFFFFFFFFFFFFF AND PUSH20 0xFFFFFFFFFFFFFFFFFFFFFFFFFFFFFFFFFFFFFFFF AND PUSH20 0xFFFFFFFFFFFFFFFFFFFFFFFFFFFFFFFFFFFFFFFF AND DUP2 MSTORE PUSH1 0x20 ADD SWAP1 DUP2 MSTORE PUSH1 0x20 ADD PUSH1 0x0 KECCAK256 PUSH1 0x5 ADD SWAP1 DUP1 MLOAD SWAP1 PUSH1 0x20 ADD SWAP1 PUSH2 0x3063 SWAP3 SWAP2 SWAP1 PUSH2 0x39AC JUMP JUMPDEST POP POP POP DUP1 DUP1 PUSH2 0x3071 SWAP1 PUSH2 0x4A55 JUMP JUMPDEST SWAP2 POP POP PUSH2 0x2D1F JUMP JUMPDEST POP POP POP JUMP JUMPDEST PUSH1 0x0 DUP1 PUSH1 0x0 DUP5 SWAP1 POP JUMPDEST PUSH1 0x0 PUSH1 0xA DUP3 PUSH2 0x3096 SWAP2 SWAP1 PUSH2 0x46C8 JUMP JUMPDEST EQ PUSH2 0x30BD JUMPI PUSH1 0xA DUP2 PUSH2 0x30A8 SWAP2 SWAP1 PUSH2 0x46C8 JUMP JUMPDEST SWAP1 POP DUP2 DUP1 PUSH2 0x30B5 SWAP1 PUSH2 0x4A55 JUMP JUMPDEST SWAP3 POP POP PUSH2 0x3087 JUMP JUMPDEST PUSH2 0x30DC DUP3 PUSH1 0xA PUSH2 0x30CD SWAP2 SWAP1 PUSH2 0x474C JUMP JUMPDEST DUP6 PUSH2 0x3140 SWAP1 SWAP2 SWAP1 PUSH4 0xFFFFFFFF AND JUMP JUMPDEST SWAP3 POP POP POP SWAP3 SWAP2 POP POP JUMP JUMPDEST PUSH1 0x0 DUP1 PUSH2 0x30F3 DUP6 DUP8 PUSH2 0x307E JUMP JUMPDEST SWAP1 POP PUSH1 0x0 PUSH2 0x310A DUP3 DUP7 PUSH2 0x3140 SWAP1 SWAP2 SWAP1 PUSH4 0xFFFFFFFF AND JUMP JUMPDEST SWAP1 POP PUSH2 0x3131 PUSH2 0x3122 DUP8 DUP7 PUSH2 0x3140 SWAP1 SWAP2 SWAP1 PUSH4 0xFFFFFFFF AND JUMP JUMPDEST DUP3 PUSH2 0x2AC1 SWAP1 SWAP2 SWAP1 PUSH4 0xFFFFFFFF AND JUMP JUMPDEST SWAP1 POP DUP1 SWAP3 POP POP POP SWAP5 SWAP4 POP POP POP POP JUMP JUMPDEST PUSH1 0x0 DUP1 DUP4 EQ ISZERO PUSH2 0x3153 JUMPI PUSH1 0x0 SWAP1 POP PUSH2 0x31B5 JUMP JUMPDEST PUSH1 0x0 DUP3 DUP5 PUSH2 0x3161 SWAP2 SWAP1 PUSH2 0x486A JUMP JUMPDEST SWAP1 POP DUP3 DUP5 DUP3 PUSH2 0x3170 SWAP2 SWAP1 PUSH2 0x46C8 JUMP JUMPDEST EQ PUSH2 0x31B0 JUMPI PUSH1 0x40 MLOAD PUSH32 0x8C379A000000000000000000000000000000000000000000000000000000000 DUP2 MSTORE PUSH1 0x4 ADD PUSH2 0x31A7 SWAP1 PUSH2 0x444E JUMP JUMPDEST PUSH1 0x40 MLOAD DUP1 SWAP2 SUB SWAP1 REVERT JUMPDEST DUP1 SWAP2 POP POP JUMPDEST SWAP3 SWAP2 POP POP JUMP JUMPDEST PUSH2 0x31C5 DUP3 DUP3 PUSH2 0x1D70 JUMP JUMPDEST PUSH2 0x323C JUMPI PUSH2 0x31D2 DUP2 PUSH2 0x33AC JUMP JUMPDEST PUSH2 0x31E0 DUP4 PUSH1 0x0 SHR PUSH1 0x20 PUSH2 0x33D9 JUMP JUMPDEST PUSH1 0x40 MLOAD PUSH1 0x20 ADD PUSH2 0x31F1 SWAP3 SWAP2 SWAP1 PUSH2 0x427B JUMP JUMPDEST PUSH1 0x40 MLOAD PUSH1 0x20 DUP2 DUP4 SUB SUB DUP2 MSTORE SWAP1 PUSH1 0x40 MSTORE PUSH1 0x40 MLOAD PUSH32 0x8C379A000000000000000000000000000000000000000000000000000000000 DUP2 MSTORE PUSH1 0x4 ADD PUSH2 0x3233 SWAP2 SWAP1 PUSH2 0x43AC JUMP JUMPDEST PUSH1 0x40 MLOAD DUP1 SWAP2 SUB SWAP1 REVERT JUMPDEST POP POP JUMP JUMPDEST PUSH2 0x3248 PUSH2 0x3A42 JUMP JUMPDEST PUSH1 0x0 PUSH1 0x20 DUP4 ADD SWAP1 POP PUSH1 0x40 MLOAD DUP1 PUSH1 0x40 ADD PUSH1 0x40 MSTORE DUP1 DUP5 MLOAD DUP2 MSTORE PUSH1 0x20 ADD DUP3 DUP2 MSTORE POP SWAP2 POP POP SWAP2 SWAP1 POP JUMP JUMPDEST PUSH1 0x0 DUP1 DUP3 PUSH1 0x0 ADD MLOAD PUSH2 0x3292 DUP6 PUSH1 0x0 ADD MLOAD DUP7 PUSH1 0x20 ADD MLOAD DUP7 PUSH1 0x0 ADD MLOAD DUP8 PUSH1 0x20 ADD MLOAD PUSH2 0x3615 JUMP JUMPDEST PUSH2 0x329C SWAP2 SWAP1 PUSH2 0x4672 JUMP JUMPDEST SWAP1 POP JUMPDEST DUP4 PUSH1 0x0 ADD MLOAD DUP5 PUSH1 0x20 ADD MLOAD PUSH2 0x32B3 SWAP2 SWAP1 PUSH2 0x4672 JUMP JUMPDEST DUP2 GT PUSH2 0x330F JUMPI DUP2 DUP1 PUSH2 0x32C4 SWAP1 PUSH2 0x4A55 JUMP JUMPDEST SWAP3 POP POP DUP3 PUSH1 0x0 ADD MLOAD PUSH2 0x32FE DUP6 PUSH1 0x20 ADD MLOAD DUP4 PUSH2 0x32DF SWAP2 SWAP1 PUSH2 0x48C4 JUMP JUMPDEST DUP7 PUSH1 0x0 ADD MLOAD PUSH2 0x32EE SWAP2 SWAP1 PUSH2 0x48C4 JUMP JUMPDEST DUP4 DUP7 PUSH1 0x0 ADD MLOAD DUP8 PUSH1 0x20 ADD MLOAD PUSH2 0x3615 JUMP JUMPDEST PUSH2 0x3308 SWAP2 SWAP1 PUSH2 0x4672 JUMP JUMPDEST SWAP1 POP PUSH2 0x329F JUMP JUMPDEST POP SWAP3 SWAP2 POP POP JUMP JUMPDEST PUSH2 0x331E PUSH2 0x3A42 JUMP JUMPDEST PUSH2 0x3329 DUP4 DUP4 DUP4 PUSH2 0x3756 JUMP JUMPDEST POP SWAP3 SWAP2 POP POP JUMP JUMPDEST PUSH1 0x60 PUSH1 0x0 DUP3 PUSH1 0x0 ADD MLOAD PUSH8 0xFFFFFFFFFFFFFFFF DUP2 GT ISZERO PUSH2 0x3352 JUMPI PUSH2 0x3351 PUSH2 0x4B89 JUMP JUMPDEST JUMPDEST PUSH1 0x40 MLOAD SWAP1 DUP1 DUP3 MSTORE DUP1 PUSH1 0x1F ADD PUSH1 0x1F NOT AND PUSH1 0x20 ADD DUP3 ADD PUSH1 0x40 MSTORE DUP1 ISZERO PUSH2 0x3384 JUMPI DUP2 PUSH1 0x20 ADD PUSH1 0x1 DUP3 MUL DUP1 CALLDATASIZE DUP4 CALLDATACOPY DUP1 DUP3 ADD SWAP2 POP POP SWAP1 POP JUMPDEST POP SWAP1 POP PUSH1 0x0 PUSH1 0x20 DUP3 ADD SWAP1 POP PUSH2 0x33A2 DUP2 DUP6 PUSH1 0x20 ADD MLOAD DUP7 PUSH1 0x0 ADD MLOAD PUSH2 0x3821 JUMP JUMPDEST DUP2 SWAP3 POP POP POP SWAP2 SWAP1 POP JUMP JUMPDEST PUSH1 0x60 PUSH2 0x33D2 DUP3 PUSH20 0xFFFFFFFFFFFFFFFFFFFFFFFFFFFFFFFFFFFFFFFF AND PUSH1 0x14 PUSH1 0xFF AND PUSH2 0x33D9 JUMP JUMPDEST SWAP1 POP SWAP2 SWAP1 POP JUMP JUMPDEST PUSH1 0x60 PUSH1 0x0 PUSH1 0x2 DUP4 PUSH1 0x2 PUSH2 0x33EC SWAP2 SWAP1 PUSH2 0x486A JUMP JUMPDEST PUSH2 0x33F6 SWAP2 SWAP1 PUSH2 0x4672 JUMP JUMPDEST PUSH8 0xFFFFFFFFFFFFFFFF DUP2 GT ISZERO PUSH2 0x340F JUMPI PUSH2 0x340E PUSH2 0x4B89 JUMP JUMPDEST JUMPDEST PUSH1 0x40 MLOAD SWAP1 DUP1 DUP3 MSTORE DUP1 PUSH1 0x1F ADD PUSH1 0x1F NOT AND PUSH1 0x20 ADD DUP3 ADD PUSH1 0x40 MSTORE DUP1 ISZERO PUSH2 0x3441 JUMPI DUP2 PUSH1 0x20 ADD PUSH1 0x1 DUP3 MUL DUP1 CALLDATASIZE DUP4 CALLDATACOPY DUP1 DUP3 ADD SWAP2 POP POP SWAP1 POP JUMPDEST POP SWAP1 POP PUSH32 0x3000000000000000000000000000000000000000000000000000000000000000 DUP2 PUSH1 0x0 DUP2 MLOAD DUP2 LT PUSH2 0x3479 JUMPI PUSH2 0x3478 PUSH2 0x4B5A JUMP JUMPDEST JUMPDEST PUSH1 0x20 ADD ADD SWAP1 PUSH31 0xFFFFFFFFFFFFFFFFFFFFFFFFFFFFFFFFFFFFFFFFFFFFFFFFFFFFFFFFFFFFFF NOT AND SWAP1 DUP2 PUSH1 0x0 BYTE SWAP1 MSTORE8 POP PUSH32 0x7800000000000000000000000000000000000000000000000000000000000000 DUP2 PUSH1 0x1 DUP2 MLOAD DUP2 LT PUSH2 0x34DD JUMPI PUSH2 0x34DC PUSH2 0x4B5A JUMP JUMPDEST JUMPDEST PUSH1 0x20 ADD ADD SWAP1 PUSH31 0xFFFFFFFFFFFFFFFFFFFFFFFFFFFFFFFFFFFFFFFFFFFFFFFFFFFFFFFFFFFFFF NOT AND SWAP1 DUP2 PUSH1 0x0 BYTE SWAP1 MSTORE8 POP PUSH1 0x0 PUSH1 0x1 DUP5 PUSH1 0x2 PUSH2 0x351D SWAP2 SWAP1 PUSH2 0x486A JUMP JUMPDEST PUSH2 0x3527 SWAP2 SWAP1 PUSH2 0x4672 JUMP JUMPDEST SWAP1 POP JUMPDEST PUSH1 0x1 DUP2 GT ISZERO PUSH2 0x35C7 JUMPI PUSH32 0x3031323334353637383961626364656600000000000000000000000000000000 PUSH1 0xF DUP7 AND PUSH1 0x10 DUP2 LT PUSH2 0x3569 JUMPI PUSH2 0x3568 PUSH2 0x4B5A JUMP JUMPDEST JUMPDEST BYTE PUSH1 0xF8 SHL DUP3 DUP3 DUP2 MLOAD DUP2 LT PUSH2 0x3580 JUMPI PUSH2 0x357F PUSH2 0x4B5A JUMP JUMPDEST JUMPDEST PUSH1 0x20 ADD ADD SWAP1 PUSH31 0xFFFFFFFFFFFFFFFFFFFFFFFFFFFFFFFFFFFFFFFFFFFFFFFFFFFFFFFFFFFFFF NOT AND SWAP1 DUP2 PUSH1 0x0 BYTE SWAP1 MSTORE8 POP PUSH1 0x4 DUP6 SWAP1 SHR SWAP5 POP DUP1 PUSH2 0x35C0 SWAP1 PUSH2 0x49F9 JUMP JUMPDEST SWAP1 POP PUSH2 0x352A JUMP JUMPDEST POP PUSH1 0x0 DUP5 EQ PUSH2 0x360B JUMPI PUSH1 0x40 MLOAD PUSH32 0x8C379A000000000000000000000000000000000000000000000000000000000 DUP2 MSTORE PUSH1 0x4 ADD PUSH2 0x3602 SWAP1 PUSH2 0x43CE JUMP JUMPDEST PUSH1 0x40 MLOAD DUP1 SWAP2 SUB SWAP1 REVERT JUMPDEST DUP1 SWAP2 POP POP SWAP3 SWAP2 POP POP JUMP JUMPDEST PUSH1 0x0 DUP1 DUP5 SWAP1 POP PUSH1 0x0 DUP7 DUP6 GT PUSH2 0x373D JUMPI PUSH1 0x20 DUP6 GT PUSH2 0x36DF JUMPI PUSH1 0x0 PUSH1 0x1 DUP7 PUSH1 0x20 PUSH2 0x363D SWAP2 SWAP1 PUSH2 0x48C4 JUMP JUMPDEST PUSH1 0x8 PUSH2 0x3649 SWAP2 SWAP1 PUSH2 0x486A JUMP JUMPDEST PUSH1 0x2 PUSH2 0x3655 SWAP2 SWAP1 PUSH2 0x474C JUMP JUMPDEST PUSH2 0x365F SWAP2 SWAP1 PUSH2 0x48C4 JUMP JUMPDEST NOT PUSH1 0x0 SHL SWAP1 POP PUSH1 0x0 DUP2 DUP7 MLOAD AND SWAP1 POP PUSH1 0x0 DUP8 DUP11 DUP11 PUSH2 0x367C SWAP2 SWAP1 PUSH2 0x4672 JUMP JUMPDEST PUSH2 0x3686 SWAP2 SWAP1 PUSH2 0x48C4 JUMP JUMPDEST SWAP1 POP PUSH1 0x0 DUP4 DUP7 MLOAD AND SWAP1 POP JUMPDEST DUP3 DUP2 EQ PUSH2 0x36D1 JUMPI DUP2 DUP7 LT PUSH2 0x36B8 JUMPI DUP11 DUP11 PUSH2 0x36AB SWAP2 SWAP1 PUSH2 0x4672 JUMP JUMPDEST SWAP7 POP POP POP POP POP POP POP PUSH2 0x374E JUMP JUMPDEST DUP6 DUP1 PUSH2 0x36C3 SWAP1 PUSH2 0x4A55 JUMP JUMPDEST SWAP7 POP POP DUP4 DUP7 MLOAD AND SWAP1 POP PUSH2 0x3691 JUMP JUMPDEST DUP6 SWAP7 POP POP POP POP POP POP POP PUSH2 0x374E JUMP JUMPDEST PUSH1 0x0 DUP6 DUP6 KECCAK256 SWAP1 POP PUSH1 0x0 SWAP2 POP JUMPDEST DUP6 DUP9 PUSH2 0x36F7 SWAP2 SWAP1 PUSH2 0x48C4 JUMP JUMPDEST DUP3 GT PUSH2 0x373B JUMPI PUSH1 0x0 DUP7 DUP5 KECCAK256 SWAP1 POP DUP1 DUP3 EQ ISZERO PUSH2 0x3718 JUMPI DUP4 SWAP5 POP POP POP POP POP PUSH2 0x374E JUMP JUMPDEST PUSH1 0x1 DUP5 PUSH2 0x3725 SWAP2 SWAP1 PUSH2 0x4672 JUMP JUMPDEST SWAP4 POP POP DUP2 DUP1 PUSH2 0x3733 SWAP1 PUSH2 0x4A55 JUMP JUMPDEST SWAP3 POP POP PUSH2 0x36EB JUMP JUMPDEST POP JUMPDEST DUP7 DUP7 PUSH2 0x3749 SWAP2 SWAP1 PUSH2 0x4672 JUMP JUMPDEST SWAP3 POP POP POP JUMPDEST SWAP5 SWAP4 POP POP POP POP JUMP JUMPDEST PUSH2 0x375E PUSH2 0x3A42 JUMP JUMPDEST PUSH1 0x0 PUSH2 0x377C DUP6 PUSH1 0x0 ADD MLOAD DUP7 PUSH1 0x20 ADD MLOAD DUP7 PUSH1 0x0 ADD MLOAD DUP8 PUSH1 0x20 ADD MLOAD PUSH2 0x3615 JUMP JUMPDEST SWAP1 POP DUP5 PUSH1 0x20 ADD MLOAD DUP4 PUSH1 0x20 ADD DUP2 DUP2 MSTORE POP POP DUP5 PUSH1 0x20 ADD MLOAD DUP2 PUSH2 0x379C SWAP2 SWAP1 PUSH2 0x48C4 JUMP JUMPDEST DUP4 PUSH1 0x0 ADD DUP2 DUP2 MSTORE POP POP DUP5 PUSH1 0x0 ADD MLOAD DUP6 PUSH1 0x20 ADD MLOAD PUSH2 0x37B9 SWAP2 SWAP1 PUSH2 0x4672 JUMP JUMPDEST DUP2 EQ ISZERO PUSH2 0x37D0 JUMPI PUSH1 0x0 DUP6 PUSH1 0x0 ADD DUP2 DUP2 MSTORE POP POP PUSH2 0x3816 JUMP JUMPDEST DUP4 PUSH1 0x0 ADD MLOAD DUP4 PUSH1 0x0 ADD MLOAD PUSH2 0x37E4 SWAP2 SWAP1 PUSH2 0x4672 JUMP JUMPDEST DUP6 PUSH1 0x0 ADD DUP2 DUP2 MLOAD PUSH2 0x37F5 SWAP2 SWAP1 PUSH2 0x48C4 JUMP JUMPDEST SWAP2 POP DUP2 DUP2 MSTORE POP POP DUP4 PUSH1 0x0 ADD MLOAD DUP2 PUSH2 0x380C SWAP2 SWAP1 PUSH2 0x4672 JUMP JUMPDEST DUP6 PUSH1 0x20 ADD DUP2 DUP2 MSTORE POP POP JUMPDEST DUP3 SWAP2 POP POP SWAP4 SWAP3 POP POP POP JUMP JUMPDEST JUMPDEST PUSH1 0x20 DUP2 LT PUSH2 0x3860 JUMPI DUP2 MLOAD DUP4 MSTORE PUSH1 0x20 DUP4 PUSH2 0x383B SWAP2 SWAP1 PUSH2 0x4672 JUMP JUMPDEST SWAP3 POP PUSH1 0x20 DUP3 PUSH2 0x384A SWAP2 SWAP1 PUSH2 0x4672 JUMP JUMPDEST SWAP2 POP PUSH1 0x20 DUP2 PUSH2 0x3859 SWAP2 SWAP1 PUSH2 0x48C4 JUMP JUMPDEST SWAP1 POP PUSH2 0x3822 JUMP JUMPDEST PUSH1 0x0 PUSH1 0x1 DUP3 PUSH1 0x20 PUSH2 0x3871 SWAP2 SWAP1 PUSH2 0x48C4 JUMP JUMPDEST PUSH2 0x100 PUSH2 0x387E SWAP2 SWAP1 PUSH2 0x474C JUMP JUMPDEST PUSH2 0x3888 SWAP2 SWAP1 PUSH2 0x48C4 JUMP JUMPDEST SWAP1 POP DUP1 NOT DUP4 MLOAD AND DUP2 DUP6 MLOAD AND DUP2 DUP2 OR DUP7 MSTORE POP POP POP POP POP POP JUMP JUMPDEST DUP3 DUP1 SLOAD PUSH2 0x38AC SWAP1 PUSH2 0x4A23 JUMP JUMPDEST SWAP1 PUSH1 0x0 MSTORE PUSH1 0x20 PUSH1 0x0 KECCAK256 SWAP1 PUSH1 0x1F ADD PUSH1 0x20 SWAP1 DIV DUP2 ADD SWAP3 DUP3 PUSH2 0x38CE JUMPI PUSH1 0x0 DUP6 SSTORE PUSH2 0x3915 JUMP JUMPDEST DUP3 PUSH1 0x1F LT PUSH2 0x38E7 JUMPI DUP1 CALLDATALOAD PUSH1 0xFF NOT AND DUP4 DUP1 ADD OR DUP6 SSTORE PUSH2 0x3915 JUMP JUMPDEST DUP3 DUP1 ADD PUSH1 0x1 ADD DUP6 SSTORE DUP3 ISZERO PUSH2 0x3915 JUMPI SWAP2 DUP3 ADD JUMPDEST DUP3 DUP2 GT ISZERO PUSH2 0x3914 JUMPI DUP3 CALLDATALOAD DUP3 SSTORE SWAP2 PUSH1 0x20 ADD SWAP2 SWAP1 PUSH1 0x1 ADD SWAP1 PUSH2 0x38F9 JUMP JUMPDEST JUMPDEST POP SWAP1 POP PUSH2 0x3922 SWAP2 SWAP1 PUSH2 0x3A5C JUMP JUMPDEST POP SWAP1 JUMP JUMPDEST DUP3 DUP1 SLOAD PUSH2 0x3932 SWAP1 PUSH2 0x4A23 JUMP JUMPDEST SWAP1 PUSH1 0x0 MSTORE PUSH1 0x20 PUSH1 0x0 KECCAK256 SWAP1 PUSH1 0x1F ADD PUSH1 0x20 SWAP1 DIV DUP2 ADD SWAP3 DUP3 PUSH2 0x3954 JUMPI PUSH1 0x0 DUP6 SSTORE PUSH2 0x399B JUMP JUMPDEST DUP3 PUSH1 0x1F LT PUSH2 0x396D JUMPI DUP1 MLOAD PUSH1 0xFF NOT AND DUP4 DUP1 ADD OR DUP6 SSTORE PUSH2 0x399B JUMP JUMPDEST DUP3 DUP1 ADD PUSH1 0x1 ADD DUP6 SSTORE DUP3 ISZERO PUSH2 0x399B JUMPI SWAP2 DUP3 ADD JUMPDEST DUP3 DUP2 GT ISZERO PUSH2 0x399A JUMPI DUP3 MLOAD DUP3 SSTORE SWAP2 PUSH1 0x20 ADD SWAP2 SWAP1 PUSH1 0x1 ADD SWAP1 PUSH2 0x397F JUMP JUMPDEST JUMPDEST POP SWAP1 POP PUSH2 0x39A8 SWAP2 SWAP1 PUSH2 0x3A5C JUMP JUMPDEST POP SWAP1 JUMP JUMPDEST DUP3 DUP1 SLOAD DUP3 DUP3 SSTORE SWAP1 PUSH1 0x0 MSTORE PUSH1 0x20 PUSH1 0x0 KECCAK256 SWAP1 DUP2 ADD SWAP3 DUP3 ISZERO PUSH2 0x39FB JUMPI SWAP2 PUSH1 0x20 MUL DUP3 ADD JUMPDEST DUP3 DUP2 GT ISZERO PUSH2 0x39FA JUMPI DUP3 MLOAD DUP3 SWAP1 DUP1 MLOAD SWAP1 PUSH1 0x20 ADD SWAP1 PUSH2 0x39EA SWAP3 SWAP2 SWAP1 PUSH2 0x3926 JUMP JUMPDEST POP SWAP2 PUSH1 0x20 ADD SWAP2 SWAP1 PUSH1 0x1 ADD SWAP1 PUSH2 0x39CC JUMP JUMPDEST JUMPDEST POP SWAP1 POP PUSH2 0x3A08 SWAP2 SWAP1 PUSH2 0x3A79 JUMP JUMPDEST POP SWAP1 JUMP JUMPDEST PUSH1 0x40 MLOAD DUP1 PUSH1 0xC0 ADD PUSH1 0x40 MSTORE DUP1 PUSH1 0x0 DUP2 MSTORE PUSH1 0x20 ADD PUSH1 0x0 DUP2 MSTORE PUSH1 0x20 ADD PUSH1 0x0 DUP2 MSTORE PUSH1 0x20 ADD PUSH1 0x0 DUP2 MSTORE PUSH1 0x20 ADD PUSH1 0x0 DUP2 MSTORE PUSH1 0x20 ADD PUSH1 0x0 DUP2 MSTORE POP SWAP1 JUMP JUMPDEST PUSH1 0x40 MLOAD DUP1 PUSH1 0x40 ADD PUSH1 0x40 MSTORE DUP1 PUSH1 0x0 DUP2 MSTORE PUSH1 0x20 ADD PUSH1 0x0 DUP2 MSTORE POP SWAP1 JUMP JUMPDEST JUMPDEST DUP1 DUP3 GT ISZERO PUSH2 0x3A75 JUMPI PUSH1 0x0 DUP2 PUSH1 0x0 SWAP1 SSTORE POP PUSH1 0x1 ADD PUSH2 0x3A5D JUMP JUMPDEST POP SWAP1 JUMP JUMPDEST JUMPDEST DUP1 DUP3 GT ISZERO PUSH2 0x3A99 JUMPI PUSH1 0x0 DUP2 DUP2 PUSH2 0x3A90 SWAP2 SWAP1 PUSH2 0x3A9D JUMP JUMPDEST POP PUSH1 0x1 ADD PUSH2 0x3A7A JUMP JUMPDEST POP SWAP1 JUMP JUMPDEST POP DUP1 SLOAD PUSH2 0x3AA9 SWAP1 PUSH2 0x4A23 JUMP JUMPDEST PUSH1 0x0 DUP3 SSTORE DUP1 PUSH1 0x1F LT PUSH2 0x3ABB JUMPI POP PUSH2 0x3ADA JUMP JUMPDEST PUSH1 0x1F ADD PUSH1 0x20 SWAP1 DIV SWAP1 PUSH1 0x0 MSTORE PUSH1 0x20 PUSH1 0x0 KECCAK256 SWAP1 DUP2 ADD SWAP1 PUSH2 0x3AD9 SWAP2 SWAP1 PUSH2 0x3A5C JUMP JUMPDEST JUMPDEST POP JUMP JUMPDEST PUSH1 0x0 DUP2 CALLDATALOAD SWAP1 POP PUSH2 0x3AEC DUP2 PUSH2 0x4F0B JUMP JUMPDEST SWAP3 SWAP2 POP POP JUMP JUMPDEST PUSH1 0x0 DUP2 CALLDATALOAD SWAP1 POP PUSH2 0x3B01 DUP2 PUSH2 0x4F22 JUMP JUMPDEST SWAP3 SWAP2 POP POP JUMP JUMPDEST PUSH1 0x0 DUP2 CALLDATALOAD SWAP1 POP PUSH2 0x3B16 DUP2 PUSH2 0x4F39 JUMP JUMPDEST SWAP3 SWAP2 POP POP JUMP JUMPDEST PUSH1 0x0 DUP1 DUP4 PUSH1 0x1F DUP5 ADD SLT PUSH2 0x3B32 JUMPI PUSH2 0x3B31 PUSH2 0x4BBD JUMP JUMPDEST JUMPDEST DUP3 CALLDATALOAD SWAP1 POP PUSH8 0xFFFFFFFFFFFFFFFF DUP2 GT ISZERO PUSH2 0x3B4F JUMPI PUSH2 0x3B4E PUSH2 0x4BB8 JUMP JUMPDEST JUMPDEST PUSH1 0x20 DUP4 ADD SWAP2 POP DUP4 PUSH1 0x1 DUP3 MUL DUP4 ADD GT ISZERO PUSH2 0x3B6B JUMPI PUSH2 0x3B6A PUSH2 0x4BC2 JUMP JUMPDEST JUMPDEST SWAP3 POP SWAP3 SWAP1 POP JUMP JUMPDEST PUSH1 0x0 DUP2 CALLDATALOAD SWAP1 POP PUSH2 0x3B81 DUP2 PUSH2 0x4F50 JUMP JUMPDEST SWAP3 SWAP2 POP POP JUMP JUMPDEST PUSH1 0x0 PUSH1 0x20 DUP3 DUP5 SUB SLT ISZERO PUSH2 0x3B9D JUMPI PUSH2 0x3B9C PUSH2 0x4BCC JUMP JUMPDEST JUMPDEST PUSH1 0x0 PUSH2 0x3BAB DUP5 DUP3 DUP6 ADD PUSH2 0x3ADD JUMP JUMPDEST SWAP2 POP POP SWAP3 SWAP2 POP POP JUMP JUMPDEST PUSH1 0x0 PUSH1 0x20 DUP3 DUP5 SUB SLT ISZERO PUSH2 0x3BCA JUMPI PUSH2 0x3BC9 PUSH2 0x4BCC JUMP JUMPDEST JUMPDEST PUSH1 0x0 PUSH2 0x3BD8 DUP5 DUP3 DUP6 ADD PUSH2 0x3AF2 JUMP JUMPDEST SWAP2 POP POP SWAP3 SWAP2 POP POP JUMP JUMPDEST PUSH1 0x0 DUP1 PUSH1 0x40 DUP4 DUP6 SUB SLT ISZERO PUSH2 0x3BF8 JUMPI PUSH2 0x3BF7 PUSH2 0x4BCC JUMP JUMPDEST JUMPDEST PUSH1 0x0 PUSH2 0x3C06 DUP6 DUP3 DUP7 ADD PUSH2 0x3AF2 JUMP JUMPDEST SWAP3 POP POP PUSH1 0x20 PUSH2 0x3C17 DUP6 DUP3 DUP7 ADD PUSH2 0x3ADD JUMP JUMPDEST SWAP2 POP POP SWAP3 POP SWAP3 SWAP1 POP JUMP JUMPDEST PUSH1 0x0 PUSH1 0x20 DUP3 DUP5 SUB SLT ISZERO PUSH2 0x3C37 JUMPI PUSH2 0x3C36 PUSH2 0x4BCC JUMP JUMPDEST JUMPDEST PUSH1 0x0 PUSH2 0x3C45 DUP5 DUP3 DUP6 ADD PUSH2 0x3B07 JUMP JUMPDEST SWAP2 POP POP SWAP3 SWAP2 POP POP JUMP JUMPDEST PUSH1 0x0 DUP1 PUSH1 0x0 DUP1 PUSH1 0x0 DUP1 PUSH1 0x0 DUP1 PUSH1 0xA0 DUP10 DUP12 SUB SLT ISZERO PUSH2 0x3C6E JUMPI PUSH2 0x3C6D PUSH2 0x4BCC JUMP JUMPDEST JUMPDEST PUSH1 0x0 DUP10 ADD CALLDATALOAD PUSH8 0xFFFFFFFFFFFFFFFF DUP2 GT ISZERO PUSH2 0x3C8C JUMPI PUSH2 0x3C8B PUSH2 0x4BC7 JUMP JUMPDEST JUMPDEST PUSH2 0x3C98 DUP12 DUP3 DUP13 ADD PUSH2 0x3B1C JUMP JUMPDEST SWAP9 POP SWAP9 POP POP PUSH1 0x20 DUP10 ADD CALLDATALOAD PUSH8 0xFFFFFFFFFFFFFFFF DUP2 GT ISZERO PUSH2 0x3CBB JUMPI PUSH2 0x3CBA PUSH2 0x4BC7 JUMP JUMPDEST JUMPDEST PUSH2 0x3CC7 DUP12 DUP3 DUP13 ADD PUSH2 0x3B1C JUMP JUMPDEST SWAP7 POP SWAP7 POP POP PUSH1 0x40 PUSH2 0x3CDA DUP12 DUP3 DUP13 ADD PUSH2 0x3B72 JUMP JUMPDEST SWAP5 POP POP PUSH1 0x60 PUSH2 0x3CEB DUP12 DUP3 DUP13 ADD PUSH2 0x3B72 JUMP JUMPDEST SWAP4 POP POP PUSH1 0x80 DUP10 ADD CALLDATALOAD PUSH8 0xFFFFFFFFFFFFFFFF DUP2 GT ISZERO PUSH2 0x3D0C JUMPI PUSH2 0x3D0B PUSH2 0x4BC7 JUMP JUMPDEST JUMPDEST PUSH2 0x3D18 DUP12 DUP3 DUP13 ADD PUSH2 0x3B1C JUMP JUMPDEST SWAP3 POP SWAP3 POP POP SWAP3 SWAP6 SWAP9 POP SWAP3 SWAP6 SWAP9 SWAP1 SWAP4 SWAP7 POP JUMP JUMPDEST PUSH1 0x0 PUSH1 0x20 DUP3 DUP5 SUB SLT ISZERO PUSH2 0x3D40 JUMPI PUSH2 0x3D3F PUSH2 0x4BCC JUMP JUMPDEST JUMPDEST PUSH1 0x0 PUSH2 0x3D4E DUP5 DUP3 DUP6 ADD PUSH2 0x3B72 JUMP JUMPDEST SWAP2 POP POP SWAP3 SWAP2 POP POP JUMP JUMPDEST PUSH1 0x0 DUP1 PUSH1 0x40 DUP4 DUP6 SUB SLT ISZERO PUSH2 0x3D6E JUMPI PUSH2 0x3D6D PUSH2 0x4BCC JUMP JUMPDEST JUMPDEST PUSH1 0x0 PUSH2 0x3D7C DUP6 DUP3 DUP7 ADD PUSH2 0x3B72 JUMP JUMPDEST SWAP3 POP POP PUSH1 0x20 PUSH2 0x3D8D DUP6 DUP3 DUP7 ADD PUSH2 0x3ADD JUMP JUMPDEST SWAP2 POP POP SWAP3 POP SWAP3 SWAP1 POP JUMP JUMPDEST PUSH1 0x0 DUP1 PUSH1 0x40 DUP4 DUP6 SUB SLT ISZERO PUSH2 0x3DAE JUMPI PUSH2 0x3DAD PUSH2 0x4BCC JUMP JUMPDEST JUMPDEST PUSH1 0x0 PUSH2 0x3DBC DUP6 DUP3 DUP7 ADD PUSH2 0x3B72 JUMP JUMPDEST SWAP3 POP POP PUSH1 0x20 PUSH2 0x3DCD DUP6 DUP3 DUP7 ADD PUSH2 0x3AF2 JUMP JUMPDEST SWAP2 POP POP SWAP3 POP SWAP3 SWAP1 POP JUMP JUMPDEST PUSH1 0x0 DUP1 PUSH1 0x0 DUP1 PUSH1 0x0 PUSH1 0x60 DUP7 DUP9 SUB SLT ISZERO PUSH2 0x3DF3 JUMPI PUSH2 0x3DF2 PUSH2 0x4BCC JUMP JUMPDEST JUMPDEST PUSH1 0x0 PUSH2 0x3E01 DUP9 DUP3 DUP10 ADD PUSH2 0x3B72 JUMP JUMPDEST SWAP6 POP POP PUSH1 0x20 DUP7 ADD CALLDATALOAD PUSH8 0xFFFFFFFFFFFFFFFF DUP2 GT ISZERO PUSH2 0x3E22 JUMPI PUSH2 0x3E21 PUSH2 0x4BC7 JUMP JUMPDEST JUMPDEST PUSH2 0x3E2E DUP9 DUP3 DUP10 ADD PUSH2 0x3B1C JUMP JUMPDEST SWAP5 POP SWAP5 POP POP PUSH1 0x40 DUP7 ADD CALLDATALOAD PUSH8 0xFFFFFFFFFFFFFFFF DUP2 GT ISZERO PUSH2 0x3E51 JUMPI PUSH2 0x3E50 PUSH2 0x4BC7 JUMP JUMPDEST JUMPDEST PUSH2 0x3E5D DUP9 DUP3 DUP10 ADD PUSH2 0x3B1C JUMP JUMPDEST SWAP3 POP SWAP3 POP POP SWAP3 SWAP6 POP SWAP3 SWAP6 SWAP1 SWAP4 POP JUMP JUMPDEST PUSH1 0x0 DUP1 PUSH1 0x40 DUP4 DUP6 SUB SLT ISZERO PUSH2 0x3E83 JUMPI PUSH2 0x3E82 PUSH2 0x4BCC JUMP JUMPDEST JUMPDEST PUSH1 0x0 PUSH2 0x3E91 DUP6 DUP3 DUP7 ADD PUSH2 0x3B72 JUMP JUMPDEST SWAP3 POP POP PUSH1 0x20 PUSH2 0x3EA2 DUP6 DUP3 DUP7 ADD PUSH2 0x3B72 JUMP JUMPDEST SWAP2 POP POP SWAP3 POP SWAP3 SWAP1 POP JUMP JUMPDEST PUSH1 0x0 PUSH2 0x3EB8 DUP4 DUP4 PUSH2 0x3FFD JUMP JUMPDEST SWAP1 POP SWAP3 SWAP2 POP POP JUMP JUMPDEST PUSH1 0x0 PUSH2 0x3ECC DUP4 DUP4 PUSH2 0x4244 JUMP JUMPDEST PUSH1 0x20 DUP4 ADD SWAP1 POP SWAP3 SWAP2 POP POP JUMP JUMPDEST PUSH2 0x3EE1 DUP2 PUSH2 0x492C JUMP JUMPDEST DUP3 MSTORE POP POP JUMP JUMPDEST PUSH1 0x0 PUSH2 0x3EF2 DUP3 PUSH2 0x45E8 JUMP JUMPDEST PUSH2 0x3EFC DUP2 DUP6 PUSH2 0x4623 JUMP JUMPDEST SWAP4 POP DUP4 PUSH1 0x20 DUP3 MUL DUP6 ADD PUSH2 0x3F0E DUP6 PUSH2 0x45C8 JUMP JUMPDEST DUP1 PUSH1 0x0 JUMPDEST DUP6 DUP2 LT ISZERO PUSH2 0x3F4A JUMPI DUP5 DUP5 SUB DUP10 MSTORE DUP2 MLOAD PUSH2 0x3F2B DUP6 DUP3 PUSH2 0x3EAC JUMP JUMPDEST SWAP5 POP PUSH2 0x3F36 DUP4 PUSH2 0x4609 JUMP JUMPDEST SWAP3 POP PUSH1 0x20 DUP11 ADD SWAP10 POP POP PUSH1 0x1 DUP2 ADD SWAP1 POP PUSH2 0x3F12 JUMP JUMPDEST POP DUP3 SWAP8 POP DUP8 SWAP6 POP POP POP POP POP POP SWAP3 SWAP2 POP POP JUMP JUMPDEST PUSH1 0x0 PUSH2 0x3F67 DUP3 PUSH2 0x45F3 JUMP JUMPDEST PUSH2 0x3F71 DUP2 DUP6 PUSH2 0x4634 JUMP JUMPDEST SWAP4 POP PUSH2 0x3F7C DUP4 PUSH2 0x45D8 JUMP JUMPDEST DUP1 PUSH1 0x0 JUMPDEST DUP4 DUP2 LT ISZERO PUSH2 0x3FAD JUMPI DUP2 MLOAD PUSH2 0x3F94 DUP9 DUP3 PUSH2 0x3EC0 JUMP JUMPDEST SWAP8 POP PUSH2 0x3F9F DUP4 PUSH2 0x4616 JUMP JUMPDEST SWAP3 POP POP PUSH1 0x1 DUP2 ADD SWAP1 POP PUSH2 0x3F80 JUMP JUMPDEST POP DUP6 SWAP4 POP POP POP POP SWAP3 SWAP2 POP POP JUMP JUMPDEST PUSH2 0x3FC3 DUP2 PUSH2 0x493E JUMP JUMPDEST DUP3 MSTORE POP POP JUMP JUMPDEST PUSH2 0x3FD2 DUP2 PUSH2 0x494A JUMP JUMPDEST DUP3 MSTORE POP POP JUMP JUMPDEST PUSH1 0x0 PUSH2 0x3FE4 DUP4 DUP6 PUSH2 0x4667 JUMP JUMPDEST SWAP4 POP PUSH2 0x3FF1 DUP4 DUP6 DUP5 PUSH2 0x49B7 JUMP JUMPDEST DUP3 DUP5 ADD SWAP1 POP SWAP4 SWAP3 POP POP POP JUMP JUMPDEST PUSH1 0x0 PUSH2 0x4008 DUP3 PUSH2 0x45FE JUMP JUMPDEST PUSH2 0x4012 DUP2 DUP6 PUSH2 0x4645 JUMP JUMPDEST SWAP4 POP PUSH2 0x4022 DUP2 DUP6 PUSH1 0x20 DUP7 ADD PUSH2 0x49C6 JUMP JUMPDEST PUSH2 0x402B DUP2 PUSH2 0x4BD1 JUMP JUMPDEST DUP5 ADD SWAP2 POP POP SWAP3 SWAP2 POP POP JUMP JUMPDEST PUSH1 0x0 PUSH2 0x4041 DUP3 PUSH2 0x45FE JUMP JUMPDEST PUSH2 0x404B DUP2 DUP6 PUSH2 0x4656 JUMP JUMPDEST SWAP4 POP PUSH2 0x405B DUP2 DUP6 PUSH1 0x20 DUP7 ADD PUSH2 0x49C6 JUMP JUMPDEST PUSH2 0x4064 DUP2 PUSH2 0x4BD1 JUMP JUMPDEST DUP5 ADD SWAP2 POP POP SWAP3 SWAP2 POP POP JUMP JUMPDEST PUSH1 0x0 PUSH2 0x407A DUP3 PUSH2 0x45FE JUMP JUMPDEST PUSH2 0x4084 DUP2 DUP6 PUSH2 0x4667 JUMP JUMPDEST SWAP4 POP PUSH2 0x4094 DUP2 DUP6 PUSH1 0x20 DUP7 ADD PUSH2 0x49C6 JUMP JUMPDEST DUP1 DUP5 ADD SWAP2 POP POP SWAP3 SWAP2 POP POP JUMP JUMPDEST PUSH1 0x0 PUSH2 0x40AD PUSH1 0x20 DUP4 PUSH2 0x4656 JUMP JUMPDEST SWAP2 POP PUSH2 0x40B8 DUP3 PUSH2 0x4BEF JUMP JUMPDEST PUSH1 0x20 DUP3 ADD SWAP1 POP SWAP2 SWAP1 POP JUMP JUMPDEST PUSH1 0x0 PUSH2 0x40D0 PUSH1 0x1E DUP4 PUSH2 0x4656 JUMP JUMPDEST SWAP2 POP PUSH2 0x40DB DUP3 PUSH2 0x4C18 JUMP JUMPDEST PUSH1 0x20 DUP3 ADD SWAP1 POP SWAP2 SWAP1 POP JUMP JUMPDEST PUSH1 0x0 PUSH2 0x40F3 PUSH1 0x1B DUP4 PUSH2 0x4656 JUMP JUMPDEST SWAP2 POP PUSH2 0x40FE DUP3 PUSH2 0x4C41 JUMP JUMPDEST PUSH1 0x20 DUP3 ADD SWAP1 POP SWAP2 SWAP1 POP JUMP JUMPDEST PUSH1 0x0 PUSH2 0x4116 PUSH1 0x41 DUP4 PUSH2 0x4656 JUMP JUMPDEST SWAP2 POP PUSH2 0x4121 DUP3 PUSH2 0x4C6A JUMP JUMPDEST PUSH1 0x60 DUP3 ADD SWAP1 POP SWAP2 SWAP1 POP JUMP JUMPDEST PUSH1 0x0 PUSH2 0x4139 PUSH1 0x21 DUP4 PUSH2 0x4656 JUMP JUMPDEST SWAP2 POP PUSH2 0x4144 DUP3 PUSH2 0x4CDF JUMP JUMPDEST PUSH1 0x40 DUP3 ADD SWAP1 POP SWAP2 SWAP1 POP JUMP JUMPDEST PUSH1 0x0 PUSH2 0x415C PUSH1 0x23 DUP4 PUSH2 0x4656 JUMP JUMPDEST SWAP2 POP PUSH2 0x4167 DUP3 PUSH2 0x4D2E JUMP JUMPDEST PUSH1 0x40 DUP3 ADD SWAP1 POP SWAP2 SWAP1 POP JUMP JUMPDEST PUSH1 0x0 PUSH2 0x417F PUSH1 0x46 DUP4 PUSH2 0x4656 JUMP JUMPDEST SWAP2 POP PUSH2 0x418A DUP3 PUSH2 0x4D7D JUMP JUMPDEST PUSH1 0x60 DUP3 ADD SWAP1 POP SWAP2 SWAP1 POP JUMP JUMPDEST PUSH1 0x0 PUSH2 0x41A2 PUSH1 0xF DUP4 PUSH2 0x4656 JUMP JUMPDEST SWAP2 POP PUSH2 0x41AD DUP3 PUSH2 0x4DF2 JUMP JUMPDEST PUSH1 0x20 DUP3 ADD SWAP1 POP SWAP2 SWAP1 POP JUMP JUMPDEST PUSH1 0x0 PUSH2 0x41C5 PUSH1 0x17 DUP4 PUSH2 0x4667 JUMP JUMPDEST SWAP2 POP PUSH2 0x41D0 DUP3 PUSH2 0x4E1B JUMP JUMPDEST PUSH1 0x17 DUP3 ADD SWAP1 POP SWAP2 SWAP1 POP JUMP JUMPDEST PUSH1 0x0 PUSH2 0x41E8 PUSH1 0x2D DUP4 PUSH2 0x4656 JUMP JUMPDEST SWAP2 POP PUSH2 0x41F3 DUP3 PUSH2 0x4E44 JUMP JUMPDEST PUSH1 0x40 DUP3 ADD SWAP1 POP SWAP2 SWAP1 POP JUMP JUMPDEST PUSH1 0x0 PUSH2 0x420B PUSH1 0x11 DUP4 PUSH2 0x4667 JUMP JUMPDEST SWAP2 POP PUSH2 0x4216 DUP3 PUSH2 0x4E93 JUMP JUMPDEST PUSH1 0x11 DUP3 ADD SWAP1 POP SWAP2 SWAP1 POP JUMP JUMPDEST PUSH1 0x0 PUSH2 0x422E PUSH1 0x2F DUP4 PUSH2 0x4656 JUMP JUMPDEST SWAP2 POP PUSH2 0x4239 DUP3 PUSH2 0x4EBC JUMP JUMPDEST PUSH1 0x40 DUP3 ADD SWAP1 POP SWAP2 SWAP1 POP JUMP JUMPDEST PUSH2 0x424D DUP2 PUSH2 0x49A0 JUMP JUMPDEST DUP3 MSTORE POP POP JUMP JUMPDEST PUSH2 0x425C DUP2 PUSH2 0x49A0 JUMP JUMPDEST DUP3 MSTORE POP POP JUMP JUMPDEST PUSH1 0x0 PUSH2 0x426F DUP3 DUP5 DUP7 PUSH2 0x3FD8 JUMP JUMPDEST SWAP2 POP DUP2 SWAP1 POP SWAP4 SWAP3 POP POP POP JUMP JUMPDEST PUSH1 0x0 PUSH2 0x4286 DUP3 PUSH2 0x41B8 JUMP JUMPDEST SWAP2 POP PUSH2 0x4292 DUP3 DUP6 PUSH2 0x406F JUMP JUMPDEST SWAP2 POP PUSH2 0x429D DUP3 PUSH2 0x41FE JUMP JUMPDEST SWAP2 POP PUSH2 0x42A9 DUP3 DUP5 PUSH2 0x406F JUMP JUMPDEST SWAP2 POP DUP2 SWAP1 POP SWAP4 SWAP3 POP POP POP JUMP JUMPDEST PUSH1 0x0 PUSH1 0xA0 DUP3 ADD SWAP1 POP PUSH2 0x42CA PUSH1 0x0 DUP4 ADD DUP9 PUSH2 0x3ED8 JUMP JUMPDEST DUP2 DUP2 SUB PUSH1 0x20 DUP4 ADD MSTORE PUSH2 0x42DC DUP2 DUP8 PUSH2 0x3EE7 JUMP JUMPDEST SWAP1 POP DUP2 DUP2 SUB PUSH1 0x40 DUP4 ADD MSTORE PUSH2 0x42F0 DUP2 DUP7 PUSH2 0x4036 JUMP JUMPDEST SWAP1 POP PUSH2 0x42FF PUSH1 0x60 DUP4 ADD DUP6 PUSH2 0x4253 JUMP JUMPDEST PUSH2 0x430C PUSH1 0x80 DUP4 ADD DUP5 PUSH2 0x3FBA JUMP JUMPDEST SWAP7 SWAP6 POP POP POP POP POP POP JUMP JUMPDEST PUSH1 0x0 PUSH1 0x40 DUP3 ADD SWAP1 POP PUSH2 0x432B PUSH1 0x0 DUP4 ADD DUP6 PUSH2 0x3ED8 JUMP JUMPDEST PUSH2 0x4338 PUSH1 0x20 DUP4 ADD DUP5 PUSH2 0x4253 JUMP JUMPDEST SWAP4 SWAP3 POP POP POP JUMP JUMPDEST PUSH1 0x0 PUSH1 0x60 DUP3 ADD SWAP1 POP PUSH2 0x4354 PUSH1 0x0 DUP4 ADD DUP7 PUSH2 0x3ED8 JUMP JUMPDEST PUSH2 0x4361 PUSH1 0x20 DUP4 ADD DUP6 PUSH2 0x4253 JUMP JUMPDEST PUSH2 0x436E PUSH1 0x40 DUP4 ADD DUP5 PUSH2 0x3FBA JUMP JUMPDEST SWAP5 SWAP4 POP POP POP POP JUMP JUMPDEST PUSH1 0x0 PUSH1 0x20 DUP3 ADD SWAP1 POP PUSH2 0x438B PUSH1 0x0 DUP4 ADD DUP5 PUSH2 0x3FBA JUMP JUMPDEST SWAP3 SWAP2 POP POP JUMP JUMPDEST PUSH1 0x0 PUSH1 0x20 DUP3 ADD SWAP1 POP PUSH2 0x43A6 PUSH1 0x0 DUP4 ADD DUP5 PUSH2 0x3FC9 JUMP JUMPDEST SWAP3 SWAP2 POP POP JUMP JUMPDEST PUSH1 0x0 PUSH1 0x20 DUP3 ADD SWAP1 POP DUP2 DUP2 SUB PUSH1 0x0 DUP4 ADD MSTORE PUSH2 0x43C6 DUP2 DUP5 PUSH2 0x4036 JUMP JUMPDEST SWAP1 POP SWAP3 SWAP2 POP POP JUMP JUMPDEST PUSH1 0x0 PUSH1 0x20 DUP3 ADD SWAP1 POP DUP2 DUP2 SUB PUSH1 0x0 DUP4 ADD MSTORE PUSH2 0x43E7 DUP2 PUSH2 0x40A0 JUMP JUMPDEST SWAP1 POP SWAP2 SWAP1 POP JUMP JUMPDEST PUSH1 0x0 PUSH1 0x20 DUP3 ADD SWAP1 POP DUP2 DUP2 SUB PUSH1 0x0 DUP4 ADD MSTORE PUSH2 0x4407 DUP2 PUSH2 0x40C3 JUMP JUMPDEST SWAP1 POP SWAP2 SWAP1 POP JUMP JUMPDEST PUSH1 0x0 PUSH1 0x20 DUP3 ADD SWAP1 POP DUP2 DUP2 SUB PUSH1 0x0 DUP4 ADD MSTORE PUSH2 0x4427 DUP2 PUSH2 0x40E6 JUMP JUMPDEST SWAP1 POP SWAP2 SWAP1 POP JUMP JUMPDEST PUSH1 0x0 PUSH1 0x20 DUP3 ADD SWAP1 POP DUP2 DUP2 SUB PUSH1 0x0 DUP4 ADD MSTORE PUSH2 0x4447 DUP2 PUSH2 0x4109 JUMP JUMPDEST SWAP1 POP SWAP2 SWAP1 POP JUMP JUMPDEST PUSH1 0x0 PUSH1 0x20 DUP3 ADD SWAP1 POP DUP2 DUP2 SUB PUSH1 0x0 DUP4 ADD MSTORE PUSH2 0x4467 DUP2 PUSH2 0x412C JUMP JUMPDEST SWAP1 POP SWAP2 SWAP1 POP JUMP JUMPDEST PUSH1 0x0 PUSH1 0x20 DUP3 ADD SWAP1 POP DUP2 DUP2 SUB PUSH1 0x0 DUP4 ADD MSTORE PUSH2 0x4487 DUP2 PUSH2 0x414F JUMP JUMPDEST SWAP1 POP SWAP2 SWAP1 POP JUMP JUMPDEST PUSH1 0x0 PUSH1 0x20 DUP3 ADD SWAP1 POP DUP2 DUP2 SUB PUSH1 0x0 DUP4 ADD MSTORE PUSH2 0x44A7 DUP2 PUSH2 0x4172 JUMP JUMPDEST SWAP1 POP SWAP2 SWAP1 POP JUMP JUMPDEST PUSH1 0x0 PUSH1 0x20 DUP3 ADD SWAP1 POP DUP2 DUP2 SUB PUSH1 0x0 DUP4 ADD MSTORE PUSH2 0x44C7 DUP2 PUSH2 0x4195 JUMP JUMPDEST SWAP1 POP SWAP2 SWAP1 POP JUMP JUMPDEST PUSH1 0x0 PUSH1 0x20 DUP3 ADD SWAP1 POP DUP2 DUP2 SUB PUSH1 0x0 DUP4 ADD MSTORE PUSH2 0x44E7 DUP2 PUSH2 0x41DB JUMP JUMPDEST SWAP1 POP SWAP2 SWAP1 POP JUMP JUMPDEST PUSH1 0x0 PUSH1 0x20 DUP3 ADD SWAP1 POP DUP2 DUP2 SUB PUSH1 0x0 DUP4 ADD MSTORE PUSH2 0x4507 DUP2 PUSH2 0x4221 JUMP JUMPDEST SWAP1 POP SWAP2 SWAP1 POP JUMP JUMPDEST PUSH1 0x0 PUSH1 0x20 DUP3 ADD SWAP1 POP PUSH2 0x4523 PUSH1 0x0 DUP4 ADD DUP5 PUSH2 0x4253 JUMP JUMPDEST SWAP3 SWAP2 POP POP JUMP JUMPDEST PUSH1 0x0 PUSH1 0x40 DUP3 ADD SWAP1 POP PUSH2 0x453E PUSH1 0x0 DUP4 ADD DUP6 PUSH2 0x4253 JUMP JUMPDEST PUSH2 0x454B PUSH1 0x20 DUP4 ADD DUP5 PUSH2 0x3FBA JUMP JUMPDEST SWAP4 SWAP3 POP POP POP JUMP JUMPDEST PUSH1 0x0 PUSH1 0xC0 DUP3 ADD SWAP1 POP PUSH2 0x4567 PUSH1 0x0 DUP4 ADD DUP10 PUSH2 0x4253 JUMP JUMPDEST DUP2 DUP2 SUB PUSH1 0x20 DUP4 ADD MSTORE PUSH2 0x4579 DUP2 DUP9 PUSH2 0x4036 JUMP JUMPDEST SWAP1 POP DUP2 DUP2 SUB PUSH1 0x40 DUP4 ADD MSTORE PUSH2 0x458D DUP2 DUP8 PUSH2 0x4036 JUMP JUMPDEST SWAP1 POP DUP2 DUP2 SUB PUSH1 0x60 DUP4 ADD MSTORE PUSH2 0x45A1 DUP2 DUP7 PUSH2 0x3F5C JUMP JUMPDEST SWAP1 POP PUSH2 0x45B0 PUSH1 0x80 DUP4 ADD DUP6 PUSH2 0x4253 JUMP JUMPDEST PUSH2 0x45BD PUSH1 0xA0 DUP4 ADD DUP5 PUSH2 0x3ED8 JUMP JUMPDEST SWAP8 SWAP7 POP POP POP POP POP POP POP JUMP JUMPDEST PUSH1 0x0 DUP2 SWAP1 POP PUSH1 0x20 DUP3 ADD SWAP1 POP SWAP2 SWAP1 POP JUMP JUMPDEST PUSH1 0x0 DUP2 SWAP1 POP PUSH1 0x20 DUP3 ADD SWAP1 POP SWAP2 SWAP1 POP JUMP JUMPDEST PUSH1 0x0 DUP2 MLOAD SWAP1 POP SWAP2 SWAP1 POP JUMP JUMPDEST PUSH1 0x0 DUP2 MLOAD SWAP1 POP SWAP2 SWAP1 POP JUMP JUMPDEST PUSH1 0x0 DUP2 MLOAD SWAP1 POP SWAP2 SWAP1 POP JUMP JUMPDEST PUSH1 0x0 PUSH1 0x20 DUP3 ADD SWAP1 POP SWAP2 SWAP1 POP JUMP JUMPDEST PUSH1 0x0 PUSH1 0x20 DUP3 ADD SWAP1 POP SWAP2 SWAP1 POP JUMP JUMPDEST PUSH1 0x0 DUP3 DUP3 MSTORE PUSH1 0x20 DUP3 ADD SWAP1 POP SWAP3 SWAP2 POP POP JUMP JUMPDEST PUSH1 0x0 DUP3 DUP3 MSTORE PUSH1 0x20 DUP3 ADD SWAP1 POP SWAP3 SWAP2 POP POP JUMP JUMPDEST PUSH1 0x0 DUP3 DUP3 MSTORE PUSH1 0x20 DUP3 ADD SWAP1 POP SWAP3 SWAP2 POP POP JUMP JUMPDEST PUSH1 0x0 DUP3 DUP3 MSTORE PUSH1 0x20 DUP3 ADD SWAP1 POP SWAP3 SWAP2 POP POP JUMP JUMPDEST PUSH1 0x0 DUP2 SWAP1 POP SWAP3 SWAP2 POP POP JUMP JUMPDEST PUSH1 0x0 PUSH2 0x467D DUP3 PUSH2 0x49A0 JUMP JUMPDEST SWAP2 POP PUSH2 0x4688 DUP4 PUSH2 0x49A0 JUMP JUMPDEST SWAP3 POP DUP3 PUSH32 0xFFFFFFFFFFFFFFFFFFFFFFFFFFFFFFFFFFFFFFFFFFFFFFFFFFFFFFFFFFFFFFFF SUB DUP3 GT ISZERO PUSH2 0x46BD JUMPI PUSH2 0x46BC PUSH2 0x4ACD JUMP JUMPDEST JUMPDEST DUP3 DUP3 ADD SWAP1 POP SWAP3 SWAP2 POP POP JUMP JUMPDEST PUSH1 0x0 PUSH2 0x46D3 DUP3 PUSH2 0x49A0 JUMP JUMPDEST SWAP2 POP PUSH2 0x46DE DUP4 PUSH2 0x49A0 JUMP JUMPDEST SWAP3 POP DUP3 PUSH2 0x46EE JUMPI PUSH2 0x46ED PUSH2 0x4AFC JUMP JUMPDEST JUMPDEST DUP3 DUP3 DIV SWAP1 POP SWAP3 SWAP2 POP POP JUMP JUMPDEST PUSH1 0x0 DUP1 DUP3 SWAP2 POP DUP4 SWAP1 POP JUMPDEST PUSH1 0x1 DUP6 GT ISZERO PUSH2 0x4743 JUMPI DUP1 DUP7 DIV DUP2 GT ISZERO PUSH2 0x471F JUMPI PUSH2 0x471E PUSH2 0x4ACD JUMP JUMPDEST JUMPDEST PUSH1 0x1 DUP6 AND ISZERO PUSH2 0x472E JUMPI DUP1 DUP3 MUL SWAP2 POP JUMPDEST DUP1 DUP2 MUL SWAP1 POP PUSH2 0x473C DUP6 PUSH2 0x4BE2 JUMP JUMPDEST SWAP5 POP PUSH2 0x4703 JUMP JUMPDEST SWAP5 POP SWAP5 SWAP3 POP POP POP JUMP JUMPDEST PUSH1 0x0 PUSH2 0x4757 DUP3 PUSH2 0x49A0 JUMP JUMPDEST SWAP2 POP PUSH2 0x4762 DUP4 PUSH2 0x49A0 JUMP JUMPDEST SWAP3 POP PUSH2 0x478F PUSH32 0xFFFFFFFFFFFFFFFFFFFFFFFFFFFFFFFFFFFFFFFFFFFFFFFFFFFFFFFFFFFFFFFF DUP5 DUP5 PUSH2 0x4797 JUMP JUMPDEST SWAP1 POP SWAP3 SWAP2 POP POP JUMP JUMPDEST PUSH1 0x0 DUP3 PUSH2 0x47A7 JUMPI PUSH1 0x1 SWAP1 POP PUSH2 0x4863 JUMP JUMPDEST DUP2 PUSH2 0x47B5 JUMPI PUSH1 0x0 SWAP1 POP PUSH2 0x4863 JUMP JUMPDEST DUP2 PUSH1 0x1 DUP2 EQ PUSH2 0x47CB JUMPI PUSH1 0x2 DUP2 EQ PUSH2 0x47D5 JUMPI PUSH2 0x4804 JUMP JUMPDEST PUSH1 0x1 SWAP2 POP POP PUSH2 0x4863 JUMP JUMPDEST PUSH1 0xFF DUP5 GT ISZERO PUSH2 0x47E7 JUMPI PUSH2 0x47E6 PUSH2 0x4ACD JUMP JUMPDEST JUMPDEST DUP4 PUSH1 0x2 EXP SWAP2 POP DUP5 DUP3 GT ISZERO PUSH2 0x47FE JUMPI PUSH2 0x47FD PUSH2 0x4ACD JUMP JUMPDEST JUMPDEST POP PUSH2 0x4863 JUMP JUMPDEST POP PUSH1 0x20 DUP4 LT PUSH2 0x133 DUP4 LT AND PUSH1 0x4E DUP5 LT PUSH1 0xB DUP5 LT AND OR ISZERO PUSH2 0x4839 JUMPI DUP3 DUP3 EXP SWAP1 POP DUP4 DUP2 GT ISZERO PUSH2 0x4834 JUMPI PUSH2 0x4833 PUSH2 0x4ACD JUMP JUMPDEST JUMPDEST PUSH2 0x4863 JUMP JUMPDEST PUSH2 0x4846 DUP5 DUP5 DUP5 PUSH1 0x1 PUSH2 0x46F9 JUMP JUMPDEST SWAP3 POP SWAP1 POP DUP2 DUP5 DIV DUP2 GT ISZERO PUSH2 0x485D JUMPI PUSH2 0x485C PUSH2 0x4ACD JUMP JUMPDEST JUMPDEST DUP2 DUP2 MUL SWAP1 POP JUMPDEST SWAP4 SWAP3 POP POP POP JUMP JUMPDEST PUSH1 0x0 PUSH2 0x4875 DUP3 PUSH2 0x49A0 JUMP JUMPDEST SWAP2 POP PUSH2 0x4880 DUP4 PUSH2 0x49A0 JUMP JUMPDEST SWAP3 POP DUP2 PUSH32 0xFFFFFFFFFFFFFFFFFFFFFFFFFFFFFFFFFFFFFFFFFFFFFFFFFFFFFFFFFFFFFFFF DIV DUP4 GT DUP3 ISZERO ISZERO AND ISZERO PUSH2 0x48B9 JUMPI PUSH2 0x48B8 PUSH2 0x4ACD JUMP JUMPDEST JUMPDEST DUP3 DUP3 MUL SWAP1 POP SWAP3 SWAP2 POP POP JUMP JUMPDEST PUSH1 0x0 PUSH2 0x48CF DUP3 PUSH2 0x49A0 JUMP JUMPDEST SWAP2 POP PUSH2 0x48DA DUP4 PUSH2 0x49A0 JUMP JUMPDEST SWAP3 POP DUP3 DUP3 LT ISZERO PUSH2 0x48ED JUMPI PUSH2 0x48EC PUSH2 0x4ACD JUMP JUMPDEST JUMPDEST DUP3 DUP3 SUB SWAP1 POP SWAP3 SWAP2 POP POP JUMP JUMPDEST PUSH1 0x0 PUSH2 0x4903 DUP3 PUSH2 0x49AA JUMP JUMPDEST SWAP2 POP PUSH2 0x490E DUP4 PUSH2 0x49AA JUMP JUMPDEST SWAP3 POP DUP3 DUP3 LT ISZERO PUSH2 0x4921 JUMPI PUSH2 0x4920 PUSH2 0x4ACD JUMP JUMPDEST JUMPDEST DUP3 DUP3 SUB SWAP1 POP SWAP3 SWAP2 POP POP JUMP JUMPDEST PUSH1 0x0 PUSH2 0x4937 DUP3 PUSH2 0x4980 JUMP JUMPDEST SWAP1 POP SWAP2 SWAP1 POP JUMP JUMPDEST PUSH1 0x0 DUP2 ISZERO ISZERO SWAP1 POP SWAP2 SWAP1 POP JUMP JUMPDEST PUSH1 0x0 DUP2 SWAP1 POP SWAP2 SWAP1 POP JUMP JUMPDEST PUSH1 0x0 PUSH32 0xFFFFFFFF00000000000000000000000000000000000000000000000000000000 DUP3 AND SWAP1 POP SWAP2 SWAP1 POP JUMP JUMPDEST PUSH1 0x0 PUSH20 0xFFFFFFFFFFFFFFFFFFFFFFFFFFFFFFFFFFFFFFFF DUP3 AND SWAP1 POP SWAP2 SWAP1 POP JUMP JUMPDEST PUSH1 0x0 DUP2 SWAP1 POP SWAP2 SWAP1 POP JUMP JUMPDEST PUSH1 0x0 PUSH1 0xFF DUP3 AND SWAP1 POP SWAP2 SWAP1 POP JUMP JUMPDEST DUP3 DUP2 DUP4 CALLDATACOPY PUSH1 0x0 DUP4 DUP4 ADD MSTORE POP POP POP JUMP JUMPDEST PUSH1 0x0 JUMPDEST DUP4 DUP2 LT ISZERO PUSH2 0x49E4 JUMPI DUP1 DUP3 ADD MLOAD DUP2 DUP5 ADD MSTORE PUSH1 0x20 DUP2 ADD SWAP1 POP PUSH2 0x49C9 JUMP JUMPDEST DUP4 DUP2 GT ISZERO PUSH2 0x49F3 JUMPI PUSH1 0x0 DUP5 DUP5 ADD MSTORE JUMPDEST POP POP POP POP JUMP JUMPDEST PUSH1 0x0 PUSH2 0x4A04 DUP3 PUSH2 0x49A0 JUMP JUMPDEST SWAP2 POP PUSH1 0x0 DUP3 EQ ISZERO PUSH2 0x4A18 JUMPI PUSH2 0x4A17 PUSH2 0x4ACD JUMP JUMPDEST JUMPDEST PUSH1 0x1 DUP3 SUB SWAP1 POP SWAP2 SWAP1 POP JUMP JUMPDEST PUSH1 0x0 PUSH1 0x2 DUP3 DIV SWAP1 POP PUSH1 0x1 DUP3 AND DUP1 PUSH2 0x4A3B JUMPI PUSH1 0x7F DUP3 AND SWAP2 POP JUMPDEST PUSH1 0x20 DUP3 LT DUP2 EQ ISZERO PUSH2 0x4A4F JUMPI PUSH2 0x4A4E PUSH2 0x4B2B JUMP JUMPDEST JUMPDEST POP SWAP2 SWAP1 POP JUMP JUMPDEST PUSH1 0x0 PUSH2 0x4A60 DUP3 PUSH2 0x49A0 JUMP JUMPDEST SWAP2 POP PUSH32 0xFFFFFFFFFFFFFFFFFFFFFFFFFFFFFFFFFFFFFFFFFFFFFFFFFFFFFFFFFFFFFFFF DUP3 EQ ISZERO PUSH2 0x4A93 JUMPI PUSH2 0x4A92 PUSH2 0x4ACD JUMP JUMPDEST JUMPDEST PUSH1 0x1 DUP3 ADD SWAP1 POP SWAP2 SWAP1 POP JUMP JUMPDEST PUSH32 0x4E487B7100000000000000000000000000000000000000000000000000000000 PUSH1 0x0 MSTORE PUSH1 0x1 PUSH1 0x4 MSTORE PUSH1 0x24 PUSH1 0x0 REVERT JUMPDEST PUSH32 0x4E487B7100000000000000000000000000000000000000000000000000000000 PUSH1 0x0 MSTORE PUSH1 0x11 PUSH1 0x4 MSTORE PUSH1 0x24 PUSH1 0x0 REVERT JUMPDEST PUSH32 0x4E487B7100000000000000000000000000000000000000000000000000000000 PUSH1 0x0 MSTORE PUSH1 0x12 PUSH1 0x4 MSTORE PUSH1 0x24 PUSH1 0x0 REVERT JUMPDEST PUSH32 0x4E487B7100000000000000000000000000000000000000000000000000000000 PUSH1 0x0 MSTORE PUSH1 0x22 PUSH1 0x4 MSTORE PUSH1 0x24 PUSH1 0x0 REVERT JUMPDEST PUSH32 0x4E487B7100000000000000000000000000000000000000000000000000000000 PUSH1 0x0 MSTORE PUSH1 0x32 PUSH1 0x4 MSTORE PUSH1 0x24 PUSH1 0x0 REVERT JUMPDEST PUSH32 0x4E487B7100000000000000000000000000000000000000000000000000000000 PUSH1 0x0 MSTORE PUSH1 0x41 PUSH1 0x4 MSTORE PUSH1 0x24 PUSH1 0x0 REVERT JUMPDEST PUSH1 0x0 DUP1 REVERT JUMPDEST PUSH1 0x0 DUP1 REVERT JUMPDEST PUSH1 0x0 DUP1 REVERT JUMPDEST PUSH1 0x0 DUP1 REVERT JUMPDEST PUSH1 0x0 DUP1 REVERT JUMPDEST PUSH1 0x0 PUSH1 0x1F NOT PUSH1 0x1F DUP4 ADD AND SWAP1 POP SWAP2 SWAP1 POP JUMP JUMPDEST PUSH1 0x0 DUP2 PUSH1 0x1 SHR SWAP1 POP SWAP2 SWAP1 POP JUMP JUMPDEST PUSH32 0x537472696E67733A20686578206C656E67746820696E73756666696369656E74 PUSH1 0x0 DUP3 ADD MSTORE POP JUMP JUMPDEST PUSH32 0x546865206164647265737320686173206E6F74207065726D697373696F6E0000 PUSH1 0x0 DUP3 ADD MSTORE POP JUMP JUMPDEST PUSH32 0x536166654D6174683A206164646974696F6E206F766572666C6F770000000000 PUSH1 0x0 DUP3 ADD MSTORE POP JUMP JUMPDEST PUSH32 0x686173682073656E74206265666F726520746865206F70656E696E6720646174 PUSH1 0x0 DUP3 ADD MSTORE PUSH32 0x65206F7220616674657220746865206861736820636C6F73696E672064617465 PUSH1 0x20 DUP3 ADD MSTORE PUSH32 0x2100000000000000000000000000000000000000000000000000000000000000 PUSH1 0x40 DUP3 ADD MSTORE POP JUMP JUMPDEST PUSH32 0x536166654D6174683A206D756C7469706C69636174696F6E206F766572666C6F PUSH1 0x0 DUP3 ADD MSTORE PUSH32 0x7700000000000000000000000000000000000000000000000000000000000000 PUSH1 0x20 DUP3 ADD MSTORE POP JUMP JUMPDEST PUSH32 0x42696420616C726561647920706C6163656420666F7220746869732074656E64 PUSH1 0x0 DUP3 ADD MSTORE PUSH32 0x6572210000000000000000000000000000000000000000000000000000000000 PUSH1 0x20 DUP3 ADD MSTORE POP JUMP JUMPDEST PUSH32 0x646174612073656E74206265666F726520746865206861736820636C6F73696E PUSH1 0x0 DUP3 ADD MSTORE PUSH32 0x672064617465206F7220616674657220746865206461746120636C6F73696E67 PUSH1 0x20 DUP3 ADD MSTORE PUSH32 0x20646174652E0000000000000000000000000000000000000000000000000000 PUSH1 0x40 DUP3 ADD MSTORE POP JUMP JUMPDEST PUSH32 0x73756D206D757374206265203130300000000000000000000000000000000000 PUSH1 0x0 DUP3 ADD MSTORE POP JUMP JUMPDEST PUSH32 0x416363657373436F6E74726F6C3A206163636F756E7420000000000000000000 PUSH1 0x0 DUP3 ADD MSTORE POP JUMP JUMPDEST PUSH32 0x53756D206F662074776F20656E7669726F6E6D656E7420706172616D65746572 PUSH1 0x0 DUP3 ADD MSTORE PUSH32 0x73206D7573742062652031303000000000000000000000000000000000000000 PUSH1 0x20 DUP3 ADD MSTORE POP JUMP JUMPDEST PUSH32 0x206973206D697373696E6720726F6C6520000000000000000000000000000000 PUSH1 0x0 DUP3 ADD MSTORE POP JUMP JUMPDEST PUSH32 0x416363657373436F6E74726F6C3A2063616E206F6E6C792072656E6F756E6365 PUSH1 0x0 DUP3 ADD MSTORE PUSH32 0x20726F6C657320666F722073656C660000000000000000000000000000000000 PUSH1 0x20 DUP3 ADD MSTORE POP JUMP JUMPDEST PUSH2 0x4F14 DUP2 PUSH2 0x492C JUMP JUMPDEST DUP2 EQ PUSH2 0x4F1F JUMPI PUSH1 0x0 DUP1 REVERT JUMPDEST POP JUMP JUMPDEST PUSH2 0x4F2B DUP2 PUSH2 0x494A JUMP JUMPDEST DUP2 EQ PUSH2 0x4F36 JUMPI PUSH1 0x0 DUP1 REVERT JUMPDEST POP JUMP JUMPDEST PUSH2 0x4F42 DUP2 PUSH2 0x4954 JUMP JUMPDEST DUP2 EQ PUSH2 0x4F4D JUMPI PUSH1 0x0 DUP1 REVERT JUMPDEST POP JUMP JUMPDEST PUSH2 0x4F59 DUP2 PUSH2 0x49A0 JUMP JUMPDEST DUP2 EQ PUSH2 0x4F64 JUMPI PUSH1 0x0 DUP1 REVERT JUMPDEST POP JUMP INVALID LOG2 PUSH5 0x6970667358 0x22 SLT KECCAK256 0xD6 0xD 0xDB BLOCKHASH 0x2C 0xAF PUSH7 0x38BE2972FE9439 SLOAD ISZERO DUP3 0xDB GASLIMIT 0xD0 0xF8 0xC6 DUP8 0xCD PUSH17 0xC78DC7E6AB2E9C64736F6C634300080600 CALLER "
		},
		"gasEstimates": {
			"creation": {
				"codeDepositCost": "4076200",
				"executionCost": "infinite",
				"totalCost": "infinite"
			},
			"external": {
				"CreateTender(string,string,uint256,uint256,string)": "infinite",
				"DEFAULT_ADMIN_ROLE()": "446",
				"FIRM_ROLE()": "375",
				"addFirm(address)": "infinite",
				"addPA(address)": "infinite",
				"assign_winner(uint256)": "infinite",
				"compute_scores(uint256)": "infinite",
				"concludeBid(uint256,string,string)": "infinite",
				"displayWinner(uint256)": "infinite",
				"getBidDetails(uint256,address)": "infinite",
				"getResultsLenght(uint256)": "infinite",
				"getResultsValue(uint256,uint256)": "infinite",
				"getRoleAdmin(bytes32)": "infinite",
				"getTendersLength()": "2503",
				"grantRole(bytes32,address)": "infinite",
				"hasRole(bytes32,address)": "3251",
				"isPending(uint256)": "infinite",
				"placeBid(uint256,bytes32)": "infinite",
				"renounceFIRM(address)": "infinite",
				"renouncePA(address)": "infinite",
				"renounceRole(bytes32,address)": "infinite",
				"revokeFirm(address)": "infinite",
				"revokePA(address)": "infinite",
				"revokeRole(bytes32,address)": "infinite",
				"see_TenderDetails(uint256)": "infinite",
				"supportsInterface(bytes4)": "751"
			},
			"internal": {
				"SMT(string memory,string memory)": "infinite",
				"adjust_measures(uint256,uint256)": "infinite",
				"environment_score(uint256,uint256,uint256,uint256)": "infinite",
				"getWeights(uint256)": "infinite",
				"parseInt(string memory)": "infinite",
				"splitDescription(uint256)": "infinite"
			}
		},
		"methodIdentifiers": {
			"CreateTender(string,string,uint256,uint256,string)": "3ff3a80c",
			"DEFAULT_ADMIN_ROLE()": "a217fddf",
			"FIRM_ROLE()": "18fd3e10",
			"addFirm(address)": "a1c6a78e",
			"addPA(address)": "9cf0f0b7",
			"assign_winner(uint256)": "43a96b73",
			"compute_scores(uint256)": "6c7b8380",
			"concludeBid(uint256,string,string)": "66288ce8",
			"displayWinner(uint256)": "5aac39e7",
			"getBidDetails(uint256,address)": "9fc89aed",
			"getResultsLenght(uint256)": "f3fa1482",
			"getResultsValue(uint256,uint256)": "9fb63f0f",
			"getRoleAdmin(bytes32)": "248a9ca3",
			"getTendersLength()": "ec39b826",
			"grantRole(bytes32,address)": "2f2ff15d",
			"hasRole(bytes32,address)": "91d14854",
			"isPending(uint256)": "ca8836d2",
			"placeBid(uint256,bytes32)": "66ab1d52",
			"renounceFIRM(address)": "b5e967fb",
			"renouncePA(address)": "fc3f90e8",
			"renounceRole(bytes32,address)": "36568abe",
			"revokeFirm(address)": "ce630fd6",
			"revokePA(address)": "8f902fab",
			"revokeRole(bytes32,address)": "d547741f",
			"see_TenderDetails(uint256)": "cf6f4007",
			"supportsInterface(bytes4)": "01ffc9a7"
		}
	},
	"abi": [
		{
			"anonymous": false,
			"inputs": [
				{
					"indexed": true,
					"internalType": "bytes32",
					"name": "role",
					"type": "bytes32"
				},
				{
					"indexed": true,
					"internalType": "bytes32",
					"name": "previousAdminRole",
					"type": "bytes32"
				},
				{
					"indexed": true,
					"internalType": "bytes32",
					"name": "newAdminRole",
					"type": "bytes32"
				}
			],
			"name": "RoleAdminChanged",
			"type": "event"
		},
		{
			"anonymous": false,
			"inputs": [
				{
					"indexed": true,
					"internalType": "bytes32",
					"name": "role",
					"type": "bytes32"
				},
				{
					"indexed": true,
					"internalType": "address",
					"name": "account",
					"type": "address"
				},
				{
					"indexed": true,
					"internalType": "address",
					"name": "sender",
					"type": "address"
				}
			],
			"name": "RoleGranted",
			"type": "event"
		},
		{
			"anonymous": false,
			"inputs": [
				{
					"indexed": true,
					"internalType": "bytes32",
					"name": "role",
					"type": "bytes32"
				},
				{
					"indexed": true,
					"internalType": "address",
					"name": "account",
					"type": "address"
				},
				{
					"indexed": true,
					"internalType": "address",
					"name": "sender",
					"type": "address"
				}
			],
			"name": "RoleRevoked",
			"type": "event"
		},
		{
			"inputs": [
				{
					"internalType": "string",
					"name": "_tenderName",
					"type": "string"
				},
				{
					"internalType": "string",
					"name": "_description",
					"type": "string"
				},
				{
					"internalType": "uint256",
					"name": "_daysUntilClosingDateData",
					"type": "uint256"
				},
				{
					"internalType": "uint256",
					"name": "_daysUntilClosingDateHash",
					"type": "uint256"
				},
				{
					"internalType": "string",
					"name": "_weights",
					"type": "string"
				}
			],
			"name": "CreateTender",
			"outputs": [],
			"stateMutability": "nonpayable",
			"type": "function"
		},
		{
			"inputs": [],
			"name": "DEFAULT_ADMIN_ROLE",
			"outputs": [
				{
					"internalType": "bytes32",
					"name": "",
					"type": "bytes32"
				}
			],
			"stateMutability": "view",
			"type": "function"
		},
		{
			"inputs": [],
			"name": "FIRM_ROLE",
			"outputs": [
				{
					"internalType": "bytes32",
					"name": "",
					"type": "bytes32"
				}
			],
			"stateMutability": "view",
			"type": "function"
		},
		{
			"inputs": [
				{
					"internalType": "address",
					"name": "id",
					"type": "address"
				}
			],
			"name": "addFirm",
			"outputs": [],
			"stateMutability": "nonpayable",
			"type": "function"
		},
		{
			"inputs": [
				{
					"internalType": "address",
					"name": "id",
					"type": "address"
				}
			],
			"name": "addPA",
			"outputs": [],
			"stateMutability": "nonpayable",
			"type": "function"
		},
		{
			"inputs": [
				{
					"internalType": "uint256",
					"name": "_tenderKey",
					"type": "uint256"
				}
			],
			"name": "assign_winner",
			"outputs": [],
			"stateMutability": "nonpayable",
			"type": "function"
		},
		{
			"inputs": [
				{
					"internalType": "uint256",
					"name": "_tenderKey",
					"type": "uint256"
				}
			],
			"name": "compute_scores",
			"outputs": [],
			"stateMutability": "nonpayable",
			"type": "function"
		},
		{
			"inputs": [
				{
					"internalType": "uint256",
					"name": "_tenderKey",
					"type": "uint256"
				},
				{
					"internalType": "string",
					"name": "_description",
					"type": "string"
				},
				{
					"internalType": "string",
					"name": "_separator",
					"type": "string"
				}
			],
			"name": "concludeBid",
			"outputs": [],
			"stateMutability": "nonpayable",
			"type": "function"
		},
		{
			"inputs": [
				{
					"internalType": "uint256",
					"name": "_tenderKey",
					"type": "uint256"
				}
			],
			"name": "displayWinner",
			"outputs": [
				{
					"internalType": "address",
					"name": "",
					"type": "address"
				},
				{
					"internalType": "uint256",
					"name": "",
					"type": "uint256"
				}
			],
			"stateMutability": "view",
			"type": "function"
		},
		{
			"inputs": [
				{
					"internalType": "uint256",
					"name": "_tenderKey",
					"type": "uint256"
				},
				{
					"internalType": "address",
					"name": "_index",
					"type": "address"
				}
			],
			"name": "getBidDetails",
			"outputs": [
				{
					"internalType": "address",
					"name": "",
					"type": "address"
				},
				{
					"internalType": "string[]",
					"name": "",
					"type": "string[]"
				},
				{
					"internalType": "string",
					"name": "",
					"type": "string"
				},
				{
					"internalType": "uint256",
					"name": "",
					"type": "uint256"
				},
				{
					"internalType": "bool",
					"name": "",
					"type": "bool"
				}
			],
			"stateMutability": "view",
			"type": "function"
		},
		{
			"inputs": [
				{
					"internalType": "uint256",
					"name": "_tenderKey",
					"type": "uint256"
				}
			],
			"name": "getResultsLenght",
			"outputs": [
				{
					"internalType": "uint256",
					"name": "",
					"type": "uint256"
				}
			],
			"stateMutability": "view",
			"type": "function"
		},
		{
			"inputs": [
				{
					"internalType": "uint256",
					"name": "_tenderKey",
					"type": "uint256"
				},
				{
					"internalType": "uint256",
					"name": "_index",
					"type": "uint256"
				}
			],
			"name": "getResultsValue",
			"outputs": [
				{
					"internalType": "address",
					"name": "",
					"type": "address"
				},
				{
					"internalType": "uint256",
					"name": "",
					"type": "uint256"
				},
				{
					"internalType": "bool",
					"name": "",
					"type": "bool"
				}
			],
			"stateMutability": "view",
			"type": "function"
		},
		{
			"inputs": [
				{
					"internalType": "bytes32",
					"name": "role",
					"type": "bytes32"
				}
			],
			"name": "getRoleAdmin",
			"outputs": [
				{
					"internalType": "bytes32",
					"name": "",
					"type": "bytes32"
				}
			],
			"stateMutability": "view",
			"type": "function"
		},
		{
			"inputs": [],
			"name": "getTendersLength",
			"outputs": [
				{
					"internalType": "uint256",
					"name": "",
					"type": "uint256"
				}
			],
			"stateMutability": "view",
			"type": "function"
		},
		{
			"inputs": [
				{
					"internalType": "bytes32",
					"name": "role",
					"type": "bytes32"
				},
				{
					"internalType": "address",
					"name": "account",
					"type": "address"
				}
			],
			"name": "grantRole",
			"outputs": [],
			"stateMutability": "nonpayable",
			"type": "function"
		},
		{
			"inputs": [
				{
					"internalType": "bytes32",
					"name": "role",
					"type": "bytes32"
				},
				{
					"internalType": "address",
					"name": "account",
					"type": "address"
				}
			],
			"name": "hasRole",
			"outputs": [
				{
					"internalType": "bool",
					"name": "",
					"type": "bool"
				}
			],
			"stateMutability": "view",
			"type": "function"
		},
		{
			"inputs": [
				{
					"internalType": "uint256",
					"name": "_tenderKey",
					"type": "uint256"
				}
			],
			"name": "isPending",
			"outputs": [
				{
					"internalType": "uint256",
					"name": "",
					"type": "uint256"
				},
				{
					"internalType": "bool",
					"name": "",
					"type": "bool"
				}
			],
			"stateMutability": "view",
			"type": "function"
		},
		{
			"inputs": [
				{
					"internalType": "uint256",
					"name": "_tenderKey",
					"type": "uint256"
				},
				{
					"internalType": "bytes32",
					"name": "_hashOffer",
					"type": "bytes32"
				}
			],
			"name": "placeBid",
			"outputs": [],
			"stateMutability": "nonpayable",
			"type": "function"
		},
		{
			"inputs": [
				{
					"internalType": "address",
					"name": "id",
					"type": "address"
				}
			],
			"name": "renounceFIRM",
			"outputs": [],
			"stateMutability": "nonpayable",
			"type": "function"
		},
		{
			"inputs": [
				{
					"internalType": "address",
					"name": "id",
					"type": "address"
				}
			],
			"name": "renouncePA",
			"outputs": [],
			"stateMutability": "nonpayable",
			"type": "function"
		},
		{
			"inputs": [
				{
					"internalType": "bytes32",
					"name": "role",
					"type": "bytes32"
				},
				{
					"internalType": "address",
					"name": "account",
					"type": "address"
				}
			],
			"name": "renounceRole",
			"outputs": [],
			"stateMutability": "nonpayable",
			"type": "function"
		},
		{
			"inputs": [
				{
					"internalType": "address",
					"name": "id",
					"type": "address"
				}
			],
			"name": "revokeFirm",
			"outputs": [],
			"stateMutability": "nonpayable",
			"type": "function"
		},
		{
			"inputs": [
				{
					"internalType": "address",
					"name": "id",
					"type": "address"
				}
			],
			"name": "revokePA",
			"outputs": [],
			"stateMutability": "nonpayable",
			"type": "function"
		},
		{
			"inputs": [
				{
					"internalType": "bytes32",
					"name": "role",
					"type": "bytes32"
				},
				{
					"internalType": "address",
					"name": "account",
					"type": "address"
				}
			],
			"name": "revokeRole",
			"outputs": [],
			"stateMutability": "nonpayable",
			"type": "function"
		},
		{
			"inputs": [
				{
					"internalType": "uint256",
					"name": "_tenderKey",
					"type": "uint256"
				}
			],
			"name": "see_TenderDetails",
			"outputs": [
				{
					"internalType": "uint256",
					"name": "tender_id",
					"type": "uint256"
				},
				{
					"internalType": "string",
					"name": "tenderName",
					"type": "string"
				},
				{
					"internalType": "string",
					"name": "description",
					"type": "string"
				},
				{
					"internalType": "uint256[]",
					"name": "evaluation_weights",
					"type": "uint256[]"
				},
				{
					"internalType": "uint256",
					"name": "firms",
					"type": "uint256"
				},
				{
					"internalType": "address",
					"name": "winningContractor",
					"type": "address"
				}
			],
			"stateMutability": "view",
			"type": "function"
		},
		{
			"inputs": [
				{
					"internalType": "bytes4",
					"name": "interfaceId",
					"type": "bytes4"
				}
			],
			"name": "supportsInterface",
			"outputs": [
				{
					"internalType": "bool",
					"name": "",
					"type": "bool"
				}
			],
			"stateMutability": "view",
			"type": "function"
		}
	]
}